{
  "_format": "hh-sol-artifact-1",
  "contractName": "Submission",
  "sourceName": "contracts/contracts/Submission.sol",
  "abi": [
    {
      "inputs": [
        {
          "internalType": "address",
          "name": "_dcuToken",
          "type": "address"
        },
        {
          "internalType": "address",
          "name": "_rewardManager",
          "type": "address"
        },
        {
          "internalType": "uint256",
          "name": "_defaultRewardAmount",
          "type": "uint256"
        }
      ],
      "stateMutability": "nonpayable",
      "type": "constructor"
    },
    {
      "inputs": [],
      "name": "AccessControlBadConfirmation",
      "type": "error"
    },
    {
      "inputs": [
        {
          "internalType": "address",
          "name": "account",
          "type": "address"
        },
        {
          "internalType": "bytes32",
          "name": "neededRole",
          "type": "bytes32"
        }
      ],
      "name": "AccessControlUnauthorizedAccount",
      "type": "error"
    },
    {
      "inputs": [
        {
          "internalType": "address",
          "name": "owner",
          "type": "address"
        }
      ],
      "name": "OwnableInvalidOwner",
      "type": "error"
    },
    {
      "inputs": [
        {
          "internalType": "address",
          "name": "account",
          "type": "address"
        }
      ],
      "name": "OwnableUnauthorizedAccount",
      "type": "error"
    },
    {
      "inputs": [],
      "name": "ReentrancyGuardReentrantCall",
      "type": "error"
    },
    {
      "inputs": [
        {
          "internalType": "uint256",
          "name": "submissionId",
          "type": "uint256"
        }
      ],
      "name": "SUBMISSION__AlreadyApproved",
      "type": "error"
    },
    {
      "inputs": [
        {
          "internalType": "uint256",
          "name": "submissionId",
          "type": "uint256"
        }
      ],
      "name": "SUBMISSION__AlreadyRejected",
      "type": "error"
    },
    {
      "inputs": [
        {
          "internalType": "uint256",
          "name": "submissionId",
          "type": "uint256"
        }
      ],
      "name": "SUBMISSION__CannotRefundApprovedSubmission",
      "type": "error"
    },
    {
      "inputs": [
        {
          "internalType": "uint256",
          "name": "sent",
          "type": "uint256"
        },
        {
          "internalType": "uint256",
          "name": "required",
          "type": "uint256"
        }
      ],
      "name": "SUBMISSION__InsufficientSubmissionFee",
      "type": "error"
    },
    {
      "inputs": [],
      "name": "SUBMISSION__InvalidAddress",
      "type": "error"
    },
    {
      "inputs": [],
      "name": "SUBMISSION__InvalidSubmissionData",
      "type": "error"
    },
    {
      "inputs": [],
      "name": "SUBMISSION__NoRewardsAvailable",
      "type": "error"
    },
    {
      "inputs": [],
      "name": "SUBMISSION__RefundFailed",
      "type": "error"
    },
    {
      "inputs": [
        {
          "internalType": "uint256",
          "name": "submissionId",
          "type": "uint256"
        }
      ],
      "name": "SUBMISSION__SubmissionNotFound",
      "type": "error"
    },
    {
      "inputs": [
        {
          "internalType": "address",
          "name": "user",
          "type": "address"
        }
      ],
      "name": "SUBMISSION__Unauthorized",
      "type": "error"
    },
    {
      "anonymous": false,
      "inputs": [
        {
          "indexed": false,
          "internalType": "uint256",
          "name": "oldAmount",
          "type": "uint256"
        },
        {
          "indexed": false,
          "internalType": "uint256",
          "name": "newAmount",
          "type": "uint256"
        }
      ],
      "name": "DefaultRewardUpdated",
      "type": "event"
    },
    {
      "anonymous": false,
      "inputs": [
        {
          "indexed": true,
          "internalType": "address",
          "name": "user",
          "type": "address"
        },
        {
          "indexed": false,
          "internalType": "uint256",
          "name": "cleanupCount",
          "type": "uint256"
        },
        {
          "indexed": false,
          "internalType": "uint256",
          "name": "hypercertNumber",
          "type": "uint256"
        }
      ],
      "name": "HypercertEligible",
      "type": "event"
    },
    {
      "anonymous": false,
      "inputs": [
        {
          "indexed": true,
          "internalType": "address",
          "name": "user",
          "type": "address"
        },
        {
          "indexed": false,
          "internalType": "uint256",
          "name": "submissionId",
          "type": "uint256"
        },
        {
          "indexed": false,
          "internalType": "uint256",
          "name": "totalForms",
          "type": "uint256"
        }
      ],
      "name": "ImpactFormSubmitted",
      "type": "event"
    },
    {
      "anonymous": false,
      "inputs": [
        {
          "indexed": true,
          "internalType": "address",
          "name": "previousOwner",
          "type": "address"
        },
        {
          "indexed": true,
          "internalType": "address",
          "name": "newOwner",
          "type": "address"
        }
      ],
      "name": "OwnershipTransferred",
      "type": "event"
    },
    {
      "anonymous": false,
      "inputs": [
        {
          "indexed": true,
          "internalType": "address",
          "name": "oldContract",
          "type": "address"
        },
        {
          "indexed": true,
          "internalType": "address",
          "name": "newContract",
          "type": "address"
        }
      ],
      "name": "RecyclablesRewardContractUpdated",
      "type": "event"
    },
    {
      "anonymous": false,
      "inputs": [
        {
          "indexed": true,
          "internalType": "address",
          "name": "user",
          "type": "address"
        },
        {
          "indexed": true,
          "internalType": "uint256",
          "name": "submissionId",
          "type": "uint256"
        },
        {
          "indexed": false,
          "internalType": "string",
          "name": "recyclablesPhotoHash",
          "type": "string"
        },
        {
          "indexed": false,
          "internalType": "string",
          "name": "recyclablesReceiptHash",
          "type": "string"
        }
      ],
      "name": "RecyclablesSubmitted",
      "type": "event"
    },
    {
      "anonymous": false,
      "inputs": [
        {
          "indexed": true,
          "internalType": "address",
          "name": "referrer",
          "type": "address"
        },
        {
          "indexed": true,
          "internalType": "address",
          "name": "invitee",
          "type": "address"
        }
      ],
      "name": "ReferralRegistered",
      "type": "event"
    },
    {
      "anonymous": false,
      "inputs": [
        {
          "indexed": true,
          "internalType": "address",
          "name": "user",
          "type": "address"
        },
        {
          "indexed": false,
          "internalType": "uint256",
          "name": "amount",
          "type": "uint256"
        },
        {
          "indexed": false,
          "internalType": "uint256",
          "name": "submissionId",
          "type": "uint256"
        },
        {
          "indexed": false,
          "internalType": "uint256",
          "name": "timestamp",
          "type": "uint256"
        }
      ],
      "name": "RewardAvailable",
      "type": "event"
    },
    {
      "anonymous": false,
      "inputs": [
        {
          "indexed": true,
          "internalType": "bytes32",
          "name": "role",
          "type": "bytes32"
        },
        {
          "indexed": true,
          "internalType": "bytes32",
          "name": "previousAdminRole",
          "type": "bytes32"
        },
        {
          "indexed": true,
          "internalType": "bytes32",
          "name": "newAdminRole",
          "type": "bytes32"
        }
      ],
      "name": "RoleAdminChanged",
      "type": "event"
    },
    {
      "anonymous": false,
      "inputs": [
        {
          "indexed": true,
          "internalType": "bytes32",
          "name": "role",
          "type": "bytes32"
        },
        {
          "indexed": true,
          "internalType": "address",
          "name": "account",
          "type": "address"
        },
        {
          "indexed": true,
          "internalType": "address",
          "name": "sender",
          "type": "address"
        }
      ],
      "name": "RoleGranted",
      "type": "event"
    },
    {
      "anonymous": false,
      "inputs": [
        {
          "indexed": true,
          "internalType": "bytes32",
          "name": "role",
          "type": "bytes32"
        },
        {
          "indexed": true,
          "internalType": "address",
          "name": "account",
          "type": "address"
        },
        {
          "indexed": true,
          "internalType": "address",
          "name": "sender",
          "type": "address"
        }
      ],
      "name": "RoleRevoked",
      "type": "event"
    },
    {
      "anonymous": false,
      "inputs": [
        {
          "indexed": true,
          "internalType": "uint256",
          "name": "submissionId",
          "type": "uint256"
        },
        {
          "indexed": true,
          "internalType": "address",
          "name": "approver",
          "type": "address"
        },
        {
          "indexed": false,
          "internalType": "uint256",
          "name": "timestamp",
          "type": "uint256"
        }
      ],
      "name": "SubmissionApproved",
      "type": "event"
    },
    {
      "anonymous": false,
      "inputs": [
        {
          "indexed": true,
          "internalType": "uint256",
          "name": "submissionId",
          "type": "uint256"
        },
        {
          "indexed": true,
          "internalType": "address",
          "name": "submitter",
          "type": "address"
        },
        {
          "indexed": false,
          "internalType": "string",
          "name": "dataURI",
          "type": "string"
        },
        {
          "indexed": false,
          "internalType": "uint256",
          "name": "timestamp",
          "type": "uint256"
        }
      ],
      "name": "SubmissionCreated",
      "type": "event"
    },
    {
      "anonymous": false,
      "inputs": [
        {
          "indexed": false,
          "internalType": "uint256",
          "name": "newFee",
          "type": "uint256"
        },
        {
          "indexed": false,
          "internalType": "bool",
          "name": "enabled",
          "type": "bool"
        }
      ],
      "name": "SubmissionFeeUpdated",
      "type": "event"
    },
    {
      "anonymous": false,
      "inputs": [
        {
          "indexed": true,
          "internalType": "uint256",
          "name": "submissionId",
          "type": "uint256"
        },
        {
          "indexed": true,
          "internalType": "address",
          "name": "approver",
          "type": "address"
        },
        {
          "indexed": false,
          "internalType": "uint256",
          "name": "timestamp",
          "type": "uint256"
        }
      ],
      "name": "SubmissionRejected",
      "type": "event"
    },
    {
      "anonymous": false,
      "inputs": [
        {
          "indexed": true,
          "internalType": "address",
          "name": "oldTreasury",
          "type": "address"
        },
        {
          "indexed": true,
          "internalType": "address",
          "name": "newTreasury",
          "type": "address"
        }
      ],
      "name": "TreasuryUpdated",
      "type": "event"
    },
    {
      "inputs": [],
      "name": "ADMIN_ROLE",
      "outputs": [
        {
          "internalType": "bytes32",
          "name": "",
          "type": "bytes32"
        }
      ],
      "stateMutability": "view",
      "type": "function"
    },
    {
      "inputs": [],
      "name": "DEFAULT_ADMIN_ROLE",
      "outputs": [
        {
          "internalType": "bytes32",
          "name": "",
          "type": "bytes32"
        }
      ],
      "stateMutability": "view",
      "type": "function"
    },
    {
      "inputs": [],
      "name": "VERIFIER_ROLE",
      "outputs": [
        {
          "internalType": "bytes32",
          "name": "",
          "type": "bytes32"
        }
      ],
      "stateMutability": "view",
      "type": "function"
    },
    {
      "inputs": [
        {
          "internalType": "uint256",
          "name": "submissionId",
          "type": "uint256"
        }
      ],
      "name": "approveSubmission",
      "outputs": [],
      "stateMutability": "nonpayable",
      "type": "function"
    },
    {
      "inputs": [
        {
          "internalType": "uint256",
          "name": "submissionId",
          "type": "uint256"
        },
        {
          "internalType": "string",
          "name": "recyclablesPhotoHash",
          "type": "string"
        },
        {
          "internalType": "string",
          "name": "recyclablesReceiptHash",
          "type": "string"
        }
      ],
      "name": "attachRecyclables",
      "outputs": [],
      "stateMutability": "nonpayable",
      "type": "function"
    },
    {
      "inputs": [
        {
          "internalType": "string",
          "name": "dataURI",
          "type": "string"
        },
        {
          "internalType": "string",
          "name": "beforePhotoHash",
          "type": "string"
        },
        {
          "internalType": "string",
          "name": "afterPhotoHash",
          "type": "string"
        },
        {
          "internalType": "string",
          "name": "impactFormDataHash",
          "type": "string"
        },
        {
          "internalType": "int256",
          "name": "lat",
          "type": "int256"
        },
        {
          "internalType": "int256",
          "name": "lng",
          "type": "int256"
        },
        {
          "internalType": "address",
          "name": "referrer",
          "type": "address"
        }
      ],
      "name": "createSubmission",
      "outputs": [
        {
          "internalType": "uint256",
          "name": "",
          "type": "uint256"
        }
      ],
      "stateMutability": "payable",
      "type": "function"
    },
    {
      "inputs": [],
      "name": "dcuToken",
      "outputs": [
        {
          "internalType": "contract IDCUToken",
          "name": "",
          "type": "address"
        }
      ],
      "stateMutability": "view",
      "type": "function"
    },
    {
      "inputs": [],
      "name": "defaultRewardAmount",
      "outputs": [
        {
          "internalType": "uint256",
          "name": "",
          "type": "uint256"
        }
      ],
      "stateMutability": "view",
      "type": "function"
    },
    {
      "inputs": [],
      "name": "feeEnabled",
      "outputs": [
        {
          "internalType": "bool",
          "name": "",
          "type": "bool"
        }
      ],
      "stateMutability": "view",
      "type": "function"
    },
    {
      "inputs": [
        {
          "internalType": "address",
          "name": "user",
          "type": "address"
        }
      ],
      "name": "getHypercertEligibility",
      "outputs": [
        {
          "internalType": "uint256",
          "name": "cleanupCount",
          "type": "uint256"
        },
        {
          "internalType": "uint256",
          "name": "hypercertCount",
          "type": "uint256"
        },
        {
          "internalType": "bool",
          "name": "isEligible",
          "type": "bool"
        }
      ],
      "stateMutability": "view",
      "type": "function"
    },
    {
      "inputs": [
        {
          "internalType": "bytes32",
          "name": "role",
          "type": "bytes32"
        }
      ],
      "name": "getRoleAdmin",
      "outputs": [
        {
          "internalType": "bytes32",
          "name": "",
          "type": "bytes32"
        }
      ],
      "stateMutability": "view",
      "type": "function"
    },
    {
      "inputs": [
        {
          "internalType": "uint256",
          "name": "startIndex",
          "type": "uint256"
        },
        {
          "internalType": "uint256",
          "name": "batchSize",
          "type": "uint256"
        }
      ],
      "name": "getSubmissionBatch",
      "outputs": [
        {
          "components": [
            {
              "internalType": "uint256",
              "name": "id",
              "type": "uint256"
            },
            {
              "internalType": "address",
              "name": "submitter",
              "type": "address"
            },
            {
              "internalType": "string",
              "name": "dataURI",
              "type": "string"
            },
            {
              "internalType": "string",
              "name": "beforePhotoHash",
              "type": "string"
            },
            {
              "internalType": "string",
              "name": "afterPhotoHash",
              "type": "string"
            },
            {
              "internalType": "string",
              "name": "impactFormDataHash",
              "type": "string"
            },
            {
              "internalType": "int256",
              "name": "latitude",
              "type": "int256"
            },
            {
              "internalType": "int256",
              "name": "longitude",
              "type": "int256"
            },
            {
              "internalType": "uint256",
              "name": "timestamp",
              "type": "uint256"
            },
            {
              "internalType": "enum Submission.SubmissionStatus",
              "name": "status",
              "type": "uint8"
            },
            {
              "internalType": "address",
              "name": "approver",
              "type": "address"
            },
            {
              "internalType": "uint256",
              "name": "processedTimestamp",
              "type": "uint256"
            },
            {
              "internalType": "bool",
              "name": "rewarded",
              "type": "bool"
            },
            {
              "internalType": "uint256",
              "name": "feePaid",
              "type": "uint256"
            },
            {
              "internalType": "bool",
              "name": "feeRefunded",
              "type": "bool"
            },
            {
              "internalType": "bool",
              "name": "hasImpactForm",
              "type": "bool"
            },
            {
              "internalType": "bool",
              "name": "hasRecyclables",
              "type": "bool"
            },
            {
              "internalType": "string",
              "name": "recyclablesPhotoHash",
              "type": "string"
            },
            {
              "internalType": "string",
              "name": "recyclablesReceiptHash",
              "type": "string"
            }
          ],
          "internalType": "struct Submission.CleanupSubmission[]",
          "name": "",
          "type": "tuple[]"
        }
      ],
      "stateMutability": "view",
      "type": "function"
    },
    {
      "inputs": [
        {
          "internalType": "uint256",
          "name": "submissionId",
          "type": "uint256"
        }
      ],
      "name": "getSubmissionDetails",
      "outputs": [
        {
          "components": [
            {
              "internalType": "uint256",
              "name": "id",
              "type": "uint256"
            },
            {
              "internalType": "address",
              "name": "submitter",
              "type": "address"
            },
            {
              "internalType": "string",
              "name": "dataURI",
              "type": "string"
            },
            {
              "internalType": "string",
              "name": "beforePhotoHash",
              "type": "string"
            },
            {
              "internalType": "string",
              "name": "afterPhotoHash",
              "type": "string"
            },
            {
              "internalType": "string",
              "name": "impactFormDataHash",
              "type": "string"
            },
            {
              "internalType": "int256",
              "name": "latitude",
              "type": "int256"
            },
            {
              "internalType": "int256",
              "name": "longitude",
              "type": "int256"
            },
            {
              "internalType": "uint256",
              "name": "timestamp",
              "type": "uint256"
            },
            {
              "internalType": "enum Submission.SubmissionStatus",
              "name": "status",
              "type": "uint8"
            },
            {
              "internalType": "address",
              "name": "approver",
              "type": "address"
            },
            {
              "internalType": "uint256",
              "name": "processedTimestamp",
              "type": "uint256"
            },
            {
              "internalType": "bool",
              "name": "rewarded",
              "type": "bool"
            },
            {
              "internalType": "uint256",
              "name": "feePaid",
              "type": "uint256"
            },
            {
              "internalType": "bool",
              "name": "feeRefunded",
              "type": "bool"
            },
            {
              "internalType": "bool",
              "name": "hasImpactForm",
              "type": "bool"
            },
            {
              "internalType": "bool",
              "name": "hasRecyclables",
              "type": "bool"
            },
            {
              "internalType": "string",
              "name": "recyclablesPhotoHash",
              "type": "string"
            },
            {
              "internalType": "string",
              "name": "recyclablesReceiptHash",
              "type": "string"
            }
          ],
          "internalType": "struct Submission.CleanupSubmission",
          "name": "",
          "type": "tuple"
        }
      ],
      "stateMutability": "view",
      "type": "function"
    },
    {
      "inputs": [
        {
          "internalType": "address",
          "name": "user",
          "type": "address"
        }
      ],
      "name": "getSubmissionsByUser",
      "outputs": [
        {
          "internalType": "uint256[]",
          "name": "",
          "type": "uint256[]"
        }
      ],
      "stateMutability": "view",
      "type": "function"
    },
    {
      "inputs": [
        {
          "internalType": "bytes32",
          "name": "role",
          "type": "bytes32"
        },
        {
          "internalType": "address",
          "name": "account",
          "type": "address"
        }
      ],
      "name": "grantRole",
      "outputs": [],
      "stateMutability": "nonpayable",
      "type": "function"
    },
    {
      "inputs": [
        {
          "internalType": "bytes32",
          "name": "role",
          "type": "bytes32"
        },
        {
          "internalType": "address",
          "name": "account",
          "type": "address"
        }
      ],
      "name": "hasRole",
      "outputs": [
        {
          "internalType": "bool",
          "name": "",
          "type": "bool"
        }
      ],
      "stateMutability": "view",
      "type": "function"
    },
    {
      "inputs": [],
      "name": "impactProductNFT",
      "outputs": [
        {
          "internalType": "contract IImpactProductNFT",
          "name": "",
          "type": "address"
        }
      ],
      "stateMutability": "view",
      "type": "function"
    },
    {
      "inputs": [],
      "name": "owner",
      "outputs": [
        {
          "internalType": "address",
          "name": "",
          "type": "address"
        }
      ],
      "stateMutability": "view",
      "type": "function"
    },
    {
      "inputs": [],
      "name": "recyclablesRewardContract",
      "outputs": [
        {
          "internalType": "address",
          "name": "",
          "type": "address"
        }
      ],
      "stateMutability": "view",
      "type": "function"
    },
    {
      "inputs": [
        {
          "internalType": "address",
          "name": "",
          "type": "address"
        }
      ],
      "name": "referrers",
      "outputs": [
        {
          "internalType": "address",
          "name": "",
          "type": "address"
        }
      ],
      "stateMutability": "view",
      "type": "function"
    },
    {
      "inputs": [
        {
          "internalType": "uint256",
          "name": "submissionId",
          "type": "uint256"
        }
      ],
      "name": "rejectSubmission",
      "outputs": [],
      "stateMutability": "nonpayable",
      "type": "function"
    },
    {
      "inputs": [],
      "name": "renounceOwnership",
      "outputs": [],
      "stateMutability": "nonpayable",
      "type": "function"
    },
    {
      "inputs": [
        {
          "internalType": "bytes32",
          "name": "role",
          "type": "bytes32"
        },
        {
          "internalType": "address",
          "name": "callerConfirmation",
          "type": "address"
        }
      ],
      "name": "renounceRole",
      "outputs": [],
      "stateMutability": "nonpayable",
      "type": "function"
    },
    {
      "inputs": [
        {
          "internalType": "bytes32",
          "name": "role",
          "type": "bytes32"
        },
        {
          "internalType": "address",
          "name": "account",
          "type": "address"
        }
      ],
      "name": "revokeRole",
      "outputs": [],
      "stateMutability": "nonpayable",
      "type": "function"
    },
    {
      "inputs": [],
      "name": "rewardManager",
      "outputs": [
        {
          "internalType": "contract DCURewardManager",
          "name": "",
          "type": "address"
        }
      ],
      "stateMutability": "view",
      "type": "function"
    },
    {
      "inputs": [
        {
          "internalType": "address",
          "name": "_impactProductNFT",
          "type": "address"
        }
      ],
      "name": "setImpactProductNFT",
      "outputs": [],
      "stateMutability": "nonpayable",
      "type": "function"
    },
    {
      "inputs": [],
      "name": "submissionCount",
      "outputs": [
        {
          "internalType": "uint256",
          "name": "",
          "type": "uint256"
        }
      ],
      "stateMutability": "view",
      "type": "function"
    },
    {
      "inputs": [],
      "name": "submissionFee",
      "outputs": [
        {
          "internalType": "uint256",
          "name": "",
          "type": "uint256"
        }
      ],
      "stateMutability": "view",
      "type": "function"
    },
    {
      "inputs": [
        {
          "internalType": "uint256",
          "name": "",
          "type": "uint256"
        }
      ],
      "name": "submissions",
      "outputs": [
        {
          "internalType": "uint256",
          "name": "id",
          "type": "uint256"
        },
        {
          "internalType": "address",
          "name": "submitter",
          "type": "address"
        },
        {
          "internalType": "string",
          "name": "dataURI",
          "type": "string"
        },
        {
          "internalType": "string",
          "name": "beforePhotoHash",
          "type": "string"
        },
        {
          "internalType": "string",
          "name": "afterPhotoHash",
          "type": "string"
        },
        {
          "internalType": "string",
          "name": "impactFormDataHash",
          "type": "string"
        },
        {
          "internalType": "int256",
          "name": "latitude",
          "type": "int256"
        },
        {
          "internalType": "int256",
          "name": "longitude",
          "type": "int256"
        },
        {
          "internalType": "uint256",
          "name": "timestamp",
          "type": "uint256"
        },
        {
          "internalType": "enum Submission.SubmissionStatus",
          "name": "status",
          "type": "uint8"
        },
        {
          "internalType": "address",
          "name": "approver",
          "type": "address"
        },
        {
          "internalType": "uint256",
          "name": "processedTimestamp",
          "type": "uint256"
        },
        {
          "internalType": "bool",
          "name": "rewarded",
          "type": "bool"
        },
        {
          "internalType": "uint256",
          "name": "feePaid",
          "type": "uint256"
        },
        {
          "internalType": "bool",
          "name": "feeRefunded",
          "type": "bool"
        },
        {
          "internalType": "bool",
          "name": "hasImpactForm",
          "type": "bool"
        },
        {
          "internalType": "bool",
          "name": "hasRecyclables",
          "type": "bool"
        },
        {
          "internalType": "string",
          "name": "recyclablesPhotoHash",
          "type": "string"
        },
        {
          "internalType": "string",
          "name": "recyclablesReceiptHash",
          "type": "string"
        }
      ],
      "stateMutability": "view",
      "type": "function"
    },
    {
      "inputs": [
        {
          "internalType": "bytes4",
          "name": "interfaceId",
          "type": "bytes4"
        }
      ],
      "name": "supportsInterface",
      "outputs": [
        {
          "internalType": "bool",
          "name": "",
          "type": "bool"
        }
      ],
      "stateMutability": "view",
      "type": "function"
    },
    {
      "inputs": [],
      "name": "totalFeesCollected",
      "outputs": [
        {
          "internalType": "uint256",
          "name": "",
          "type": "uint256"
        }
      ],
      "stateMutability": "view",
      "type": "function"
    },
    {
      "inputs": [],
      "name": "totalFeesRefunded",
      "outputs": [
        {
          "internalType": "uint256",
          "name": "",
          "type": "uint256"
        }
      ],
      "stateMutability": "view",
      "type": "function"
    },
    {
      "inputs": [
        {
          "internalType": "address",
          "name": "newOwner",
          "type": "address"
        }
      ],
      "name": "transferOwnership",
      "outputs": [],
      "stateMutability": "nonpayable",
      "type": "function"
    },
    {
      "inputs": [],
      "name": "treasury",
      "outputs": [
        {
          "internalType": "address payable",
          "name": "",
          "type": "address"
        }
      ],
      "stateMutability": "view",
      "type": "function"
    },
    {
      "inputs": [
        {
          "internalType": "uint256",
          "name": "newRewardAmount",
          "type": "uint256"
        }
      ],
      "name": "updateDefaultReward",
      "outputs": [],
      "stateMutability": "nonpayable",
      "type": "function"
    },
    {
      "inputs": [
        {
          "internalType": "address",
          "name": "_newRecyclablesRewardContract",
          "type": "address"
        }
      ],
      "name": "updateRecyclablesRewardContract",
      "outputs": [],
      "stateMutability": "nonpayable",
      "type": "function"
    },
    {
      "inputs": [
        {
          "internalType": "uint256",
          "name": "newFee",
          "type": "uint256"
        },
        {
          "internalType": "bool",
          "name": "enabled",
          "type": "bool"
        }
      ],
      "name": "updateSubmissionFee",
      "outputs": [],
      "stateMutability": "nonpayable",
      "type": "function"
    },
    {
      "inputs": [
        {
          "internalType": "address payable",
          "name": "newTreasury",
          "type": "address"
        }
      ],
      "name": "updateTreasury",
      "outputs": [],
      "stateMutability": "nonpayable",
      "type": "function"
    },
    {
      "inputs": [
        {
          "internalType": "address",
          "name": "",
          "type": "address"
        }
      ],
      "name": "userCleanupCount",
      "outputs": [
        {
          "internalType": "uint256",
          "name": "",
          "type": "uint256"
        }
      ],
      "stateMutability": "view",
      "type": "function"
    },
    {
      "inputs": [
        {
          "internalType": "address",
          "name": "",
          "type": "address"
        }
      ],
      "name": "userHypercertCount",
      "outputs": [
        {
          "internalType": "uint256",
          "name": "",
          "type": "uint256"
        }
      ],
      "stateMutability": "view",
      "type": "function"
    },
    {
      "inputs": [
        {
          "internalType": "address",
          "name": "",
          "type": "address"
        }
      ],
      "name": "userImpactFormCount",
      "outputs": [
        {
          "internalType": "uint256",
          "name": "",
          "type": "uint256"
        }
      ],
      "stateMutability": "view",
      "type": "function"
    },
    {
      "inputs": [
        {
          "internalType": "address",
          "name": "",
          "type": "address"
        },
        {
          "internalType": "uint256",
          "name": "",
          "type": "uint256"
        }
      ],
      "name": "userSubmissions",
      "outputs": [
        {
          "internalType": "uint256",
          "name": "",
          "type": "uint256"
        }
      ],
      "stateMutability": "view",
      "type": "function"
    }
  ],
  "bytecode": "0x60803461016057601f6131b038819003918201601f19168301916001600160401b0383118484101761016557808492606094604052833981010312610160576100478161017b565b9060406100566020830161017b565b91015191331561014a5760008054336001600160a01b0319821681178355916001600160a01b03909116907f8be0079c531659141344cd1fd0a4f28419497f9722a3daafe3b4186f6b6457e09080a3600180556000600b55600c80546001600160a81b03191690556001600160a01b0316908115610139576001600160a01b03169081156101395760018060a01b0319600354161760035560018060a01b03196004541617600455600a5561010a3361018f565b506101143361020b565b506000600b55600c80546001600160a81b0319169055604051612eac90816102a48239f35b637d575cb560e01b60005260046000fd5b631e4fbdf760e01b600052600060045260246000fd5b600080fd5b634e487b7160e01b600052604160045260246000fd5b51906001600160a01b038216820361016057565b6001600160a01b0381166000908152600080516020613170833981519152602052604090205460ff16610205576001600160a01b0316600081815260008051602061317083398151915260205260408120805460ff191660011790553391906000805160206131508339815191528180a4600190565b50600090565b6001600160a01b0381166000908152600080516020613190833981519152602052604090205460ff16610205576001600160a01b0316600081815260008051602061319083398151915260205260408120805460ff191660011790553391907fa49807205ce4d355092ef5a8a18f56e8913cf4a201fbe287825b095693c21775906000805160206131508339815191529080a460019056fe60a080604052600436101561001357600080fd5b600090813560e01c90816301ffc9a7146125ce5750806303387c2114611b655780630c4f14be14611aef5780630f4ef8a614611ac857806314cde16e14611aa15780632405bc0514611a04578063248a9ca3146119ce5780632976100f146119a75780632ab24746146119515780632d83b7ca1461185d5780632f2ff15d1461181c578063308636f2146117e457806336568abe1461178657806343084e06146117165780634a3b68cc146116dc5780635fb971fe146116a457806360c6d8ae1461168657806361d027b31461165c57806368250d69146115e25780636ec02be9146115c4578063715018a61461155e57806375b238fc146115235780637f51bb1f1461144d57806380fd0fb314610ef05780638d35539514610c715780638da5cb5b14610c4b57806391d1485414610bfe57806397dfe71a14610bd75780639b7e018014610b80578063a217fddf14610b64578063a771ebc714610b41578063ab2fea2b1461079f578063ad73349e146105c1578063aec47e1f14610589578063b9011523146104d4578063c14f7ea81461037b578063d547741f14610331578063e7705db6146102f6578063e8888942146102d8578063ee2f00c2146102ba578063f07bee551461029c5763f2fde38b146101ef57600080fd5b34610299576020600319360112610299576001600160a01b036102106126a1565b610218612be0565b16801561026d576001600160a01b0382548273ffffffffffffffffffffffffffffffffffffffff198216178455167f8be0079c531659141344cd1fd0a4f28419497f9722a3daafe3b4186f6b6457e08380a380f35b6024827f1e4fbdf700000000000000000000000000000000000000000000000000000000815280600452fd5b80fd5b50346102995780600319360112610299576020600e54604051908152f35b50346102995780600319360112610299576020600a54604051908152f35b50346102995780600319360112610299576020600b54604051908152f35b503461029957806003193601126102995760206040517f0ce23c3e399818cfee81a7ab0880f714e53d7672b08df0fa62f2843416e1ea098152f35b5034610299576040600319360112610299576103776004356103516126b7565b9061037261036d82600052600260205260016040600020015490565b612d06565b612de7565b5080f35b503461029957602060031936011261029957600435610398612ba5565b6103a0612c94565b6009548110156104c2578082526007602052604082206009810160ff81541660038110156104ae5760028114610482576001146104565780547fffffffffffffffffffffff000000000000000000000000000000000000000000163360081b74ffffffffffffffffffffffffffffffffffffffff0016176002179055600a42910155604051904282527f6c80f4bc335d4e2ff9e4918a1ef598d85408309aa4afd04b01708afced9d77ac60203393a36001805580f35b602484847f58fb3f90000000000000000000000000000000000000000000000000000000008252600452fd5b602485857f65d95826000000000000000000000000000000000000000000000000000000008252600452fd5b602485634e487b7160e01b81526021600452fd5b63a503ddf560e01b8252600452602490fd5b5034610299576020600319360112610299576001600160a01b036104f66126a1565b168152600860205260408120604051908160208254918281520190819285526020852090855b8181106105735750505082610532910383612909565b604051928392602084019060208552518091526040840192915b81811061055a575050500390f35b825184528594506020938401939092019160010161054c565b825484526020909301926001928301920161051c565b50346102995760206003193601126102995760406020916001600160a01b036105b06126a1565b168152601183522054604051908152f35b503461029957602060031936011261029957600435815260076020526040902080549060018101546001600160a01b031681600281016106009061292c565b9161060d6003830161292c565b9261061a6004840161292c565b936106276005850161292c565b946006850154956007860154600887015491600988015493600a89015495600b8a015460ff1697600c8b015499600d8c01549b600e016106669061292c565b9d600f016106739061292c565b9e60405160805260805152608051602001526080516040016102609052608051610260016106a0916126cd565b6080518103608051606001526106b5916126cd565b6080518103608051608001526106ca916126cd565b608051810360805160a001526106df916126cd565b9760805160c0015260805160e0015260805161010001526080516101200160ff82169061070b9161270e565b60081c6001600160a01b031660805161014001526080516101600152151560805161018001526080516101a0015260ff811615156080516101c001528060081c60ff1615156080516101e0015260101c60ff16151560805161020001526080518103608051610220015261077e916126cd565b906080518203608051610240015260805191610799916126cd565b03608051f35b50346102995760606003193601126102995760043560243567ffffffffffffffff8111610b3d576107d490369060040161266e565b9060443567ffffffffffffffff8111610b39576107f590369060040161266e565b610800939193612ba5565b600954851015610b26578486526007602052604086206001600160a01b036001820154163303610afa5760ff6009820154166003811015610ae657610ad3578215610aab57600d8101620100007fffffffffffffffffffffffffffffffffffffffffffffffffffffffffff00ffff825416179055600e81019067ffffffffffffffff8411610a975761089c84610896845461289c565b84612a46565b879184601f8111600114610a2e57806108cc91600f958c91610a23575b506000198260011b9260031b1c19161790565b90555b0167ffffffffffffffff8211610a0f576108f3826108ed835461289c565b83612a46565b86601f831160011461098557916109709161094682807fc7043680eafc77ed218a061a2d658bbdef182aca2eee182674275223f57f544f9897968c9161097a57506000198260011b9260031b1c19161790565b90555b610960604051948594604086526040860191612aa7565b9083820360208501523396612aa7565b0390a36001805580f35b9050890135386108b9565b8188526020882090601f198416895b8181106109f75750916109709391857fc7043680eafc77ed218a061a2d658bbdef182aca2eee182674275223f57f544f98979694106109dd575b5050600182811b019055610949565b60001960f88560031b161c199089013516905538806109ce565b9192602060018192868c013581550194019201610994565b602487634e487b7160e01b81526041600452fd5b9050880135386108b9565b601f191692818a5260208a2090868b955b808710610a7957600f965010610a5f575b5050600185811b0190556108cf565b60001960f88860031b161c19908801351690553880610a50565b89830135845560209687019660019094019390920191889150610a3f565b602488634e487b7160e01b81526041600452fd5b6004877f6395ca9d000000000000000000000000000000000000000000000000000000008152fd5b6024878763a503ddf560e01b8252600452fd5b602488634e487b7160e01b81526021600452fd5b6024877fd328842a00000000000000000000000000000000000000000000000000000000815233600452fd5b6024868663a503ddf560e01b8252600452fd5b8480fd5b8280fd5b5034610299578060031936011261029957602060ff600c54166040519015158152f35b5034610299578060031936011261029957602090604051908152f35b503461029957604060031936011261029957610b9a6126a1565b6001600160a01b0316815260086020526040812080546024359290831015610299576020610bc8848461286e565b90549060031b1c604051908152f35b503461029957806003193601126102995760206001600160a01b0360065416604051908152f35b5034610299576040600319360112610299576001600160a01b036040610c226126b7565b9260043581526002602052209116600052602052602060ff604060002054166040519015158152f35b50346102995780600319360112610299576001600160a01b036020915416604051908152f35b503461029957604060031936011261029957600435610c92602435826129d0565b600954808211610ee8575b50818103908111610ed457610cb181612b79565b91610cbf6040519384612909565b818352601f19610cce83612b79565b01845b818110610ebd575050835b828110610d665783856040519182916020830160208452825180915260408401602060408360051b870101940192905b828210610d1b57505050500390f35b91936020610d56827fffffffffffffffffffffffffffffffffffffffffffffffffffffffffffffffc060019597998495030186528851612731565b9601920192018594939192610d0c565b80610d73600192846129d0565b8652600760205260408620610e9b600f60405192610d90846128d6565b805484526001600160a01b0386820154166020850152610db26002820161292c565b6040850152610dc36003820161292c565b6060850152610dd46004820161292c565b6080850152610de56005820161292c565b60a0850152600681015460c0850152600781015460e085015260088101546101008501526001600160a01b036009820154610e2760ff82166101208801612a3a565b60081c16610140850152600a81015461016085015260ff600b820154161515610180850152600c8101546101a085015260ff600d82015481811615156101c0870152818160081c1615156101e087015260101c161515610200850152610e8f600e820161292c565b6102208501520161292c565b610240820152610eab8287612b91565b52610eb68186612b91565b5001610cdc565b602090610ec8612ac8565b82828801015201610cd1565b602483634e487b7160e01b81526011600452fd5b905038610c9d565b503461029957602060031936011261029957600435610f0d612ba5565b610f15612c94565b6009548110156104c257808252600760205260408220906009820160ff81541660038110156104ae5760018114611421576002146113f55780547fffffffffffffffffffffff000000000000000000000000000000000000000000163360081b74ffffffffffffffffffffffffffffffffffffffff001617600117905542600a83015560018201916001600160a01b038354168452601160205260408420610fbd8154612a98565b9055600b8101805460ff811615611307575b5050836001600160a01b0360045416803b15611303578180916024604051809481937fe9ecfef30000000000000000000000000000000000000000000000000000000083523360048401525af16112ee575b5050600d0160ff815460081c16806112cf575b61124c575b5460101c60ff1680611238575b6111ac575b604051904282527f7b002445698eb657f0fbae44aa606b44c52031b120c29714c5047dbaad754e7e60203393a36001600160a01b03600554169081611093575b826001805580f35b602460606001600160a01b0383541693604051928380927f4ca4b2d30000000000000000000000000000000000000000000000000000000082528760048301525afa9081156111a157849161116f575b508015159081611163575b501561108b576001600160a01b039183526012602052604083206111128154612a98565b9055541680825260116020527f24ba76eb50c413d72b5a9eca944e9d229b146a9f0267e9bfa960a3bd29cf7efd60408084205483855260126020528185205482519182526020820152a2388061108b565b600a91500615386110ee565b611191915060603d60601161119a575b6111898183612909565b810190612b5e565b915050386110e3565b503d61117f565b6040513d86823e3d90fd5b826001600160a01b03600654166001600160a01b0384541690803b15610b3d576040517f3c9cbcfb0000000000000000000000000000000000000000000000000000000081526001600160a01b039290921660048301526024820184905282908290604490829084905af1611223575b505061104b565b8161122d91612909565b610b3d57823861121c565b506001600160a01b03600654161515611046565b836001600160a01b03600454166001600160a01b03855416813b15610b3d5782916044839260405194859384927f76e174830000000000000000000000000000000000000000000000000000000084526004840152600160248401525af16112b6575b5050611039565b816112c091612909565b6112cb5783386112af565b8380fd5b506001600160a01b038354168452601060205260408420541515611034565b816112f891612909565b6112cb578338611021565b5080fd5b60ff19600191161790556001600160a01b0360045416846001600160a01b0385541691600a5490803b15610b3d576040517fa8031a1d0000000000000000000000000000000000000000000000000000000081526001600160a01b0394909416600485015260248401919091528290604490829084905af180156113ea576113d6575b506001600160a01b038354167ff40faa7df7ca2f9cf7f989dd9777817f80396577be8b64cda11d602cce8100636060600a54604051908152856020820152426040820152a23880610fcf565b846113e391959295612909565b923861138a565b6040513d87823e3d90fd5b602484837f65d95826000000000000000000000000000000000000000000000000000000008252600452fd5b602485847f58fb3f90000000000000000000000000000000000000000000000000000000008252600452fd5b5034610299576020600319360112610299576004356001600160a01b03811690818103610b3d5761147c612be0565b81156114fb576001600160a01b039074ffffffffffffffffffffffffffffffffffffffff00600c549160081b167fffffffffffffffffffffff0000000000000000000000000000000000000000ff821617600c5560081c167f4ab5be82436d353e61ca18726e984e561f5c1cc7c6d38b29d2553c790434705a8380a380f35b6004837f7d575cb5000000000000000000000000000000000000000000000000000000008152fd5b503461029957806003193601126102995760206040517fa49807205ce4d355092ef5a8a18f56e8913cf4a201fbe287825b095693c217758152f35b5034610299578060031936011261029957611577612be0565b806001600160a01b03815473ffffffffffffffffffffffffffffffffffffffff1981168355167f8be0079c531659141344cd1fd0a4f28419497f9722a3daafe3b4186f6b6457e08280a380f35b50346102995780600319360112610299576020600954604051908152f35b5034610299576020600319360112610299576001600160a01b036116046126a1565b61160c612be0565b1680156116345773ffffffffffffffffffffffffffffffffffffffff19600554161760055580f35b6004827f7d575cb5000000000000000000000000000000000000000000000000000000008152fd5b503461029957806003193601126102995760206001600160a01b03600c5460081c16604051908152f35b50346102995780600319360112610299576020600d54604051908152f35b50346102995760206003193601126102995760406020916001600160a01b036116cb6126a1565b168152601283522054604051908152f35b5034610299576020600319360112610299576001600160a01b036040602092826117046126a1565b168152600f8452205416604051908152f35b503461029957604060031936011261029957600435602435801515809103610b3d577fdb61f5e56fdf79532bafa01b931004c38b120f7e0725a0687f3ebdc25906f0ed91604091611765612c22565b81600b5560ff19600c541660ff821617600c5582519182526020820152a180f35b5034610299576040600319360112610299576117a06126b7565b336001600160a01b038216036117bc5761037790600435612de7565b6004827f6697b232000000000000000000000000000000000000000000000000000000008152fd5b50346102995760206003193601126102995760406020916001600160a01b0361180b6126a1565b168152601083522054604051908152f35b50346102995760406003193601126102995761037760043561183c6126b7565b9061185861036d82600052600260205260016040600020015490565b612d4d565b5034610299576020600319360112610299576001600160a01b0361187f6126a1565b16808252601160205260408220549080835260126020526040832054906001600160a01b03600554169081156000146118cd575050606092905b604051928352602083015215156040820152f35b6060906024604051809481937f4ca4b2d300000000000000000000000000000000000000000000000000000000835260048301525afa9081156111a15760609491611931575b508015159081611925575b50906118b9565b600a915006153861191e565b6119489150843d861161119a576111898183612909565b91505038611913565b5034610299576020600319360112610299577f0b7bb4837902f88944384dbc0de70767a2428717aa96b1a96daecc9104f3e2266040600435611991612c22565b600a549080600a5582519182526020820152a180f35b503461029957806003193601126102995760206001600160a01b0360055416604051908152f35b50346102995760206003193601126102995760206119fc600435600052600260205260016040600020015490565b604051908152f35b50346102995760206003193601126102995760043590611a22612ac8565b50600954821015611a8f5780611a8b9260409252600760205220611a71600f60405192611a4e846128d6565b805484526001600160a01b036001820154166020850152610db26002820161292c565b610240820152604051918291602083526020830190612731565b0390f35b60249163a503ddf560e01b8252600452fd5b503461029957806003193601126102995760206001600160a01b0360035416604051908152f35b503461029957806003193601126102995760206001600160a01b0360045416604051908152f35b503461029957602060031936011261029957611b096126a1565b611b11612be0565b6001600160a01b03806006549216918273ffffffffffffffffffffffffffffffffffffffff19821617600655167fe94e25a88d0bfa0f703904da6d10bc693ea8c76df40c874233847126c789856e8380a380f35b5060e06003193601126102995760043567ffffffffffffffff811161130357611b9290369060040161266e565b60249291923567ffffffffffffffff8111610b3d57611bb590369060040161266e565b93909260443567ffffffffffffffff811161130357611bd890369060040161266e565b60643567ffffffffffffffff81116112cb57611bf890369060040161266e565b9260c435926001600160a01b0384168094036125ca57611c16612ba5565b87156125a25789156125a25780156125a257859360ff600c5416612550575b338752600860205260408720541580612547575b8061253d575b6124ce575b50600954986040519a611c668c6128d6565b8a8c523360208d0152611c7a368b8b6129f3565b60408d01523690611c8a926129f3565b60608b01523690611c9a926129f3565b6080890152823690611cab926129f3565b60a088015260843560c088015260a43560e088015242610100880152826101208801528261014088015282610160880152826101808801526101a0870152816101c08701528015156101e087015281610200870152602095604051611d108882612909565b838152610220820152604051611d268882612909565b83815261024082015285835260078752604083208151815560208201516001600160a01b031660018201906001600160a01b0316815473ffffffffffffffffffffffffffffffffffffffff1916179055604082015180519067ffffffffffffffff821161237057611da782611d9e600286015461289c565b60028601612a46565b8990601f831160011461246057611dd59291879183612205575b50506000198260011b9260031b1c19161790565b60028201555b606082015180519067ffffffffffffffff821161237057611e0c82611e03600386015461289c565b60038601612a46565b8990601f83116001146123f257611e3992918791836122055750506000198260011b9260031b1c19161790565b60038201555b608082015180519067ffffffffffffffff821161237057611e7082611e67600486015461289c565b60048601612a46565b8990601f831160011461238457611e9d92918791836122055750506000198260011b9260031b1c19161790565b60048201555b60a082015180519067ffffffffffffffff821161237057611ed482611ecb600586015461289c565b60058601612a46565b8990601f831160011461230757611f0192918791836122055750506000198260011b9260031b1c19161790565b60058201555b60c0820151600682015560e0820151600782015561010082015160088201556009810161012083015160038110156122f357815461014085015174ffffffffffffffffffffffffffffffffffffffff0060089190911b1660ff929092167fffffffffffffffffffffff00000000000000000000000000000000000000000090911617179055610160820151600a820155611fb86101808301511515600b83019060ff60ff1983541691151516179055565b6101a0820151600c820155600d8101611fe56101c08401511515829060ff60ff1983541691151516179055565b6101e083015181546102008501517fffffffffffffffffffffffffffffffffffffffffffffffffffffffffff0000ff90911691151560081b61ff00169190911790151560101b62ff0000161790556102208201518051600e83019167ffffffffffffffff8211610a0f576120638261205d855461289c565b85612a46565b8a90601f831160011461228757826102409593600f9593612098938b926122055750506000198260011b9260031b1c19161790565b90555b0191015180519067ffffffffffffffff8211612273576120bf8261205d855461289c565b8890601f8311600114612210576120ec92918691836122055750506000198260011b9260031b1c19161790565b90555b3382526008865260408220805490680100000000000000008210156121f1579261218092612146837ff66fd76672f8fef666c4603364fc2e0e7cc9bd03a572c0d16567de8fb55562f39660018b999601815561286e565b81549060031b9060001989831b921b1916179055612165600954612a98565b600955612198575b5060405194604086526040860191612aa7565b9242868201528033940390a360018055604051908152f35b604090338152601089528181206121af8154612a98565b905533815260108952205460405190858252888201527f26828d31a8b8cd76aecca73c081c5726b58fcf32a4cb2a3ff9e86576adf25b2360403392a23861216d565b602484634e487b7160e01b81526041600452fd5b015190503880611dc1565b8386528986209190601f198416875b8c82821061225d575050908460019594939210612244575b505050811b0190556120ef565b015160001960f88460031b161c19169055388080612237565b600185968293968601518155019501930161221f565b602485634e487b7160e01b81526041600452fd5b8388528b88209190601f198416898e5b8282106122db5750509260019285926102409896600f9896106122c2575b505050811b01905561209b565b015160001960f88460031b161c191690553880806122b5565b80600186978294978701518155019601940190612297565b602486634e487b7160e01b81526021600452fd5b6005840187528a87209190601f198416885b8d82821061235a575050908460019594939210612341575b505050811b016005820155611f07565b015160001960f88460031b161c19169055388080612331565b6001859682939686015181550195019301612319565b602486634e487b7160e01b81526041600452fd5b91906004840187528a87209087935b8c601f19851686106123d957506001945083601f198116106123c0575b505050811b016004820155611ea3565b015160001960f88460031b161c191690553880806123b0565b8282015184559485019460019093019290910190612393565b91906003840187528a87209087935b8c601f198516861061244757506001945083601f1981161061242e575b505050811b016003820155611e3f565b015160001960f88460031b161c1916905538808061241e565b8282015184559485019460019093019290910190612401565b91906002840187528a87209087935b8c601f19851686106124b557506001945083601f1981161061249c575b505050811b016002820155611ddb565b015160001960f88460031b161c1916905538808061248c565b828201518455948501946001909301929091019061246f565b338752600f6020526001600160a01b03604088205416611c5457338752600f602052604087208173ffffffffffffffffffffffffffffffffffffffff1982541617905533907f5f1ca2fcc108b751843a763e60d2201f593516109d7dbb1b700468f2d4190bb78880a338611c54565b5033811415611c4f565b50801515611c49565b9350600b548034106125735750349361256b34600d546129d0565b600d55611c35565b7fd233f6cb00000000000000000000000000000000000000000000000000000000875234600452602452604486fd5b6004867f6395ca9d000000000000000000000000000000000000000000000000000000008152fd5b8580fd5b905034611303576020600319360112611303576004357fffffffff000000000000000000000000000000000000000000000000000000008116809103610b3d57602092507f7965db0b000000000000000000000000000000000000000000000000000000008114908115612644575b5015158152f35b7f01ffc9a7000000000000000000000000000000000000000000000000000000009150143861263d565b9181601f8401121561269c5782359167ffffffffffffffff831161269c576020838186019501011161269c57565b600080fd5b600435906001600160a01b038216820361269c57565b602435906001600160a01b038216820361269c57565b919082519283825260005b8481106126f9575050601f19601f8460006020809697860101520116010190565b806020809284010151828286010152016126d8565b90600382101561271b5752565b634e487b7160e01b600052602160045260246000fd5b61286b91815181526001600160a01b0360208301511660208201526102406128596127ac61279a612788612776604088015161026060408901526102608801906126cd565b606088015187820360608901526126cd565b608087015186820360808801526126cd565b60a086015185820360a08701526126cd565b60c085015160c085015260e085015160e08501526101008501516101008501526127e061012086015161012086019061270e565b6001600160a01b036101408601511661014085015261016085015161016085015261018085015115156101808501526101a08501516101a08501526101c085015115156101c08501526101e085015115156101e085015261020085015115156102008501526102208501518482036102208601526126cd565b920151906102408184039101526126cd565b90565b80548210156128865760005260206000200190600090565b634e487b7160e01b600052603260045260246000fd5b90600182811c921680156128cc575b60208310146128b657565b634e487b7160e01b600052602260045260246000fd5b91607f16916128ab565b610260810190811067ffffffffffffffff8211176128f357604052565b634e487b7160e01b600052604160045260246000fd5b90601f601f19910116810190811067ffffffffffffffff8211176128f357604052565b90604051918260008254926129408461289c565b80845293600181169081156129ae5750600114612967575b5061296592500383612909565b565b90506000929192526020600020906000915b8183106129925750509060206129659282010138612958565b6020919350806001915483858901015201910190918492612979565b6020935061296595925060ff1991501682840152151560051b82010138612958565b919082018092116129dd57565b634e487b7160e01b600052601160045260246000fd5b92919267ffffffffffffffff82116128f35760405191612a1d601f8201601f191660200184612909565b82948184528183011161269c578281602093846000960137010152565b600382101561271b5752565b601f8211612a5357505050565b6000526020600020906020601f840160051c83019310612a8e575b601f0160051c01905b818110612a82575050565b60008155600101612a77565b9091508190612a6e565b60001981146129dd5760010190565b601f8260209493601f19938186528686013760008582860101520116010190565b60405190612ad5826128d6565b606061024083600081526000602082015282604082015282808201528260808201528260a0820152600060c0820152600060e08201526000610100820152600061012082015260006101408201526000610160820152600061018082015260006101a082015260006101c082015260006101e08201526000610200820152826102208201520152565b9081606091031261269c578051916040602083015192015190565b67ffffffffffffffff81116128f35760051b60200190565b80518210156128865760209160051b010190565b600260015414612bb6576002600155565b7f3ee5aeb50000000000000000000000000000000000000000000000000000000060005260046000fd5b6001600160a01b03600054163303612bf457565b7f118cdaa7000000000000000000000000000000000000000000000000000000006000523360045260246000fd5b3360009081527fe5ebfa64fca8d502a8e50c1edffd2c31ef4dad5b396e65d9f397fb028f74abc5602052604090205460ff1615612c5b57565b63e2517d3f60e01b600052336004527fa49807205ce4d355092ef5a8a18f56e8913cf4a201fbe287825b095693c2177560245260446000fd5b3360009081527fdc6246a27a928d53414cf0bbe2bfde021e1ac737a6e0bcf9b182cda5a9b2dcf7602052604090205460ff1615612ccd57565b63e2517d3f60e01b600052336004527f0ce23c3e399818cfee81a7ab0880f714e53d7672b08df0fa62f2843416e1ea0960245260446000fd5b80600052600260205260406000206001600160a01b03331660005260205260ff6040600020541615612d355750565b63e2517d3f60e01b6000523360045260245260446000fd5b80600052600260205260406000206001600160a01b03831660005260205260ff6040600020541615600014612de05780600052600260205260406000206001600160a01b0383166000526020526040600020600160ff198254161790556001600160a01b03339216907f2f8788117e7eff1d82e926ec794901d17c78024a50270940304540a733656f0d600080a4600190565b5050600090565b80600052600260205260406000206001600160a01b03831660005260205260ff60406000205416600014612de05780600052600260205260406000206001600160a01b038316600052602052604060002060ff1981541690556001600160a01b03339216907ff6391f5c32d9c69d2a47ea670b442974b53935d1edc7fd64eb21e047a839171b600080a460019056fea2646970667358221220e44e9ca4307153a804be0b8cabc52e58abe698ac61b8e6d80f3e58d90f6dec4a64736f6c634300081c00332f8788117e7eff1d82e926ec794901d17c78024a50270940304540a733656f0dac33ff75c19e70fe83507db0d683fd3465c996598dc972688b7ace676c89077be5ebfa64fca8d502a8e50c1edffd2c31ef4dad5b396e65d9f397fb028f74abc5",
  "linkReferences": {},
  "deployedLinkReferences": {}
}