{"contracts/contracts/tokens/ImpactProductNFT.sol":{"ImpactProductNFT":{"abi":[{"inputs":[{"internalType":"address","name":"_rewardsContract","type":"address"}],"stateMutability":"nonpayable","type":"constructor"},{"inputs":[{"internalType":"address","name":"sender","type":"address"},{"internalType":"uint256","name":"tokenId","type":"uint256"},{"internalType":"address","name":"owner","type":"address"}],"name":"ERC721IncorrectOwner","type":"error"},{"inputs":[{"internalType":"address","name":"operator","type":"address"},{"internalType":"uint256","name":"tokenId","type":"uint256"}],"name":"ERC721InsufficientApproval","type":"error"},{"inputs":[{"internalType":"address","name":"approver","type":"address"}],"name":"ERC721InvalidApprover","type":"error"},{"inputs":[{"internalType":"address","name":"operator","type":"address"}],"name":"ERC721InvalidOperator","type":"error"},{"inputs":[{"internalType":"address","name":"owner","type":"address"}],"name":"ERC721InvalidOwner","type":"error"},{"inputs":[{"internalType":"address","name":"receiver","type":"address"}],"name":"ERC721InvalidReceiver","type":"error"},{"inputs":[{"internalType":"address","name":"sender","type":"address"}],"name":"ERC721InvalidSender","type":"error"},{"inputs":[{"internalType":"uint256","name":"tokenId","type":"uint256"}],"name":"ERC721NonexistentToken","type":"error"},{"inputs":[{"internalType":"address","name":"owner","type":"address"}],"name":"OwnableInvalidOwner","type":"error"},{"inputs":[{"internalType":"address","name":"account","type":"address"}],"name":"OwnableUnauthorizedAccount","type":"error"},{"anonymous":false,"inputs":[{"indexed":true,"internalType":"address","name":"owner","type":"address"},{"indexed":true,"internalType":"address","name":"approved","type":"address"},{"indexed":true,"internalType":"uint256","name":"tokenId","type":"uint256"}],"name":"Approval","type":"event"},{"anonymous":false,"inputs":[{"indexed":true,"internalType":"address","name":"owner","type":"address"},{"indexed":true,"internalType":"address","name":"operator","type":"address"},{"indexed":false,"internalType":"bool","name":"approved","type":"bool"}],"name":"ApprovalForAll","type":"event"},{"anonymous":false,"inputs":[{"indexed":true,"internalType":"uint256","name":"tokenId","type":"uint256"},{"indexed":false,"internalType":"uint256","name":"newImpactLevel","type":"uint256"}],"name":"ImpactLevelUpdated","type":"event"},{"anonymous":false,"inputs":[{"indexed":true,"internalType":"address","name":"user","type":"address"},{"indexed":true,"internalType":"uint256","name":"tokenId","type":"uint256"}],"name":"Minted","type":"event"},{"anonymous":false,"inputs":[{"indexed":true,"internalType":"uint256","name":"tokenId","type":"uint256"},{"indexed":false,"internalType":"uint256","name":"newLevel","type":"uint256"}],"name":"NFTUpgraded","type":"event"},{"anonymous":false,"inputs":[{"indexed":true,"internalType":"address","name":"previousOwner","type":"address"},{"indexed":true,"internalType":"address","name":"newOwner","type":"address"}],"name":"OwnershipTransferred","type":"event"},{"anonymous":false,"inputs":[{"indexed":true,"internalType":"address","name":"user","type":"address"}],"name":"POIVerified","type":"event"},{"anonymous":false,"inputs":[{"indexed":true,"internalType":"address","name":"user","type":"address"},{"indexed":true,"internalType":"uint256","name":"level","type":"uint256"}],"name":"RewardDistributed","type":"event"},{"anonymous":false,"inputs":[{"indexed":true,"internalType":"address","name":"newRewardsContract","type":"address"}],"name":"RewardsContractUpdated","type":"event"},{"anonymous":false,"inputs":[{"indexed":true,"internalType":"address","name":"from","type":"address"},{"indexed":true,"internalType":"address","name":"to","type":"address"},{"indexed":true,"internalType":"uint256","name":"tokenId","type":"uint256"}],"name":"Transfer","type":"event"},{"anonymous":false,"inputs":[{"indexed":true,"internalType":"uint256","name":"tokenId","type":"uint256"}],"name":"TransferAuthorizationRevoked","type":"event"},{"anonymous":false,"inputs":[{"indexed":true,"internalType":"uint256","name":"tokenId","type":"uint256"},{"indexed":true,"internalType":"address","name":"recipient","type":"address"}],"name":"TransferAuthorized","type":"event"},{"inputs":[],"name":"MAX_LEVEL","outputs":[{"internalType":"uint256","name":"","type":"uint256"}],"stateMutability":"view","type":"function"},{"inputs":[{"internalType":"address","name":"","type":"address"}],"name":"_userHasMinted","outputs":[{"internalType":"bool","name":"","type":"bool"}],"stateMutability":"view","type":"function"},{"inputs":[{"internalType":"uint256","name":"tokenId","type":"uint256"},{"internalType":"address","name":"recipient","type":"address"}],"name":"adminTransfer","outputs":[],"stateMutability":"nonpayable","type":"function"},{"inputs":[{"internalType":"address","name":"to","type":"address"},{"internalType":"uint256","name":"tokenId","type":"uint256"}],"name":"approve","outputs":[],"stateMutability":"nonpayable","type":"function"},{"inputs":[{"internalType":"uint256","name":"tokenId","type":"uint256"},{"internalType":"address","name":"recipient","type":"address"}],"name":"authorizeTransfer","outputs":[],"stateMutability":"nonpayable","type":"function"},{"inputs":[{"internalType":"address","name":"owner","type":"address"}],"name":"balanceOf","outputs":[{"internalType":"uint256","name":"","type":"uint256"}],"stateMutability":"view","type":"function"},{"inputs":[{"internalType":"address","name":"user","type":"address"},{"internalType":"uint256","name":"level","type":"uint256"}],"name":"distributeReward","outputs":[],"stateMutability":"nonpayable","type":"function"},{"inputs":[{"internalType":"uint256","name":"tokenId","type":"uint256"}],"name":"getApproved","outputs":[{"internalType":"address","name":"","type":"address"}],"stateMutability":"view","type":"function"},{"inputs":[{"internalType":"address","name":"user","type":"address"}],"name":"getUserNFTData","outputs":[{"internalType":"uint256","name":"tokenId","type":"uint256"},{"internalType":"uint256","name":"impact","type":"uint256"},{"internalType":"uint256","name":"level","type":"uint256"}],"stateMutability":"view","type":"function"},{"inputs":[{"internalType":"uint256","name":"","type":"uint256"}],"name":"impactLevel","outputs":[{"internalType":"uint256","name":"","type":"uint256"}],"stateMutability":"view","type":"function"},{"inputs":[{"internalType":"address","name":"owner","type":"address"},{"internalType":"address","name":"operator","type":"address"}],"name":"isApprovedForAll","outputs":[{"internalType":"bool","name":"","type":"bool"}],"stateMutability":"view","type":"function"},{"inputs":[{"internalType":"uint256","name":"tokenId","type":"uint256"}],"name":"isTransferAuthorized","outputs":[{"internalType":"bool","name":"authorized","type":"bool"},{"internalType":"address","name":"recipient","type":"address"}],"stateMutability":"view","type":"function"},{"inputs":[{"internalType":"address","name":"user","type":"address"}],"name":"mint","outputs":[],"stateMutability":"nonpayable","type":"function"},{"inputs":[],"name":"name","outputs":[{"internalType":"string","name":"","type":"string"}],"stateMutability":"view","type":"function"},{"inputs":[{"internalType":"uint256","name":"","type":"uint256"}],"name":"nftLevel","outputs":[{"internalType":"uint256","name":"","type":"uint256"}],"stateMutability":"view","type":"function"},{"inputs":[],"name":"owner","outputs":[{"internalType":"address","name":"","type":"address"}],"stateMutability":"view","type":"function"},{"inputs":[{"internalType":"uint256","name":"tokenId","type":"uint256"}],"name":"ownerOf","outputs":[{"internalType":"address","name":"","type":"address"}],"stateMutability":"view","type":"function"},{"inputs":[],"name":"renounceOwnership","outputs":[],"stateMutability":"nonpayable","type":"function"},{"inputs":[{"internalType":"uint256","name":"tokenId","type":"uint256"}],"name":"revokeTransferAuthorization","outputs":[],"stateMutability":"nonpayable","type":"function"},{"inputs":[],"name":"rewardsContract","outputs":[{"internalType":"address","name":"","type":"address"}],"stateMutability":"view","type":"function"},{"inputs":[],"name":"safeMint","outputs":[],"stateMutability":"nonpayable","type":"function"},{"inputs":[{"internalType":"address","name":"from","type":"address"},{"internalType":"address","name":"to","type":"address"},{"internalType":"uint256","name":"tokenId","type":"uint256"}],"name":"safeTransferFrom","outputs":[],"stateMutability":"nonpayable","type":"function"},{"inputs":[{"internalType":"address","name":"from","type":"address"},{"internalType":"address","name":"to","type":"address"},{"internalType":"uint256","name":"tokenId","type":"uint256"},{"internalType":"bytes","name":"data","type":"bytes"}],"name":"safeTransferFrom","outputs":[],"stateMutability":"nonpayable","type":"function"},{"inputs":[{"internalType":"address","name":"operator","type":"address"},{"internalType":"bool","name":"approved","type":"bool"}],"name":"setApprovalForAll","outputs":[],"stateMutability":"nonpayable","type":"function"},{"inputs":[{"internalType":"address","name":"newRewardsContract","type":"address"}],"name":"setRewardsContract","outputs":[],"stateMutability":"nonpayable","type":"function"},{"inputs":[{"internalType":"address","name":"newSubmissionContract","type":"address"}],"name":"setSubmissionContract","outputs":[],"stateMutability":"nonpayable","type":"function"},{"inputs":[],"name":"submissionContract","outputs":[{"internalType":"address","name":"","type":"address"}],"stateMutability":"view","type":"function"},{"inputs":[{"internalType":"bytes4","name":"interfaceId","type":"bytes4"}],"name":"supportsInterface","outputs":[{"internalType":"bool","name":"","type":"bool"}],"stateMutability":"view","type":"function"},{"inputs":[],"name":"symbol","outputs":[{"internalType":"string","name":"","type":"string"}],"stateMutability":"view","type":"function"},{"inputs":[{"internalType":"uint256","name":"tokenId","type":"uint256"}],"name":"tokenURI","outputs":[{"internalType":"string","name":"","type":"string"}],"stateMutability":"view","type":"function"},{"inputs":[{"internalType":"address","name":"from","type":"address"},{"internalType":"address","name":"to","type":"address"},{"internalType":"uint256","name":"tokenId","type":"uint256"}],"name":"transferFrom","outputs":[],"stateMutability":"nonpayable","type":"function"},{"inputs":[{"internalType":"address","name":"newOwner","type":"address"}],"name":"transferOwnership","outputs":[],"stateMutability":"nonpayable","type":"function"},{"inputs":[{"internalType":"uint256","name":"tokenId","type":"uint256"},{"internalType":"uint256","name":"newImpactLevel","type":"uint256"}],"name":"updateImpactLevel","outputs":[],"stateMutability":"nonpayable","type":"function"},{"inputs":[{"internalType":"uint256","name":"tokenId","type":"uint256"}],"name":"upgradeNFT","outputs":[],"stateMutability":"nonpayable","type":"function"},{"inputs":[{"internalType":"address","name":"","type":"address"}],"name":"userLevel","outputs":[{"internalType":"uint256","name":"","type":"uint256"}],"stateMutability":"view","type":"function"},{"inputs":[{"internalType":"address","name":"","type":"address"}],"name":"verifiedPOI","outputs":[{"internalType":"bool","name":"","type":"bool"}],"stateMutability":"view","type":"function"},{"inputs":[{"internalType":"address","name":"user","type":"address"}],"name":"verifyPOI","outputs":[],"stateMutability":"nonpayable","type":"function"}],"evm":{"bytecode":{"linkReferences":{},"object":"608060405234610407576130806020813803918261001c8161040c565b93849283398101031261040757516001600160a01b0381169081900361040757610046604061040c565b906012825271125b5c1858dd08141c9bd91d58dd0813919560721b6020830152610070604061040c565b60068152651253541050d560d21b602082015282519091906001600160401b03811161031257600054600181811c911680156103fd575b60208210146102f257601f8111610399575b506020601f82116001146103335781929394600092610328575b50508160011b916000199060031b1c1916176000555b81516001600160401b03811161031257600154600181811c91168015610308575b60208210146102f257601f811161028d575b50602092601f8211600114610228579281929360009261021d575b50508160011b916000199060031b1c1916176001555b33156102075760068054336001600160a01b03198216811790925560405191906001600160a01b03167f8be0079c531659141344cd1fd0a4f28419497f9722a3daafe3b4186f6b6457e0600080a381156101c55750600780546001600160a01b031916919091179055604051612c4e90816104328239f35b62461bcd60e51b815260206004820181905260248201527f496e76616c6964207265776172647320636f6e747261637420616464726573736044820152606490fd5b631e4fbdf760e01b600052600060045260246000fd5b015190503880610137565b601f198216936001600052806000209160005b868110610275575083600195961061025c575b505050811b0160015561014d565b015160001960f88460031b161c1916905538808061024e565b9192602060018192868501518155019401920161023b565b60016000527fb10e2d527612073b26eecdfd717e6a320cf44b4afac2b0732d9fcbe2b7fa0cf6601f830160051c810191602084106102e8575b601f0160051c01905b8181106102dc575061011c565b600081556001016102cf565b90915081906102c6565b634e487b7160e01b600052602260045260246000fd5b90607f169061010a565b634e487b7160e01b600052604160045260246000fd5b0151905038806100d3565b601f1982169060008052806000209160005b81811061038157509583600195969710610368575b505050811b016000556100e9565b015160001960f88460031b161c1916905538808061035a565b9192602060018192868b015181550194019201610345565b600080527f290decd9548b62a8d60345a988386fc84ba6bc95484008f6362f93160ef3e563601f830160051c810191602084106103f3575b601f0160051c01905b8181106103e757506100b9565b600081556001016103da565b90915081906103d1565b90607f16906100a7565b600080fd5b6040519190601f01601f191682016001600160401b038111838210176103125760405256fe6080604052600436101561001257600080fd5b6000803560e01c8062f5f421146116bf57806301ffc9a7146115ec5780630483fc5e146114d257806306fdde0314611417578063081812fc146113da578063095ea7b3146112d55780631ec8bb8c1461117d578063220cce971461115657806323b872dd1461113e578063280e31cc146111065780632b50496c146110dc5780632e459c1e1461103f57806336816ebc1461100257806342842e0e14610fd25780634ca4b2d314610f405780635bae9d4714610ef65780636352211e14610ec65780636871ee4014610ea35780636a62784214610e705780636ada251f14610e3357806370a0823114610dc8578063715018a614610d6d578063842ce38114610d465780638809aa1d14610c855780638da5cb5b14610c5e57806390690c9a14610a5657806395d89b4114610949578063a22cb4651461088d578063a49062d414610871578063b88d4fde146107d2578063bec98691146107a8578063c87b56dd1461045d578063d2a4b0c314610407578063dfa0dfa514610359578063e985e9c514610304578063f2fde38b146102645763fb272a92146101b357600080fd5b34610261576020600319360112610261576001600160a01b036101d46116e1565b6101dc611e2c565b1680156101f7576001600160a01b0319600854161760085580f35b608460405162461bcd60e51b815260206004820152602360248201527f496e76616c6964207375626d697373696f6e20636f6e7472616374206164647260448201527f65737300000000000000000000000000000000000000000000000000000000006064820152fd5b80fd5b5034610261576020600319360112610261576001600160a01b036102866116e1565b61028e611e2c565b1680156102d8576001600160a01b03600654826001600160a01b0319821617600655167f8be0079c531659141344cd1fd0a4f28419497f9722a3daafe3b4186f6b6457e08380a380f35b6024827f1e4fbdf700000000000000000000000000000000000000000000000000000000815280600452fd5b5034610261576040600319360112610261576001600160a01b0360406103286116e1565b92826103326116fc565b941681526005602052209116600052602052602060ff604060002054166040519015158152f35b5034610261576020600319360112610261576001600160a01b0361037b6116e1565b610383611e2c565b1680156103c357806001600160a01b031960075416176007557fa9089f50b49c9b1b26ee1744c931f5d26f9f822f883aa12a567295b8387316668280a280f35b606460405162461bcd60e51b815260206004820152602060248201527f496e76616c6964207265776172647320636f6e747261637420616464726573736044820152fd5b503461026157602060031936011261026157600435610424611e2c565b61042d81611e6e565b61043681611ed0565b7fb5502e88c22257623a9988317e190b78fce96c36ee7ca3f945189e19e9207c2f8280a280f35b5034610261576020600319360112610261576107a49061073e6004359161048383611e6e565b828152600e602052604081205490838152600f6020526106dc60026001604084205494816104c26104bc6104b6846126d3565b9a61280c565b9261280c565b98603d61058e61055161051661051060409e8f6104e181519182611794565b600581527f4c6576656c0000000000000000000000000000000000000000000000000000006020820152612970565b9b61280c565b8d516105228f82611794565b600681527f496d7061637400000000000000000000000000000000000000000000000000006020820152612970565b928c61055f81519182611794565b600881527f43617465676f72790000000000000000000000000000000000000000000000006020820152612970565b9160398c519a8b967f7b226e616d65223a22496d706163742050726f6475637420230000000000000060208901526105cf815180926020868c019101611712565b87017f222c226465736372697074696f6e223a224465436c65616e757020496d706163838201527f742050726f64756374204e4654222c2261747472696275746573223a5b0000006059820152610630825180936020607685019101611712565b01017f2c000000000000000000000000000000000000000000000000000000000000008382015261066b825180936020603e85019101611712565b01017f2c00000000000000000000000000000000000000000000000000000000000000838201526106a58251809360208985019101611712565b01017f5d7d000000000000000000000000000000000000000000000000000000000000838201520301601d19810185520183611794565b508251906106eb606083611794565b8382527f4142434445464748494a4b4c4d4e4f505152535455565758595a61626364656660208301527f6768696a6b6c6d6e6f707172737475767778797a303132333435363738392b2f84830152612ae6565b90610792603d825180947f646174613a6170706c69636174696f6e2f6a736f6e3b6261736536342c00000060208301526107818151809260208686019101611712565b81010301601f198101845283611794565b51918291602083526020830190611735565b0390f35b50346102615760206003193601126102615760406020916004358152600e83522054604051908152f35b5034610261576080600319360112610261576107ec6116e1565b6107f46116fc565b6044356064359167ffffffffffffffff831161086d573660238401121561086d5782600401359385610825866117cd565b946108336040519687611794565b86865236602488830101116108695786610866976024602093018389013786010152610860838383611a9c565b33612566565b80f35b5080fd5b8480fd5b50346102615780600319360112610261576020604051600a8152f35b5034610261576040600319360112610261576108a76116e1565b60243590811515809203610945576001600160a01b03169081156109195733835260056020526040832082600052602052604060002060ff1981541660ff83161790556040519081527f17307eab39ab6107e8899845ad3d59bd9653f200f220920489ca2b5937696c3160203392a380f35b602483837f5b08ba18000000000000000000000000000000000000000000000000000000008252600452fd5b8280fd5b50346102615780600319360112610261576040519080600154908160011c91600181168015610a4c575b602084108114610a3857838652908115610a1157506001146109b4575b6107a4846109a081860382611794565b604051918291602083526020830190611735565b600181527fb10e2d527612073b26eecdfd717e6a320cf44b4afac2b0732d9fcbe2b7fa0cf6939250905b8082106109f7575090915081016020016109a082610990565b9192600181602092548385880101520191019092916109de565b60ff191660208087019190915292151560051b850190920192506109a09150839050610990565b602483634e487b7160e01b81526022600452fd5b92607f1692610973565b503461026157602060031936011261026157600435610a7481611e6e565b610a7d81611f1c565b6001600160a01b0333911603610c1a57610a96336121bc565b808252600e6020526040822054600a811015610bb05760018101809111610b9c57818352600e602052806040842055338352600c602052806040842055826001600160a01b036007541680610b16575b505060207f0c0869fcc4841cc6e2ce714c6457a98e2ed521ad954fa9ca4a8bec086dac483991604051908152a280f35b803b156108695781906044604051809481937f21c838ef0000000000000000000000000000000000000000000000000000000083523360048401528760248401525af1610b65575b8390610ae6565b83610b947f0c0869fcc4841cc6e2ce714c6457a98e2ed521ad954fa9ca4a8bec086dac48399395602093611794565b939150610b5e565b602483634e487b7160e01b81526011600452fd5b608460405162461bcd60e51b815260206004820152602260248201527f596f752068617665207265616368656420746865206d6178696d756d206c657660448201527f656c0000000000000000000000000000000000000000000000000000000000006064820152fd5b606460405162461bcd60e51b815260206004820152601860248201527f596f7520646f6e2774206f776e207468697320746f6b656e00000000000000006044820152fd5b503461026157806003193601126102615760206001600160a01b0360065416604051908152f35b503461026157604060031936011261026157600435602435610ca5611e2c565b610cae82611e6e565b80151580610d3b575b15610cf75760207f765d03c6d43b57e69c7749c9b65749bba0029e3225751b3fe130339366d942d691838552600f8252806040862055604051908152a280f35b606460405162461bcd60e51b815260206004820152601a60248201527f496e76616c696420696d70616374206c6576656c2072616e67650000000000006044820152fd5b50600a811115610cb7565b503461026157806003193601126102615760206001600160a01b0360085416604051908152f35b5034610261578060031936011261026157610d86611e2c565b806001600160a01b036006546001600160a01b03198116600655167f8be0079c531659141344cd1fd0a4f28419497f9722a3daafe3b4186f6b6457e08280a380f35b5034610261576020600319360112610261576001600160a01b03610dea6116e1565b168015610e07578160409160209352600383522054604051908152f35b6024827f89c62b6400000000000000000000000000000000000000000000000000000000815280600452fd5b50346102615760206003193601126102615760ff60406020926001600160a01b03610e5c6116e1565b168152600a84522054166040519015158152f35b503461026157602060031936011261026157610866610e8d6116e1565b610e95611e2c565b610e9e816121bc565b612221565b5034610261578060031936011261026157610ebd336121bc565b61086633612221565b5034610261576020600319360112610261576020610ee5600435611f1c565b6001600160a01b0360405191168152f35b5034610261576020600319360112610261576040906001600160a01b038260043592838152601060205260ff82822054169381526011602052205416825191151582526020820152f35b5034610261576020600319360112610261576001600160a01b03610f626116e1565b16808252600d602052604082205490610f7c821515611de1565b6000198201918211610b9c576040606093610fa9836001600160a01b03610fa287611f1c565b1614611de1565b838152600f60205281812054928152600c60205220549060405192835260208301526040820152f35b503461026157610866610fe43661175a565b9060405192610ff4602085611794565b858452610860838383611a9c565b50346102615760206003193601126102615760ff60406020926001600160a01b0361102b6116e1565b168152600b84522054166040519015158152f35b5034610261576040600319360112610261576004356001600160a01b036110646116fc565b61106c611e2c565b61107583611e6e565b1690611082821515611a51565b808352601060205260408320600160ff19825416179055808352601160205260408320826001600160a01b03198254161790557f176a9858cb229635f8b420a37c2ec0e70bca8d1bc534e8e1c065d07cd339f13b8380a380f35b50346102615760206003193601126102615760406020916004358152600f83522054604051908152f35b50346102615760206003193601126102615760406020916001600160a01b0361112d6116e1565b168152600c83522054604051908152f35b5034610261576108666111503661175a565b91611a9c565b503461026157806003193601126102615760206001600160a01b0360075416604051908152f35b5034610261576040600319360112610261576111976116e1565b6001600160a01b03602435916111ab611e2c565b16801561129157808352600a60205260ff6040842054161561124d57600182101580611242575b156111fe577fe34918ff1c7084970068b53fd71ad6d8b04e9f15d3886cbf006443e6cdc52ea68380a380f35b606460405162461bcd60e51b815260206004820152601360248201527f496e76616c6964206c6576656c2072616e6765000000000000000000000000006044820152fd5b50600a8211156111d2565b606460405162461bcd60e51b815260206004820152601a60248201527f55736572206973206e6f74206120766572696669656420504f490000000000006044820152fd5b606460405162461bcd60e51b815260206004820152601460248201527f496e76616c6964207573657220616464726573730000000000000000000000006044820152fd5b5034610261576040600319360112610261576112ef6116e1565b6024356112fb81611f1c565b331515806113c7575b80611394575b6113685781906001600160a01b0380851691167f8c5be1e5ebec7d5bd14f71427d1e84f3dd0314c0f7b2291e5b200ac8c7c3b9258680a4825260046020526001600160a01b036040832091166001600160a01b031982541617905580f35b6024847fa9fbf51f00000000000000000000000000000000000000000000000000000000815233600452fd5b506001600160a01b03811684526005602052604084206001600160a01b033316855260205260ff6040852054161561130a565b50336001600160a01b0382161415611304565b5034610261576020600319360112610261576001600160a01b03604060209260043561140581611f1c565b50815260048452205416604051908152f35b503461026157806003193601126102615760405190808054908160011c916001811680156114c8575b602084108114610a3857838652908115610a11575060011461146c576107a4846109a081860382611794565b8080527f290decd9548b62a8d60345a988386fc84ba6bc95484008f6362f93160ef3e563939250905b8082106114ae575090915081016020016109a082610990565b919260018160209254838588010152019101909291611495565b92607f1692611440565b5034610261576040600319360112610261576004356114ef6116fc565b6114f7611e2c565b61150082611e6e565b6001600160a01b03811615906115168215611a51565b61151f83611f1c565b91838552601060205260408520600160ff198254161790558385526011602052604085206001600160a01b0383166001600160a01b03198254161790556115d957611572836001600160a01b0392611f53565b16908161158c5760248484637e27328960e01b8252600452fd5b6001600160a01b03168082036115a6578361086684611ed0565b9183927f64283d7b0000000000000000000000000000000000000000000000000000000060649552600452602452604452fd5b602484633250574960e11b815280600452fd5b5034610261576020600319360112610261576004357fffffffff00000000000000000000000000000000000000000000000000000000811680910361086957807f80ac58cd0000000000000000000000000000000000000000000000000000000060209214908115611695575b811561166b575b506040519015158152f35b7f01ffc9a70000000000000000000000000000000000000000000000000000000091501482611660565b7f5b5e139f0000000000000000000000000000000000000000000000000000000081149150611659565b5034610261576020600319360112610261576108666116dc6116e1565b6117e9565b600435906001600160a01b03821682036116f757565b600080fd5b602435906001600160a01b03821682036116f757565b60005b8381106117255750506000910152565b8181015183820152602001611715565b90601f19601f60209361175381518092818752878088019101611712565b0116010190565b60031960609101126116f7576004356001600160a01b03811681036116f757906024356001600160a01b03811681036116f7579060443590565b90601f601f19910116810190811067ffffffffffffffff8211176117b757604052565b634e487b7160e01b600052604160045260246000fd5b67ffffffffffffffff81116117b757601f01601f191660200190565b6001600160a01b03600091168015611a0d576001600160a01b0360065416331461195a576001600160a01b03600854168033149081611950575b5061189257608460405162461bcd60e51b815260206004820152603060248201527f4f6e6c79206f776e6572206f72205375626d697373696f6e20636f6e7472616360448201527f742063616e2076657269667920504f49000000000000000000000000000000006064820152fd5b808252600a60205260408220600160ff1982541617905560405190807f920bd3b5a215c93296af07ef6415b61f63fe3f6732d03e6ee2063be1c22f22b58480a26001600160a01b036007541690816118eb575b50505050565b813b1561194c5760448385809482947f47c24fcf0000000000000000000000000000000000000000000000000000000084526004840152600160248401525af1611937575b80806118e5565b611942828092611794565b6102615780611930565b8380fd5b9050151538611823565b808252600a60205260408220600160ff1982541617905560405190807f920bd3b5a215c93296af07ef6415b61f63fe3f6732d03e6ee2063be1c22f22b58480a26001600160a01b036007541690816119b25750505050565b813b1561194c5760448385809482947f47c24fcf0000000000000000000000000000000000000000000000000000000084526004840152600160248401525af16119fd5780806118e5565b81611a0791611794565b38611930565b606460405162461bcd60e51b815260206004820152600f60248201527f496e76616c6964206164647265737300000000000000000000000000000000006044820152fd5b15611a5857565b606460405162461bcd60e51b815260206004820152601160248201527f496e76616c696420726563697069656e740000000000000000000000000000006044820152fd5b9092916001600160a01b038416918215611dcb576000828152600260205260408120546001600160a01b03161515958680611dc3575b611d1d575b83825260026020526001600160a01b036040832054169433151580611c6d575b508596976001600160a01b03959615159081611c33575b82855260036020526040852060018154019055878552600260205260408520836001600160a01b031982541617905587838a7fddf252ad1be2c89b69c2b068fc378daa952ba7f163c4a11628f55a4df523b3ef8880a480611c2b575b611c1d575b818803611bbb575b5050505016808303611b8857505050565b7f64283d7b0000000000000000000000000000000000000000000000000000000060005260045260245260445260646000fd5b611c0293604091611c0b575b611bd18885612a2e565b828152600b602052818120600160ff19825416179055878152600e60205281812054928152600c6020522055612a68565b38808080611b77565b888152600d6020528082812055611bc7565b611c2687611ed0565b611b6f565b506001611b6a565b611c5488600052600460205260406000206001600160a01b03198154169055565b8885526003602052604085206000198154019055611b0e565b80611cc6575b15611c7e5738611af7565b848387611c9757602491637e27328960e01b8252600452fd5b6044917f177e802f00000000000000000000000000000000000000000000000000000000825233600452602452fd5b503386148015611cf4575b80611c7357508483526004602052336001600160a01b0360408520541614611c73565b508583526005602052604083206001600160a01b033316845260205260ff604084205416611cd1565b838252601060205260ff604083205416158015611da4575b15611ad757608460405162461bcd60e51b815260206004820152603a60248201527f496d7061637450726f647563744e46543a207472616e7366657273206172652060448201527f726573747269637465642028736f756c626f756e64204e4654290000000000006064820152fd5b508382526011602052846001600160a01b036040842054161415611d35565b506001611ad2565b633250574960e11b600052600060045260246000fd5b15611de857565b606460405162461bcd60e51b815260206004820152600f60248201527f5573657220686173206e6f204e465400000000000000000000000000000000006044820152fd5b6001600160a01b03600654163303611e4057565b7f118cdaa7000000000000000000000000000000000000000000000000000000006000523360045260246000fd5b60005260026020526001600160a01b036040600020541615611e8c57565b606460405162461bcd60e51b815260206004820152601460248201527f546f6b656e20646f6573206e6f742065786973740000000000000000000000006044820152fd5b80600052601060205260ff60406000205416611ee95750565b806000526010602052604060002060ff198154169055600052601160205260406000206001600160a01b03198154169055565b8060005260026020526001600160a01b0360406000205416908115611f3f575090565b637e27328960e01b60005260045260246000fd5b908060005260026020526001600160a01b03604060002054161515918280936121aa575b6120f7575b8160005260026020526001600160a01b03604060002054169283151590816120bb575b6001600160a01b0383169182151591826120a1575b8560005260026020526040600020846001600160a01b03198254161790558584887fddf252ad1be2c89b69c2b068fc378daa952ba7f163c4a11628f55a4df523b3ef600080a48061209a575b61208c575b828603612015575b505050505090565b612077575b612026575b808061200d565b8261203461206f9484612a2e565b81600052600b6020526040600020600160ff19825416179055600052600e60205260406000205490600052600c602052604060002055612a68565b38808061201f565b84600052600d6020526000604081205561201a565b61209585611ed0565b612005565b5081612000565b836000526003602052604060002060018154019055611fb4565b6120dc84600052600460205260406000206001600160a01b03198154169055565b84600052600360205260406000206000198154019055611f9f565b81600052601060205260ff60406000205416158015612180575b15611f7c57608460405162461bcd60e51b815260206004820152603a60248201527f496d7061637450726f647563744e46543a207472616e7366657273206172652060448201527f726573747269637465642028736f756c626f756e64204e4654290000000000006064820152fd5b508160005260116020526001600160a01b03604060002054166001600160a01b0382161415612111565b506001600160a01b0381161515611f77565b6001600160a01b0316600052600a60205260ff60406000205416156121dd57565b606460405162461bcd60e51b815260206004820152601a60248201527f596f7520617265206e6f74206120766572696669656420504f490000000000006044820152fd5b6001600160a01b0381166000818152600b602052604081205460ff16612522576009549260018401808511610b9c57600955838252600e60205260016040832055838252600f60205260016040832055828252600c60205260016040832055828252600b60205260408220600160ff1982541617905560206040516122a68282611794565b83815284156115d9576001600160a01b036122c18785611f53565b166124f657823b6123a0575b5050806122dd856122e293612a2e565b612a68565b6001600160a01b03600754168061231b575b50807f30385c845b448a36257a6a1716e6ad2e1bc2cbe333cde1e69fe849ad6511adfe91a3565b803b1561086957908080807f30385c845b448a36257a6a1716e6ad2e1bc2cbe333cde1e69fe849ad6511adfe946044604051809581937f21c838ef0000000000000000000000000000000000000000000000000000000083528a6004840152600160248401525af1612390575b9250506122f4565b61239991611794565b3881612388565b816123df9160409895979493985180938192630a85bd0160e11b83523360048401528a6024840152876044840152608060648401526084830190611735565b038189895af186918161249a575b5061244957505050503d600014612441573d92612409846117cd565b936124176040519586611794565b84523d838286013e5b8351938461243b5760248484633250574960e11b8252600452fd5b84925001fd5b606092612420565b630a85bd0160e11b9192959396507fffffffff000000000000000000000000000000000000000000000000000000001603612487576122e2386122cd565b50602491633250574960e11b8252600452fd5b9091508781813d83116124ef575b6124b28183611794565b810103126124eb57517fffffffff00000000000000000000000000000000000000000000000000000000811681036124eb5790386123ed565b8680fd5b503d6124a8565b6024847f73c6ac6e00000000000000000000000000000000000000000000000000000000815280600452fd5b606460405162461bcd60e51b815260206004820152601f60248201527f596f75206861766520616c7265616479206d696e746564206120746f6b656e006044820152fd5b93909293823b612578575b5050505050565b6125bf6001600160a01b0392836020951696846040519788968796630a85bd0160e11b88521660048701521660248501526044840152608060648401526084830190611735565b03816000865af18091600091612678575b509061262957503d15612622573d6125e7816117cd565b906125f56040519283611794565b81523d6000602083013e5b8051908161261d5782633250574960e11b60005260045260246000fd5b602001fd5b6060612600565b7fffffffff00000000000000000000000000000000000000000000000000000000630a85bd0160e11b91160361266457503880808080612571565b633250574960e11b60005260045260246000fd5b6020813d6020116126cb575b8161269160209383611794565b810103126108695751907fffffffff00000000000000000000000000000000000000000000000000000000821682036102615750386125d0565b3d9150612684565b600381111561279f5760068111156127635760091015612728576040516126fb604082611794565b600881527f477561726469616e000000000000000000000000000000000000000000000000602082015290565b604051612736604082611794565b600481527f4865726f00000000000000000000000000000000000000000000000000000000602082015290565b50604051612772604082611794565b600381527f50726f0000000000000000000000000000000000000000000000000000000000602082015290565b506040516127ae604082611794565b600681527f4e65776269650000000000000000000000000000000000000000000000000000602082015290565b906127e5826117cd565b6127f26040519182611794565b828152601f1961280282946117cd565b0190602036910137565b806000917a184f03e93ff9f4daa797ed6e38ed64bf6a1f010000000000000000821015612948575b806d04ee2d6d415b85acef8100000000600a92101561292d575b662386f26fc10000811015612919575b6305f5e100811015612908575b6127108110156128f9575b60648110156128eb575b10156128e0575b600a600019602161289a600186016127db565b948501015b01917f30313233343536373839616263646566000000000000000000000000000000008282061a83530480156128db57600019600a919261289f565b505090565b600190910190612887565b606460029104930192612880565b61271060049104930192612876565b6305f5e1006008910493019261286b565b662386f26fc100006010910493019261285e565b6d04ee2d6d415b85acef81000000006020910493019261284e565b50604091507a184f03e93ff9f4daa797ed6e38ed64bf6a1f0100000000000000008104612834565b6002600b612a2b92602f6040519586927f7b2274726169745f74797065223a22000000000000000000000000000000000060208501526129b98151809260208688019101611712565b83017f222c2276616c7565223a22000000000000000000000000000000000000000000838201526129f4825180936020603a85019101611712565b01017f227d000000000000000000000000000000000000000000000000000000000000838201520301601d19810184520182611794565b90565b60018201809211612a52576001600160a01b0316600052600d602052604060002055565b634e487b7160e01b600052601160045260246000fd5b600754906001600160a01b03600092169081612a8357505050565b813b15610945576001600160a01b03604484928360405195869485937fa1905a07000000000000000000000000000000000000000000000000000000008552166004840152600160248401525af1612ad9575050565b81612ae391611794565b50565b919091805115612c0057805160028101809111612a5257600390048060021b907f3fffffffffffffffffffffffffffffffffffffffffffffffffffffffffffffff811603612a5257612b37906127db565b9060208201908081518201956020870190815192600083525b888110612bb25750506003939495965052510680600114612b8157600214612b76575090565b600019603d91015390565b507ffffffffffffffffffffffffffffffffffffffffffffffffffffffffffffffffe81603d60001981940153015390565b600360049199969901986001603f8b5182828260121c16870101518453828282600c1c16870101518385015382828260061c1687010151600285015316840101516003820153019497612b50565b509050604051612c11602082611794565b600081529056fea2646970667358221220d69e144ffabe19d48aa2fe3bd3edf0ee48007304cb3951127f03e41816af685c64736f6c634300081c0033","opcodes":"PUSH1 0x80 PUSH1 0x40 MSTORE CALLVALUE PUSH2 0x407 JUMPI PUSH2 0x3080 PUSH1 0x20 DUP2 CODESIZE SUB SWAP2 DUP3 PUSH2 0x1C DUP2 PUSH2 0x40C JUMP JUMPDEST SWAP4 DUP5 SWAP3 DUP4 CODECOPY DUP2 ADD SUB SLT PUSH2 0x407 JUMPI MLOAD PUSH1 0x1 PUSH1 0x1 PUSH1 0xA0 SHL SUB DUP2 AND SWAP1 DUP2 SWAP1 SUB PUSH2 0x407 JUMPI PUSH2 0x46 PUSH1 0x40 PUSH2 0x40C JUMP JUMPDEST SWAP1 PUSH1 0x12 DUP3 MSTORE PUSH18 0x125B5C1858DD08141C9BD91D58DD08139195 PUSH1 0x72 SHL PUSH1 0x20 DUP4 ADD MSTORE PUSH2 0x70 PUSH1 0x40 PUSH2 0x40C JUMP JUMPDEST PUSH1 0x6 DUP2 MSTORE PUSH6 0x1253541050D5 PUSH1 0xD2 SHL PUSH1 0x20 DUP3 ADD MSTORE DUP3 MLOAD SWAP1 SWAP2 SWAP1 PUSH1 0x1 PUSH1 0x1 PUSH1 0x40 SHL SUB DUP2 GT PUSH2 0x312 JUMPI PUSH1 0x0 SLOAD PUSH1 0x1 DUP2 DUP2 SHR SWAP2 AND DUP1 ISZERO PUSH2 0x3FD JUMPI JUMPDEST PUSH1 0x20 DUP3 LT EQ PUSH2 0x2F2 JUMPI PUSH1 0x1F DUP2 GT PUSH2 0x399 JUMPI JUMPDEST POP PUSH1 0x20 PUSH1 0x1F DUP3 GT PUSH1 0x1 EQ PUSH2 0x333 JUMPI DUP2 SWAP3 SWAP4 SWAP5 PUSH1 0x0 SWAP3 PUSH2 0x328 JUMPI JUMPDEST POP POP DUP2 PUSH1 0x1 SHL SWAP2 PUSH1 0x0 NOT SWAP1 PUSH1 0x3 SHL SHR NOT AND OR PUSH1 0x0 SSTORE JUMPDEST DUP2 MLOAD PUSH1 0x1 PUSH1 0x1 PUSH1 0x40 SHL SUB DUP2 GT PUSH2 0x312 JUMPI PUSH1 0x1 SLOAD PUSH1 0x1 DUP2 DUP2 SHR SWAP2 AND DUP1 ISZERO PUSH2 0x308 JUMPI JUMPDEST PUSH1 0x20 DUP3 LT EQ PUSH2 0x2F2 JUMPI PUSH1 0x1F DUP2 GT PUSH2 0x28D JUMPI JUMPDEST POP PUSH1 0x20 SWAP3 PUSH1 0x1F DUP3 GT PUSH1 0x1 EQ PUSH2 0x228 JUMPI SWAP3 DUP2 SWAP3 SWAP4 PUSH1 0x0 SWAP3 PUSH2 0x21D JUMPI JUMPDEST POP POP DUP2 PUSH1 0x1 SHL SWAP2 PUSH1 0x0 NOT SWAP1 PUSH1 0x3 SHL SHR NOT AND OR PUSH1 0x1 SSTORE JUMPDEST CALLER ISZERO PUSH2 0x207 JUMPI PUSH1 0x6 DUP1 SLOAD CALLER PUSH1 0x1 PUSH1 0x1 PUSH1 0xA0 SHL SUB NOT DUP3 AND DUP2 OR SWAP1 SWAP3 SSTORE PUSH1 0x40 MLOAD SWAP2 SWAP1 PUSH1 0x1 PUSH1 0x1 PUSH1 0xA0 SHL SUB AND PUSH32 0x8BE0079C531659141344CD1FD0A4F28419497F9722A3DAAFE3B4186F6B6457E0 PUSH1 0x0 DUP1 LOG3 DUP2 ISZERO PUSH2 0x1C5 JUMPI POP PUSH1 0x7 DUP1 SLOAD PUSH1 0x1 PUSH1 0x1 PUSH1 0xA0 SHL SUB NOT AND SWAP2 SWAP1 SWAP2 OR SWAP1 SSTORE PUSH1 0x40 MLOAD PUSH2 0x2C4E SWAP1 DUP2 PUSH2 0x432 DUP3 CODECOPY RETURN JUMPDEST PUSH3 0x461BCD PUSH1 0xE5 SHL DUP2 MSTORE PUSH1 0x20 PUSH1 0x4 DUP3 ADD DUP2 SWAP1 MSTORE PUSH1 0x24 DUP3 ADD MSTORE PUSH32 0x496E76616C6964207265776172647320636F6E74726163742061646472657373 PUSH1 0x44 DUP3 ADD MSTORE PUSH1 0x64 SWAP1 REVERT JUMPDEST PUSH4 0x1E4FBDF7 PUSH1 0xE0 SHL PUSH1 0x0 MSTORE PUSH1 0x0 PUSH1 0x4 MSTORE PUSH1 0x24 PUSH1 0x0 REVERT JUMPDEST ADD MLOAD SWAP1 POP CODESIZE DUP1 PUSH2 0x137 JUMP JUMPDEST PUSH1 0x1F NOT DUP3 AND SWAP4 PUSH1 0x1 PUSH1 0x0 MSTORE DUP1 PUSH1 0x0 KECCAK256 SWAP2 PUSH1 0x0 JUMPDEST DUP7 DUP2 LT PUSH2 0x275 JUMPI POP DUP4 PUSH1 0x1 SWAP6 SWAP7 LT PUSH2 0x25C JUMPI JUMPDEST POP POP POP DUP2 SHL ADD PUSH1 0x1 SSTORE PUSH2 0x14D JUMP JUMPDEST ADD MLOAD PUSH1 0x0 NOT PUSH1 0xF8 DUP5 PUSH1 0x3 SHL AND SHR NOT AND SWAP1 SSTORE CODESIZE DUP1 DUP1 PUSH2 0x24E JUMP JUMPDEST SWAP2 SWAP3 PUSH1 0x20 PUSH1 0x1 DUP2 SWAP3 DUP7 DUP6 ADD MLOAD DUP2 SSTORE ADD SWAP5 ADD SWAP3 ADD PUSH2 0x23B JUMP JUMPDEST PUSH1 0x1 PUSH1 0x0 MSTORE PUSH32 0xB10E2D527612073B26EECDFD717E6A320CF44B4AFAC2B0732D9FCBE2B7FA0CF6 PUSH1 0x1F DUP4 ADD PUSH1 0x5 SHR DUP2 ADD SWAP2 PUSH1 0x20 DUP5 LT PUSH2 0x2E8 JUMPI JUMPDEST PUSH1 0x1F ADD PUSH1 0x5 SHR ADD SWAP1 JUMPDEST DUP2 DUP2 LT PUSH2 0x2DC JUMPI POP PUSH2 0x11C JUMP JUMPDEST PUSH1 0x0 DUP2 SSTORE PUSH1 0x1 ADD PUSH2 0x2CF JUMP JUMPDEST SWAP1 SWAP2 POP DUP2 SWAP1 PUSH2 0x2C6 JUMP JUMPDEST PUSH4 0x4E487B71 PUSH1 0xE0 SHL PUSH1 0x0 MSTORE PUSH1 0x22 PUSH1 0x4 MSTORE PUSH1 0x24 PUSH1 0x0 REVERT JUMPDEST SWAP1 PUSH1 0x7F AND SWAP1 PUSH2 0x10A JUMP JUMPDEST PUSH4 0x4E487B71 PUSH1 0xE0 SHL PUSH1 0x0 MSTORE PUSH1 0x41 PUSH1 0x4 MSTORE PUSH1 0x24 PUSH1 0x0 REVERT JUMPDEST ADD MLOAD SWAP1 POP CODESIZE DUP1 PUSH2 0xD3 JUMP JUMPDEST PUSH1 0x1F NOT DUP3 AND SWAP1 PUSH1 0x0 DUP1 MSTORE DUP1 PUSH1 0x0 KECCAK256 SWAP2 PUSH1 0x0 JUMPDEST DUP2 DUP2 LT PUSH2 0x381 JUMPI POP SWAP6 DUP4 PUSH1 0x1 SWAP6 SWAP7 SWAP8 LT PUSH2 0x368 JUMPI JUMPDEST POP POP POP DUP2 SHL ADD PUSH1 0x0 SSTORE PUSH2 0xE9 JUMP JUMPDEST ADD MLOAD PUSH1 0x0 NOT PUSH1 0xF8 DUP5 PUSH1 0x3 SHL AND SHR NOT AND SWAP1 SSTORE CODESIZE DUP1 DUP1 PUSH2 0x35A JUMP JUMPDEST SWAP2 SWAP3 PUSH1 0x20 PUSH1 0x1 DUP2 SWAP3 DUP7 DUP12 ADD MLOAD DUP2 SSTORE ADD SWAP5 ADD SWAP3 ADD PUSH2 0x345 JUMP JUMPDEST PUSH1 0x0 DUP1 MSTORE PUSH32 0x290DECD9548B62A8D60345A988386FC84BA6BC95484008F6362F93160EF3E563 PUSH1 0x1F DUP4 ADD PUSH1 0x5 SHR DUP2 ADD SWAP2 PUSH1 0x20 DUP5 LT PUSH2 0x3F3 JUMPI JUMPDEST PUSH1 0x1F ADD PUSH1 0x5 SHR ADD SWAP1 JUMPDEST DUP2 DUP2 LT PUSH2 0x3E7 JUMPI POP PUSH2 0xB9 JUMP JUMPDEST PUSH1 0x0 DUP2 SSTORE PUSH1 0x1 ADD PUSH2 0x3DA JUMP JUMPDEST SWAP1 SWAP2 POP DUP2 SWAP1 PUSH2 0x3D1 JUMP JUMPDEST SWAP1 PUSH1 0x7F AND SWAP1 PUSH2 0xA7 JUMP JUMPDEST PUSH1 0x0 DUP1 REVERT JUMPDEST PUSH1 0x40 MLOAD SWAP2 SWAP1 PUSH1 0x1F ADD PUSH1 0x1F NOT AND DUP3 ADD PUSH1 0x1 PUSH1 0x1 PUSH1 0x40 SHL SUB DUP2 GT DUP4 DUP3 LT OR PUSH2 0x312 JUMPI PUSH1 0x40 MSTORE JUMP INVALID PUSH1 0x80 PUSH1 0x40 MSTORE PUSH1 0x4 CALLDATASIZE LT ISZERO PUSH2 0x12 JUMPI PUSH1 0x0 DUP1 REVERT JUMPDEST PUSH1 0x0 DUP1 CALLDATALOAD PUSH1 0xE0 SHR DUP1 PUSH3 0xF5F421 EQ PUSH2 0x16BF JUMPI DUP1 PUSH4 0x1FFC9A7 EQ PUSH2 0x15EC JUMPI DUP1 PUSH4 0x483FC5E EQ PUSH2 0x14D2 JUMPI DUP1 PUSH4 0x6FDDE03 EQ PUSH2 0x1417 JUMPI DUP1 PUSH4 0x81812FC EQ PUSH2 0x13DA JUMPI DUP1 PUSH4 0x95EA7B3 EQ PUSH2 0x12D5 JUMPI DUP1 PUSH4 0x1EC8BB8C EQ PUSH2 0x117D JUMPI DUP1 PUSH4 0x220CCE97 EQ PUSH2 0x1156 JUMPI DUP1 PUSH4 0x23B872DD EQ PUSH2 0x113E JUMPI DUP1 PUSH4 0x280E31CC EQ PUSH2 0x1106 JUMPI DUP1 PUSH4 0x2B50496C EQ PUSH2 0x10DC JUMPI DUP1 PUSH4 0x2E459C1E EQ PUSH2 0x103F JUMPI DUP1 PUSH4 0x36816EBC EQ PUSH2 0x1002 JUMPI DUP1 PUSH4 0x42842E0E EQ PUSH2 0xFD2 JUMPI DUP1 PUSH4 0x4CA4B2D3 EQ PUSH2 0xF40 JUMPI DUP1 PUSH4 0x5BAE9D47 EQ PUSH2 0xEF6 JUMPI DUP1 PUSH4 0x6352211E EQ PUSH2 0xEC6 JUMPI DUP1 PUSH4 0x6871EE40 EQ PUSH2 0xEA3 JUMPI DUP1 PUSH4 0x6A627842 EQ PUSH2 0xE70 JUMPI DUP1 PUSH4 0x6ADA251F EQ PUSH2 0xE33 JUMPI DUP1 PUSH4 0x70A08231 EQ PUSH2 0xDC8 JUMPI DUP1 PUSH4 0x715018A6 EQ PUSH2 0xD6D JUMPI DUP1 PUSH4 0x842CE381 EQ PUSH2 0xD46 JUMPI DUP1 PUSH4 0x8809AA1D EQ PUSH2 0xC85 JUMPI DUP1 PUSH4 0x8DA5CB5B EQ PUSH2 0xC5E JUMPI DUP1 PUSH4 0x90690C9A EQ PUSH2 0xA56 JUMPI DUP1 PUSH4 0x95D89B41 EQ PUSH2 0x949 JUMPI DUP1 PUSH4 0xA22CB465 EQ PUSH2 0x88D JUMPI DUP1 PUSH4 0xA49062D4 EQ PUSH2 0x871 JUMPI DUP1 PUSH4 0xB88D4FDE EQ PUSH2 0x7D2 JUMPI DUP1 PUSH4 0xBEC98691 EQ PUSH2 0x7A8 JUMPI DUP1 PUSH4 0xC87B56DD EQ PUSH2 0x45D JUMPI DUP1 PUSH4 0xD2A4B0C3 EQ PUSH2 0x407 JUMPI DUP1 PUSH4 0xDFA0DFA5 EQ PUSH2 0x359 JUMPI DUP1 PUSH4 0xE985E9C5 EQ PUSH2 0x304 JUMPI DUP1 PUSH4 0xF2FDE38B EQ PUSH2 0x264 JUMPI PUSH4 0xFB272A92 EQ PUSH2 0x1B3 JUMPI PUSH1 0x0 DUP1 REVERT JUMPDEST CALLVALUE PUSH2 0x261 JUMPI PUSH1 0x20 PUSH1 0x3 NOT CALLDATASIZE ADD SLT PUSH2 0x261 JUMPI PUSH1 0x1 PUSH1 0x1 PUSH1 0xA0 SHL SUB PUSH2 0x1D4 PUSH2 0x16E1 JUMP JUMPDEST PUSH2 0x1DC PUSH2 0x1E2C JUMP JUMPDEST AND DUP1 ISZERO PUSH2 0x1F7 JUMPI PUSH1 0x1 PUSH1 0x1 PUSH1 0xA0 SHL SUB NOT PUSH1 0x8 SLOAD AND OR PUSH1 0x8 SSTORE DUP1 RETURN JUMPDEST PUSH1 0x84 PUSH1 0x40 MLOAD PUSH3 0x461BCD PUSH1 0xE5 SHL DUP2 MSTORE PUSH1 0x20 PUSH1 0x4 DUP3 ADD MSTORE PUSH1 0x23 PUSH1 0x24 DUP3 ADD MSTORE PUSH32 0x496E76616C6964207375626D697373696F6E20636F6E74726163742061646472 PUSH1 0x44 DUP3 ADD MSTORE PUSH32 0x6573730000000000000000000000000000000000000000000000000000000000 PUSH1 0x64 DUP3 ADD MSTORE REVERT JUMPDEST DUP1 REVERT JUMPDEST POP CALLVALUE PUSH2 0x261 JUMPI PUSH1 0x20 PUSH1 0x3 NOT CALLDATASIZE ADD SLT PUSH2 0x261 JUMPI PUSH1 0x1 PUSH1 0x1 PUSH1 0xA0 SHL SUB PUSH2 0x286 PUSH2 0x16E1 JUMP JUMPDEST PUSH2 0x28E PUSH2 0x1E2C JUMP JUMPDEST AND DUP1 ISZERO PUSH2 0x2D8 JUMPI PUSH1 0x1 PUSH1 0x1 PUSH1 0xA0 SHL SUB PUSH1 0x6 SLOAD DUP3 PUSH1 0x1 PUSH1 0x1 PUSH1 0xA0 SHL SUB NOT DUP3 AND OR PUSH1 0x6 SSTORE AND PUSH32 0x8BE0079C531659141344CD1FD0A4F28419497F9722A3DAAFE3B4186F6B6457E0 DUP4 DUP1 LOG3 DUP1 RETURN JUMPDEST PUSH1 0x24 DUP3 PUSH32 0x1E4FBDF700000000000000000000000000000000000000000000000000000000 DUP2 MSTORE DUP1 PUSH1 0x4 MSTORE REVERT JUMPDEST POP CALLVALUE PUSH2 0x261 JUMPI PUSH1 0x40 PUSH1 0x3 NOT CALLDATASIZE ADD SLT PUSH2 0x261 JUMPI PUSH1 0x1 PUSH1 0x1 PUSH1 0xA0 SHL SUB PUSH1 0x40 PUSH2 0x328 PUSH2 0x16E1 JUMP JUMPDEST SWAP3 DUP3 PUSH2 0x332 PUSH2 0x16FC JUMP JUMPDEST SWAP5 AND DUP2 MSTORE PUSH1 0x5 PUSH1 0x20 MSTORE KECCAK256 SWAP2 AND PUSH1 0x0 MSTORE PUSH1 0x20 MSTORE PUSH1 0x20 PUSH1 0xFF PUSH1 0x40 PUSH1 0x0 KECCAK256 SLOAD AND PUSH1 0x40 MLOAD SWAP1 ISZERO ISZERO DUP2 MSTORE RETURN JUMPDEST POP CALLVALUE PUSH2 0x261 JUMPI PUSH1 0x20 PUSH1 0x3 NOT CALLDATASIZE ADD SLT PUSH2 0x261 JUMPI PUSH1 0x1 PUSH1 0x1 PUSH1 0xA0 SHL SUB PUSH2 0x37B PUSH2 0x16E1 JUMP JUMPDEST PUSH2 0x383 PUSH2 0x1E2C JUMP JUMPDEST AND DUP1 ISZERO PUSH2 0x3C3 JUMPI DUP1 PUSH1 0x1 PUSH1 0x1 PUSH1 0xA0 SHL SUB NOT PUSH1 0x7 SLOAD AND OR PUSH1 0x7 SSTORE PUSH32 0xA9089F50B49C9B1B26EE1744C931F5D26F9F822F883AA12A567295B838731666 DUP3 DUP1 LOG2 DUP1 RETURN JUMPDEST PUSH1 0x64 PUSH1 0x40 MLOAD PUSH3 0x461BCD PUSH1 0xE5 SHL DUP2 MSTORE PUSH1 0x20 PUSH1 0x4 DUP3 ADD MSTORE PUSH1 0x20 PUSH1 0x24 DUP3 ADD MSTORE PUSH32 0x496E76616C6964207265776172647320636F6E74726163742061646472657373 PUSH1 0x44 DUP3 ADD MSTORE REVERT JUMPDEST POP CALLVALUE PUSH2 0x261 JUMPI PUSH1 0x20 PUSH1 0x3 NOT CALLDATASIZE ADD SLT PUSH2 0x261 JUMPI PUSH1 0x4 CALLDATALOAD PUSH2 0x424 PUSH2 0x1E2C JUMP JUMPDEST PUSH2 0x42D DUP2 PUSH2 0x1E6E JUMP JUMPDEST PUSH2 0x436 DUP2 PUSH2 0x1ED0 JUMP JUMPDEST PUSH32 0xB5502E88C22257623A9988317E190B78FCE96C36EE7CA3F945189E19E9207C2F DUP3 DUP1 LOG2 DUP1 RETURN JUMPDEST POP CALLVALUE PUSH2 0x261 JUMPI PUSH1 0x20 PUSH1 0x3 NOT CALLDATASIZE ADD SLT PUSH2 0x261 JUMPI PUSH2 0x7A4 SWAP1 PUSH2 0x73E PUSH1 0x4 CALLDATALOAD SWAP2 PUSH2 0x483 DUP4 PUSH2 0x1E6E JUMP JUMPDEST DUP3 DUP2 MSTORE PUSH1 0xE PUSH1 0x20 MSTORE PUSH1 0x40 DUP2 KECCAK256 SLOAD SWAP1 DUP4 DUP2 MSTORE PUSH1 0xF PUSH1 0x20 MSTORE PUSH2 0x6DC PUSH1 0x2 PUSH1 0x1 PUSH1 0x40 DUP5 KECCAK256 SLOAD SWAP5 DUP2 PUSH2 0x4C2 PUSH2 0x4BC PUSH2 0x4B6 DUP5 PUSH2 0x26D3 JUMP JUMPDEST SWAP11 PUSH2 0x280C JUMP JUMPDEST SWAP3 PUSH2 0x280C JUMP JUMPDEST SWAP9 PUSH1 0x3D PUSH2 0x58E PUSH2 0x551 PUSH2 0x516 PUSH2 0x510 PUSH1 0x40 SWAP15 DUP16 PUSH2 0x4E1 DUP2 MLOAD SWAP2 DUP3 PUSH2 0x1794 JUMP JUMPDEST PUSH1 0x5 DUP2 MSTORE PUSH32 0x4C6576656C000000000000000000000000000000000000000000000000000000 PUSH1 0x20 DUP3 ADD MSTORE PUSH2 0x2970 JUMP JUMPDEST SWAP12 PUSH2 0x280C JUMP JUMPDEST DUP14 MLOAD PUSH2 0x522 DUP16 DUP3 PUSH2 0x1794 JUMP JUMPDEST PUSH1 0x6 DUP2 MSTORE PUSH32 0x496D706163740000000000000000000000000000000000000000000000000000 PUSH1 0x20 DUP3 ADD MSTORE PUSH2 0x2970 JUMP JUMPDEST SWAP3 DUP13 PUSH2 0x55F DUP2 MLOAD SWAP2 DUP3 PUSH2 0x1794 JUMP JUMPDEST PUSH1 0x8 DUP2 MSTORE PUSH32 0x43617465676F7279000000000000000000000000000000000000000000000000 PUSH1 0x20 DUP3 ADD MSTORE PUSH2 0x2970 JUMP JUMPDEST SWAP2 PUSH1 0x39 DUP13 MLOAD SWAP11 DUP12 SWAP7 PUSH32 0x7B226E616D65223A22496D706163742050726F64756374202300000000000000 PUSH1 0x20 DUP10 ADD MSTORE PUSH2 0x5CF DUP2 MLOAD DUP1 SWAP3 PUSH1 0x20 DUP7 DUP13 ADD SWAP2 ADD PUSH2 0x1712 JUMP JUMPDEST DUP8 ADD PUSH32 0x222C226465736372697074696F6E223A224465436C65616E757020496D706163 DUP4 DUP3 ADD MSTORE PUSH32 0x742050726F64756374204E4654222C2261747472696275746573223A5B000000 PUSH1 0x59 DUP3 ADD MSTORE PUSH2 0x630 DUP3 MLOAD DUP1 SWAP4 PUSH1 0x20 PUSH1 0x76 DUP6 ADD SWAP2 ADD PUSH2 0x1712 JUMP JUMPDEST ADD ADD PUSH32 0x2C00000000000000000000000000000000000000000000000000000000000000 DUP4 DUP3 ADD MSTORE PUSH2 0x66B DUP3 MLOAD DUP1 SWAP4 PUSH1 0x20 PUSH1 0x3E DUP6 ADD SWAP2 ADD PUSH2 0x1712 JUMP JUMPDEST ADD ADD PUSH32 0x2C00000000000000000000000000000000000000000000000000000000000000 DUP4 DUP3 ADD MSTORE PUSH2 0x6A5 DUP3 MLOAD DUP1 SWAP4 PUSH1 0x20 DUP10 DUP6 ADD SWAP2 ADD PUSH2 0x1712 JUMP JUMPDEST ADD ADD PUSH32 0x5D7D000000000000000000000000000000000000000000000000000000000000 DUP4 DUP3 ADD MSTORE SUB ADD PUSH1 0x1D NOT DUP2 ADD DUP6 MSTORE ADD DUP4 PUSH2 0x1794 JUMP JUMPDEST POP DUP3 MLOAD SWAP1 PUSH2 0x6EB PUSH1 0x60 DUP4 PUSH2 0x1794 JUMP JUMPDEST DUP4 DUP3 MSTORE PUSH32 0x4142434445464748494A4B4C4D4E4F505152535455565758595A616263646566 PUSH1 0x20 DUP4 ADD MSTORE PUSH32 0x6768696A6B6C6D6E6F707172737475767778797A303132333435363738392B2F DUP5 DUP4 ADD MSTORE PUSH2 0x2AE6 JUMP JUMPDEST SWAP1 PUSH2 0x792 PUSH1 0x3D DUP3 MLOAD DUP1 SWAP5 PUSH32 0x646174613A6170706C69636174696F6E2F6A736F6E3B6261736536342C000000 PUSH1 0x20 DUP4 ADD MSTORE PUSH2 0x781 DUP2 MLOAD DUP1 SWAP3 PUSH1 0x20 DUP7 DUP7 ADD SWAP2 ADD PUSH2 0x1712 JUMP JUMPDEST DUP2 ADD SUB ADD PUSH1 0x1F NOT DUP2 ADD DUP5 MSTORE DUP4 PUSH2 0x1794 JUMP JUMPDEST MLOAD SWAP2 DUP3 SWAP2 PUSH1 0x20 DUP4 MSTORE PUSH1 0x20 DUP4 ADD SWAP1 PUSH2 0x1735 JUMP JUMPDEST SUB SWAP1 RETURN JUMPDEST POP CALLVALUE PUSH2 0x261 JUMPI PUSH1 0x20 PUSH1 0x3 NOT CALLDATASIZE ADD SLT PUSH2 0x261 JUMPI PUSH1 0x40 PUSH1 0x20 SWAP2 PUSH1 0x4 CALLDATALOAD DUP2 MSTORE PUSH1 0xE DUP4 MSTORE KECCAK256 SLOAD PUSH1 0x40 MLOAD SWAP1 DUP2 MSTORE RETURN JUMPDEST POP CALLVALUE PUSH2 0x261 JUMPI PUSH1 0x80 PUSH1 0x3 NOT CALLDATASIZE ADD SLT PUSH2 0x261 JUMPI PUSH2 0x7EC PUSH2 0x16E1 JUMP JUMPDEST PUSH2 0x7F4 PUSH2 0x16FC JUMP JUMPDEST PUSH1 0x44 CALLDATALOAD PUSH1 0x64 CALLDATALOAD SWAP2 PUSH8 0xFFFFFFFFFFFFFFFF DUP4 GT PUSH2 0x86D JUMPI CALLDATASIZE PUSH1 0x23 DUP5 ADD SLT ISZERO PUSH2 0x86D JUMPI DUP3 PUSH1 0x4 ADD CALLDATALOAD SWAP4 DUP6 PUSH2 0x825 DUP7 PUSH2 0x17CD JUMP JUMPDEST SWAP5 PUSH2 0x833 PUSH1 0x40 MLOAD SWAP7 DUP8 PUSH2 0x1794 JUMP JUMPDEST DUP7 DUP7 MSTORE CALLDATASIZE PUSH1 0x24 DUP9 DUP4 ADD ADD GT PUSH2 0x869 JUMPI DUP7 PUSH2 0x866 SWAP8 PUSH1 0x24 PUSH1 0x20 SWAP4 ADD DUP4 DUP10 ADD CALLDATACOPY DUP7 ADD ADD MSTORE PUSH2 0x860 DUP4 DUP4 DUP4 PUSH2 0x1A9C JUMP JUMPDEST CALLER PUSH2 0x2566 JUMP JUMPDEST DUP1 RETURN JUMPDEST POP DUP1 REVERT JUMPDEST DUP5 DUP1 REVERT JUMPDEST POP CALLVALUE PUSH2 0x261 JUMPI DUP1 PUSH1 0x3 NOT CALLDATASIZE ADD SLT PUSH2 0x261 JUMPI PUSH1 0x20 PUSH1 0x40 MLOAD PUSH1 0xA DUP2 MSTORE RETURN JUMPDEST POP CALLVALUE PUSH2 0x261 JUMPI PUSH1 0x40 PUSH1 0x3 NOT CALLDATASIZE ADD SLT PUSH2 0x261 JUMPI PUSH2 0x8A7 PUSH2 0x16E1 JUMP JUMPDEST PUSH1 0x24 CALLDATALOAD SWAP1 DUP2 ISZERO ISZERO DUP1 SWAP3 SUB PUSH2 0x945 JUMPI PUSH1 0x1 PUSH1 0x1 PUSH1 0xA0 SHL SUB AND SWAP1 DUP2 ISZERO PUSH2 0x919 JUMPI CALLER DUP4 MSTORE PUSH1 0x5 PUSH1 0x20 MSTORE PUSH1 0x40 DUP4 KECCAK256 DUP3 PUSH1 0x0 MSTORE PUSH1 0x20 MSTORE PUSH1 0x40 PUSH1 0x0 KECCAK256 PUSH1 0xFF NOT DUP2 SLOAD AND PUSH1 0xFF DUP4 AND OR SWAP1 SSTORE PUSH1 0x40 MLOAD SWAP1 DUP2 MSTORE PUSH32 0x17307EAB39AB6107E8899845AD3D59BD9653F200F220920489CA2B5937696C31 PUSH1 0x20 CALLER SWAP3 LOG3 DUP1 RETURN JUMPDEST PUSH1 0x24 DUP4 DUP4 PUSH32 0x5B08BA1800000000000000000000000000000000000000000000000000000000 DUP3 MSTORE PUSH1 0x4 MSTORE REVERT JUMPDEST DUP3 DUP1 REVERT JUMPDEST POP CALLVALUE PUSH2 0x261 JUMPI DUP1 PUSH1 0x3 NOT CALLDATASIZE ADD SLT PUSH2 0x261 JUMPI PUSH1 0x40 MLOAD SWAP1 DUP1 PUSH1 0x1 SLOAD SWAP1 DUP2 PUSH1 0x1 SHR SWAP2 PUSH1 0x1 DUP2 AND DUP1 ISZERO PUSH2 0xA4C JUMPI JUMPDEST PUSH1 0x20 DUP5 LT DUP2 EQ PUSH2 0xA38 JUMPI DUP4 DUP7 MSTORE SWAP1 DUP2 ISZERO PUSH2 0xA11 JUMPI POP PUSH1 0x1 EQ PUSH2 0x9B4 JUMPI JUMPDEST PUSH2 0x7A4 DUP5 PUSH2 0x9A0 DUP2 DUP7 SUB DUP3 PUSH2 0x1794 JUMP JUMPDEST PUSH1 0x40 MLOAD SWAP2 DUP3 SWAP2 PUSH1 0x20 DUP4 MSTORE PUSH1 0x20 DUP4 ADD SWAP1 PUSH2 0x1735 JUMP JUMPDEST PUSH1 0x1 DUP2 MSTORE PUSH32 0xB10E2D527612073B26EECDFD717E6A320CF44B4AFAC2B0732D9FCBE2B7FA0CF6 SWAP4 SWAP3 POP SWAP1 JUMPDEST DUP1 DUP3 LT PUSH2 0x9F7 JUMPI POP SWAP1 SWAP2 POP DUP2 ADD PUSH1 0x20 ADD PUSH2 0x9A0 DUP3 PUSH2 0x990 JUMP JUMPDEST SWAP2 SWAP3 PUSH1 0x1 DUP2 PUSH1 0x20 SWAP3 SLOAD DUP4 DUP6 DUP9 ADD ADD MSTORE ADD SWAP2 ADD SWAP1 SWAP3 SWAP2 PUSH2 0x9DE JUMP JUMPDEST PUSH1 0xFF NOT AND PUSH1 0x20 DUP1 DUP8 ADD SWAP2 SWAP1 SWAP2 MSTORE SWAP3 ISZERO ISZERO PUSH1 0x5 SHL DUP6 ADD SWAP1 SWAP3 ADD SWAP3 POP PUSH2 0x9A0 SWAP2 POP DUP4 SWAP1 POP PUSH2 0x990 JUMP JUMPDEST PUSH1 0x24 DUP4 PUSH4 0x4E487B71 PUSH1 0xE0 SHL DUP2 MSTORE PUSH1 0x22 PUSH1 0x4 MSTORE REVERT JUMPDEST SWAP3 PUSH1 0x7F AND SWAP3 PUSH2 0x973 JUMP JUMPDEST POP CALLVALUE PUSH2 0x261 JUMPI PUSH1 0x20 PUSH1 0x3 NOT CALLDATASIZE ADD SLT PUSH2 0x261 JUMPI PUSH1 0x4 CALLDATALOAD PUSH2 0xA74 DUP2 PUSH2 0x1E6E JUMP JUMPDEST PUSH2 0xA7D DUP2 PUSH2 0x1F1C JUMP JUMPDEST PUSH1 0x1 PUSH1 0x1 PUSH1 0xA0 SHL SUB CALLER SWAP2 AND SUB PUSH2 0xC1A JUMPI PUSH2 0xA96 CALLER PUSH2 0x21BC JUMP JUMPDEST DUP1 DUP3 MSTORE PUSH1 0xE PUSH1 0x20 MSTORE PUSH1 0x40 DUP3 KECCAK256 SLOAD PUSH1 0xA DUP2 LT ISZERO PUSH2 0xBB0 JUMPI PUSH1 0x1 DUP2 ADD DUP1 SWAP2 GT PUSH2 0xB9C JUMPI DUP2 DUP4 MSTORE PUSH1 0xE PUSH1 0x20 MSTORE DUP1 PUSH1 0x40 DUP5 KECCAK256 SSTORE CALLER DUP4 MSTORE PUSH1 0xC PUSH1 0x20 MSTORE DUP1 PUSH1 0x40 DUP5 KECCAK256 SSTORE DUP3 PUSH1 0x1 PUSH1 0x1 PUSH1 0xA0 SHL SUB PUSH1 0x7 SLOAD AND DUP1 PUSH2 0xB16 JUMPI JUMPDEST POP POP PUSH1 0x20 PUSH32 0xC0869FCC4841CC6E2CE714C6457A98E2ED521AD954FA9CA4A8BEC086DAC4839 SWAP2 PUSH1 0x40 MLOAD SWAP1 DUP2 MSTORE LOG2 DUP1 RETURN JUMPDEST DUP1 EXTCODESIZE ISZERO PUSH2 0x869 JUMPI DUP2 SWAP1 PUSH1 0x44 PUSH1 0x40 MLOAD DUP1 SWAP5 DUP2 SWAP4 PUSH32 0x21C838EF00000000000000000000000000000000000000000000000000000000 DUP4 MSTORE CALLER PUSH1 0x4 DUP5 ADD MSTORE DUP8 PUSH1 0x24 DUP5 ADD MSTORE GAS CALL PUSH2 0xB65 JUMPI JUMPDEST DUP4 SWAP1 PUSH2 0xAE6 JUMP JUMPDEST DUP4 PUSH2 0xB94 PUSH32 0xC0869FCC4841CC6E2CE714C6457A98E2ED521AD954FA9CA4A8BEC086DAC4839 SWAP4 SWAP6 PUSH1 0x20 SWAP4 PUSH2 0x1794 JUMP JUMPDEST SWAP4 SWAP2 POP PUSH2 0xB5E JUMP JUMPDEST PUSH1 0x24 DUP4 PUSH4 0x4E487B71 PUSH1 0xE0 SHL DUP2 MSTORE PUSH1 0x11 PUSH1 0x4 MSTORE REVERT JUMPDEST PUSH1 0x84 PUSH1 0x40 MLOAD PUSH3 0x461BCD PUSH1 0xE5 SHL DUP2 MSTORE PUSH1 0x20 PUSH1 0x4 DUP3 ADD MSTORE PUSH1 0x22 PUSH1 0x24 DUP3 ADD MSTORE PUSH32 0x596F752068617665207265616368656420746865206D6178696D756D206C6576 PUSH1 0x44 DUP3 ADD MSTORE PUSH32 0x656C000000000000000000000000000000000000000000000000000000000000 PUSH1 0x64 DUP3 ADD MSTORE REVERT JUMPDEST PUSH1 0x64 PUSH1 0x40 MLOAD PUSH3 0x461BCD PUSH1 0xE5 SHL DUP2 MSTORE PUSH1 0x20 PUSH1 0x4 DUP3 ADD MSTORE PUSH1 0x18 PUSH1 0x24 DUP3 ADD MSTORE PUSH32 0x596F7520646F6E2774206F776E207468697320746F6B656E0000000000000000 PUSH1 0x44 DUP3 ADD MSTORE REVERT JUMPDEST POP CALLVALUE PUSH2 0x261 JUMPI DUP1 PUSH1 0x3 NOT CALLDATASIZE ADD SLT PUSH2 0x261 JUMPI PUSH1 0x20 PUSH1 0x1 PUSH1 0x1 PUSH1 0xA0 SHL SUB PUSH1 0x6 SLOAD AND PUSH1 0x40 MLOAD SWAP1 DUP2 MSTORE RETURN JUMPDEST POP CALLVALUE PUSH2 0x261 JUMPI PUSH1 0x40 PUSH1 0x3 NOT CALLDATASIZE ADD SLT PUSH2 0x261 JUMPI PUSH1 0x4 CALLDATALOAD PUSH1 0x24 CALLDATALOAD PUSH2 0xCA5 PUSH2 0x1E2C JUMP JUMPDEST PUSH2 0xCAE DUP3 PUSH2 0x1E6E JUMP JUMPDEST DUP1 ISZERO ISZERO DUP1 PUSH2 0xD3B JUMPI JUMPDEST ISZERO PUSH2 0xCF7 JUMPI PUSH1 0x20 PUSH32 0x765D03C6D43B57E69C7749C9B65749BBA0029E3225751B3FE130339366D942D6 SWAP2 DUP4 DUP6 MSTORE PUSH1 0xF DUP3 MSTORE DUP1 PUSH1 0x40 DUP7 KECCAK256 SSTORE PUSH1 0x40 MLOAD SWAP1 DUP2 MSTORE LOG2 DUP1 RETURN JUMPDEST PUSH1 0x64 PUSH1 0x40 MLOAD PUSH3 0x461BCD PUSH1 0xE5 SHL DUP2 MSTORE PUSH1 0x20 PUSH1 0x4 DUP3 ADD MSTORE PUSH1 0x1A PUSH1 0x24 DUP3 ADD MSTORE PUSH32 0x496E76616C696420696D70616374206C6576656C2072616E6765000000000000 PUSH1 0x44 DUP3 ADD MSTORE REVERT JUMPDEST POP PUSH1 0xA DUP2 GT ISZERO PUSH2 0xCB7 JUMP JUMPDEST POP CALLVALUE PUSH2 0x261 JUMPI DUP1 PUSH1 0x3 NOT CALLDATASIZE ADD SLT PUSH2 0x261 JUMPI PUSH1 0x20 PUSH1 0x1 PUSH1 0x1 PUSH1 0xA0 SHL SUB PUSH1 0x8 SLOAD AND PUSH1 0x40 MLOAD SWAP1 DUP2 MSTORE RETURN JUMPDEST POP CALLVALUE PUSH2 0x261 JUMPI DUP1 PUSH1 0x3 NOT CALLDATASIZE ADD SLT PUSH2 0x261 JUMPI PUSH2 0xD86 PUSH2 0x1E2C JUMP JUMPDEST DUP1 PUSH1 0x1 PUSH1 0x1 PUSH1 0xA0 SHL SUB PUSH1 0x6 SLOAD PUSH1 0x1 PUSH1 0x1 PUSH1 0xA0 SHL SUB NOT DUP2 AND PUSH1 0x6 SSTORE AND PUSH32 0x8BE0079C531659141344CD1FD0A4F28419497F9722A3DAAFE3B4186F6B6457E0 DUP3 DUP1 LOG3 DUP1 RETURN JUMPDEST POP CALLVALUE PUSH2 0x261 JUMPI PUSH1 0x20 PUSH1 0x3 NOT CALLDATASIZE ADD SLT PUSH2 0x261 JUMPI PUSH1 0x1 PUSH1 0x1 PUSH1 0xA0 SHL SUB PUSH2 0xDEA PUSH2 0x16E1 JUMP JUMPDEST AND DUP1 ISZERO PUSH2 0xE07 JUMPI DUP2 PUSH1 0x40 SWAP2 PUSH1 0x20 SWAP4 MSTORE PUSH1 0x3 DUP4 MSTORE KECCAK256 SLOAD PUSH1 0x40 MLOAD SWAP1 DUP2 MSTORE RETURN JUMPDEST PUSH1 0x24 DUP3 PUSH32 0x89C62B6400000000000000000000000000000000000000000000000000000000 DUP2 MSTORE DUP1 PUSH1 0x4 MSTORE REVERT JUMPDEST POP CALLVALUE PUSH2 0x261 JUMPI PUSH1 0x20 PUSH1 0x3 NOT CALLDATASIZE ADD SLT PUSH2 0x261 JUMPI PUSH1 0xFF PUSH1 0x40 PUSH1 0x20 SWAP3 PUSH1 0x1 PUSH1 0x1 PUSH1 0xA0 SHL SUB PUSH2 0xE5C PUSH2 0x16E1 JUMP JUMPDEST AND DUP2 MSTORE PUSH1 0xA DUP5 MSTORE KECCAK256 SLOAD AND PUSH1 0x40 MLOAD SWAP1 ISZERO ISZERO DUP2 MSTORE RETURN JUMPDEST POP CALLVALUE PUSH2 0x261 JUMPI PUSH1 0x20 PUSH1 0x3 NOT CALLDATASIZE ADD SLT PUSH2 0x261 JUMPI PUSH2 0x866 PUSH2 0xE8D PUSH2 0x16E1 JUMP JUMPDEST PUSH2 0xE95 PUSH2 0x1E2C JUMP JUMPDEST PUSH2 0xE9E DUP2 PUSH2 0x21BC JUMP JUMPDEST PUSH2 0x2221 JUMP JUMPDEST POP CALLVALUE PUSH2 0x261 JUMPI DUP1 PUSH1 0x3 NOT CALLDATASIZE ADD SLT PUSH2 0x261 JUMPI PUSH2 0xEBD CALLER PUSH2 0x21BC JUMP JUMPDEST PUSH2 0x866 CALLER PUSH2 0x2221 JUMP JUMPDEST POP CALLVALUE PUSH2 0x261 JUMPI PUSH1 0x20 PUSH1 0x3 NOT CALLDATASIZE ADD SLT PUSH2 0x261 JUMPI PUSH1 0x20 PUSH2 0xEE5 PUSH1 0x4 CALLDATALOAD PUSH2 0x1F1C JUMP JUMPDEST PUSH1 0x1 PUSH1 0x1 PUSH1 0xA0 SHL SUB PUSH1 0x40 MLOAD SWAP2 AND DUP2 MSTORE RETURN JUMPDEST POP CALLVALUE PUSH2 0x261 JUMPI PUSH1 0x20 PUSH1 0x3 NOT CALLDATASIZE ADD SLT PUSH2 0x261 JUMPI PUSH1 0x40 SWAP1 PUSH1 0x1 PUSH1 0x1 PUSH1 0xA0 SHL SUB DUP3 PUSH1 0x4 CALLDATALOAD SWAP3 DUP4 DUP2 MSTORE PUSH1 0x10 PUSH1 0x20 MSTORE PUSH1 0xFF DUP3 DUP3 KECCAK256 SLOAD AND SWAP4 DUP2 MSTORE PUSH1 0x11 PUSH1 0x20 MSTORE KECCAK256 SLOAD AND DUP3 MLOAD SWAP2 ISZERO ISZERO DUP3 MSTORE PUSH1 0x20 DUP3 ADD MSTORE RETURN JUMPDEST POP CALLVALUE PUSH2 0x261 JUMPI PUSH1 0x20 PUSH1 0x3 NOT CALLDATASIZE ADD SLT PUSH2 0x261 JUMPI PUSH1 0x1 PUSH1 0x1 PUSH1 0xA0 SHL SUB PUSH2 0xF62 PUSH2 0x16E1 JUMP JUMPDEST AND DUP1 DUP3 MSTORE PUSH1 0xD PUSH1 0x20 MSTORE PUSH1 0x40 DUP3 KECCAK256 SLOAD SWAP1 PUSH2 0xF7C DUP3 ISZERO ISZERO PUSH2 0x1DE1 JUMP JUMPDEST PUSH1 0x0 NOT DUP3 ADD SWAP2 DUP3 GT PUSH2 0xB9C JUMPI PUSH1 0x40 PUSH1 0x60 SWAP4 PUSH2 0xFA9 DUP4 PUSH1 0x1 PUSH1 0x1 PUSH1 0xA0 SHL SUB PUSH2 0xFA2 DUP8 PUSH2 0x1F1C JUMP JUMPDEST AND EQ PUSH2 0x1DE1 JUMP JUMPDEST DUP4 DUP2 MSTORE PUSH1 0xF PUSH1 0x20 MSTORE DUP2 DUP2 KECCAK256 SLOAD SWAP3 DUP2 MSTORE PUSH1 0xC PUSH1 0x20 MSTORE KECCAK256 SLOAD SWAP1 PUSH1 0x40 MLOAD SWAP3 DUP4 MSTORE PUSH1 0x20 DUP4 ADD MSTORE PUSH1 0x40 DUP3 ADD MSTORE RETURN JUMPDEST POP CALLVALUE PUSH2 0x261 JUMPI PUSH2 0x866 PUSH2 0xFE4 CALLDATASIZE PUSH2 0x175A JUMP JUMPDEST SWAP1 PUSH1 0x40 MLOAD SWAP3 PUSH2 0xFF4 PUSH1 0x20 DUP6 PUSH2 0x1794 JUMP JUMPDEST DUP6 DUP5 MSTORE PUSH2 0x860 DUP4 DUP4 DUP4 PUSH2 0x1A9C JUMP JUMPDEST POP CALLVALUE PUSH2 0x261 JUMPI PUSH1 0x20 PUSH1 0x3 NOT CALLDATASIZE ADD SLT PUSH2 0x261 JUMPI PUSH1 0xFF PUSH1 0x40 PUSH1 0x20 SWAP3 PUSH1 0x1 PUSH1 0x1 PUSH1 0xA0 SHL SUB PUSH2 0x102B PUSH2 0x16E1 JUMP JUMPDEST AND DUP2 MSTORE PUSH1 0xB DUP5 MSTORE KECCAK256 SLOAD AND PUSH1 0x40 MLOAD SWAP1 ISZERO ISZERO DUP2 MSTORE RETURN JUMPDEST POP CALLVALUE PUSH2 0x261 JUMPI PUSH1 0x40 PUSH1 0x3 NOT CALLDATASIZE ADD SLT PUSH2 0x261 JUMPI PUSH1 0x4 CALLDATALOAD PUSH1 0x1 PUSH1 0x1 PUSH1 0xA0 SHL SUB PUSH2 0x1064 PUSH2 0x16FC JUMP JUMPDEST PUSH2 0x106C PUSH2 0x1E2C JUMP JUMPDEST PUSH2 0x1075 DUP4 PUSH2 0x1E6E JUMP JUMPDEST AND SWAP1 PUSH2 0x1082 DUP3 ISZERO ISZERO PUSH2 0x1A51 JUMP JUMPDEST DUP1 DUP4 MSTORE PUSH1 0x10 PUSH1 0x20 MSTORE PUSH1 0x40 DUP4 KECCAK256 PUSH1 0x1 PUSH1 0xFF NOT DUP3 SLOAD AND OR SWAP1 SSTORE DUP1 DUP4 MSTORE PUSH1 0x11 PUSH1 0x20 MSTORE PUSH1 0x40 DUP4 KECCAK256 DUP3 PUSH1 0x1 PUSH1 0x1 PUSH1 0xA0 SHL SUB NOT DUP3 SLOAD AND OR SWAP1 SSTORE PUSH32 0x176A9858CB229635F8B420A37C2EC0E70BCA8D1BC534E8E1C065D07CD339F13B DUP4 DUP1 LOG3 DUP1 RETURN JUMPDEST POP CALLVALUE PUSH2 0x261 JUMPI PUSH1 0x20 PUSH1 0x3 NOT CALLDATASIZE ADD SLT PUSH2 0x261 JUMPI PUSH1 0x40 PUSH1 0x20 SWAP2 PUSH1 0x4 CALLDATALOAD DUP2 MSTORE PUSH1 0xF DUP4 MSTORE KECCAK256 SLOAD PUSH1 0x40 MLOAD SWAP1 DUP2 MSTORE RETURN JUMPDEST POP CALLVALUE PUSH2 0x261 JUMPI PUSH1 0x20 PUSH1 0x3 NOT CALLDATASIZE ADD SLT PUSH2 0x261 JUMPI PUSH1 0x40 PUSH1 0x20 SWAP2 PUSH1 0x1 PUSH1 0x1 PUSH1 0xA0 SHL SUB PUSH2 0x112D PUSH2 0x16E1 JUMP JUMPDEST AND DUP2 MSTORE PUSH1 0xC DUP4 MSTORE KECCAK256 SLOAD PUSH1 0x40 MLOAD SWAP1 DUP2 MSTORE RETURN JUMPDEST POP CALLVALUE PUSH2 0x261 JUMPI PUSH2 0x866 PUSH2 0x1150 CALLDATASIZE PUSH2 0x175A JUMP JUMPDEST SWAP2 PUSH2 0x1A9C JUMP JUMPDEST POP CALLVALUE PUSH2 0x261 JUMPI DUP1 PUSH1 0x3 NOT CALLDATASIZE ADD SLT PUSH2 0x261 JUMPI PUSH1 0x20 PUSH1 0x1 PUSH1 0x1 PUSH1 0xA0 SHL SUB PUSH1 0x7 SLOAD AND PUSH1 0x40 MLOAD SWAP1 DUP2 MSTORE RETURN JUMPDEST POP CALLVALUE PUSH2 0x261 JUMPI PUSH1 0x40 PUSH1 0x3 NOT CALLDATASIZE ADD SLT PUSH2 0x261 JUMPI PUSH2 0x1197 PUSH2 0x16E1 JUMP JUMPDEST PUSH1 0x1 PUSH1 0x1 PUSH1 0xA0 SHL SUB PUSH1 0x24 CALLDATALOAD SWAP2 PUSH2 0x11AB PUSH2 0x1E2C JUMP JUMPDEST AND DUP1 ISZERO PUSH2 0x1291 JUMPI DUP1 DUP4 MSTORE PUSH1 0xA PUSH1 0x20 MSTORE PUSH1 0xFF PUSH1 0x40 DUP5 KECCAK256 SLOAD AND ISZERO PUSH2 0x124D JUMPI PUSH1 0x1 DUP3 LT ISZERO DUP1 PUSH2 0x1242 JUMPI JUMPDEST ISZERO PUSH2 0x11FE JUMPI PUSH32 0xE34918FF1C7084970068B53FD71AD6D8B04E9F15D3886CBF006443E6CDC52EA6 DUP4 DUP1 LOG3 DUP1 RETURN JUMPDEST PUSH1 0x64 PUSH1 0x40 MLOAD PUSH3 0x461BCD PUSH1 0xE5 SHL DUP2 MSTORE PUSH1 0x20 PUSH1 0x4 DUP3 ADD MSTORE PUSH1 0x13 PUSH1 0x24 DUP3 ADD MSTORE PUSH32 0x496E76616C6964206C6576656C2072616E676500000000000000000000000000 PUSH1 0x44 DUP3 ADD MSTORE REVERT JUMPDEST POP PUSH1 0xA DUP3 GT ISZERO PUSH2 0x11D2 JUMP JUMPDEST PUSH1 0x64 PUSH1 0x40 MLOAD PUSH3 0x461BCD PUSH1 0xE5 SHL DUP2 MSTORE PUSH1 0x20 PUSH1 0x4 DUP3 ADD MSTORE PUSH1 0x1A PUSH1 0x24 DUP3 ADD MSTORE PUSH32 0x55736572206973206E6F74206120766572696669656420504F49000000000000 PUSH1 0x44 DUP3 ADD MSTORE REVERT JUMPDEST PUSH1 0x64 PUSH1 0x40 MLOAD PUSH3 0x461BCD PUSH1 0xE5 SHL DUP2 MSTORE PUSH1 0x20 PUSH1 0x4 DUP3 ADD MSTORE PUSH1 0x14 PUSH1 0x24 DUP3 ADD MSTORE PUSH32 0x496E76616C696420757365722061646472657373000000000000000000000000 PUSH1 0x44 DUP3 ADD MSTORE REVERT JUMPDEST POP CALLVALUE PUSH2 0x261 JUMPI PUSH1 0x40 PUSH1 0x3 NOT CALLDATASIZE ADD SLT PUSH2 0x261 JUMPI PUSH2 0x12EF PUSH2 0x16E1 JUMP JUMPDEST PUSH1 0x24 CALLDATALOAD PUSH2 0x12FB DUP2 PUSH2 0x1F1C JUMP JUMPDEST CALLER ISZERO ISZERO DUP1 PUSH2 0x13C7 JUMPI JUMPDEST DUP1 PUSH2 0x1394 JUMPI JUMPDEST PUSH2 0x1368 JUMPI DUP2 SWAP1 PUSH1 0x1 PUSH1 0x1 PUSH1 0xA0 SHL SUB DUP1 DUP6 AND SWAP2 AND PUSH32 0x8C5BE1E5EBEC7D5BD14F71427D1E84F3DD0314C0F7B2291E5B200AC8C7C3B925 DUP7 DUP1 LOG4 DUP3 MSTORE PUSH1 0x4 PUSH1 0x20 MSTORE PUSH1 0x1 PUSH1 0x1 PUSH1 0xA0 SHL SUB PUSH1 0x40 DUP4 KECCAK256 SWAP2 AND PUSH1 0x1 PUSH1 0x1 PUSH1 0xA0 SHL SUB NOT DUP3 SLOAD AND OR SWAP1 SSTORE DUP1 RETURN JUMPDEST PUSH1 0x24 DUP5 PUSH32 0xA9FBF51F00000000000000000000000000000000000000000000000000000000 DUP2 MSTORE CALLER PUSH1 0x4 MSTORE REVERT JUMPDEST POP PUSH1 0x1 PUSH1 0x1 PUSH1 0xA0 SHL SUB DUP2 AND DUP5 MSTORE PUSH1 0x5 PUSH1 0x20 MSTORE PUSH1 0x40 DUP5 KECCAK256 PUSH1 0x1 PUSH1 0x1 PUSH1 0xA0 SHL SUB CALLER AND DUP6 MSTORE PUSH1 0x20 MSTORE PUSH1 0xFF PUSH1 0x40 DUP6 KECCAK256 SLOAD AND ISZERO PUSH2 0x130A JUMP JUMPDEST POP CALLER PUSH1 0x1 PUSH1 0x1 PUSH1 0xA0 SHL SUB DUP3 AND EQ ISZERO PUSH2 0x1304 JUMP JUMPDEST POP CALLVALUE PUSH2 0x261 JUMPI PUSH1 0x20 PUSH1 0x3 NOT CALLDATASIZE ADD SLT PUSH2 0x261 JUMPI PUSH1 0x1 PUSH1 0x1 PUSH1 0xA0 SHL SUB PUSH1 0x40 PUSH1 0x20 SWAP3 PUSH1 0x4 CALLDATALOAD PUSH2 0x1405 DUP2 PUSH2 0x1F1C JUMP JUMPDEST POP DUP2 MSTORE PUSH1 0x4 DUP5 MSTORE KECCAK256 SLOAD AND PUSH1 0x40 MLOAD SWAP1 DUP2 MSTORE RETURN JUMPDEST POP CALLVALUE PUSH2 0x261 JUMPI DUP1 PUSH1 0x3 NOT CALLDATASIZE ADD SLT PUSH2 0x261 JUMPI PUSH1 0x40 MLOAD SWAP1 DUP1 DUP1 SLOAD SWAP1 DUP2 PUSH1 0x1 SHR SWAP2 PUSH1 0x1 DUP2 AND DUP1 ISZERO PUSH2 0x14C8 JUMPI JUMPDEST PUSH1 0x20 DUP5 LT DUP2 EQ PUSH2 0xA38 JUMPI DUP4 DUP7 MSTORE SWAP1 DUP2 ISZERO PUSH2 0xA11 JUMPI POP PUSH1 0x1 EQ PUSH2 0x146C JUMPI PUSH2 0x7A4 DUP5 PUSH2 0x9A0 DUP2 DUP7 SUB DUP3 PUSH2 0x1794 JUMP JUMPDEST DUP1 DUP1 MSTORE PUSH32 0x290DECD9548B62A8D60345A988386FC84BA6BC95484008F6362F93160EF3E563 SWAP4 SWAP3 POP SWAP1 JUMPDEST DUP1 DUP3 LT PUSH2 0x14AE JUMPI POP SWAP1 SWAP2 POP DUP2 ADD PUSH1 0x20 ADD PUSH2 0x9A0 DUP3 PUSH2 0x990 JUMP JUMPDEST SWAP2 SWAP3 PUSH1 0x1 DUP2 PUSH1 0x20 SWAP3 SLOAD DUP4 DUP6 DUP9 ADD ADD MSTORE ADD SWAP2 ADD SWAP1 SWAP3 SWAP2 PUSH2 0x1495 JUMP JUMPDEST SWAP3 PUSH1 0x7F AND SWAP3 PUSH2 0x1440 JUMP JUMPDEST POP CALLVALUE PUSH2 0x261 JUMPI PUSH1 0x40 PUSH1 0x3 NOT CALLDATASIZE ADD SLT PUSH2 0x261 JUMPI PUSH1 0x4 CALLDATALOAD PUSH2 0x14EF PUSH2 0x16FC JUMP JUMPDEST PUSH2 0x14F7 PUSH2 0x1E2C JUMP JUMPDEST PUSH2 0x1500 DUP3 PUSH2 0x1E6E JUMP JUMPDEST PUSH1 0x1 PUSH1 0x1 PUSH1 0xA0 SHL SUB DUP2 AND ISZERO SWAP1 PUSH2 0x1516 DUP3 ISZERO PUSH2 0x1A51 JUMP JUMPDEST PUSH2 0x151F DUP4 PUSH2 0x1F1C JUMP JUMPDEST SWAP2 DUP4 DUP6 MSTORE PUSH1 0x10 PUSH1 0x20 MSTORE PUSH1 0x40 DUP6 KECCAK256 PUSH1 0x1 PUSH1 0xFF NOT DUP3 SLOAD AND OR SWAP1 SSTORE DUP4 DUP6 MSTORE PUSH1 0x11 PUSH1 0x20 MSTORE PUSH1 0x40 DUP6 KECCAK256 PUSH1 0x1 PUSH1 0x1 PUSH1 0xA0 SHL SUB DUP4 AND PUSH1 0x1 PUSH1 0x1 PUSH1 0xA0 SHL SUB NOT DUP3 SLOAD AND OR SWAP1 SSTORE PUSH2 0x15D9 JUMPI PUSH2 0x1572 DUP4 PUSH1 0x1 PUSH1 0x1 PUSH1 0xA0 SHL SUB SWAP3 PUSH2 0x1F53 JUMP JUMPDEST AND SWAP1 DUP2 PUSH2 0x158C JUMPI PUSH1 0x24 DUP5 DUP5 PUSH4 0x7E273289 PUSH1 0xE0 SHL DUP3 MSTORE PUSH1 0x4 MSTORE REVERT JUMPDEST PUSH1 0x1 PUSH1 0x1 PUSH1 0xA0 SHL SUB AND DUP1 DUP3 SUB PUSH2 0x15A6 JUMPI DUP4 PUSH2 0x866 DUP5 PUSH2 0x1ED0 JUMP JUMPDEST SWAP2 DUP4 SWAP3 PUSH32 0x64283D7B00000000000000000000000000000000000000000000000000000000 PUSH1 0x64 SWAP6 MSTORE PUSH1 0x4 MSTORE PUSH1 0x24 MSTORE PUSH1 0x44 MSTORE REVERT JUMPDEST PUSH1 0x24 DUP5 PUSH4 0x32505749 PUSH1 0xE1 SHL DUP2 MSTORE DUP1 PUSH1 0x4 MSTORE REVERT JUMPDEST POP CALLVALUE PUSH2 0x261 JUMPI PUSH1 0x20 PUSH1 0x3 NOT CALLDATASIZE ADD SLT PUSH2 0x261 JUMPI PUSH1 0x4 CALLDATALOAD PUSH32 0xFFFFFFFF00000000000000000000000000000000000000000000000000000000 DUP2 AND DUP1 SWAP2 SUB PUSH2 0x869 JUMPI DUP1 PUSH32 0x80AC58CD00000000000000000000000000000000000000000000000000000000 PUSH1 0x20 SWAP3 EQ SWAP1 DUP2 ISZERO PUSH2 0x1695 JUMPI JUMPDEST DUP2 ISZERO PUSH2 0x166B JUMPI JUMPDEST POP PUSH1 0x40 MLOAD SWAP1 ISZERO ISZERO DUP2 MSTORE RETURN JUMPDEST PUSH32 0x1FFC9A700000000000000000000000000000000000000000000000000000000 SWAP2 POP EQ DUP3 PUSH2 0x1660 JUMP JUMPDEST PUSH32 0x5B5E139F00000000000000000000000000000000000000000000000000000000 DUP2 EQ SWAP2 POP PUSH2 0x1659 JUMP JUMPDEST POP CALLVALUE PUSH2 0x261 JUMPI PUSH1 0x20 PUSH1 0x3 NOT CALLDATASIZE ADD SLT PUSH2 0x261 JUMPI PUSH2 0x866 PUSH2 0x16DC PUSH2 0x16E1 JUMP JUMPDEST PUSH2 0x17E9 JUMP JUMPDEST PUSH1 0x4 CALLDATALOAD SWAP1 PUSH1 0x1 PUSH1 0x1 PUSH1 0xA0 SHL SUB DUP3 AND DUP3 SUB PUSH2 0x16F7 JUMPI JUMP JUMPDEST PUSH1 0x0 DUP1 REVERT JUMPDEST PUSH1 0x24 CALLDATALOAD SWAP1 PUSH1 0x1 PUSH1 0x1 PUSH1 0xA0 SHL SUB DUP3 AND DUP3 SUB PUSH2 0x16F7 JUMPI JUMP JUMPDEST PUSH1 0x0 JUMPDEST DUP4 DUP2 LT PUSH2 0x1725 JUMPI POP POP PUSH1 0x0 SWAP2 ADD MSTORE JUMP JUMPDEST DUP2 DUP2 ADD MLOAD DUP4 DUP3 ADD MSTORE PUSH1 0x20 ADD PUSH2 0x1715 JUMP JUMPDEST SWAP1 PUSH1 0x1F NOT PUSH1 0x1F PUSH1 0x20 SWAP4 PUSH2 0x1753 DUP2 MLOAD DUP1 SWAP3 DUP2 DUP8 MSTORE DUP8 DUP1 DUP9 ADD SWAP2 ADD PUSH2 0x1712 JUMP JUMPDEST ADD AND ADD ADD SWAP1 JUMP JUMPDEST PUSH1 0x3 NOT PUSH1 0x60 SWAP2 ADD SLT PUSH2 0x16F7 JUMPI PUSH1 0x4 CALLDATALOAD PUSH1 0x1 PUSH1 0x1 PUSH1 0xA0 SHL SUB DUP2 AND DUP2 SUB PUSH2 0x16F7 JUMPI SWAP1 PUSH1 0x24 CALLDATALOAD PUSH1 0x1 PUSH1 0x1 PUSH1 0xA0 SHL SUB DUP2 AND DUP2 SUB PUSH2 0x16F7 JUMPI SWAP1 PUSH1 0x44 CALLDATALOAD SWAP1 JUMP JUMPDEST SWAP1 PUSH1 0x1F PUSH1 0x1F NOT SWAP2 ADD AND DUP2 ADD SWAP1 DUP2 LT PUSH8 0xFFFFFFFFFFFFFFFF DUP3 GT OR PUSH2 0x17B7 JUMPI PUSH1 0x40 MSTORE JUMP JUMPDEST PUSH4 0x4E487B71 PUSH1 0xE0 SHL PUSH1 0x0 MSTORE PUSH1 0x41 PUSH1 0x4 MSTORE PUSH1 0x24 PUSH1 0x0 REVERT JUMPDEST PUSH8 0xFFFFFFFFFFFFFFFF DUP2 GT PUSH2 0x17B7 JUMPI PUSH1 0x1F ADD PUSH1 0x1F NOT AND PUSH1 0x20 ADD SWAP1 JUMP JUMPDEST PUSH1 0x1 PUSH1 0x1 PUSH1 0xA0 SHL SUB PUSH1 0x0 SWAP2 AND DUP1 ISZERO PUSH2 0x1A0D JUMPI PUSH1 0x1 PUSH1 0x1 PUSH1 0xA0 SHL SUB PUSH1 0x6 SLOAD AND CALLER EQ PUSH2 0x195A JUMPI PUSH1 0x1 PUSH1 0x1 PUSH1 0xA0 SHL SUB PUSH1 0x8 SLOAD AND DUP1 CALLER EQ SWAP1 DUP2 PUSH2 0x1950 JUMPI JUMPDEST POP PUSH2 0x1892 JUMPI PUSH1 0x84 PUSH1 0x40 MLOAD PUSH3 0x461BCD PUSH1 0xE5 SHL DUP2 MSTORE PUSH1 0x20 PUSH1 0x4 DUP3 ADD MSTORE PUSH1 0x30 PUSH1 0x24 DUP3 ADD MSTORE PUSH32 0x4F6E6C79206F776E6572206F72205375626D697373696F6E20636F6E74726163 PUSH1 0x44 DUP3 ADD MSTORE PUSH32 0x742063616E2076657269667920504F4900000000000000000000000000000000 PUSH1 0x64 DUP3 ADD MSTORE REVERT JUMPDEST DUP1 DUP3 MSTORE PUSH1 0xA PUSH1 0x20 MSTORE PUSH1 0x40 DUP3 KECCAK256 PUSH1 0x1 PUSH1 0xFF NOT DUP3 SLOAD AND OR SWAP1 SSTORE PUSH1 0x40 MLOAD SWAP1 DUP1 PUSH32 0x920BD3B5A215C93296AF07EF6415B61F63FE3F6732D03E6EE2063BE1C22F22B5 DUP5 DUP1 LOG2 PUSH1 0x1 PUSH1 0x1 PUSH1 0xA0 SHL SUB PUSH1 0x7 SLOAD AND SWAP1 DUP2 PUSH2 0x18EB JUMPI JUMPDEST POP POP POP POP JUMP JUMPDEST DUP2 EXTCODESIZE ISZERO PUSH2 0x194C JUMPI PUSH1 0x44 DUP4 DUP6 DUP1 SWAP5 DUP3 SWAP5 PUSH32 0x47C24FCF00000000000000000000000000000000000000000000000000000000 DUP5 MSTORE PUSH1 0x4 DUP5 ADD MSTORE PUSH1 0x1 PUSH1 0x24 DUP5 ADD MSTORE GAS CALL PUSH2 0x1937 JUMPI JUMPDEST DUP1 DUP1 PUSH2 0x18E5 JUMP JUMPDEST PUSH2 0x1942 DUP3 DUP1 SWAP3 PUSH2 0x1794 JUMP JUMPDEST PUSH2 0x261 JUMPI DUP1 PUSH2 0x1930 JUMP JUMPDEST DUP4 DUP1 REVERT JUMPDEST SWAP1 POP ISZERO ISZERO CODESIZE PUSH2 0x1823 JUMP JUMPDEST DUP1 DUP3 MSTORE PUSH1 0xA PUSH1 0x20 MSTORE PUSH1 0x40 DUP3 KECCAK256 PUSH1 0x1 PUSH1 0xFF NOT DUP3 SLOAD AND OR SWAP1 SSTORE PUSH1 0x40 MLOAD SWAP1 DUP1 PUSH32 0x920BD3B5A215C93296AF07EF6415B61F63FE3F6732D03E6EE2063BE1C22F22B5 DUP5 DUP1 LOG2 PUSH1 0x1 PUSH1 0x1 PUSH1 0xA0 SHL SUB PUSH1 0x7 SLOAD AND SWAP1 DUP2 PUSH2 0x19B2 JUMPI POP POP POP POP JUMP JUMPDEST DUP2 EXTCODESIZE ISZERO PUSH2 0x194C JUMPI PUSH1 0x44 DUP4 DUP6 DUP1 SWAP5 DUP3 SWAP5 PUSH32 0x47C24FCF00000000000000000000000000000000000000000000000000000000 DUP5 MSTORE PUSH1 0x4 DUP5 ADD MSTORE PUSH1 0x1 PUSH1 0x24 DUP5 ADD MSTORE GAS CALL PUSH2 0x19FD JUMPI DUP1 DUP1 PUSH2 0x18E5 JUMP JUMPDEST DUP2 PUSH2 0x1A07 SWAP2 PUSH2 0x1794 JUMP JUMPDEST CODESIZE PUSH2 0x1930 JUMP JUMPDEST PUSH1 0x64 PUSH1 0x40 MLOAD PUSH3 0x461BCD PUSH1 0xE5 SHL DUP2 MSTORE PUSH1 0x20 PUSH1 0x4 DUP3 ADD MSTORE PUSH1 0xF PUSH1 0x24 DUP3 ADD MSTORE PUSH32 0x496E76616C696420616464726573730000000000000000000000000000000000 PUSH1 0x44 DUP3 ADD MSTORE REVERT JUMPDEST ISZERO PUSH2 0x1A58 JUMPI JUMP JUMPDEST PUSH1 0x64 PUSH1 0x40 MLOAD PUSH3 0x461BCD PUSH1 0xE5 SHL DUP2 MSTORE PUSH1 0x20 PUSH1 0x4 DUP3 ADD MSTORE PUSH1 0x11 PUSH1 0x24 DUP3 ADD MSTORE PUSH32 0x496E76616C696420726563697069656E74000000000000000000000000000000 PUSH1 0x44 DUP3 ADD MSTORE REVERT JUMPDEST SWAP1 SWAP3 SWAP2 PUSH1 0x1 PUSH1 0x1 PUSH1 0xA0 SHL SUB DUP5 AND SWAP2 DUP3 ISZERO PUSH2 0x1DCB JUMPI PUSH1 0x0 DUP3 DUP2 MSTORE PUSH1 0x2 PUSH1 0x20 MSTORE PUSH1 0x40 DUP2 KECCAK256 SLOAD PUSH1 0x1 PUSH1 0x1 PUSH1 0xA0 SHL SUB AND ISZERO ISZERO SWAP6 DUP7 DUP1 PUSH2 0x1DC3 JUMPI JUMPDEST PUSH2 0x1D1D JUMPI JUMPDEST DUP4 DUP3 MSTORE PUSH1 0x2 PUSH1 0x20 MSTORE PUSH1 0x1 PUSH1 0x1 PUSH1 0xA0 SHL SUB PUSH1 0x40 DUP4 KECCAK256 SLOAD AND SWAP5 CALLER ISZERO ISZERO DUP1 PUSH2 0x1C6D JUMPI JUMPDEST POP DUP6 SWAP7 SWAP8 PUSH1 0x1 PUSH1 0x1 PUSH1 0xA0 SHL SUB SWAP6 SWAP7 ISZERO ISZERO SWAP1 DUP2 PUSH2 0x1C33 JUMPI JUMPDEST DUP3 DUP6 MSTORE PUSH1 0x3 PUSH1 0x20 MSTORE PUSH1 0x40 DUP6 KECCAK256 PUSH1 0x1 DUP2 SLOAD ADD SWAP1 SSTORE DUP8 DUP6 MSTORE PUSH1 0x2 PUSH1 0x20 MSTORE PUSH1 0x40 DUP6 KECCAK256 DUP4 PUSH1 0x1 PUSH1 0x1 PUSH1 0xA0 SHL SUB NOT DUP3 SLOAD AND OR SWAP1 SSTORE DUP8 DUP4 DUP11 PUSH32 0xDDF252AD1BE2C89B69C2B068FC378DAA952BA7F163C4A11628F55A4DF523B3EF DUP9 DUP1 LOG4 DUP1 PUSH2 0x1C2B JUMPI JUMPDEST PUSH2 0x1C1D JUMPI JUMPDEST DUP2 DUP9 SUB PUSH2 0x1BBB JUMPI JUMPDEST POP POP POP POP AND DUP1 DUP4 SUB PUSH2 0x1B88 JUMPI POP POP POP JUMP JUMPDEST PUSH32 0x64283D7B00000000000000000000000000000000000000000000000000000000 PUSH1 0x0 MSTORE PUSH1 0x4 MSTORE PUSH1 0x24 MSTORE PUSH1 0x44 MSTORE PUSH1 0x64 PUSH1 0x0 REVERT JUMPDEST PUSH2 0x1C02 SWAP4 PUSH1 0x40 SWAP2 PUSH2 0x1C0B JUMPI JUMPDEST PUSH2 0x1BD1 DUP9 DUP6 PUSH2 0x2A2E JUMP JUMPDEST DUP3 DUP2 MSTORE PUSH1 0xB PUSH1 0x20 MSTORE DUP2 DUP2 KECCAK256 PUSH1 0x1 PUSH1 0xFF NOT DUP3 SLOAD AND OR SWAP1 SSTORE DUP8 DUP2 MSTORE PUSH1 0xE PUSH1 0x20 MSTORE DUP2 DUP2 KECCAK256 SLOAD SWAP3 DUP2 MSTORE PUSH1 0xC PUSH1 0x20 MSTORE KECCAK256 SSTORE PUSH2 0x2A68 JUMP JUMPDEST CODESIZE DUP1 DUP1 DUP1 PUSH2 0x1B77 JUMP JUMPDEST DUP9 DUP2 MSTORE PUSH1 0xD PUSH1 0x20 MSTORE DUP1 DUP3 DUP2 KECCAK256 SSTORE PUSH2 0x1BC7 JUMP JUMPDEST PUSH2 0x1C26 DUP8 PUSH2 0x1ED0 JUMP JUMPDEST PUSH2 0x1B6F JUMP JUMPDEST POP PUSH1 0x1 PUSH2 0x1B6A JUMP JUMPDEST PUSH2 0x1C54 DUP9 PUSH1 0x0 MSTORE PUSH1 0x4 PUSH1 0x20 MSTORE PUSH1 0x40 PUSH1 0x0 KECCAK256 PUSH1 0x1 PUSH1 0x1 PUSH1 0xA0 SHL SUB NOT DUP2 SLOAD AND SWAP1 SSTORE JUMP JUMPDEST DUP9 DUP6 MSTORE PUSH1 0x3 PUSH1 0x20 MSTORE PUSH1 0x40 DUP6 KECCAK256 PUSH1 0x0 NOT DUP2 SLOAD ADD SWAP1 SSTORE PUSH2 0x1B0E JUMP JUMPDEST DUP1 PUSH2 0x1CC6 JUMPI JUMPDEST ISZERO PUSH2 0x1C7E JUMPI CODESIZE PUSH2 0x1AF7 JUMP JUMPDEST DUP5 DUP4 DUP8 PUSH2 0x1C97 JUMPI PUSH1 0x24 SWAP2 PUSH4 0x7E273289 PUSH1 0xE0 SHL DUP3 MSTORE PUSH1 0x4 MSTORE REVERT JUMPDEST PUSH1 0x44 SWAP2 PUSH32 0x177E802F00000000000000000000000000000000000000000000000000000000 DUP3 MSTORE CALLER PUSH1 0x4 MSTORE PUSH1 0x24 MSTORE REVERT JUMPDEST POP CALLER DUP7 EQ DUP1 ISZERO PUSH2 0x1CF4 JUMPI JUMPDEST DUP1 PUSH2 0x1C73 JUMPI POP DUP5 DUP4 MSTORE PUSH1 0x4 PUSH1 0x20 MSTORE CALLER PUSH1 0x1 PUSH1 0x1 PUSH1 0xA0 SHL SUB PUSH1 0x40 DUP6 KECCAK256 SLOAD AND EQ PUSH2 0x1C73 JUMP JUMPDEST POP DUP6 DUP4 MSTORE PUSH1 0x5 PUSH1 0x20 MSTORE PUSH1 0x40 DUP4 KECCAK256 PUSH1 0x1 PUSH1 0x1 PUSH1 0xA0 SHL SUB CALLER AND DUP5 MSTORE PUSH1 0x20 MSTORE PUSH1 0xFF PUSH1 0x40 DUP5 KECCAK256 SLOAD AND PUSH2 0x1CD1 JUMP JUMPDEST DUP4 DUP3 MSTORE PUSH1 0x10 PUSH1 0x20 MSTORE PUSH1 0xFF PUSH1 0x40 DUP4 KECCAK256 SLOAD AND ISZERO DUP1 ISZERO PUSH2 0x1DA4 JUMPI JUMPDEST ISZERO PUSH2 0x1AD7 JUMPI PUSH1 0x84 PUSH1 0x40 MLOAD PUSH3 0x461BCD PUSH1 0xE5 SHL DUP2 MSTORE PUSH1 0x20 PUSH1 0x4 DUP3 ADD MSTORE PUSH1 0x3A PUSH1 0x24 DUP3 ADD MSTORE PUSH32 0x496D7061637450726F647563744E46543A207472616E73666572732061726520 PUSH1 0x44 DUP3 ADD MSTORE PUSH32 0x726573747269637465642028736F756C626F756E64204E465429000000000000 PUSH1 0x64 DUP3 ADD MSTORE REVERT JUMPDEST POP DUP4 DUP3 MSTORE PUSH1 0x11 PUSH1 0x20 MSTORE DUP5 PUSH1 0x1 PUSH1 0x1 PUSH1 0xA0 SHL SUB PUSH1 0x40 DUP5 KECCAK256 SLOAD AND EQ ISZERO PUSH2 0x1D35 JUMP JUMPDEST POP PUSH1 0x1 PUSH2 0x1AD2 JUMP JUMPDEST PUSH4 0x32505749 PUSH1 0xE1 SHL PUSH1 0x0 MSTORE PUSH1 0x0 PUSH1 0x4 MSTORE PUSH1 0x24 PUSH1 0x0 REVERT JUMPDEST ISZERO PUSH2 0x1DE8 JUMPI JUMP JUMPDEST PUSH1 0x64 PUSH1 0x40 MLOAD PUSH3 0x461BCD PUSH1 0xE5 SHL DUP2 MSTORE PUSH1 0x20 PUSH1 0x4 DUP3 ADD MSTORE PUSH1 0xF PUSH1 0x24 DUP3 ADD MSTORE PUSH32 0x5573657220686173206E6F204E46540000000000000000000000000000000000 PUSH1 0x44 DUP3 ADD MSTORE REVERT JUMPDEST PUSH1 0x1 PUSH1 0x1 PUSH1 0xA0 SHL SUB PUSH1 0x6 SLOAD AND CALLER SUB PUSH2 0x1E40 JUMPI JUMP JUMPDEST PUSH32 0x118CDAA700000000000000000000000000000000000000000000000000000000 PUSH1 0x0 MSTORE CALLER PUSH1 0x4 MSTORE PUSH1 0x24 PUSH1 0x0 REVERT JUMPDEST PUSH1 0x0 MSTORE PUSH1 0x2 PUSH1 0x20 MSTORE PUSH1 0x1 PUSH1 0x1 PUSH1 0xA0 SHL SUB PUSH1 0x40 PUSH1 0x0 KECCAK256 SLOAD AND ISZERO PUSH2 0x1E8C JUMPI JUMP JUMPDEST PUSH1 0x64 PUSH1 0x40 MLOAD PUSH3 0x461BCD PUSH1 0xE5 SHL DUP2 MSTORE PUSH1 0x20 PUSH1 0x4 DUP3 ADD MSTORE PUSH1 0x14 PUSH1 0x24 DUP3 ADD MSTORE PUSH32 0x546F6B656E20646F6573206E6F74206578697374000000000000000000000000 PUSH1 0x44 DUP3 ADD MSTORE REVERT JUMPDEST DUP1 PUSH1 0x0 MSTORE PUSH1 0x10 PUSH1 0x20 MSTORE PUSH1 0xFF PUSH1 0x40 PUSH1 0x0 KECCAK256 SLOAD AND PUSH2 0x1EE9 JUMPI POP JUMP JUMPDEST DUP1 PUSH1 0x0 MSTORE PUSH1 0x10 PUSH1 0x20 MSTORE PUSH1 0x40 PUSH1 0x0 KECCAK256 PUSH1 0xFF NOT DUP2 SLOAD AND SWAP1 SSTORE PUSH1 0x0 MSTORE PUSH1 0x11 PUSH1 0x20 MSTORE PUSH1 0x40 PUSH1 0x0 KECCAK256 PUSH1 0x1 PUSH1 0x1 PUSH1 0xA0 SHL SUB NOT DUP2 SLOAD AND SWAP1 SSTORE JUMP JUMPDEST DUP1 PUSH1 0x0 MSTORE PUSH1 0x2 PUSH1 0x20 MSTORE PUSH1 0x1 PUSH1 0x1 PUSH1 0xA0 SHL SUB PUSH1 0x40 PUSH1 0x0 KECCAK256 SLOAD AND SWAP1 DUP2 ISZERO PUSH2 0x1F3F JUMPI POP SWAP1 JUMP JUMPDEST PUSH4 0x7E273289 PUSH1 0xE0 SHL PUSH1 0x0 MSTORE PUSH1 0x4 MSTORE PUSH1 0x24 PUSH1 0x0 REVERT JUMPDEST SWAP1 DUP1 PUSH1 0x0 MSTORE PUSH1 0x2 PUSH1 0x20 MSTORE PUSH1 0x1 PUSH1 0x1 PUSH1 0xA0 SHL SUB PUSH1 0x40 PUSH1 0x0 KECCAK256 SLOAD AND ISZERO ISZERO SWAP2 DUP3 DUP1 SWAP4 PUSH2 0x21AA JUMPI JUMPDEST PUSH2 0x20F7 JUMPI JUMPDEST DUP2 PUSH1 0x0 MSTORE PUSH1 0x2 PUSH1 0x20 MSTORE PUSH1 0x1 PUSH1 0x1 PUSH1 0xA0 SHL SUB PUSH1 0x40 PUSH1 0x0 KECCAK256 SLOAD AND SWAP3 DUP4 ISZERO ISZERO SWAP1 DUP2 PUSH2 0x20BB JUMPI JUMPDEST PUSH1 0x1 PUSH1 0x1 PUSH1 0xA0 SHL SUB DUP4 AND SWAP2 DUP3 ISZERO ISZERO SWAP2 DUP3 PUSH2 0x20A1 JUMPI JUMPDEST DUP6 PUSH1 0x0 MSTORE PUSH1 0x2 PUSH1 0x20 MSTORE PUSH1 0x40 PUSH1 0x0 KECCAK256 DUP5 PUSH1 0x1 PUSH1 0x1 PUSH1 0xA0 SHL SUB NOT DUP3 SLOAD AND OR SWAP1 SSTORE DUP6 DUP5 DUP9 PUSH32 0xDDF252AD1BE2C89B69C2B068FC378DAA952BA7F163C4A11628F55A4DF523B3EF PUSH1 0x0 DUP1 LOG4 DUP1 PUSH2 0x209A JUMPI JUMPDEST PUSH2 0x208C JUMPI JUMPDEST DUP3 DUP7 SUB PUSH2 0x2015 JUMPI JUMPDEST POP POP POP POP POP SWAP1 JUMP JUMPDEST PUSH2 0x2077 JUMPI JUMPDEST PUSH2 0x2026 JUMPI JUMPDEST DUP1 DUP1 PUSH2 0x200D JUMP JUMPDEST DUP3 PUSH2 0x2034 PUSH2 0x206F SWAP5 DUP5 PUSH2 0x2A2E JUMP JUMPDEST DUP2 PUSH1 0x0 MSTORE PUSH1 0xB PUSH1 0x20 MSTORE PUSH1 0x40 PUSH1 0x0 KECCAK256 PUSH1 0x1 PUSH1 0xFF NOT DUP3 SLOAD AND OR SWAP1 SSTORE PUSH1 0x0 MSTORE PUSH1 0xE PUSH1 0x20 MSTORE PUSH1 0x40 PUSH1 0x0 KECCAK256 SLOAD SWAP1 PUSH1 0x0 MSTORE PUSH1 0xC PUSH1 0x20 MSTORE PUSH1 0x40 PUSH1 0x0 KECCAK256 SSTORE PUSH2 0x2A68 JUMP JUMPDEST CODESIZE DUP1 DUP1 PUSH2 0x201F JUMP JUMPDEST DUP5 PUSH1 0x0 MSTORE PUSH1 0xD PUSH1 0x20 MSTORE PUSH1 0x0 PUSH1 0x40 DUP2 KECCAK256 SSTORE PUSH2 0x201A JUMP JUMPDEST PUSH2 0x2095 DUP6 PUSH2 0x1ED0 JUMP JUMPDEST PUSH2 0x2005 JUMP JUMPDEST POP DUP2 PUSH2 0x2000 JUMP JUMPDEST DUP4 PUSH1 0x0 MSTORE PUSH1 0x3 PUSH1 0x20 MSTORE PUSH1 0x40 PUSH1 0x0 KECCAK256 PUSH1 0x1 DUP2 SLOAD ADD SWAP1 SSTORE PUSH2 0x1FB4 JUMP JUMPDEST PUSH2 0x20DC DUP5 PUSH1 0x0 MSTORE PUSH1 0x4 PUSH1 0x20 MSTORE PUSH1 0x40 PUSH1 0x0 KECCAK256 PUSH1 0x1 PUSH1 0x1 PUSH1 0xA0 SHL SUB NOT DUP2 SLOAD AND SWAP1 SSTORE JUMP JUMPDEST DUP5 PUSH1 0x0 MSTORE PUSH1 0x3 PUSH1 0x20 MSTORE PUSH1 0x40 PUSH1 0x0 KECCAK256 PUSH1 0x0 NOT DUP2 SLOAD ADD SWAP1 SSTORE PUSH2 0x1F9F JUMP JUMPDEST DUP2 PUSH1 0x0 MSTORE PUSH1 0x10 PUSH1 0x20 MSTORE PUSH1 0xFF PUSH1 0x40 PUSH1 0x0 KECCAK256 SLOAD AND ISZERO DUP1 ISZERO PUSH2 0x2180 JUMPI JUMPDEST ISZERO PUSH2 0x1F7C JUMPI PUSH1 0x84 PUSH1 0x40 MLOAD PUSH3 0x461BCD PUSH1 0xE5 SHL DUP2 MSTORE PUSH1 0x20 PUSH1 0x4 DUP3 ADD MSTORE PUSH1 0x3A PUSH1 0x24 DUP3 ADD MSTORE PUSH32 0x496D7061637450726F647563744E46543A207472616E73666572732061726520 PUSH1 0x44 DUP3 ADD MSTORE PUSH32 0x726573747269637465642028736F756C626F756E64204E465429000000000000 PUSH1 0x64 DUP3 ADD MSTORE REVERT JUMPDEST POP DUP2 PUSH1 0x0 MSTORE PUSH1 0x11 PUSH1 0x20 MSTORE PUSH1 0x1 PUSH1 0x1 PUSH1 0xA0 SHL SUB PUSH1 0x40 PUSH1 0x0 KECCAK256 SLOAD AND PUSH1 0x1 PUSH1 0x1 PUSH1 0xA0 SHL SUB DUP3 AND EQ ISZERO PUSH2 0x2111 JUMP JUMPDEST POP PUSH1 0x1 PUSH1 0x1 PUSH1 0xA0 SHL SUB DUP2 AND ISZERO ISZERO PUSH2 0x1F77 JUMP JUMPDEST PUSH1 0x1 PUSH1 0x1 PUSH1 0xA0 SHL SUB AND PUSH1 0x0 MSTORE PUSH1 0xA PUSH1 0x20 MSTORE PUSH1 0xFF PUSH1 0x40 PUSH1 0x0 KECCAK256 SLOAD AND ISZERO PUSH2 0x21DD JUMPI JUMP JUMPDEST PUSH1 0x64 PUSH1 0x40 MLOAD PUSH3 0x461BCD PUSH1 0xE5 SHL DUP2 MSTORE PUSH1 0x20 PUSH1 0x4 DUP3 ADD MSTORE PUSH1 0x1A PUSH1 0x24 DUP3 ADD MSTORE PUSH32 0x596F7520617265206E6F74206120766572696669656420504F49000000000000 PUSH1 0x44 DUP3 ADD MSTORE REVERT JUMPDEST PUSH1 0x1 PUSH1 0x1 PUSH1 0xA0 SHL SUB DUP2 AND PUSH1 0x0 DUP2 DUP2 MSTORE PUSH1 0xB PUSH1 0x20 MSTORE PUSH1 0x40 DUP2 KECCAK256 SLOAD PUSH1 0xFF AND PUSH2 0x2522 JUMPI PUSH1 0x9 SLOAD SWAP3 PUSH1 0x1 DUP5 ADD DUP1 DUP6 GT PUSH2 0xB9C JUMPI PUSH1 0x9 SSTORE DUP4 DUP3 MSTORE PUSH1 0xE PUSH1 0x20 MSTORE PUSH1 0x1 PUSH1 0x40 DUP4 KECCAK256 SSTORE DUP4 DUP3 MSTORE PUSH1 0xF PUSH1 0x20 MSTORE PUSH1 0x1 PUSH1 0x40 DUP4 KECCAK256 SSTORE DUP3 DUP3 MSTORE PUSH1 0xC PUSH1 0x20 MSTORE PUSH1 0x1 PUSH1 0x40 DUP4 KECCAK256 SSTORE DUP3 DUP3 MSTORE PUSH1 0xB PUSH1 0x20 MSTORE PUSH1 0x40 DUP3 KECCAK256 PUSH1 0x1 PUSH1 0xFF NOT DUP3 SLOAD AND OR SWAP1 SSTORE PUSH1 0x20 PUSH1 0x40 MLOAD PUSH2 0x22A6 DUP3 DUP3 PUSH2 0x1794 JUMP JUMPDEST DUP4 DUP2 MSTORE DUP5 ISZERO PUSH2 0x15D9 JUMPI PUSH1 0x1 PUSH1 0x1 PUSH1 0xA0 SHL SUB PUSH2 0x22C1 DUP8 DUP6 PUSH2 0x1F53 JUMP JUMPDEST AND PUSH2 0x24F6 JUMPI DUP3 EXTCODESIZE PUSH2 0x23A0 JUMPI JUMPDEST POP POP DUP1 PUSH2 0x22DD DUP6 PUSH2 0x22E2 SWAP4 PUSH2 0x2A2E JUMP JUMPDEST PUSH2 0x2A68 JUMP JUMPDEST PUSH1 0x1 PUSH1 0x1 PUSH1 0xA0 SHL SUB PUSH1 0x7 SLOAD AND DUP1 PUSH2 0x231B JUMPI JUMPDEST POP DUP1 PUSH32 0x30385C845B448A36257A6A1716E6AD2E1BC2CBE333CDE1E69FE849AD6511ADFE SWAP2 LOG3 JUMP JUMPDEST DUP1 EXTCODESIZE ISZERO PUSH2 0x869 JUMPI SWAP1 DUP1 DUP1 DUP1 PUSH32 0x30385C845B448A36257A6A1716E6AD2E1BC2CBE333CDE1E69FE849AD6511ADFE SWAP5 PUSH1 0x44 PUSH1 0x40 MLOAD DUP1 SWAP6 DUP2 SWAP4 PUSH32 0x21C838EF00000000000000000000000000000000000000000000000000000000 DUP4 MSTORE DUP11 PUSH1 0x4 DUP5 ADD MSTORE PUSH1 0x1 PUSH1 0x24 DUP5 ADD MSTORE GAS CALL PUSH2 0x2390 JUMPI JUMPDEST SWAP3 POP POP PUSH2 0x22F4 JUMP JUMPDEST PUSH2 0x2399 SWAP2 PUSH2 0x1794 JUMP JUMPDEST CODESIZE DUP2 PUSH2 0x2388 JUMP JUMPDEST DUP2 PUSH2 0x23DF SWAP2 PUSH1 0x40 SWAP9 SWAP6 SWAP8 SWAP5 SWAP4 SWAP9 MLOAD DUP1 SWAP4 DUP2 SWAP3 PUSH4 0xA85BD01 PUSH1 0xE1 SHL DUP4 MSTORE CALLER PUSH1 0x4 DUP5 ADD MSTORE DUP11 PUSH1 0x24 DUP5 ADD MSTORE DUP8 PUSH1 0x44 DUP5 ADD MSTORE PUSH1 0x80 PUSH1 0x64 DUP5 ADD MSTORE PUSH1 0x84 DUP4 ADD SWAP1 PUSH2 0x1735 JUMP JUMPDEST SUB DUP2 DUP10 DUP10 GAS CALL DUP7 SWAP2 DUP2 PUSH2 0x249A JUMPI JUMPDEST POP PUSH2 0x2449 JUMPI POP POP POP POP RETURNDATASIZE PUSH1 0x0 EQ PUSH2 0x2441 JUMPI RETURNDATASIZE SWAP3 PUSH2 0x2409 DUP5 PUSH2 0x17CD JUMP JUMPDEST SWAP4 PUSH2 0x2417 PUSH1 0x40 MLOAD SWAP6 DUP7 PUSH2 0x1794 JUMP JUMPDEST DUP5 MSTORE RETURNDATASIZE DUP4 DUP3 DUP7 ADD RETURNDATACOPY JUMPDEST DUP4 MLOAD SWAP4 DUP5 PUSH2 0x243B JUMPI PUSH1 0x24 DUP5 DUP5 PUSH4 0x32505749 PUSH1 0xE1 SHL DUP3 MSTORE PUSH1 0x4 MSTORE REVERT JUMPDEST DUP5 SWAP3 POP ADD REVERT JUMPDEST PUSH1 0x60 SWAP3 PUSH2 0x2420 JUMP JUMPDEST PUSH4 0xA85BD01 PUSH1 0xE1 SHL SWAP2 SWAP3 SWAP6 SWAP4 SWAP7 POP PUSH32 0xFFFFFFFF00000000000000000000000000000000000000000000000000000000 AND SUB PUSH2 0x2487 JUMPI PUSH2 0x22E2 CODESIZE PUSH2 0x22CD JUMP JUMPDEST POP PUSH1 0x24 SWAP2 PUSH4 0x32505749 PUSH1 0xE1 SHL DUP3 MSTORE PUSH1 0x4 MSTORE REVERT JUMPDEST SWAP1 SWAP2 POP DUP8 DUP2 DUP2 RETURNDATASIZE DUP4 GT PUSH2 0x24EF JUMPI JUMPDEST PUSH2 0x24B2 DUP2 DUP4 PUSH2 0x1794 JUMP JUMPDEST DUP2 ADD SUB SLT PUSH2 0x24EB JUMPI MLOAD PUSH32 0xFFFFFFFF00000000000000000000000000000000000000000000000000000000 DUP2 AND DUP2 SUB PUSH2 0x24EB JUMPI SWAP1 CODESIZE PUSH2 0x23ED JUMP JUMPDEST DUP7 DUP1 REVERT JUMPDEST POP RETURNDATASIZE PUSH2 0x24A8 JUMP JUMPDEST PUSH1 0x24 DUP5 PUSH32 0x73C6AC6E00000000000000000000000000000000000000000000000000000000 DUP2 MSTORE DUP1 PUSH1 0x4 MSTORE REVERT JUMPDEST PUSH1 0x64 PUSH1 0x40 MLOAD PUSH3 0x461BCD PUSH1 0xE5 SHL DUP2 MSTORE PUSH1 0x20 PUSH1 0x4 DUP3 ADD MSTORE PUSH1 0x1F PUSH1 0x24 DUP3 ADD MSTORE PUSH32 0x596F75206861766520616C7265616479206D696E746564206120746F6B656E00 PUSH1 0x44 DUP3 ADD MSTORE REVERT JUMPDEST SWAP4 SWAP1 SWAP3 SWAP4 DUP3 EXTCODESIZE PUSH2 0x2578 JUMPI JUMPDEST POP POP POP POP POP JUMP JUMPDEST PUSH2 0x25BF PUSH1 0x1 PUSH1 0x1 PUSH1 0xA0 SHL SUB SWAP3 DUP4 PUSH1 0x20 SWAP6 AND SWAP7 DUP5 PUSH1 0x40 MLOAD SWAP8 DUP9 SWAP7 DUP8 SWAP7 PUSH4 0xA85BD01 PUSH1 0xE1 SHL DUP9 MSTORE AND PUSH1 0x4 DUP8 ADD MSTORE AND PUSH1 0x24 DUP6 ADD MSTORE PUSH1 0x44 DUP5 ADD MSTORE PUSH1 0x80 PUSH1 0x64 DUP5 ADD MSTORE PUSH1 0x84 DUP4 ADD SWAP1 PUSH2 0x1735 JUMP JUMPDEST SUB DUP2 PUSH1 0x0 DUP7 GAS CALL DUP1 SWAP2 PUSH1 0x0 SWAP2 PUSH2 0x2678 JUMPI JUMPDEST POP SWAP1 PUSH2 0x2629 JUMPI POP RETURNDATASIZE ISZERO PUSH2 0x2622 JUMPI RETURNDATASIZE PUSH2 0x25E7 DUP2 PUSH2 0x17CD JUMP JUMPDEST SWAP1 PUSH2 0x25F5 PUSH1 0x40 MLOAD SWAP3 DUP4 PUSH2 0x1794 JUMP JUMPDEST DUP2 MSTORE RETURNDATASIZE PUSH1 0x0 PUSH1 0x20 DUP4 ADD RETURNDATACOPY JUMPDEST DUP1 MLOAD SWAP1 DUP2 PUSH2 0x261D JUMPI DUP3 PUSH4 0x32505749 PUSH1 0xE1 SHL PUSH1 0x0 MSTORE PUSH1 0x4 MSTORE PUSH1 0x24 PUSH1 0x0 REVERT JUMPDEST PUSH1 0x20 ADD REVERT JUMPDEST PUSH1 0x60 PUSH2 0x2600 JUMP JUMPDEST PUSH32 0xFFFFFFFF00000000000000000000000000000000000000000000000000000000 PUSH4 0xA85BD01 PUSH1 0xE1 SHL SWAP2 AND SUB PUSH2 0x2664 JUMPI POP CODESIZE DUP1 DUP1 DUP1 DUP1 PUSH2 0x2571 JUMP JUMPDEST PUSH4 0x32505749 PUSH1 0xE1 SHL PUSH1 0x0 MSTORE PUSH1 0x4 MSTORE PUSH1 0x24 PUSH1 0x0 REVERT JUMPDEST PUSH1 0x20 DUP2 RETURNDATASIZE PUSH1 0x20 GT PUSH2 0x26CB JUMPI JUMPDEST DUP2 PUSH2 0x2691 PUSH1 0x20 SWAP4 DUP4 PUSH2 0x1794 JUMP JUMPDEST DUP2 ADD SUB SLT PUSH2 0x869 JUMPI MLOAD SWAP1 PUSH32 0xFFFFFFFF00000000000000000000000000000000000000000000000000000000 DUP3 AND DUP3 SUB PUSH2 0x261 JUMPI POP CODESIZE PUSH2 0x25D0 JUMP JUMPDEST RETURNDATASIZE SWAP2 POP PUSH2 0x2684 JUMP JUMPDEST PUSH1 0x3 DUP2 GT ISZERO PUSH2 0x279F JUMPI PUSH1 0x6 DUP2 GT ISZERO PUSH2 0x2763 JUMPI PUSH1 0x9 LT ISZERO PUSH2 0x2728 JUMPI PUSH1 0x40 MLOAD PUSH2 0x26FB PUSH1 0x40 DUP3 PUSH2 0x1794 JUMP JUMPDEST PUSH1 0x8 DUP2 MSTORE PUSH32 0x477561726469616E000000000000000000000000000000000000000000000000 PUSH1 0x20 DUP3 ADD MSTORE SWAP1 JUMP JUMPDEST PUSH1 0x40 MLOAD PUSH2 0x2736 PUSH1 0x40 DUP3 PUSH2 0x1794 JUMP JUMPDEST PUSH1 0x4 DUP2 MSTORE PUSH32 0x4865726F00000000000000000000000000000000000000000000000000000000 PUSH1 0x20 DUP3 ADD MSTORE SWAP1 JUMP JUMPDEST POP PUSH1 0x40 MLOAD PUSH2 0x2772 PUSH1 0x40 DUP3 PUSH2 0x1794 JUMP JUMPDEST PUSH1 0x3 DUP2 MSTORE PUSH32 0x50726F0000000000000000000000000000000000000000000000000000000000 PUSH1 0x20 DUP3 ADD MSTORE SWAP1 JUMP JUMPDEST POP PUSH1 0x40 MLOAD PUSH2 0x27AE PUSH1 0x40 DUP3 PUSH2 0x1794 JUMP JUMPDEST PUSH1 0x6 DUP2 MSTORE PUSH32 0x4E65776269650000000000000000000000000000000000000000000000000000 PUSH1 0x20 DUP3 ADD MSTORE SWAP1 JUMP JUMPDEST SWAP1 PUSH2 0x27E5 DUP3 PUSH2 0x17CD JUMP JUMPDEST PUSH2 0x27F2 PUSH1 0x40 MLOAD SWAP2 DUP3 PUSH2 0x1794 JUMP JUMPDEST DUP3 DUP2 MSTORE PUSH1 0x1F NOT PUSH2 0x2802 DUP3 SWAP5 PUSH2 0x17CD JUMP JUMPDEST ADD SWAP1 PUSH1 0x20 CALLDATASIZE SWAP2 ADD CALLDATACOPY JUMP JUMPDEST DUP1 PUSH1 0x0 SWAP2 PUSH27 0x184F03E93FF9F4DAA797ED6E38ED64BF6A1F010000000000000000 DUP3 LT ISZERO PUSH2 0x2948 JUMPI JUMPDEST DUP1 PUSH14 0x4EE2D6D415B85ACEF8100000000 PUSH1 0xA SWAP3 LT ISZERO PUSH2 0x292D JUMPI JUMPDEST PUSH7 0x2386F26FC10000 DUP2 LT ISZERO PUSH2 0x2919 JUMPI JUMPDEST PUSH4 0x5F5E100 DUP2 LT ISZERO PUSH2 0x2908 JUMPI JUMPDEST PUSH2 0x2710 DUP2 LT ISZERO PUSH2 0x28F9 JUMPI JUMPDEST PUSH1 0x64 DUP2 LT ISZERO PUSH2 0x28EB JUMPI JUMPDEST LT ISZERO PUSH2 0x28E0 JUMPI JUMPDEST PUSH1 0xA PUSH1 0x0 NOT PUSH1 0x21 PUSH2 0x289A PUSH1 0x1 DUP7 ADD PUSH2 0x27DB JUMP JUMPDEST SWAP5 DUP6 ADD ADD JUMPDEST ADD SWAP2 PUSH32 0x3031323334353637383961626364656600000000000000000000000000000000 DUP3 DUP3 MOD BYTE DUP4 MSTORE8 DIV DUP1 ISZERO PUSH2 0x28DB JUMPI PUSH1 0x0 NOT PUSH1 0xA SWAP2 SWAP3 PUSH2 0x289F JUMP JUMPDEST POP POP SWAP1 JUMP JUMPDEST PUSH1 0x1 SWAP1 SWAP2 ADD SWAP1 PUSH2 0x2887 JUMP JUMPDEST PUSH1 0x64 PUSH1 0x2 SWAP2 DIV SWAP4 ADD SWAP3 PUSH2 0x2880 JUMP JUMPDEST PUSH2 0x2710 PUSH1 0x4 SWAP2 DIV SWAP4 ADD SWAP3 PUSH2 0x2876 JUMP JUMPDEST PUSH4 0x5F5E100 PUSH1 0x8 SWAP2 DIV SWAP4 ADD SWAP3 PUSH2 0x286B JUMP JUMPDEST PUSH7 0x2386F26FC10000 PUSH1 0x10 SWAP2 DIV SWAP4 ADD SWAP3 PUSH2 0x285E JUMP JUMPDEST PUSH14 0x4EE2D6D415B85ACEF8100000000 PUSH1 0x20 SWAP2 DIV SWAP4 ADD SWAP3 PUSH2 0x284E JUMP JUMPDEST POP PUSH1 0x40 SWAP2 POP PUSH27 0x184F03E93FF9F4DAA797ED6E38ED64BF6A1F010000000000000000 DUP2 DIV PUSH2 0x2834 JUMP JUMPDEST PUSH1 0x2 PUSH1 0xB PUSH2 0x2A2B SWAP3 PUSH1 0x2F PUSH1 0x40 MLOAD SWAP6 DUP7 SWAP3 PUSH32 0x7B2274726169745F74797065223A220000000000000000000000000000000000 PUSH1 0x20 DUP6 ADD MSTORE PUSH2 0x29B9 DUP2 MLOAD DUP1 SWAP3 PUSH1 0x20 DUP7 DUP9 ADD SWAP2 ADD PUSH2 0x1712 JUMP JUMPDEST DUP4 ADD PUSH32 0x222C2276616C7565223A22000000000000000000000000000000000000000000 DUP4 DUP3 ADD MSTORE PUSH2 0x29F4 DUP3 MLOAD DUP1 SWAP4 PUSH1 0x20 PUSH1 0x3A DUP6 ADD SWAP2 ADD PUSH2 0x1712 JUMP JUMPDEST ADD ADD PUSH32 0x227D000000000000000000000000000000000000000000000000000000000000 DUP4 DUP3 ADD MSTORE SUB ADD PUSH1 0x1D NOT DUP2 ADD DUP5 MSTORE ADD DUP3 PUSH2 0x1794 JUMP JUMPDEST SWAP1 JUMP JUMPDEST PUSH1 0x1 DUP3 ADD DUP1 SWAP3 GT PUSH2 0x2A52 JUMPI PUSH1 0x1 PUSH1 0x1 PUSH1 0xA0 SHL SUB AND PUSH1 0x0 MSTORE PUSH1 0xD PUSH1 0x20 MSTORE PUSH1 0x40 PUSH1 0x0 KECCAK256 SSTORE JUMP JUMPDEST PUSH4 0x4E487B71 PUSH1 0xE0 SHL PUSH1 0x0 MSTORE PUSH1 0x11 PUSH1 0x4 MSTORE PUSH1 0x24 PUSH1 0x0 REVERT JUMPDEST PUSH1 0x7 SLOAD SWAP1 PUSH1 0x1 PUSH1 0x1 PUSH1 0xA0 SHL SUB PUSH1 0x0 SWAP3 AND SWAP1 DUP2 PUSH2 0x2A83 JUMPI POP POP POP JUMP JUMPDEST DUP2 EXTCODESIZE ISZERO PUSH2 0x945 JUMPI PUSH1 0x1 PUSH1 0x1 PUSH1 0xA0 SHL SUB PUSH1 0x44 DUP5 SWAP3 DUP4 PUSH1 0x40 MLOAD SWAP6 DUP7 SWAP5 DUP6 SWAP4 PUSH32 0xA1905A0700000000000000000000000000000000000000000000000000000000 DUP6 MSTORE AND PUSH1 0x4 DUP5 ADD MSTORE PUSH1 0x1 PUSH1 0x24 DUP5 ADD MSTORE GAS CALL PUSH2 0x2AD9 JUMPI POP POP JUMP JUMPDEST DUP2 PUSH2 0x2AE3 SWAP2 PUSH2 0x1794 JUMP JUMPDEST POP JUMP JUMPDEST SWAP2 SWAP1 SWAP2 DUP1 MLOAD ISZERO PUSH2 0x2C00 JUMPI DUP1 MLOAD PUSH1 0x2 DUP2 ADD DUP1 SWAP2 GT PUSH2 0x2A52 JUMPI PUSH1 0x3 SWAP1 DIV DUP1 PUSH1 0x2 SHL SWAP1 PUSH32 0x3FFFFFFFFFFFFFFFFFFFFFFFFFFFFFFFFFFFFFFFFFFFFFFFFFFFFFFFFFFFFFFF DUP2 AND SUB PUSH2 0x2A52 JUMPI PUSH2 0x2B37 SWAP1 PUSH2 0x27DB JUMP JUMPDEST SWAP1 PUSH1 0x20 DUP3 ADD SWAP1 DUP1 DUP2 MLOAD DUP3 ADD SWAP6 PUSH1 0x20 DUP8 ADD SWAP1 DUP2 MLOAD SWAP3 PUSH1 0x0 DUP4 MSTORE JUMPDEST DUP9 DUP2 LT PUSH2 0x2BB2 JUMPI POP POP PUSH1 0x3 SWAP4 SWAP5 SWAP6 SWAP7 POP MSTORE MLOAD MOD DUP1 PUSH1 0x1 EQ PUSH2 0x2B81 JUMPI PUSH1 0x2 EQ PUSH2 0x2B76 JUMPI POP SWAP1 JUMP JUMPDEST PUSH1 0x0 NOT PUSH1 0x3D SWAP2 ADD MSTORE8 SWAP1 JUMP JUMPDEST POP PUSH32 0xFFFFFFFFFFFFFFFFFFFFFFFFFFFFFFFFFFFFFFFFFFFFFFFFFFFFFFFFFFFFFFFE DUP2 PUSH1 0x3D PUSH1 0x0 NOT DUP2 SWAP5 ADD MSTORE8 ADD MSTORE8 SWAP1 JUMP JUMPDEST PUSH1 0x3 PUSH1 0x4 SWAP2 SWAP10 SWAP7 SWAP10 ADD SWAP9 PUSH1 0x1 PUSH1 0x3F DUP12 MLOAD DUP3 DUP3 DUP3 PUSH1 0x12 SHR AND DUP8 ADD ADD MLOAD DUP5 MSTORE8 DUP3 DUP3 DUP3 PUSH1 0xC SHR AND DUP8 ADD ADD MLOAD DUP4 DUP6 ADD MSTORE8 DUP3 DUP3 DUP3 PUSH1 0x6 SHR AND DUP8 ADD ADD MLOAD PUSH1 0x2 DUP6 ADD MSTORE8 AND DUP5 ADD ADD MLOAD PUSH1 0x3 DUP3 ADD MSTORE8 ADD SWAP5 SWAP8 PUSH2 0x2B50 JUMP JUMPDEST POP SWAP1 POP PUSH1 0x40 MLOAD PUSH2 0x2C11 PUSH1 0x20 DUP3 PUSH2 0x1794 JUMP JUMPDEST PUSH1 0x0 DUP2 MSTORE SWAP1 JUMP INVALID LOG2 PUSH5 0x6970667358 0x22 SLT KECCAK256 0xD6 SWAP15 EQ 0x4F STATICCALL 0xBE NOT 0xD4 DUP11 LOG2 INVALID EXTCODESIZE 0xD3 0xED CREATE 0xEE BASEFEE STOP PUSH20 0x4CB3951127F03E41816AF685C64736F6C634300 ADDMOD SHR STOP CALLER "},"methodIdentifiers":{"MAX_LEVEL()":"a49062d4","_userHasMinted(address)":"36816ebc","adminTransfer(uint256,address)":"0483fc5e","approve(address,uint256)":"095ea7b3","authorizeTransfer(uint256,address)":"2e459c1e","balanceOf(address)":"70a08231","distributeReward(address,uint256)":"1ec8bb8c","getApproved(uint256)":"081812fc","getUserNFTData(address)":"4ca4b2d3","impactLevel(uint256)":"2b50496c","isApprovedForAll(address,address)":"e985e9c5","isTransferAuthorized(uint256)":"5bae9d47","mint(address)":"6a627842","name()":"06fdde03","nftLevel(uint256)":"bec98691","owner()":"8da5cb5b","ownerOf(uint256)":"6352211e","renounceOwnership()":"715018a6","revokeTransferAuthorization(uint256)":"d2a4b0c3","rewardsContract()":"220cce97","safeMint()":"6871ee40","safeTransferFrom(address,address,uint256)":"42842e0e","safeTransferFrom(address,address,uint256,bytes)":"b88d4fde","setApprovalForAll(address,bool)":"a22cb465","setRewardsContract(address)":"dfa0dfa5","setSubmissionContract(address)":"fb272a92","submissionContract()":"842ce381","supportsInterface(bytes4)":"01ffc9a7","symbol()":"95d89b41","tokenURI(uint256)":"c87b56dd","transferFrom(address,address,uint256)":"23b872dd","transferOwnership(address)":"f2fde38b","updateImpactLevel(uint256,uint256)":"8809aa1d","upgradeNFT(uint256)":"90690c9a","userLevel(address)":"280e31cc","verifiedPOI(address)":"6ada251f","verifyPOI(address)":"00f5f421"}}}}}