{"contracts/contracts/DCURewardManager.sol":{"DCURewardManager":{"abi":[{"inputs":[{"internalType":"address","name":"_dcuToken","type":"address"},{"internalType":"address","name":"_nftCollection","type":"address"}],"stateMutability":"nonpayable","type":"constructor"},{"inputs":[{"internalType":"address","name":"owner","type":"address"}],"name":"OwnableInvalidOwner","type":"error"},{"inputs":[{"internalType":"address","name":"account","type":"address"}],"name":"OwnableUnauthorizedAccount","type":"error"},{"inputs":[],"name":"ReentrancyGuardReentrantCall","type":"error"},{"anonymous":false,"inputs":[{"indexed":true,"internalType":"address","name":"user","type":"address"},{"indexed":true,"internalType":"uint256","name":"level","type":"uint256"},{"indexed":false,"internalType":"uint256","name":"amount","type":"uint256"}],"name":"DCURewardImpactProduct","type":"event"},{"anonymous":false,"inputs":[{"indexed":true,"internalType":"address","name":"referrer","type":"address"},{"indexed":true,"internalType":"address","name":"invitee","type":"address"},{"indexed":false,"internalType":"uint256","name":"amount","type":"uint256"}],"name":"DCURewardReferral","type":"event"},{"anonymous":false,"inputs":[{"indexed":true,"internalType":"address","name":"user","type":"address"},{"indexed":false,"internalType":"uint256","name":"amount","type":"uint256"},{"indexed":false,"internalType":"uint256","name":"streakDays","type":"uint256"}],"name":"DCURewardStreak","type":"event"},{"anonymous":false,"inputs":[{"indexed":true,"internalType":"address","name":"user","type":"address"},{"indexed":false,"internalType":"uint256","name":"hypercertNumber","type":"uint256"},{"indexed":false,"internalType":"uint256","name":"amount","type":"uint256"}],"name":"HypercertRewardClaimed","type":"event"},{"anonymous":false,"inputs":[{"indexed":true,"internalType":"address","name":"oldCollection","type":"address"},{"indexed":true,"internalType":"address","name":"newCollection","type":"address"}],"name":"NftCollectionUpdated","type":"event"},{"anonymous":false,"inputs":[{"indexed":true,"internalType":"address","name":"user","type":"address"},{"indexed":false,"internalType":"bool","name":"minted","type":"bool"}],"name":"NftMintStatusUpdated","type":"event"},{"anonymous":false,"inputs":[{"indexed":true,"internalType":"address","name":"previousOwner","type":"address"},{"indexed":true,"internalType":"address","name":"newOwner","type":"address"}],"name":"OwnershipTransferred","type":"event"},{"anonymous":false,"inputs":[{"indexed":true,"internalType":"address","name":"user","type":"address"},{"indexed":false,"internalType":"bool","name":"verified","type":"bool"}],"name":"PoiVerificationUpdated","type":"event"},{"anonymous":false,"inputs":[{"indexed":true,"internalType":"address","name":"invitee","type":"address"},{"indexed":true,"internalType":"address","name":"referrer","type":"address"}],"name":"ReferralRegistered","type":"event"},{"anonymous":false,"inputs":[{"indexed":false,"internalType":"uint256","name":"oldAmount","type":"uint256"},{"indexed":false,"internalType":"uint256","name":"newAmount","type":"uint256"}],"name":"ReferralRewardUpdated","type":"event"},{"anonymous":false,"inputs":[{"indexed":true,"internalType":"address","name":"referrer","type":"address"},{"indexed":true,"internalType":"address","name":"invitee","type":"address"},{"indexed":false,"internalType":"uint256","name":"amount","type":"uint256"}],"name":"ReferralRewarded","type":"event"},{"anonymous":false,"inputs":[{"indexed":true,"internalType":"address","name":"user","type":"address"},{"indexed":false,"internalType":"uint256","name":"amount","type":"uint256"},{"indexed":false,"internalType":"uint8","name":"rewardType","type":"uint8"},{"indexed":false,"internalType":"uint256","name":"timestamp","type":"uint256"}],"name":"RewardAccrued","type":"event"},{"anonymous":false,"inputs":[{"indexed":false,"internalType":"uint256","name":"claimReward","type":"uint256"},{"indexed":false,"internalType":"uint256","name":"referralReward","type":"uint256"},{"indexed":false,"internalType":"uint256","name":"streakReward","type":"uint256"}],"name":"RewardAmountsUpdated","type":"event"},{"anonymous":false,"inputs":[{"indexed":true,"internalType":"address","name":"user","type":"address"},{"indexed":false,"internalType":"bool","name":"eligible","type":"bool"},{"indexed":false,"internalType":"bool","name":"manualOverride","type":"bool"}],"name":"RewardEligibilityUpdated","type":"event"},{"anonymous":false,"inputs":[{"indexed":true,"internalType":"address","name":"user","type":"address"},{"indexed":false,"internalType":"uint256","name":"amount","type":"uint256"},{"indexed":false,"internalType":"uint256","name":"timestamp","type":"uint256"}],"name":"RewardsClaimed","type":"event"},{"anonymous":false,"inputs":[{"indexed":true,"internalType":"address","name":"oldSubmission","type":"address"},{"indexed":true,"internalType":"address","name":"newSubmission","type":"address"}],"name":"SubmissionContractUpdated","type":"event"},{"anonymous":false,"inputs":[{"indexed":true,"internalType":"address","name":"oldTreasury","type":"address"},{"indexed":true,"internalType":"address","name":"newTreasury","type":"address"}],"name":"TreasuryUpdated","type":"event"},{"inputs":[{"internalType":"uint256","name":"hypercertNumber","type":"uint256"}],"name":"claimHypercertReward","outputs":[],"stateMutability":"nonpayable","type":"function"},{"inputs":[{"internalType":"uint256","name":"amount","type":"uint256"}],"name":"claimRewards","outputs":[],"stateMutability":"nonpayable","type":"function"},{"inputs":[{"internalType":"address","name":"","type":"address"}],"name":"claimRewardsAmount","outputs":[{"internalType":"uint256","name":"","type":"uint256"}],"stateMutability":"view","type":"function"},{"inputs":[],"name":"dcuToken","outputs":[{"internalType":"contract IDCUToken","name":"","type":"address"}],"stateMutability":"view","type":"function"},{"inputs":[{"internalType":"address","name":"user","type":"address"},{"internalType":"uint256","name":"amount","type":"uint256"}],"name":"distributeRewards","outputs":[],"stateMutability":"nonpayable","type":"function"},{"inputs":[{"internalType":"address","name":"user","type":"address"}],"name":"getBalance","outputs":[{"internalType":"uint256","name":"","type":"uint256"}],"stateMutability":"view","type":"function"},{"inputs":[{"internalType":"address","name":"invitee","type":"address"}],"name":"getReferrer","outputs":[{"internalType":"address","name":"","type":"address"}],"stateMutability":"view","type":"function"},{"inputs":[{"internalType":"address","name":"user","type":"address"}],"name":"getRewardsBreakdown","outputs":[{"internalType":"uint256","name":"claimReward","type":"uint256"},{"internalType":"uint256","name":"streakRewardAmount","type":"uint256"},{"internalType":"uint256","name":"referralRewardAmount","type":"uint256"},{"internalType":"uint256","name":"currentBalance","type":"uint256"},{"internalType":"uint256","name":"claimedRewards","type":"uint256"}],"stateMutability":"view","type":"function"},{"inputs":[{"internalType":"address","name":"user","type":"address"}],"name":"getTotalEarnedDCU","outputs":[{"internalType":"uint256","name":"","type":"uint256"}],"stateMutability":"view","type":"function"},{"inputs":[{"internalType":"address","name":"user","type":"address"}],"name":"getUserRewardStats","outputs":[{"components":[{"internalType":"uint256","name":"currentBalance","type":"uint256"},{"internalType":"uint256","name":"totalEarned","type":"uint256"},{"internalType":"uint256","name":"totalClaimed","type":"uint256"},{"internalType":"uint256","name":"claimRewardsAmount","type":"uint256"},{"internalType":"uint256","name":"streakRewardsAmount","type":"uint256"},{"internalType":"uint256","name":"referralRewardsAmount","type":"uint256"},{"internalType":"uint256","name":"impactReportRewardsAmount","type":"uint256"}],"internalType":"struct DCURewardManager.UserRewardStats","name":"","type":"tuple"}],"stateMutability":"view","type":"function"},{"inputs":[{"internalType":"address","name":"user","type":"address"}],"name":"getVerificationStatus","outputs":[{"internalType":"bool","name":"poiStatus","type":"bool"},{"internalType":"bool","name":"nftStatus","type":"bool"},{"internalType":"bool","name":"eligible","type":"bool"}],"stateMutability":"view","type":"function"},{"inputs":[],"name":"hypercertBonus","outputs":[{"internalType":"uint256","name":"","type":"uint256"}],"stateMutability":"view","type":"function"},{"inputs":[{"internalType":"bytes32","name":"","type":"bytes32"}],"name":"hypercertRewardsClaimed","outputs":[{"internalType":"bool","name":"","type":"bool"}],"stateMutability":"view","type":"function"},{"inputs":[],"name":"impactProductClaimReward","outputs":[{"internalType":"uint256","name":"","type":"uint256"}],"stateMutability":"view","type":"function"},{"inputs":[{"internalType":"address","name":"","type":"address"},{"internalType":"uint256","name":"","type":"uint256"}],"name":"impactProductClaimed","outputs":[{"internalType":"bool","name":"","type":"bool"}],"stateMutability":"view","type":"function"},{"inputs":[],"name":"impactReportReward","outputs":[{"internalType":"uint256","name":"","type":"uint256"}],"stateMutability":"view","type":"function"},{"inputs":[{"internalType":"address","name":"","type":"address"}],"name":"impactReportRewardsAmount","outputs":[{"internalType":"uint256","name":"","type":"uint256"}],"stateMutability":"view","type":"function"},{"inputs":[{"internalType":"address","name":"","type":"address"}],"name":"lastPoiTimestamp","outputs":[{"internalType":"uint256","name":"","type":"uint256"}],"stateMutability":"view","type":"function"},{"inputs":[],"name":"nftCollection","outputs":[{"internalType":"address","name":"","type":"address"}],"stateMutability":"view","type":"function"},{"inputs":[{"internalType":"address","name":"","type":"address"}],"name":"nftMinted","outputs":[{"internalType":"bool","name":"","type":"bool"}],"stateMutability":"view","type":"function"},{"inputs":[],"name":"owner","outputs":[{"internalType":"address","name":"","type":"address"}],"stateMutability":"view","type":"function"},{"inputs":[{"internalType":"address","name":"","type":"address"}],"name":"poiVerified","outputs":[{"internalType":"bool","name":"","type":"bool"}],"stateMutability":"view","type":"function"},{"inputs":[],"name":"referralReward","outputs":[{"internalType":"uint256","name":"","type":"uint256"}],"stateMutability":"view","type":"function"},{"inputs":[{"internalType":"address","name":"","type":"address"}],"name":"referralRewarded","outputs":[{"internalType":"bool","name":"","type":"bool"}],"stateMutability":"view","type":"function"},{"inputs":[{"internalType":"address","name":"","type":"address"}],"name":"referralRewardsAmount","outputs":[{"internalType":"uint256","name":"","type":"uint256"}],"stateMutability":"view","type":"function"},{"inputs":[{"internalType":"address","name":"","type":"address"}],"name":"referrers","outputs":[{"internalType":"address","name":"","type":"address"}],"stateMutability":"view","type":"function"},{"inputs":[{"internalType":"address","name":"invitee","type":"address"},{"internalType":"address","name":"referrer","type":"address"}],"name":"registerReferral","outputs":[],"stateMutability":"nonpayable","type":"function"},{"inputs":[],"name":"renounceOwnership","outputs":[],"stateMutability":"nonpayable","type":"function"},{"inputs":[{"internalType":"address","name":"","type":"address"}],"name":"rewardEligibility","outputs":[{"internalType":"bool","name":"","type":"bool"}],"stateMutability":"view","type":"function"},{"inputs":[{"internalType":"address","name":"user","type":"address"}],"name":"rewardHypercertMint","outputs":[],"stateMutability":"nonpayable","type":"function"},{"inputs":[{"internalType":"address","name":"user","type":"address"},{"internalType":"uint256","name":"level","type":"uint256"}],"name":"rewardImpactProductClaim","outputs":[],"stateMutability":"nonpayable","type":"function"},{"inputs":[{"internalType":"address","name":"user","type":"address"},{"internalType":"uint256","name":"reportCount","type":"uint256"}],"name":"rewardImpactReports","outputs":[],"stateMutability":"nonpayable","type":"function"},{"inputs":[{"internalType":"address","name":"verifier","type":"address"}],"name":"rewardVerifier","outputs":[],"stateMutability":"nonpayable","type":"function"},{"inputs":[{"internalType":"address","name":"user","type":"address"},{"internalType":"bool","name":"status","type":"bool"}],"name":"setPoiVerificationStatus","outputs":[],"stateMutability":"nonpayable","type":"function"},{"inputs":[{"internalType":"address","name":"user","type":"address"},{"internalType":"bool","name":"status","type":"bool"}],"name":"setRewardEligibilityForTesting","outputs":[],"stateMutability":"nonpayable","type":"function"},{"inputs":[{"internalType":"address","name":"_submission","type":"address"}],"name":"setSubmissionContract","outputs":[],"stateMutability":"nonpayable","type":"function"},{"inputs":[],"name":"streakReward","outputs":[{"internalType":"uint256","name":"","type":"uint256"}],"stateMutability":"view","type":"function"},{"inputs":[{"internalType":"address","name":"","type":"address"}],"name":"streakRewardsAmount","outputs":[{"internalType":"uint256","name":"","type":"uint256"}],"stateMutability":"view","type":"function"},{"inputs":[],"name":"submissionContract","outputs":[{"internalType":"address","name":"","type":"address"}],"stateMutability":"view","type":"function"},{"inputs":[{"internalType":"address","name":"","type":"address"}],"name":"totalClaimed","outputs":[{"internalType":"uint256","name":"","type":"uint256"}],"stateMutability":"view","type":"function"},{"inputs":[{"internalType":"address","name":"","type":"address"}],"name":"totalEarned","outputs":[{"internalType":"uint256","name":"","type":"uint256"}],"stateMutability":"view","type":"function"},{"inputs":[{"internalType":"address","name":"newOwner","type":"address"}],"name":"transferOwnership","outputs":[],"stateMutability":"nonpayable","type":"function"},{"inputs":[],"name":"treasury","outputs":[{"internalType":"address","name":"","type":"address"}],"stateMutability":"view","type":"function"},{"inputs":[{"internalType":"address","name":"_nftCollection","type":"address"}],"name":"updateNftCollection","outputs":[],"stateMutability":"nonpayable","type":"function"},{"inputs":[{"internalType":"address","name":"user","type":"address"},{"internalType":"bool","name":"hasMinted","type":"bool"}],"name":"updateNftMintStatus","outputs":[],"stateMutability":"nonpayable","type":"function"},{"inputs":[{"internalType":"uint256","name":"newReferralReward","type":"uint256"}],"name":"updateReferralReward","outputs":[],"stateMutability":"nonpayable","type":"function"},{"inputs":[{"internalType":"uint256","name":"newClaimReward","type":"uint256"},{"internalType":"uint256","name":"newReferralReward","type":"uint256"},{"internalType":"uint256","name":"newStreakReward","type":"uint256"}],"name":"updateRewardAmounts","outputs":[],"stateMutability":"nonpayable","type":"function"},{"inputs":[{"internalType":"address","name":"newTreasury","type":"address"}],"name":"updateTreasury","outputs":[],"stateMutability":"nonpayable","type":"function"},{"inputs":[{"internalType":"address","name":"","type":"address"}],"name":"userBalances","outputs":[{"internalType":"uint256","name":"","type":"uint256"}],"stateMutability":"view","type":"function"},{"inputs":[],"name":"verifierReward","outputs":[{"internalType":"uint256","name":"","type":"uint256"}],"stateMutability":"view","type":"function"}],"evm":{"bytecode":{"linkReferences":{},"object":"60a03461019757601f6122de38819003918201601f19168301916001600160401b0383118484101761019c57808492604094855283398101031261019757610052602061004b836101b2565b92016101b2565b9033156101815760008054336001600160a01b0319821681178355604051939290916001600160a01b0316907f8be0079c531659141344cd1fd0a4f28419497f9722a3daafe3b4186f6b6457e09080a360018055678ac7230489e8000060058190556729a2241af62c00006006819055600755674563918244f40000600855670de0b6b3a7640000600955600a556001600160a01b031690811561013f5750608052600280546001600160a01b03929092166001600160a01b03199283161790556004805433921691909117905560405161211790816101c782396080518181816117ca01526118a40152f35b62461bcd60e51b815260206004820152601660248201527f5245574152445f5f496e76616c696441646472657373000000000000000000006044820152606490fd5b631e4fbdf760e01b600052600060045260246000fd5b600080fd5b634e487b7160e01b600052604160045260246000fd5b51906001600160a01b03821682036101975756fe6080604052600436101561001257600080fd5b60003560e01c80630962ef79146117ee57806314cde16e146117aa57806321c838ef146114cf57806322b316191461149557806322c1f4471461147757806326224c641461030b5780632f6f92b3146114385780633aec4473146113fe5780633efe458a146113e057806347c24fcf146112485780634a3b68cc146112055780634a9fefc7146112055780634c5a3f1b146111805780634d683674146111625780634f3f2832146111285780635001d45f1461110a5780635603b9f914610ff15780635b651c4814610f785780635fd6ac8114610ef95780636103681a14610e8d57806361d027b314610e6657806362d2eea214610e27578063649aca4a1461058857806364f9386a14610ded5780636588103b14610dc657806369e23ced14610d8c578063715018a614610d2657806376e1748314610c49578063794882d114610c2b5780637f51bb1f14610ba6578063823888d114610b75578063842ce38114610b4e57806389e0e554146108e25780638da5cb5b146108bb5780639afdf64d146108635780639b13027d1461073b578063a1905a0714610689578063a8031a1d1461062d578063aa58152d146105e0578063b49e80f4146105c2578063c107e3b414610588578063d5b3081b14610547578063dac773c014610508578063e554e1ad146104a0578063e9ecfef31461042e578063ef5d9ae8146103f4578063f2fde38b14610345578063f8b2cb4f1461030b578063fb272a92146102865763fcec67691461024257600080fd5b34610281576020600319360112610281576001600160a01b036102636119dd565b166000526015602052602060ff604060002054166040519015158152f35b600080fd5b34610281576020600319360112610281576001600160a01b036102a76119dd565b6102af61204a565b166102bb811515611b5e565b6001600160a01b036003548273ffffffffffffffffffffffffffffffffffffffff19821617600355167f5618d15b3d3478bef54c48bfa1cbb365001987a237e573422477a43597b496bd600080a3005b34610281576020600319360112610281576001600160a01b0361032c6119dd565b16600052600b6020526020604060002054604051908152f35b34610281576020600319360112610281576001600160a01b036103666119dd565b61036e61204a565b1680156103c5576001600160a01b036000548273ffffffffffffffffffffffffffffffffffffffff19821617600055167f8be0079c531659141344cd1fd0a4f28419497f9722a3daafe3b4186f6b6457e0600080a3005b7f1e4fbdf700000000000000000000000000000000000000000000000000000000600052600060045260246000fd5b34610281576020600319360112610281576001600160a01b036104156119dd565b16600052600d6020526020604060002054604051908152f35b346102815760206003193601126102815761048561044a6119dd565b6001600160a01b036003541633148015610487575b61046890611b13565b61047c6001600160a01b0382161515611b5e565b60095490611f4c565b005b506104686001600160a01b03600054163314905061045f565b34610281576020600319360112610281577f0ba2611e03c210377c7111f9c3f59febd751b32e081daa8d153f9e5aefc4d44a60406004356104df61204a565b6104ea811515611a22565b6104f38161208c565b600654908060065582519182526020820152a1005b34610281576020600319360112610281576001600160a01b036105296119dd565b166000526012602052602060ff604060002054166040519015158152f35b34610281576020600319360112610281576104856105636119dd565b61056b61204a565b61057f6001600160a01b0382161515611b5e565b600a5490611e48565b34610281576020600319360112610281576001600160a01b036105a96119dd565b16600052600c6020526020604060002054604051908152f35b34610281576000600319360112610281576020600954604051908152f35b34610281576040600319360112610281576001600160a01b036106016119dd565b1660005260176020526040600020602435600052602052602060ff604060002054166040519015158152f35b34610281576040600319360112610281576104856106496119dd565b6001600160a01b036003541633148015610670575b61066790611b13565b60243590611eca565b506106676001600160a01b03600054163314905061065e565b346102815761048561069a366119f3565b6001600160a01b036002541633148015610722575b6106b890611b13565b7fcc3839c65af66c01694bedefc47e2c3871dedd5489b4432fb8b876f92bcd26fe60206001600160a01b038416926106f1841515611b5e565b83600052601382526107148160406000209060ff60ff1983541691151516179055565b6040519015158152a2611fce565b506106b86001600160a01b0360005416331490506106af565b346102815760206003193601126102815760e06001600160a01b0361075e6119dd565b600060c060405161076e81611a87565b8281528260208201528260408201528260608201528260808201528260a082015201521680600052600b6020526040600020549080600052600c6020526040600020549080600052600d60205260406000205481600052600e60205260406000205482600052600f602052604060002054918360005260106020526040600020549360005260116020526040600020549460c060405161080d81611a87565b8881526020810192835260408101938452606081019485526080810195865260a08101968752019586526040519687525160208701525160408601525160608501525160808401525160a08301525160c0820152f35b34610281576104856108b6610877366119f3565b61088292919261204a565b6001600160a01b038316610897811515611b5e565b600052601460205260406000209060ff60ff1983541691151516179055565b611fce565b346102815760006003193601126102815760206001600160a01b0360005416604051908152f35b34610281576020600319360112610281576004356108fe611ba9565b6001600160a01b03600354168015610b0a578115610ac6576020602491604051928380927f5fb971fe0000000000000000000000000000000000000000000000000000000082523360048301525afa8015610aba578291600091610a85575b5010610a415760405160208101903360601b825282603482015260348152610986605482611ad2565b51902080600052601a60205260ff604060002054166109fd57600052601a6020526040600020600160ff198254161790556109c3600a5433611e48565b600a5460405191825260208201527f951f39974d404f2469a2c5eb978dfc1f14816a992e303940d6691ba1f800b22a60403392a260018055005b606460405162461bcd60e51b815260206004820152601660248201527f52657761726420616c726561647920636c61696d6564000000000000000000006044820152fd5b606460405162461bcd60e51b815260206004820152601460248201527f487970657263657274206e6f74206d696e7465640000000000000000000000006044820152fd5b9150506020813d602011610ab2575b81610aa160209383611ad2565b81010312610281578190518361095d565b3d9150610a94565b6040513d6000823e3d90fd5b606460405162461bcd60e51b815260206004820152601860248201527f496e76616c696420687970657263657274206e756d62657200000000000000006044820152fd5b606460405162461bcd60e51b815260206004820152601260248201527f5375626d697373696f6e206e6f742073657400000000000000000000000000006044820152fd5b346102815760006003193601126102815760206001600160a01b0360035416604051908152f35b3461028157602060031936011261028157600435600052601a602052602060ff604060002054166040519015158152f35b34610281576020600319360112610281576001600160a01b03610bc76119dd565b610bcf61204a565b16610bdb811515611b5e565b6001600160a01b036004548273ffffffffffffffffffffffffffffffffffffffff19821617600455167f4ab5be82436d353e61ca18726e984e561f5c1cc7c6d38b29d2553c790434705a600080a3005b34610281576000600319360112610281576020600a54604051908152f35b3461028157604060031936011261028157610c626119dd565b602435906001600160a01b036003541633148015610d0d575b610c8490611b13565b6001600160a01b03811690610c9a821515611b5e565b610ca5831515611a22565b600854838102938185041490151715610cde5782610cc291611dc6565b6000526011602052610cda6040600020918254611a7a565b9055005b7f4e487b7100000000000000000000000000000000000000000000000000000000600052601160045260246000fd5b50610c846001600160a01b036000541633149050610c7b565b3461028157600060031936011261028157610d3f61204a565b60006001600160a01b03815473ffffffffffffffffffffffffffffffffffffffff1981168355167f8be0079c531659141344cd1fd0a4f28419497f9722a3daafe3b4186f6b6457e08280a3005b34610281576020600319360112610281576001600160a01b03610dad6119dd565b1660005260106020526020604060002054604051908152f35b346102815760006003193601126102815760206001600160a01b0360025416604051908152f35b34610281576020600319360112610281576001600160a01b03610e0e6119dd565b16600052600f6020526020604060002054604051908152f35b34610281576020600319360112610281576001600160a01b03610e486119dd565b166000526019602052602060ff604060002054166040519015158152f35b346102815760006003193601126102815760206001600160a01b0360045416604051908152f35b34610281576020600319360112610281576060610ea86119dd565b6001600160a01b0381169081600052601260205260ff60406000205416916000526013602052610ee060ff6040600020541691611be4565b9060405192151583521515602083015215156040820152f35b34610281576060600319360112610281577f246173514089d16e18ec0ac77ebd48a60f2f43cf55e2436266e925590d81cd856060600435604435602435610f3e61204a565b610f478361208c565b610f508161208c565b610f598261208c565b82600555806006558160075560405192835260208301526040820152a1005b346102815760206003193601126102815760a06001600160a01b03610f9b6119dd565b166000908152600e6020908152604080832054600f8352818420546010845282852054600b855283862054600d865295849020548451938452948301919091529181019190915260608101929092526080820152f35b346102815760406003193601126102815761100a6119dd565b602435906001600160a01b038216809203610281576001600160a01b039061103061204a565b1680151580611101575b61104390611b5e565b61104f82821415611b5e565b8060005260186020526001600160a01b03604060002054166110bd5780600052601860205260406000208273ffffffffffffffffffffffffffffffffffffffff198254161790557f5f1ca2fcc108b751843a763e60d2201f593516109d7dbb1b700468f2d4190bb7600080a3005b606460405162461bcd60e51b815260206004820152601b60248201527f526566657272616c20616c7265616479207265676973746572656400000000006044820152fd5b5081151561103a565b34610281576000600319360112610281576020600554604051908152f35b34610281576020600319360112610281576001600160a01b036111496119dd565b1660005260166020526020604060002054604051908152f35b34610281576000600319360112610281576020600654604051908152f35b34610281576020600319360112610281576001600160a01b036111a16119dd565b6111a961204a565b166111b5811515611b5e565b6001600160a01b036002548273ffffffffffffffffffffffffffffffffffffffff19821617600255167f05f472e59b83f0c85014d6a7cd671172b33cf16294c73442fcb0fdc4bb2f36b8600080a3005b34610281576020600319360112610281576001600160a01b036112266119dd565b16600052601860205260206001600160a01b0360406000205416604051908152f35b3461028157610485611259366119f3565b6001600160a01b0360025416331480156113c7575b61127790611b13565b7fd1148eed154e83a9726ba99e44569959444cdd245759c5dc1dd5f6b662a4bb0760206001600160a01b038416926112b0841515611b5e565b801561139e5783600052601682528360406000205480151580611388575b611308575b50600052601682524260406000205583600052601282526040600020600160ff198254161790556040519015158152a2611fce565b61133f620151809161131c6007548a611d44565b60075484600052600f87526113376040600020918254611a7a565b905542611a6d565b048015611380575b60407fbed2e721199f29579fccd5fd78b46ec11f3136f6cfd1e46ce44cfeab9383e9e09160075490825191825286820152a283876112d3565b506001611347565b5062093a806113978242611a6d565b11156112ce565b8360005260128252604060002060ff198154169055836000526016825260006040812055610714565b506112776001600160a01b03600054163314905061126e565b34610281576000600319360112610281576020600754604051908152f35b34610281576020600319360112610281576001600160a01b0361141f6119dd565b16600052600e6020526020604060002054604051908152f35b34610281576020600319360112610281576001600160a01b036114596119dd565b166000526013602052602060ff604060002054166040519015158152f35b34610281576000600319360112610281576020600854604051908152f35b34610281576020600319360112610281576001600160a01b036114b66119dd565b1660005260116020526020604060002054604051908152f35b34610281576040600319360112610281576114e86119dd565b6024356001600160a01b036002541633148015611791575b61150990611b13565b600181101580611786575b15611742576001600160a01b0382169161152f831515611b5e565b61153881611be4565b156116fe5782600052601760205260406000208260005260205260ff604060002054166116ba57611591908360005260176020526040600020836000526020526040600020600160ff1982541617905560055490611c3b565b60055482600052600e6020526115ad6040600020918254611a7a565b9055817fd88fdc5ed03a23aa2944456eeb92a5d48553863e1afde4d94a559602112771516020600554604051908152a38060005260186020526001600160a01b0360406000205416801515806116a1575b61160457005b8160005260196020526040600020600160ff1982541617905561162960065482611cc2565b6006548160005260106020526116456040600020918254611a7a565b90557f3e555c80c86d940c198c007f11f8ca0cedcbc1f0b2f0b0a7405a67493dffe4dc602060065484847fb2dee5f49e7a09a5d7c95cd4dd5dc6410eea65d4e14519d6d3a6e14c8cf0e0e984604051858152a3604051908152a3005b5081600052601960205260ff60406000205416156115fe565b606460405162461bcd60e51b815260206004820152601560248201527f4c6576656c20616c726561647920636c61696d656400000000000000000000006044820152fd5b606460405162461bcd60e51b815260206004820152601d60248201527f55736572206e6f7420656c696769626c6520666f7220726577617264730000006044820152fd5b606460405162461bcd60e51b815260206004820152601460248201527f5245574152445f5f496e76616c69644c6576656c0000000000000000000000006044820152fd5b50600a811115611514565b506115096001600160a01b036000541633149050611500565b346102815760006003193601126102815760206040516001600160a01b037f0000000000000000000000000000000000000000000000000000000000000000168152f35b346102815760206003193601126102815760043561180a611ba9565b611815811515611a22565b33600052600b60205280604060002054106119995733600052600b6020526040600020611843828254611a6d565b905533600052600d602052604060002061185e828254611a7a565b90556040517f40c10f1900000000000000000000000000000000000000000000000000000000815233600482015281602482015260208160448160006001600160a01b037f0000000000000000000000000000000000000000000000000000000000000000165af1908115610aba57600091611957575b5015611913576040519081524260208201527fdacbdde355ba930696a362ea6738feb9f8bd52dfb3d81947558fd3217e23e32560403392a260018055005b606460405162461bcd60e51b815260206004820152601360248201527f52657761726420636c61696d206661696c6564000000000000000000000000006044820152fd5b6020813d602011611991575b8161197060209383611ad2565b8101031261198d575190811515820361198a5750826118d5565b80fd5b5080fd5b3d9150611963565b606460405162461bcd60e51b815260206004820152601b60248201527f5245574152445f5f496e73756666696369656e7442616c616e636500000000006044820152fd5b600435906001600160a01b038216820361028157565b6003196040910112610281576004356001600160a01b0381168103610281579060243580151581036102815790565b15611a2957565b606460405162461bcd60e51b815260206004820152601260248201527f5245574152445f5f5a65726f416d6f756e7400000000000000000000000000006044820152fd5b91908203918211610cde57565b91908201809211610cde57565b60e0810190811067ffffffffffffffff821117611aa357604052565b7f4e487b7100000000000000000000000000000000000000000000000000000000600052604160045260246000fd5b90601f7fffffffffffffffffffffffffffffffffffffffffffffffffffffffffffffffe0910116810190811067ffffffffffffffff821117611aa357604052565b15611b1a57565b606460405162461bcd60e51b815260206004820152601460248201527f5245574152445f5f556e617574686f72697a65640000000000000000000000006044820152fd5b15611b6557565b606460405162461bcd60e51b815260206004820152601660248201527f5245574152445f5f496e76616c696441646472657373000000000000000000006044820152fd5b600260015414611bba576002600155565b7f3ee5aeb50000000000000000000000000000000000000000000000000000000060005260046000fd5b6001600160a01b031680600052601460205260ff60406000205416611c355780600052601260205260ff604060002054169081611c1f575090565b9050600052601360205260ff6040600020541690565b50600190565b906000918115611cbd577f6923e5879e7217b6481afa33e604ad52afcd215fb632497c2765f7368fa1a09d916001600160a01b036060921693848152600b60205260408120611c8b838254611a7a565b9055848152600c60205260408120611ca4838254611a7a565b90555060405190815260006020820152426040820152a2565b505050565b906000918115611cbd577f6923e5879e7217b6481afa33e604ad52afcd215fb632497c2765f7368fa1a09d916001600160a01b036060921693848152600b60205260408120611d12838254611a7a565b9055848152600c60205260408120611d2b838254611a7a565b90555060405190815260026020820152426040820152a2565b906000918115611cbd577f6923e5879e7217b6481afa33e604ad52afcd215fb632497c2765f7368fa1a09d916001600160a01b036060921693848152600b60205260408120611d94838254611a7a565b9055848152600c60205260408120611dad838254611a7a565b90555060405190815260016020820152426040820152a2565b906000918115611cbd577f6923e5879e7217b6481afa33e604ad52afcd215fb632497c2765f7368fa1a09d916001600160a01b036060921693848152600b60205260408120611e16838254611a7a565b9055848152600c60205260408120611e2f838254611a7a565b90555060405190815260036020820152426040820152a2565b906000918115611cbd577f6923e5879e7217b6481afa33e604ad52afcd215fb632497c2765f7368fa1a09d916001600160a01b036060921693848152600b60205260408120611e98838254611a7a565b9055848152600c60205260408120611eb1838254611a7a565b90555060405190815260056020820152426040820152a2565b906000918115611cbd577f6923e5879e7217b6481afa33e604ad52afcd215fb632497c2765f7368fa1a09d916001600160a01b036060921693848152600b60205260408120611f1a838254611a7a565b9055848152600c60205260408120611f33838254611a7a565b90555060405190815260066020820152426040820152a2565b906000918115611cbd577f6923e5879e7217b6481afa33e604ad52afcd215fb632497c2765f7368fa1a09d916001600160a01b036060921693848152600b60205260408120611f9c838254611a7a565b9055848152600c60205260408120611fb5838254611a7a565b90555060405190815260046020820152426040820152a2565b7f4be847f8aaabddde8e8fe98eb5abe743236d75160ac686d09206ac662a346daf60406001600160a01b0361200284611be4565b93169283600052601560205261202881836000209060ff60ff1983541691151516179055565b83600052601460205260ff8260002054168251911515825215156020820152a2565b6001600160a01b0360005416330361205e57565b7f118cdaa7000000000000000000000000000000000000000000000000000000006000523360045260246000fd5b683635c9adc5dea000001061209d57565b606460405162461bcd60e51b815260206004820152601d60248201527f5245574152445f5f457863657373697665526577617264416d6f756e740000006044820152fdfea2646970667358221220e6d077e6023f2cb66a9ecc00c567642beba34dbf522aa6c0bc5e7acd05765da464736f6c634300081c0033","opcodes":"PUSH1 0xA0 CALLVALUE PUSH2 0x197 JUMPI PUSH1 0x1F PUSH2 0x22DE CODESIZE DUP2 SWAP1 SUB SWAP2 DUP3 ADD PUSH1 0x1F NOT AND DUP4 ADD SWAP2 PUSH1 0x1 PUSH1 0x1 PUSH1 0x40 SHL SUB DUP4 GT DUP5 DUP5 LT OR PUSH2 0x19C JUMPI DUP1 DUP5 SWAP3 PUSH1 0x40 SWAP5 DUP6 MSTORE DUP4 CODECOPY DUP2 ADD SUB SLT PUSH2 0x197 JUMPI PUSH2 0x52 PUSH1 0x20 PUSH2 0x4B DUP4 PUSH2 0x1B2 JUMP JUMPDEST SWAP3 ADD PUSH2 0x1B2 JUMP JUMPDEST SWAP1 CALLER ISZERO PUSH2 0x181 JUMPI PUSH1 0x0 DUP1 SLOAD CALLER PUSH1 0x1 PUSH1 0x1 PUSH1 0xA0 SHL SUB NOT DUP3 AND DUP2 OR DUP4 SSTORE PUSH1 0x40 MLOAD SWAP4 SWAP3 SWAP1 SWAP2 PUSH1 0x1 PUSH1 0x1 PUSH1 0xA0 SHL SUB AND SWAP1 PUSH32 0x8BE0079C531659141344CD1FD0A4F28419497F9722A3DAAFE3B4186F6B6457E0 SWAP1 DUP1 LOG3 PUSH1 0x1 DUP1 SSTORE PUSH8 0x8AC7230489E80000 PUSH1 0x5 DUP2 SWAP1 SSTORE PUSH8 0x29A2241AF62C0000 PUSH1 0x6 DUP2 SWAP1 SSTORE PUSH1 0x7 SSTORE PUSH8 0x4563918244F40000 PUSH1 0x8 SSTORE PUSH8 0xDE0B6B3A7640000 PUSH1 0x9 SSTORE PUSH1 0xA SSTORE PUSH1 0x1 PUSH1 0x1 PUSH1 0xA0 SHL SUB AND SWAP1 DUP2 ISZERO PUSH2 0x13F JUMPI POP PUSH1 0x80 MSTORE PUSH1 0x2 DUP1 SLOAD PUSH1 0x1 PUSH1 0x1 PUSH1 0xA0 SHL SUB SWAP3 SWAP1 SWAP3 AND PUSH1 0x1 PUSH1 0x1 PUSH1 0xA0 SHL SUB NOT SWAP3 DUP4 AND OR SWAP1 SSTORE PUSH1 0x4 DUP1 SLOAD CALLER SWAP3 AND SWAP2 SWAP1 SWAP2 OR SWAP1 SSTORE PUSH1 0x40 MLOAD PUSH2 0x2117 SWAP1 DUP2 PUSH2 0x1C7 DUP3 CODECOPY PUSH1 0x80 MLOAD DUP2 DUP2 DUP2 PUSH2 0x17CA ADD MSTORE PUSH2 0x18A4 ADD MSTORE RETURN JUMPDEST PUSH3 0x461BCD PUSH1 0xE5 SHL DUP2 MSTORE PUSH1 0x20 PUSH1 0x4 DUP3 ADD MSTORE PUSH1 0x16 PUSH1 0x24 DUP3 ADD MSTORE PUSH32 0x5245574152445F5F496E76616C69644164647265737300000000000000000000 PUSH1 0x44 DUP3 ADD MSTORE PUSH1 0x64 SWAP1 REVERT JUMPDEST PUSH4 0x1E4FBDF7 PUSH1 0xE0 SHL PUSH1 0x0 MSTORE PUSH1 0x0 PUSH1 0x4 MSTORE PUSH1 0x24 PUSH1 0x0 REVERT JUMPDEST PUSH1 0x0 DUP1 REVERT JUMPDEST PUSH4 0x4E487B71 PUSH1 0xE0 SHL PUSH1 0x0 MSTORE PUSH1 0x41 PUSH1 0x4 MSTORE PUSH1 0x24 PUSH1 0x0 REVERT JUMPDEST MLOAD SWAP1 PUSH1 0x1 PUSH1 0x1 PUSH1 0xA0 SHL SUB DUP3 AND DUP3 SUB PUSH2 0x197 JUMPI JUMP INVALID PUSH1 0x80 PUSH1 0x40 MSTORE PUSH1 0x4 CALLDATASIZE LT ISZERO PUSH2 0x12 JUMPI PUSH1 0x0 DUP1 REVERT JUMPDEST PUSH1 0x0 CALLDATALOAD PUSH1 0xE0 SHR DUP1 PUSH4 0x962EF79 EQ PUSH2 0x17EE JUMPI DUP1 PUSH4 0x14CDE16E EQ PUSH2 0x17AA JUMPI DUP1 PUSH4 0x21C838EF EQ PUSH2 0x14CF JUMPI DUP1 PUSH4 0x22B31619 EQ PUSH2 0x1495 JUMPI DUP1 PUSH4 0x22C1F447 EQ PUSH2 0x1477 JUMPI DUP1 PUSH4 0x26224C64 EQ PUSH2 0x30B JUMPI DUP1 PUSH4 0x2F6F92B3 EQ PUSH2 0x1438 JUMPI DUP1 PUSH4 0x3AEC4473 EQ PUSH2 0x13FE JUMPI DUP1 PUSH4 0x3EFE458A EQ PUSH2 0x13E0 JUMPI DUP1 PUSH4 0x47C24FCF EQ PUSH2 0x1248 JUMPI DUP1 PUSH4 0x4A3B68CC EQ PUSH2 0x1205 JUMPI DUP1 PUSH4 0x4A9FEFC7 EQ PUSH2 0x1205 JUMPI DUP1 PUSH4 0x4C5A3F1B EQ PUSH2 0x1180 JUMPI DUP1 PUSH4 0x4D683674 EQ PUSH2 0x1162 JUMPI DUP1 PUSH4 0x4F3F2832 EQ PUSH2 0x1128 JUMPI DUP1 PUSH4 0x5001D45F EQ PUSH2 0x110A JUMPI DUP1 PUSH4 0x5603B9F9 EQ PUSH2 0xFF1 JUMPI DUP1 PUSH4 0x5B651C48 EQ PUSH2 0xF78 JUMPI DUP1 PUSH4 0x5FD6AC81 EQ PUSH2 0xEF9 JUMPI DUP1 PUSH4 0x6103681A EQ PUSH2 0xE8D JUMPI DUP1 PUSH4 0x61D027B3 EQ PUSH2 0xE66 JUMPI DUP1 PUSH4 0x62D2EEA2 EQ PUSH2 0xE27 JUMPI DUP1 PUSH4 0x649ACA4A EQ PUSH2 0x588 JUMPI DUP1 PUSH4 0x64F9386A EQ PUSH2 0xDED JUMPI DUP1 PUSH4 0x6588103B EQ PUSH2 0xDC6 JUMPI DUP1 PUSH4 0x69E23CED EQ PUSH2 0xD8C JUMPI DUP1 PUSH4 0x715018A6 EQ PUSH2 0xD26 JUMPI DUP1 PUSH4 0x76E17483 EQ PUSH2 0xC49 JUMPI DUP1 PUSH4 0x794882D1 EQ PUSH2 0xC2B JUMPI DUP1 PUSH4 0x7F51BB1F EQ PUSH2 0xBA6 JUMPI DUP1 PUSH4 0x823888D1 EQ PUSH2 0xB75 JUMPI DUP1 PUSH4 0x842CE381 EQ PUSH2 0xB4E JUMPI DUP1 PUSH4 0x89E0E554 EQ PUSH2 0x8E2 JUMPI DUP1 PUSH4 0x8DA5CB5B EQ PUSH2 0x8BB JUMPI DUP1 PUSH4 0x9AFDF64D EQ PUSH2 0x863 JUMPI DUP1 PUSH4 0x9B13027D EQ PUSH2 0x73B JUMPI DUP1 PUSH4 0xA1905A07 EQ PUSH2 0x689 JUMPI DUP1 PUSH4 0xA8031A1D EQ PUSH2 0x62D JUMPI DUP1 PUSH4 0xAA58152D EQ PUSH2 0x5E0 JUMPI DUP1 PUSH4 0xB49E80F4 EQ PUSH2 0x5C2 JUMPI DUP1 PUSH4 0xC107E3B4 EQ PUSH2 0x588 JUMPI DUP1 PUSH4 0xD5B3081B EQ PUSH2 0x547 JUMPI DUP1 PUSH4 0xDAC773C0 EQ PUSH2 0x508 JUMPI DUP1 PUSH4 0xE554E1AD EQ PUSH2 0x4A0 JUMPI DUP1 PUSH4 0xE9ECFEF3 EQ PUSH2 0x42E JUMPI DUP1 PUSH4 0xEF5D9AE8 EQ PUSH2 0x3F4 JUMPI DUP1 PUSH4 0xF2FDE38B EQ PUSH2 0x345 JUMPI DUP1 PUSH4 0xF8B2CB4F EQ PUSH2 0x30B JUMPI DUP1 PUSH4 0xFB272A92 EQ PUSH2 0x286 JUMPI PUSH4 0xFCEC6769 EQ PUSH2 0x242 JUMPI PUSH1 0x0 DUP1 REVERT JUMPDEST CALLVALUE PUSH2 0x281 JUMPI PUSH1 0x20 PUSH1 0x3 NOT CALLDATASIZE ADD SLT PUSH2 0x281 JUMPI PUSH1 0x1 PUSH1 0x1 PUSH1 0xA0 SHL SUB PUSH2 0x263 PUSH2 0x19DD JUMP JUMPDEST AND PUSH1 0x0 MSTORE PUSH1 0x15 PUSH1 0x20 MSTORE PUSH1 0x20 PUSH1 0xFF PUSH1 0x40 PUSH1 0x0 KECCAK256 SLOAD AND PUSH1 0x40 MLOAD SWAP1 ISZERO ISZERO DUP2 MSTORE RETURN JUMPDEST PUSH1 0x0 DUP1 REVERT JUMPDEST CALLVALUE PUSH2 0x281 JUMPI PUSH1 0x20 PUSH1 0x3 NOT CALLDATASIZE ADD SLT PUSH2 0x281 JUMPI PUSH1 0x1 PUSH1 0x1 PUSH1 0xA0 SHL SUB PUSH2 0x2A7 PUSH2 0x19DD JUMP JUMPDEST PUSH2 0x2AF PUSH2 0x204A JUMP JUMPDEST AND PUSH2 0x2BB DUP2 ISZERO ISZERO PUSH2 0x1B5E JUMP JUMPDEST PUSH1 0x1 PUSH1 0x1 PUSH1 0xA0 SHL SUB PUSH1 0x3 SLOAD DUP3 PUSH20 0xFFFFFFFFFFFFFFFFFFFFFFFFFFFFFFFFFFFFFFFF NOT DUP3 AND OR PUSH1 0x3 SSTORE AND PUSH32 0x5618D15B3D3478BEF54C48BFA1CBB365001987A237E573422477A43597B496BD PUSH1 0x0 DUP1 LOG3 STOP JUMPDEST CALLVALUE PUSH2 0x281 JUMPI PUSH1 0x20 PUSH1 0x3 NOT CALLDATASIZE ADD SLT PUSH2 0x281 JUMPI PUSH1 0x1 PUSH1 0x1 PUSH1 0xA0 SHL SUB PUSH2 0x32C PUSH2 0x19DD JUMP JUMPDEST AND PUSH1 0x0 MSTORE PUSH1 0xB PUSH1 0x20 MSTORE PUSH1 0x20 PUSH1 0x40 PUSH1 0x0 KECCAK256 SLOAD PUSH1 0x40 MLOAD SWAP1 DUP2 MSTORE RETURN JUMPDEST CALLVALUE PUSH2 0x281 JUMPI PUSH1 0x20 PUSH1 0x3 NOT CALLDATASIZE ADD SLT PUSH2 0x281 JUMPI PUSH1 0x1 PUSH1 0x1 PUSH1 0xA0 SHL SUB PUSH2 0x366 PUSH2 0x19DD JUMP JUMPDEST PUSH2 0x36E PUSH2 0x204A JUMP JUMPDEST AND DUP1 ISZERO PUSH2 0x3C5 JUMPI PUSH1 0x1 PUSH1 0x1 PUSH1 0xA0 SHL SUB PUSH1 0x0 SLOAD DUP3 PUSH20 0xFFFFFFFFFFFFFFFFFFFFFFFFFFFFFFFFFFFFFFFF NOT DUP3 AND OR PUSH1 0x0 SSTORE AND PUSH32 0x8BE0079C531659141344CD1FD0A4F28419497F9722A3DAAFE3B4186F6B6457E0 PUSH1 0x0 DUP1 LOG3 STOP JUMPDEST PUSH32 0x1E4FBDF700000000000000000000000000000000000000000000000000000000 PUSH1 0x0 MSTORE PUSH1 0x0 PUSH1 0x4 MSTORE PUSH1 0x24 PUSH1 0x0 REVERT JUMPDEST CALLVALUE PUSH2 0x281 JUMPI PUSH1 0x20 PUSH1 0x3 NOT CALLDATASIZE ADD SLT PUSH2 0x281 JUMPI PUSH1 0x1 PUSH1 0x1 PUSH1 0xA0 SHL SUB PUSH2 0x415 PUSH2 0x19DD JUMP JUMPDEST AND PUSH1 0x0 MSTORE PUSH1 0xD PUSH1 0x20 MSTORE PUSH1 0x20 PUSH1 0x40 PUSH1 0x0 KECCAK256 SLOAD PUSH1 0x40 MLOAD SWAP1 DUP2 MSTORE RETURN JUMPDEST CALLVALUE PUSH2 0x281 JUMPI PUSH1 0x20 PUSH1 0x3 NOT CALLDATASIZE ADD SLT PUSH2 0x281 JUMPI PUSH2 0x485 PUSH2 0x44A PUSH2 0x19DD JUMP JUMPDEST PUSH1 0x1 PUSH1 0x1 PUSH1 0xA0 SHL SUB PUSH1 0x3 SLOAD AND CALLER EQ DUP1 ISZERO PUSH2 0x487 JUMPI JUMPDEST PUSH2 0x468 SWAP1 PUSH2 0x1B13 JUMP JUMPDEST PUSH2 0x47C PUSH1 0x1 PUSH1 0x1 PUSH1 0xA0 SHL SUB DUP3 AND ISZERO ISZERO PUSH2 0x1B5E JUMP JUMPDEST PUSH1 0x9 SLOAD SWAP1 PUSH2 0x1F4C JUMP JUMPDEST STOP JUMPDEST POP PUSH2 0x468 PUSH1 0x1 PUSH1 0x1 PUSH1 0xA0 SHL SUB PUSH1 0x0 SLOAD AND CALLER EQ SWAP1 POP PUSH2 0x45F JUMP JUMPDEST CALLVALUE PUSH2 0x281 JUMPI PUSH1 0x20 PUSH1 0x3 NOT CALLDATASIZE ADD SLT PUSH2 0x281 JUMPI PUSH32 0xBA2611E03C210377C7111F9C3F59FEBD751B32E081DAA8D153F9E5AEFC4D44A PUSH1 0x40 PUSH1 0x4 CALLDATALOAD PUSH2 0x4DF PUSH2 0x204A JUMP JUMPDEST PUSH2 0x4EA DUP2 ISZERO ISZERO PUSH2 0x1A22 JUMP JUMPDEST PUSH2 0x4F3 DUP2 PUSH2 0x208C JUMP JUMPDEST PUSH1 0x6 SLOAD SWAP1 DUP1 PUSH1 0x6 SSTORE DUP3 MLOAD SWAP2 DUP3 MSTORE PUSH1 0x20 DUP3 ADD MSTORE LOG1 STOP JUMPDEST CALLVALUE PUSH2 0x281 JUMPI PUSH1 0x20 PUSH1 0x3 NOT CALLDATASIZE ADD SLT PUSH2 0x281 JUMPI PUSH1 0x1 PUSH1 0x1 PUSH1 0xA0 SHL SUB PUSH2 0x529 PUSH2 0x19DD JUMP JUMPDEST AND PUSH1 0x0 MSTORE PUSH1 0x12 PUSH1 0x20 MSTORE PUSH1 0x20 PUSH1 0xFF PUSH1 0x40 PUSH1 0x0 KECCAK256 SLOAD AND PUSH1 0x40 MLOAD SWAP1 ISZERO ISZERO DUP2 MSTORE RETURN JUMPDEST CALLVALUE PUSH2 0x281 JUMPI PUSH1 0x20 PUSH1 0x3 NOT CALLDATASIZE ADD SLT PUSH2 0x281 JUMPI PUSH2 0x485 PUSH2 0x563 PUSH2 0x19DD JUMP JUMPDEST PUSH2 0x56B PUSH2 0x204A JUMP JUMPDEST PUSH2 0x57F PUSH1 0x1 PUSH1 0x1 PUSH1 0xA0 SHL SUB DUP3 AND ISZERO ISZERO PUSH2 0x1B5E JUMP JUMPDEST PUSH1 0xA SLOAD SWAP1 PUSH2 0x1E48 JUMP JUMPDEST CALLVALUE PUSH2 0x281 JUMPI PUSH1 0x20 PUSH1 0x3 NOT CALLDATASIZE ADD SLT PUSH2 0x281 JUMPI PUSH1 0x1 PUSH1 0x1 PUSH1 0xA0 SHL SUB PUSH2 0x5A9 PUSH2 0x19DD JUMP JUMPDEST AND PUSH1 0x0 MSTORE PUSH1 0xC PUSH1 0x20 MSTORE PUSH1 0x20 PUSH1 0x40 PUSH1 0x0 KECCAK256 SLOAD PUSH1 0x40 MLOAD SWAP1 DUP2 MSTORE RETURN JUMPDEST CALLVALUE PUSH2 0x281 JUMPI PUSH1 0x0 PUSH1 0x3 NOT CALLDATASIZE ADD SLT PUSH2 0x281 JUMPI PUSH1 0x20 PUSH1 0x9 SLOAD PUSH1 0x40 MLOAD SWAP1 DUP2 MSTORE RETURN JUMPDEST CALLVALUE PUSH2 0x281 JUMPI PUSH1 0x40 PUSH1 0x3 NOT CALLDATASIZE ADD SLT PUSH2 0x281 JUMPI PUSH1 0x1 PUSH1 0x1 PUSH1 0xA0 SHL SUB PUSH2 0x601 PUSH2 0x19DD JUMP JUMPDEST AND PUSH1 0x0 MSTORE PUSH1 0x17 PUSH1 0x20 MSTORE PUSH1 0x40 PUSH1 0x0 KECCAK256 PUSH1 0x24 CALLDATALOAD PUSH1 0x0 MSTORE PUSH1 0x20 MSTORE PUSH1 0x20 PUSH1 0xFF PUSH1 0x40 PUSH1 0x0 KECCAK256 SLOAD AND PUSH1 0x40 MLOAD SWAP1 ISZERO ISZERO DUP2 MSTORE RETURN JUMPDEST CALLVALUE PUSH2 0x281 JUMPI PUSH1 0x40 PUSH1 0x3 NOT CALLDATASIZE ADD SLT PUSH2 0x281 JUMPI PUSH2 0x485 PUSH2 0x649 PUSH2 0x19DD JUMP JUMPDEST PUSH1 0x1 PUSH1 0x1 PUSH1 0xA0 SHL SUB PUSH1 0x3 SLOAD AND CALLER EQ DUP1 ISZERO PUSH2 0x670 JUMPI JUMPDEST PUSH2 0x667 SWAP1 PUSH2 0x1B13 JUMP JUMPDEST PUSH1 0x24 CALLDATALOAD SWAP1 PUSH2 0x1ECA JUMP JUMPDEST POP PUSH2 0x667 PUSH1 0x1 PUSH1 0x1 PUSH1 0xA0 SHL SUB PUSH1 0x0 SLOAD AND CALLER EQ SWAP1 POP PUSH2 0x65E JUMP JUMPDEST CALLVALUE PUSH2 0x281 JUMPI PUSH2 0x485 PUSH2 0x69A CALLDATASIZE PUSH2 0x19F3 JUMP JUMPDEST PUSH1 0x1 PUSH1 0x1 PUSH1 0xA0 SHL SUB PUSH1 0x2 SLOAD AND CALLER EQ DUP1 ISZERO PUSH2 0x722 JUMPI JUMPDEST PUSH2 0x6B8 SWAP1 PUSH2 0x1B13 JUMP JUMPDEST PUSH32 0xCC3839C65AF66C01694BEDEFC47E2C3871DEDD5489B4432FB8B876F92BCD26FE PUSH1 0x20 PUSH1 0x1 PUSH1 0x1 PUSH1 0xA0 SHL SUB DUP5 AND SWAP3 PUSH2 0x6F1 DUP5 ISZERO ISZERO PUSH2 0x1B5E JUMP JUMPDEST DUP4 PUSH1 0x0 MSTORE PUSH1 0x13 DUP3 MSTORE PUSH2 0x714 DUP2 PUSH1 0x40 PUSH1 0x0 KECCAK256 SWAP1 PUSH1 0xFF PUSH1 0xFF NOT DUP4 SLOAD AND SWAP2 ISZERO ISZERO AND OR SWAP1 SSTORE JUMP JUMPDEST PUSH1 0x40 MLOAD SWAP1 ISZERO ISZERO DUP2 MSTORE LOG2 PUSH2 0x1FCE JUMP JUMPDEST POP PUSH2 0x6B8 PUSH1 0x1 PUSH1 0x1 PUSH1 0xA0 SHL SUB PUSH1 0x0 SLOAD AND CALLER EQ SWAP1 POP PUSH2 0x6AF JUMP JUMPDEST CALLVALUE PUSH2 0x281 JUMPI PUSH1 0x20 PUSH1 0x3 NOT CALLDATASIZE ADD SLT PUSH2 0x281 JUMPI PUSH1 0xE0 PUSH1 0x1 PUSH1 0x1 PUSH1 0xA0 SHL SUB PUSH2 0x75E PUSH2 0x19DD JUMP JUMPDEST PUSH1 0x0 PUSH1 0xC0 PUSH1 0x40 MLOAD PUSH2 0x76E DUP2 PUSH2 0x1A87 JUMP JUMPDEST DUP3 DUP2 MSTORE DUP3 PUSH1 0x20 DUP3 ADD MSTORE DUP3 PUSH1 0x40 DUP3 ADD MSTORE DUP3 PUSH1 0x60 DUP3 ADD MSTORE DUP3 PUSH1 0x80 DUP3 ADD MSTORE DUP3 PUSH1 0xA0 DUP3 ADD MSTORE ADD MSTORE AND DUP1 PUSH1 0x0 MSTORE PUSH1 0xB PUSH1 0x20 MSTORE PUSH1 0x40 PUSH1 0x0 KECCAK256 SLOAD SWAP1 DUP1 PUSH1 0x0 MSTORE PUSH1 0xC PUSH1 0x20 MSTORE PUSH1 0x40 PUSH1 0x0 KECCAK256 SLOAD SWAP1 DUP1 PUSH1 0x0 MSTORE PUSH1 0xD PUSH1 0x20 MSTORE PUSH1 0x40 PUSH1 0x0 KECCAK256 SLOAD DUP2 PUSH1 0x0 MSTORE PUSH1 0xE PUSH1 0x20 MSTORE PUSH1 0x40 PUSH1 0x0 KECCAK256 SLOAD DUP3 PUSH1 0x0 MSTORE PUSH1 0xF PUSH1 0x20 MSTORE PUSH1 0x40 PUSH1 0x0 KECCAK256 SLOAD SWAP2 DUP4 PUSH1 0x0 MSTORE PUSH1 0x10 PUSH1 0x20 MSTORE PUSH1 0x40 PUSH1 0x0 KECCAK256 SLOAD SWAP4 PUSH1 0x0 MSTORE PUSH1 0x11 PUSH1 0x20 MSTORE PUSH1 0x40 PUSH1 0x0 KECCAK256 SLOAD SWAP5 PUSH1 0xC0 PUSH1 0x40 MLOAD PUSH2 0x80D DUP2 PUSH2 0x1A87 JUMP JUMPDEST DUP9 DUP2 MSTORE PUSH1 0x20 DUP2 ADD SWAP3 DUP4 MSTORE PUSH1 0x40 DUP2 ADD SWAP4 DUP5 MSTORE PUSH1 0x60 DUP2 ADD SWAP5 DUP6 MSTORE PUSH1 0x80 DUP2 ADD SWAP6 DUP7 MSTORE PUSH1 0xA0 DUP2 ADD SWAP7 DUP8 MSTORE ADD SWAP6 DUP7 MSTORE PUSH1 0x40 MLOAD SWAP7 DUP8 MSTORE MLOAD PUSH1 0x20 DUP8 ADD MSTORE MLOAD PUSH1 0x40 DUP7 ADD MSTORE MLOAD PUSH1 0x60 DUP6 ADD MSTORE MLOAD PUSH1 0x80 DUP5 ADD MSTORE MLOAD PUSH1 0xA0 DUP4 ADD MSTORE MLOAD PUSH1 0xC0 DUP3 ADD MSTORE RETURN JUMPDEST CALLVALUE PUSH2 0x281 JUMPI PUSH2 0x485 PUSH2 0x8B6 PUSH2 0x877 CALLDATASIZE PUSH2 0x19F3 JUMP JUMPDEST PUSH2 0x882 SWAP3 SWAP2 SWAP3 PUSH2 0x204A JUMP JUMPDEST PUSH1 0x1 PUSH1 0x1 PUSH1 0xA0 SHL SUB DUP4 AND PUSH2 0x897 DUP2 ISZERO ISZERO PUSH2 0x1B5E JUMP JUMPDEST PUSH1 0x0 MSTORE PUSH1 0x14 PUSH1 0x20 MSTORE PUSH1 0x40 PUSH1 0x0 KECCAK256 SWAP1 PUSH1 0xFF PUSH1 0xFF NOT DUP4 SLOAD AND SWAP2 ISZERO ISZERO AND OR SWAP1 SSTORE JUMP JUMPDEST PUSH2 0x1FCE JUMP JUMPDEST CALLVALUE PUSH2 0x281 JUMPI PUSH1 0x0 PUSH1 0x3 NOT CALLDATASIZE ADD SLT PUSH2 0x281 JUMPI PUSH1 0x20 PUSH1 0x1 PUSH1 0x1 PUSH1 0xA0 SHL SUB PUSH1 0x0 SLOAD AND PUSH1 0x40 MLOAD SWAP1 DUP2 MSTORE RETURN JUMPDEST CALLVALUE PUSH2 0x281 JUMPI PUSH1 0x20 PUSH1 0x3 NOT CALLDATASIZE ADD SLT PUSH2 0x281 JUMPI PUSH1 0x4 CALLDATALOAD PUSH2 0x8FE PUSH2 0x1BA9 JUMP JUMPDEST PUSH1 0x1 PUSH1 0x1 PUSH1 0xA0 SHL SUB PUSH1 0x3 SLOAD AND DUP1 ISZERO PUSH2 0xB0A JUMPI DUP2 ISZERO PUSH2 0xAC6 JUMPI PUSH1 0x20 PUSH1 0x24 SWAP2 PUSH1 0x40 MLOAD SWAP3 DUP4 DUP1 SWAP3 PUSH32 0x5FB971FE00000000000000000000000000000000000000000000000000000000 DUP3 MSTORE CALLER PUSH1 0x4 DUP4 ADD MSTORE GAS STATICCALL DUP1 ISZERO PUSH2 0xABA JUMPI DUP3 SWAP2 PUSH1 0x0 SWAP2 PUSH2 0xA85 JUMPI JUMPDEST POP LT PUSH2 0xA41 JUMPI PUSH1 0x40 MLOAD PUSH1 0x20 DUP2 ADD SWAP1 CALLER PUSH1 0x60 SHL DUP3 MSTORE DUP3 PUSH1 0x34 DUP3 ADD MSTORE PUSH1 0x34 DUP2 MSTORE PUSH2 0x986 PUSH1 0x54 DUP3 PUSH2 0x1AD2 JUMP JUMPDEST MLOAD SWAP1 KECCAK256 DUP1 PUSH1 0x0 MSTORE PUSH1 0x1A PUSH1 0x20 MSTORE PUSH1 0xFF PUSH1 0x40 PUSH1 0x0 KECCAK256 SLOAD AND PUSH2 0x9FD JUMPI PUSH1 0x0 MSTORE PUSH1 0x1A PUSH1 0x20 MSTORE PUSH1 0x40 PUSH1 0x0 KECCAK256 PUSH1 0x1 PUSH1 0xFF NOT DUP3 SLOAD AND OR SWAP1 SSTORE PUSH2 0x9C3 PUSH1 0xA SLOAD CALLER PUSH2 0x1E48 JUMP JUMPDEST PUSH1 0xA SLOAD PUSH1 0x40 MLOAD SWAP2 DUP3 MSTORE PUSH1 0x20 DUP3 ADD MSTORE PUSH32 0x951F39974D404F2469A2C5EB978DFC1F14816A992E303940D6691BA1F800B22A PUSH1 0x40 CALLER SWAP3 LOG2 PUSH1 0x1 DUP1 SSTORE STOP JUMPDEST PUSH1 0x64 PUSH1 0x40 MLOAD PUSH3 0x461BCD PUSH1 0xE5 SHL DUP2 MSTORE PUSH1 0x20 PUSH1 0x4 DUP3 ADD MSTORE PUSH1 0x16 PUSH1 0x24 DUP3 ADD MSTORE PUSH32 0x52657761726420616C726561647920636C61696D656400000000000000000000 PUSH1 0x44 DUP3 ADD MSTORE REVERT JUMPDEST PUSH1 0x64 PUSH1 0x40 MLOAD PUSH3 0x461BCD PUSH1 0xE5 SHL DUP2 MSTORE PUSH1 0x20 PUSH1 0x4 DUP3 ADD MSTORE PUSH1 0x14 PUSH1 0x24 DUP3 ADD MSTORE PUSH32 0x487970657263657274206E6F74206D696E746564000000000000000000000000 PUSH1 0x44 DUP3 ADD MSTORE REVERT JUMPDEST SWAP2 POP POP PUSH1 0x20 DUP2 RETURNDATASIZE PUSH1 0x20 GT PUSH2 0xAB2 JUMPI JUMPDEST DUP2 PUSH2 0xAA1 PUSH1 0x20 SWAP4 DUP4 PUSH2 0x1AD2 JUMP JUMPDEST DUP2 ADD SUB SLT PUSH2 0x281 JUMPI DUP2 SWAP1 MLOAD DUP4 PUSH2 0x95D JUMP JUMPDEST RETURNDATASIZE SWAP2 POP PUSH2 0xA94 JUMP JUMPDEST PUSH1 0x40 MLOAD RETURNDATASIZE PUSH1 0x0 DUP3 RETURNDATACOPY RETURNDATASIZE SWAP1 REVERT JUMPDEST PUSH1 0x64 PUSH1 0x40 MLOAD PUSH3 0x461BCD PUSH1 0xE5 SHL DUP2 MSTORE PUSH1 0x20 PUSH1 0x4 DUP3 ADD MSTORE PUSH1 0x18 PUSH1 0x24 DUP3 ADD MSTORE PUSH32 0x496E76616C696420687970657263657274206E756D6265720000000000000000 PUSH1 0x44 DUP3 ADD MSTORE REVERT JUMPDEST PUSH1 0x64 PUSH1 0x40 MLOAD PUSH3 0x461BCD PUSH1 0xE5 SHL DUP2 MSTORE PUSH1 0x20 PUSH1 0x4 DUP3 ADD MSTORE PUSH1 0x12 PUSH1 0x24 DUP3 ADD MSTORE PUSH32 0x5375626D697373696F6E206E6F74207365740000000000000000000000000000 PUSH1 0x44 DUP3 ADD MSTORE REVERT JUMPDEST CALLVALUE PUSH2 0x281 JUMPI PUSH1 0x0 PUSH1 0x3 NOT CALLDATASIZE ADD SLT PUSH2 0x281 JUMPI PUSH1 0x20 PUSH1 0x1 PUSH1 0x1 PUSH1 0xA0 SHL SUB PUSH1 0x3 SLOAD AND PUSH1 0x40 MLOAD SWAP1 DUP2 MSTORE RETURN JUMPDEST CALLVALUE PUSH2 0x281 JUMPI PUSH1 0x20 PUSH1 0x3 NOT CALLDATASIZE ADD SLT PUSH2 0x281 JUMPI PUSH1 0x4 CALLDATALOAD PUSH1 0x0 MSTORE PUSH1 0x1A PUSH1 0x20 MSTORE PUSH1 0x20 PUSH1 0xFF PUSH1 0x40 PUSH1 0x0 KECCAK256 SLOAD AND PUSH1 0x40 MLOAD SWAP1 ISZERO ISZERO DUP2 MSTORE RETURN JUMPDEST CALLVALUE PUSH2 0x281 JUMPI PUSH1 0x20 PUSH1 0x3 NOT CALLDATASIZE ADD SLT PUSH2 0x281 JUMPI PUSH1 0x1 PUSH1 0x1 PUSH1 0xA0 SHL SUB PUSH2 0xBC7 PUSH2 0x19DD JUMP JUMPDEST PUSH2 0xBCF PUSH2 0x204A JUMP JUMPDEST AND PUSH2 0xBDB DUP2 ISZERO ISZERO PUSH2 0x1B5E JUMP JUMPDEST PUSH1 0x1 PUSH1 0x1 PUSH1 0xA0 SHL SUB PUSH1 0x4 SLOAD DUP3 PUSH20 0xFFFFFFFFFFFFFFFFFFFFFFFFFFFFFFFFFFFFFFFF NOT DUP3 AND OR PUSH1 0x4 SSTORE AND PUSH32 0x4AB5BE82436D353E61CA18726E984E561F5C1CC7C6D38B29D2553C790434705A PUSH1 0x0 DUP1 LOG3 STOP JUMPDEST CALLVALUE PUSH2 0x281 JUMPI PUSH1 0x0 PUSH1 0x3 NOT CALLDATASIZE ADD SLT PUSH2 0x281 JUMPI PUSH1 0x20 PUSH1 0xA SLOAD PUSH1 0x40 MLOAD SWAP1 DUP2 MSTORE RETURN JUMPDEST CALLVALUE PUSH2 0x281 JUMPI PUSH1 0x40 PUSH1 0x3 NOT CALLDATASIZE ADD SLT PUSH2 0x281 JUMPI PUSH2 0xC62 PUSH2 0x19DD JUMP JUMPDEST PUSH1 0x24 CALLDATALOAD SWAP1 PUSH1 0x1 PUSH1 0x1 PUSH1 0xA0 SHL SUB PUSH1 0x3 SLOAD AND CALLER EQ DUP1 ISZERO PUSH2 0xD0D JUMPI JUMPDEST PUSH2 0xC84 SWAP1 PUSH2 0x1B13 JUMP JUMPDEST PUSH1 0x1 PUSH1 0x1 PUSH1 0xA0 SHL SUB DUP2 AND SWAP1 PUSH2 0xC9A DUP3 ISZERO ISZERO PUSH2 0x1B5E JUMP JUMPDEST PUSH2 0xCA5 DUP4 ISZERO ISZERO PUSH2 0x1A22 JUMP JUMPDEST PUSH1 0x8 SLOAD DUP4 DUP2 MUL SWAP4 DUP2 DUP6 DIV EQ SWAP1 ISZERO OR ISZERO PUSH2 0xCDE JUMPI DUP3 PUSH2 0xCC2 SWAP2 PUSH2 0x1DC6 JUMP JUMPDEST PUSH1 0x0 MSTORE PUSH1 0x11 PUSH1 0x20 MSTORE PUSH2 0xCDA PUSH1 0x40 PUSH1 0x0 KECCAK256 SWAP2 DUP3 SLOAD PUSH2 0x1A7A JUMP JUMPDEST SWAP1 SSTORE STOP JUMPDEST PUSH32 0x4E487B7100000000000000000000000000000000000000000000000000000000 PUSH1 0x0 MSTORE PUSH1 0x11 PUSH1 0x4 MSTORE PUSH1 0x24 PUSH1 0x0 REVERT JUMPDEST POP PUSH2 0xC84 PUSH1 0x1 PUSH1 0x1 PUSH1 0xA0 SHL SUB PUSH1 0x0 SLOAD AND CALLER EQ SWAP1 POP PUSH2 0xC7B JUMP JUMPDEST CALLVALUE PUSH2 0x281 JUMPI PUSH1 0x0 PUSH1 0x3 NOT CALLDATASIZE ADD SLT PUSH2 0x281 JUMPI PUSH2 0xD3F PUSH2 0x204A JUMP JUMPDEST PUSH1 0x0 PUSH1 0x1 PUSH1 0x1 PUSH1 0xA0 SHL SUB DUP2 SLOAD PUSH20 0xFFFFFFFFFFFFFFFFFFFFFFFFFFFFFFFFFFFFFFFF NOT DUP2 AND DUP4 SSTORE AND PUSH32 0x8BE0079C531659141344CD1FD0A4F28419497F9722A3DAAFE3B4186F6B6457E0 DUP3 DUP1 LOG3 STOP JUMPDEST CALLVALUE PUSH2 0x281 JUMPI PUSH1 0x20 PUSH1 0x3 NOT CALLDATASIZE ADD SLT PUSH2 0x281 JUMPI PUSH1 0x1 PUSH1 0x1 PUSH1 0xA0 SHL SUB PUSH2 0xDAD PUSH2 0x19DD JUMP JUMPDEST AND PUSH1 0x0 MSTORE PUSH1 0x10 PUSH1 0x20 MSTORE PUSH1 0x20 PUSH1 0x40 PUSH1 0x0 KECCAK256 SLOAD PUSH1 0x40 MLOAD SWAP1 DUP2 MSTORE RETURN JUMPDEST CALLVALUE PUSH2 0x281 JUMPI PUSH1 0x0 PUSH1 0x3 NOT CALLDATASIZE ADD SLT PUSH2 0x281 JUMPI PUSH1 0x20 PUSH1 0x1 PUSH1 0x1 PUSH1 0xA0 SHL SUB PUSH1 0x2 SLOAD AND PUSH1 0x40 MLOAD SWAP1 DUP2 MSTORE RETURN JUMPDEST CALLVALUE PUSH2 0x281 JUMPI PUSH1 0x20 PUSH1 0x3 NOT CALLDATASIZE ADD SLT PUSH2 0x281 JUMPI PUSH1 0x1 PUSH1 0x1 PUSH1 0xA0 SHL SUB PUSH2 0xE0E PUSH2 0x19DD JUMP JUMPDEST AND PUSH1 0x0 MSTORE PUSH1 0xF PUSH1 0x20 MSTORE PUSH1 0x20 PUSH1 0x40 PUSH1 0x0 KECCAK256 SLOAD PUSH1 0x40 MLOAD SWAP1 DUP2 MSTORE RETURN JUMPDEST CALLVALUE PUSH2 0x281 JUMPI PUSH1 0x20 PUSH1 0x3 NOT CALLDATASIZE ADD SLT PUSH2 0x281 JUMPI PUSH1 0x1 PUSH1 0x1 PUSH1 0xA0 SHL SUB PUSH2 0xE48 PUSH2 0x19DD JUMP JUMPDEST AND PUSH1 0x0 MSTORE PUSH1 0x19 PUSH1 0x20 MSTORE PUSH1 0x20 PUSH1 0xFF PUSH1 0x40 PUSH1 0x0 KECCAK256 SLOAD AND PUSH1 0x40 MLOAD SWAP1 ISZERO ISZERO DUP2 MSTORE RETURN JUMPDEST CALLVALUE PUSH2 0x281 JUMPI PUSH1 0x0 PUSH1 0x3 NOT CALLDATASIZE ADD SLT PUSH2 0x281 JUMPI PUSH1 0x20 PUSH1 0x1 PUSH1 0x1 PUSH1 0xA0 SHL SUB PUSH1 0x4 SLOAD AND PUSH1 0x40 MLOAD SWAP1 DUP2 MSTORE RETURN JUMPDEST CALLVALUE PUSH2 0x281 JUMPI PUSH1 0x20 PUSH1 0x3 NOT CALLDATASIZE ADD SLT PUSH2 0x281 JUMPI PUSH1 0x60 PUSH2 0xEA8 PUSH2 0x19DD JUMP JUMPDEST PUSH1 0x1 PUSH1 0x1 PUSH1 0xA0 SHL SUB DUP2 AND SWAP1 DUP2 PUSH1 0x0 MSTORE PUSH1 0x12 PUSH1 0x20 MSTORE PUSH1 0xFF PUSH1 0x40 PUSH1 0x0 KECCAK256 SLOAD AND SWAP2 PUSH1 0x0 MSTORE PUSH1 0x13 PUSH1 0x20 MSTORE PUSH2 0xEE0 PUSH1 0xFF PUSH1 0x40 PUSH1 0x0 KECCAK256 SLOAD AND SWAP2 PUSH2 0x1BE4 JUMP JUMPDEST SWAP1 PUSH1 0x40 MLOAD SWAP3 ISZERO ISZERO DUP4 MSTORE ISZERO ISZERO PUSH1 0x20 DUP4 ADD MSTORE ISZERO ISZERO PUSH1 0x40 DUP3 ADD MSTORE RETURN JUMPDEST CALLVALUE PUSH2 0x281 JUMPI PUSH1 0x60 PUSH1 0x3 NOT CALLDATASIZE ADD SLT PUSH2 0x281 JUMPI PUSH32 0x246173514089D16E18EC0AC77EBD48A60F2F43CF55E2436266E925590D81CD85 PUSH1 0x60 PUSH1 0x4 CALLDATALOAD PUSH1 0x44 CALLDATALOAD PUSH1 0x24 CALLDATALOAD PUSH2 0xF3E PUSH2 0x204A JUMP JUMPDEST PUSH2 0xF47 DUP4 PUSH2 0x208C JUMP JUMPDEST PUSH2 0xF50 DUP2 PUSH2 0x208C JUMP JUMPDEST PUSH2 0xF59 DUP3 PUSH2 0x208C JUMP JUMPDEST DUP3 PUSH1 0x5 SSTORE DUP1 PUSH1 0x6 SSTORE DUP2 PUSH1 0x7 SSTORE PUSH1 0x40 MLOAD SWAP3 DUP4 MSTORE PUSH1 0x20 DUP4 ADD MSTORE PUSH1 0x40 DUP3 ADD MSTORE LOG1 STOP JUMPDEST CALLVALUE PUSH2 0x281 JUMPI PUSH1 0x20 PUSH1 0x3 NOT CALLDATASIZE ADD SLT PUSH2 0x281 JUMPI PUSH1 0xA0 PUSH1 0x1 PUSH1 0x1 PUSH1 0xA0 SHL SUB PUSH2 0xF9B PUSH2 0x19DD JUMP JUMPDEST AND PUSH1 0x0 SWAP1 DUP2 MSTORE PUSH1 0xE PUSH1 0x20 SWAP1 DUP2 MSTORE PUSH1 0x40 DUP1 DUP4 KECCAK256 SLOAD PUSH1 0xF DUP4 MSTORE DUP2 DUP5 KECCAK256 SLOAD PUSH1 0x10 DUP5 MSTORE DUP3 DUP6 KECCAK256 SLOAD PUSH1 0xB DUP6 MSTORE DUP4 DUP7 KECCAK256 SLOAD PUSH1 0xD DUP7 MSTORE SWAP6 DUP5 SWAP1 KECCAK256 SLOAD DUP5 MLOAD SWAP4 DUP5 MSTORE SWAP5 DUP4 ADD SWAP2 SWAP1 SWAP2 MSTORE SWAP2 DUP2 ADD SWAP2 SWAP1 SWAP2 MSTORE PUSH1 0x60 DUP2 ADD SWAP3 SWAP1 SWAP3 MSTORE PUSH1 0x80 DUP3 ADD MSTORE RETURN JUMPDEST CALLVALUE PUSH2 0x281 JUMPI PUSH1 0x40 PUSH1 0x3 NOT CALLDATASIZE ADD SLT PUSH2 0x281 JUMPI PUSH2 0x100A PUSH2 0x19DD JUMP JUMPDEST PUSH1 0x24 CALLDATALOAD SWAP1 PUSH1 0x1 PUSH1 0x1 PUSH1 0xA0 SHL SUB DUP3 AND DUP1 SWAP3 SUB PUSH2 0x281 JUMPI PUSH1 0x1 PUSH1 0x1 PUSH1 0xA0 SHL SUB SWAP1 PUSH2 0x1030 PUSH2 0x204A JUMP JUMPDEST AND DUP1 ISZERO ISZERO DUP1 PUSH2 0x1101 JUMPI JUMPDEST PUSH2 0x1043 SWAP1 PUSH2 0x1B5E JUMP JUMPDEST PUSH2 0x104F DUP3 DUP3 EQ ISZERO PUSH2 0x1B5E JUMP JUMPDEST DUP1 PUSH1 0x0 MSTORE PUSH1 0x18 PUSH1 0x20 MSTORE PUSH1 0x1 PUSH1 0x1 PUSH1 0xA0 SHL SUB PUSH1 0x40 PUSH1 0x0 KECCAK256 SLOAD AND PUSH2 0x10BD JUMPI DUP1 PUSH1 0x0 MSTORE PUSH1 0x18 PUSH1 0x20 MSTORE PUSH1 0x40 PUSH1 0x0 KECCAK256 DUP3 PUSH20 0xFFFFFFFFFFFFFFFFFFFFFFFFFFFFFFFFFFFFFFFF NOT DUP3 SLOAD AND OR SWAP1 SSTORE PUSH32 0x5F1CA2FCC108B751843A763E60D2201F593516109D7DBB1B700468F2D4190BB7 PUSH1 0x0 DUP1 LOG3 STOP JUMPDEST PUSH1 0x64 PUSH1 0x40 MLOAD PUSH3 0x461BCD PUSH1 0xE5 SHL DUP2 MSTORE PUSH1 0x20 PUSH1 0x4 DUP3 ADD MSTORE PUSH1 0x1B PUSH1 0x24 DUP3 ADD MSTORE PUSH32 0x526566657272616C20616C726561647920726567697374657265640000000000 PUSH1 0x44 DUP3 ADD MSTORE REVERT JUMPDEST POP DUP2 ISZERO ISZERO PUSH2 0x103A JUMP JUMPDEST CALLVALUE PUSH2 0x281 JUMPI PUSH1 0x0 PUSH1 0x3 NOT CALLDATASIZE ADD SLT PUSH2 0x281 JUMPI PUSH1 0x20 PUSH1 0x5 SLOAD PUSH1 0x40 MLOAD SWAP1 DUP2 MSTORE RETURN JUMPDEST CALLVALUE PUSH2 0x281 JUMPI PUSH1 0x20 PUSH1 0x3 NOT CALLDATASIZE ADD SLT PUSH2 0x281 JUMPI PUSH1 0x1 PUSH1 0x1 PUSH1 0xA0 SHL SUB PUSH2 0x1149 PUSH2 0x19DD JUMP JUMPDEST AND PUSH1 0x0 MSTORE PUSH1 0x16 PUSH1 0x20 MSTORE PUSH1 0x20 PUSH1 0x40 PUSH1 0x0 KECCAK256 SLOAD PUSH1 0x40 MLOAD SWAP1 DUP2 MSTORE RETURN JUMPDEST CALLVALUE PUSH2 0x281 JUMPI PUSH1 0x0 PUSH1 0x3 NOT CALLDATASIZE ADD SLT PUSH2 0x281 JUMPI PUSH1 0x20 PUSH1 0x6 SLOAD PUSH1 0x40 MLOAD SWAP1 DUP2 MSTORE RETURN JUMPDEST CALLVALUE PUSH2 0x281 JUMPI PUSH1 0x20 PUSH1 0x3 NOT CALLDATASIZE ADD SLT PUSH2 0x281 JUMPI PUSH1 0x1 PUSH1 0x1 PUSH1 0xA0 SHL SUB PUSH2 0x11A1 PUSH2 0x19DD JUMP JUMPDEST PUSH2 0x11A9 PUSH2 0x204A JUMP JUMPDEST AND PUSH2 0x11B5 DUP2 ISZERO ISZERO PUSH2 0x1B5E JUMP JUMPDEST PUSH1 0x1 PUSH1 0x1 PUSH1 0xA0 SHL SUB PUSH1 0x2 SLOAD DUP3 PUSH20 0xFFFFFFFFFFFFFFFFFFFFFFFFFFFFFFFFFFFFFFFF NOT DUP3 AND OR PUSH1 0x2 SSTORE AND PUSH32 0x5F472E59B83F0C85014D6A7CD671172B33CF16294C73442FCB0FDC4BB2F36B8 PUSH1 0x0 DUP1 LOG3 STOP JUMPDEST CALLVALUE PUSH2 0x281 JUMPI PUSH1 0x20 PUSH1 0x3 NOT CALLDATASIZE ADD SLT PUSH2 0x281 JUMPI PUSH1 0x1 PUSH1 0x1 PUSH1 0xA0 SHL SUB PUSH2 0x1226 PUSH2 0x19DD JUMP JUMPDEST AND PUSH1 0x0 MSTORE PUSH1 0x18 PUSH1 0x20 MSTORE PUSH1 0x20 PUSH1 0x1 PUSH1 0x1 PUSH1 0xA0 SHL SUB PUSH1 0x40 PUSH1 0x0 KECCAK256 SLOAD AND PUSH1 0x40 MLOAD SWAP1 DUP2 MSTORE RETURN JUMPDEST CALLVALUE PUSH2 0x281 JUMPI PUSH2 0x485 PUSH2 0x1259 CALLDATASIZE PUSH2 0x19F3 JUMP JUMPDEST PUSH1 0x1 PUSH1 0x1 PUSH1 0xA0 SHL SUB PUSH1 0x2 SLOAD AND CALLER EQ DUP1 ISZERO PUSH2 0x13C7 JUMPI JUMPDEST PUSH2 0x1277 SWAP1 PUSH2 0x1B13 JUMP JUMPDEST PUSH32 0xD1148EED154E83A9726BA99E44569959444CDD245759C5DC1DD5F6B662A4BB07 PUSH1 0x20 PUSH1 0x1 PUSH1 0x1 PUSH1 0xA0 SHL SUB DUP5 AND SWAP3 PUSH2 0x12B0 DUP5 ISZERO ISZERO PUSH2 0x1B5E JUMP JUMPDEST DUP1 ISZERO PUSH2 0x139E JUMPI DUP4 PUSH1 0x0 MSTORE PUSH1 0x16 DUP3 MSTORE DUP4 PUSH1 0x40 PUSH1 0x0 KECCAK256 SLOAD DUP1 ISZERO ISZERO DUP1 PUSH2 0x1388 JUMPI JUMPDEST PUSH2 0x1308 JUMPI JUMPDEST POP PUSH1 0x0 MSTORE PUSH1 0x16 DUP3 MSTORE TIMESTAMP PUSH1 0x40 PUSH1 0x0 KECCAK256 SSTORE DUP4 PUSH1 0x0 MSTORE PUSH1 0x12 DUP3 MSTORE PUSH1 0x40 PUSH1 0x0 KECCAK256 PUSH1 0x1 PUSH1 0xFF NOT DUP3 SLOAD AND OR SWAP1 SSTORE PUSH1 0x40 MLOAD SWAP1 ISZERO ISZERO DUP2 MSTORE LOG2 PUSH2 0x1FCE JUMP JUMPDEST PUSH2 0x133F PUSH3 0x15180 SWAP2 PUSH2 0x131C PUSH1 0x7 SLOAD DUP11 PUSH2 0x1D44 JUMP JUMPDEST PUSH1 0x7 SLOAD DUP5 PUSH1 0x0 MSTORE PUSH1 0xF DUP8 MSTORE PUSH2 0x1337 PUSH1 0x40 PUSH1 0x0 KECCAK256 SWAP2 DUP3 SLOAD PUSH2 0x1A7A JUMP JUMPDEST SWAP1 SSTORE TIMESTAMP PUSH2 0x1A6D JUMP JUMPDEST DIV DUP1 ISZERO PUSH2 0x1380 JUMPI JUMPDEST PUSH1 0x40 PUSH32 0xBED2E721199F29579FCCD5FD78B46EC11F3136F6CFD1E46CE44CFEAB9383E9E0 SWAP2 PUSH1 0x7 SLOAD SWAP1 DUP3 MLOAD SWAP2 DUP3 MSTORE DUP7 DUP3 ADD MSTORE LOG2 DUP4 DUP8 PUSH2 0x12D3 JUMP JUMPDEST POP PUSH1 0x1 PUSH2 0x1347 JUMP JUMPDEST POP PUSH3 0x93A80 PUSH2 0x1397 DUP3 TIMESTAMP PUSH2 0x1A6D JUMP JUMPDEST GT ISZERO PUSH2 0x12CE JUMP JUMPDEST DUP4 PUSH1 0x0 MSTORE PUSH1 0x12 DUP3 MSTORE PUSH1 0x40 PUSH1 0x0 KECCAK256 PUSH1 0xFF NOT DUP2 SLOAD AND SWAP1 SSTORE DUP4 PUSH1 0x0 MSTORE PUSH1 0x16 DUP3 MSTORE PUSH1 0x0 PUSH1 0x40 DUP2 KECCAK256 SSTORE PUSH2 0x714 JUMP JUMPDEST POP PUSH2 0x1277 PUSH1 0x1 PUSH1 0x1 PUSH1 0xA0 SHL SUB PUSH1 0x0 SLOAD AND CALLER EQ SWAP1 POP PUSH2 0x126E JUMP JUMPDEST CALLVALUE PUSH2 0x281 JUMPI PUSH1 0x0 PUSH1 0x3 NOT CALLDATASIZE ADD SLT PUSH2 0x281 JUMPI PUSH1 0x20 PUSH1 0x7 SLOAD PUSH1 0x40 MLOAD SWAP1 DUP2 MSTORE RETURN JUMPDEST CALLVALUE PUSH2 0x281 JUMPI PUSH1 0x20 PUSH1 0x3 NOT CALLDATASIZE ADD SLT PUSH2 0x281 JUMPI PUSH1 0x1 PUSH1 0x1 PUSH1 0xA0 SHL SUB PUSH2 0x141F PUSH2 0x19DD JUMP JUMPDEST AND PUSH1 0x0 MSTORE PUSH1 0xE PUSH1 0x20 MSTORE PUSH1 0x20 PUSH1 0x40 PUSH1 0x0 KECCAK256 SLOAD PUSH1 0x40 MLOAD SWAP1 DUP2 MSTORE RETURN JUMPDEST CALLVALUE PUSH2 0x281 JUMPI PUSH1 0x20 PUSH1 0x3 NOT CALLDATASIZE ADD SLT PUSH2 0x281 JUMPI PUSH1 0x1 PUSH1 0x1 PUSH1 0xA0 SHL SUB PUSH2 0x1459 PUSH2 0x19DD JUMP JUMPDEST AND PUSH1 0x0 MSTORE PUSH1 0x13 PUSH1 0x20 MSTORE PUSH1 0x20 PUSH1 0xFF PUSH1 0x40 PUSH1 0x0 KECCAK256 SLOAD AND PUSH1 0x40 MLOAD SWAP1 ISZERO ISZERO DUP2 MSTORE RETURN JUMPDEST CALLVALUE PUSH2 0x281 JUMPI PUSH1 0x0 PUSH1 0x3 NOT CALLDATASIZE ADD SLT PUSH2 0x281 JUMPI PUSH1 0x20 PUSH1 0x8 SLOAD PUSH1 0x40 MLOAD SWAP1 DUP2 MSTORE RETURN JUMPDEST CALLVALUE PUSH2 0x281 JUMPI PUSH1 0x20 PUSH1 0x3 NOT CALLDATASIZE ADD SLT PUSH2 0x281 JUMPI PUSH1 0x1 PUSH1 0x1 PUSH1 0xA0 SHL SUB PUSH2 0x14B6 PUSH2 0x19DD JUMP JUMPDEST AND PUSH1 0x0 MSTORE PUSH1 0x11 PUSH1 0x20 MSTORE PUSH1 0x20 PUSH1 0x40 PUSH1 0x0 KECCAK256 SLOAD PUSH1 0x40 MLOAD SWAP1 DUP2 MSTORE RETURN JUMPDEST CALLVALUE PUSH2 0x281 JUMPI PUSH1 0x40 PUSH1 0x3 NOT CALLDATASIZE ADD SLT PUSH2 0x281 JUMPI PUSH2 0x14E8 PUSH2 0x19DD JUMP JUMPDEST PUSH1 0x24 CALLDATALOAD PUSH1 0x1 PUSH1 0x1 PUSH1 0xA0 SHL SUB PUSH1 0x2 SLOAD AND CALLER EQ DUP1 ISZERO PUSH2 0x1791 JUMPI JUMPDEST PUSH2 0x1509 SWAP1 PUSH2 0x1B13 JUMP JUMPDEST PUSH1 0x1 DUP2 LT ISZERO DUP1 PUSH2 0x1786 JUMPI JUMPDEST ISZERO PUSH2 0x1742 JUMPI PUSH1 0x1 PUSH1 0x1 PUSH1 0xA0 SHL SUB DUP3 AND SWAP2 PUSH2 0x152F DUP4 ISZERO ISZERO PUSH2 0x1B5E JUMP JUMPDEST PUSH2 0x1538 DUP2 PUSH2 0x1BE4 JUMP JUMPDEST ISZERO PUSH2 0x16FE JUMPI DUP3 PUSH1 0x0 MSTORE PUSH1 0x17 PUSH1 0x20 MSTORE PUSH1 0x40 PUSH1 0x0 KECCAK256 DUP3 PUSH1 0x0 MSTORE PUSH1 0x20 MSTORE PUSH1 0xFF PUSH1 0x40 PUSH1 0x0 KECCAK256 SLOAD AND PUSH2 0x16BA JUMPI PUSH2 0x1591 SWAP1 DUP4 PUSH1 0x0 MSTORE PUSH1 0x17 PUSH1 0x20 MSTORE PUSH1 0x40 PUSH1 0x0 KECCAK256 DUP4 PUSH1 0x0 MSTORE PUSH1 0x20 MSTORE PUSH1 0x40 PUSH1 0x0 KECCAK256 PUSH1 0x1 PUSH1 0xFF NOT DUP3 SLOAD AND OR SWAP1 SSTORE PUSH1 0x5 SLOAD SWAP1 PUSH2 0x1C3B JUMP JUMPDEST PUSH1 0x5 SLOAD DUP3 PUSH1 0x0 MSTORE PUSH1 0xE PUSH1 0x20 MSTORE PUSH2 0x15AD PUSH1 0x40 PUSH1 0x0 KECCAK256 SWAP2 DUP3 SLOAD PUSH2 0x1A7A JUMP JUMPDEST SWAP1 SSTORE DUP2 PUSH32 0xD88FDC5ED03A23AA2944456EEB92A5D48553863E1AFDE4D94A55960211277151 PUSH1 0x20 PUSH1 0x5 SLOAD PUSH1 0x40 MLOAD SWAP1 DUP2 MSTORE LOG3 DUP1 PUSH1 0x0 MSTORE PUSH1 0x18 PUSH1 0x20 MSTORE PUSH1 0x1 PUSH1 0x1 PUSH1 0xA0 SHL SUB PUSH1 0x40 PUSH1 0x0 KECCAK256 SLOAD AND DUP1 ISZERO ISZERO DUP1 PUSH2 0x16A1 JUMPI JUMPDEST PUSH2 0x1604 JUMPI STOP JUMPDEST DUP2 PUSH1 0x0 MSTORE PUSH1 0x19 PUSH1 0x20 MSTORE PUSH1 0x40 PUSH1 0x0 KECCAK256 PUSH1 0x1 PUSH1 0xFF NOT DUP3 SLOAD AND OR SWAP1 SSTORE PUSH2 0x1629 PUSH1 0x6 SLOAD DUP3 PUSH2 0x1CC2 JUMP JUMPDEST PUSH1 0x6 SLOAD DUP2 PUSH1 0x0 MSTORE PUSH1 0x10 PUSH1 0x20 MSTORE PUSH2 0x1645 PUSH1 0x40 PUSH1 0x0 KECCAK256 SWAP2 DUP3 SLOAD PUSH2 0x1A7A JUMP JUMPDEST SWAP1 SSTORE PUSH32 0x3E555C80C86D940C198C007F11F8CA0CEDCBC1F0B2F0B0A7405A67493DFFE4DC PUSH1 0x20 PUSH1 0x6 SLOAD DUP5 DUP5 PUSH32 0xB2DEE5F49E7A09A5D7C95CD4DD5DC6410EEA65D4E14519D6D3A6E14C8CF0E0E9 DUP5 PUSH1 0x40 MLOAD DUP6 DUP2 MSTORE LOG3 PUSH1 0x40 MLOAD SWAP1 DUP2 MSTORE LOG3 STOP JUMPDEST POP DUP2 PUSH1 0x0 MSTORE PUSH1 0x19 PUSH1 0x20 MSTORE PUSH1 0xFF PUSH1 0x40 PUSH1 0x0 KECCAK256 SLOAD AND ISZERO PUSH2 0x15FE JUMP JUMPDEST PUSH1 0x64 PUSH1 0x40 MLOAD PUSH3 0x461BCD PUSH1 0xE5 SHL DUP2 MSTORE PUSH1 0x20 PUSH1 0x4 DUP3 ADD MSTORE PUSH1 0x15 PUSH1 0x24 DUP3 ADD MSTORE PUSH32 0x4C6576656C20616C726561647920636C61696D65640000000000000000000000 PUSH1 0x44 DUP3 ADD MSTORE REVERT JUMPDEST PUSH1 0x64 PUSH1 0x40 MLOAD PUSH3 0x461BCD PUSH1 0xE5 SHL DUP2 MSTORE PUSH1 0x20 PUSH1 0x4 DUP3 ADD MSTORE PUSH1 0x1D PUSH1 0x24 DUP3 ADD MSTORE PUSH32 0x55736572206E6F7420656C696769626C6520666F722072657761726473000000 PUSH1 0x44 DUP3 ADD MSTORE REVERT JUMPDEST PUSH1 0x64 PUSH1 0x40 MLOAD PUSH3 0x461BCD PUSH1 0xE5 SHL DUP2 MSTORE PUSH1 0x20 PUSH1 0x4 DUP3 ADD MSTORE PUSH1 0x14 PUSH1 0x24 DUP3 ADD MSTORE PUSH32 0x5245574152445F5F496E76616C69644C6576656C000000000000000000000000 PUSH1 0x44 DUP3 ADD MSTORE REVERT JUMPDEST POP PUSH1 0xA DUP2 GT ISZERO PUSH2 0x1514 JUMP JUMPDEST POP PUSH2 0x1509 PUSH1 0x1 PUSH1 0x1 PUSH1 0xA0 SHL SUB PUSH1 0x0 SLOAD AND CALLER EQ SWAP1 POP PUSH2 0x1500 JUMP JUMPDEST CALLVALUE PUSH2 0x281 JUMPI PUSH1 0x0 PUSH1 0x3 NOT CALLDATASIZE ADD SLT PUSH2 0x281 JUMPI PUSH1 0x20 PUSH1 0x40 MLOAD PUSH1 0x1 PUSH1 0x1 PUSH1 0xA0 SHL SUB PUSH32 0x0 AND DUP2 MSTORE RETURN JUMPDEST CALLVALUE PUSH2 0x281 JUMPI PUSH1 0x20 PUSH1 0x3 NOT CALLDATASIZE ADD SLT PUSH2 0x281 JUMPI PUSH1 0x4 CALLDATALOAD PUSH2 0x180A PUSH2 0x1BA9 JUMP JUMPDEST PUSH2 0x1815 DUP2 ISZERO ISZERO PUSH2 0x1A22 JUMP JUMPDEST CALLER PUSH1 0x0 MSTORE PUSH1 0xB PUSH1 0x20 MSTORE DUP1 PUSH1 0x40 PUSH1 0x0 KECCAK256 SLOAD LT PUSH2 0x1999 JUMPI CALLER PUSH1 0x0 MSTORE PUSH1 0xB PUSH1 0x20 MSTORE PUSH1 0x40 PUSH1 0x0 KECCAK256 PUSH2 0x1843 DUP3 DUP3 SLOAD PUSH2 0x1A6D JUMP JUMPDEST SWAP1 SSTORE CALLER PUSH1 0x0 MSTORE PUSH1 0xD PUSH1 0x20 MSTORE PUSH1 0x40 PUSH1 0x0 KECCAK256 PUSH2 0x185E DUP3 DUP3 SLOAD PUSH2 0x1A7A JUMP JUMPDEST SWAP1 SSTORE PUSH1 0x40 MLOAD PUSH32 0x40C10F1900000000000000000000000000000000000000000000000000000000 DUP2 MSTORE CALLER PUSH1 0x4 DUP3 ADD MSTORE DUP2 PUSH1 0x24 DUP3 ADD MSTORE PUSH1 0x20 DUP2 PUSH1 0x44 DUP2 PUSH1 0x0 PUSH1 0x1 PUSH1 0x1 PUSH1 0xA0 SHL SUB PUSH32 0x0 AND GAS CALL SWAP1 DUP2 ISZERO PUSH2 0xABA JUMPI PUSH1 0x0 SWAP2 PUSH2 0x1957 JUMPI JUMPDEST POP ISZERO PUSH2 0x1913 JUMPI PUSH1 0x40 MLOAD SWAP1 DUP2 MSTORE TIMESTAMP PUSH1 0x20 DUP3 ADD MSTORE PUSH32 0xDACBDDE355BA930696A362EA6738FEB9F8BD52DFB3D81947558FD3217E23E325 PUSH1 0x40 CALLER SWAP3 LOG2 PUSH1 0x1 DUP1 SSTORE STOP JUMPDEST PUSH1 0x64 PUSH1 0x40 MLOAD PUSH3 0x461BCD PUSH1 0xE5 SHL DUP2 MSTORE PUSH1 0x20 PUSH1 0x4 DUP3 ADD MSTORE PUSH1 0x13 PUSH1 0x24 DUP3 ADD MSTORE PUSH32 0x52657761726420636C61696D206661696C656400000000000000000000000000 PUSH1 0x44 DUP3 ADD MSTORE REVERT JUMPDEST PUSH1 0x20 DUP2 RETURNDATASIZE PUSH1 0x20 GT PUSH2 0x1991 JUMPI JUMPDEST DUP2 PUSH2 0x1970 PUSH1 0x20 SWAP4 DUP4 PUSH2 0x1AD2 JUMP JUMPDEST DUP2 ADD SUB SLT PUSH2 0x198D JUMPI MLOAD SWAP1 DUP2 ISZERO ISZERO DUP3 SUB PUSH2 0x198A JUMPI POP DUP3 PUSH2 0x18D5 JUMP JUMPDEST DUP1 REVERT JUMPDEST POP DUP1 REVERT JUMPDEST RETURNDATASIZE SWAP2 POP PUSH2 0x1963 JUMP JUMPDEST PUSH1 0x64 PUSH1 0x40 MLOAD PUSH3 0x461BCD PUSH1 0xE5 SHL DUP2 MSTORE PUSH1 0x20 PUSH1 0x4 DUP3 ADD MSTORE PUSH1 0x1B PUSH1 0x24 DUP3 ADD MSTORE PUSH32 0x5245574152445F5F496E73756666696369656E7442616C616E63650000000000 PUSH1 0x44 DUP3 ADD MSTORE REVERT JUMPDEST PUSH1 0x4 CALLDATALOAD SWAP1 PUSH1 0x1 PUSH1 0x1 PUSH1 0xA0 SHL SUB DUP3 AND DUP3 SUB PUSH2 0x281 JUMPI JUMP JUMPDEST PUSH1 0x3 NOT PUSH1 0x40 SWAP2 ADD SLT PUSH2 0x281 JUMPI PUSH1 0x4 CALLDATALOAD PUSH1 0x1 PUSH1 0x1 PUSH1 0xA0 SHL SUB DUP2 AND DUP2 SUB PUSH2 0x281 JUMPI SWAP1 PUSH1 0x24 CALLDATALOAD DUP1 ISZERO ISZERO DUP2 SUB PUSH2 0x281 JUMPI SWAP1 JUMP JUMPDEST ISZERO PUSH2 0x1A29 JUMPI JUMP JUMPDEST PUSH1 0x64 PUSH1 0x40 MLOAD PUSH3 0x461BCD PUSH1 0xE5 SHL DUP2 MSTORE PUSH1 0x20 PUSH1 0x4 DUP3 ADD MSTORE PUSH1 0x12 PUSH1 0x24 DUP3 ADD MSTORE PUSH32 0x5245574152445F5F5A65726F416D6F756E740000000000000000000000000000 PUSH1 0x44 DUP3 ADD MSTORE REVERT JUMPDEST SWAP2 SWAP1 DUP3 SUB SWAP2 DUP3 GT PUSH2 0xCDE JUMPI JUMP JUMPDEST SWAP2 SWAP1 DUP3 ADD DUP1 SWAP3 GT PUSH2 0xCDE JUMPI JUMP JUMPDEST PUSH1 0xE0 DUP2 ADD SWAP1 DUP2 LT PUSH8 0xFFFFFFFFFFFFFFFF DUP3 GT OR PUSH2 0x1AA3 JUMPI PUSH1 0x40 MSTORE JUMP JUMPDEST PUSH32 0x4E487B7100000000000000000000000000000000000000000000000000000000 PUSH1 0x0 MSTORE PUSH1 0x41 PUSH1 0x4 MSTORE PUSH1 0x24 PUSH1 0x0 REVERT JUMPDEST SWAP1 PUSH1 0x1F PUSH32 0xFFFFFFFFFFFFFFFFFFFFFFFFFFFFFFFFFFFFFFFFFFFFFFFFFFFFFFFFFFFFFFE0 SWAP2 ADD AND DUP2 ADD SWAP1 DUP2 LT PUSH8 0xFFFFFFFFFFFFFFFF DUP3 GT OR PUSH2 0x1AA3 JUMPI PUSH1 0x40 MSTORE JUMP JUMPDEST ISZERO PUSH2 0x1B1A JUMPI JUMP JUMPDEST PUSH1 0x64 PUSH1 0x40 MLOAD PUSH3 0x461BCD PUSH1 0xE5 SHL DUP2 MSTORE PUSH1 0x20 PUSH1 0x4 DUP3 ADD MSTORE PUSH1 0x14 PUSH1 0x24 DUP3 ADD MSTORE PUSH32 0x5245574152445F5F556E617574686F72697A6564000000000000000000000000 PUSH1 0x44 DUP3 ADD MSTORE REVERT JUMPDEST ISZERO PUSH2 0x1B65 JUMPI JUMP JUMPDEST PUSH1 0x64 PUSH1 0x40 MLOAD PUSH3 0x461BCD PUSH1 0xE5 SHL DUP2 MSTORE PUSH1 0x20 PUSH1 0x4 DUP3 ADD MSTORE PUSH1 0x16 PUSH1 0x24 DUP3 ADD MSTORE PUSH32 0x5245574152445F5F496E76616C69644164647265737300000000000000000000 PUSH1 0x44 DUP3 ADD MSTORE REVERT JUMPDEST PUSH1 0x2 PUSH1 0x1 SLOAD EQ PUSH2 0x1BBA JUMPI PUSH1 0x2 PUSH1 0x1 SSTORE JUMP JUMPDEST PUSH32 0x3EE5AEB500000000000000000000000000000000000000000000000000000000 PUSH1 0x0 MSTORE PUSH1 0x4 PUSH1 0x0 REVERT JUMPDEST PUSH1 0x1 PUSH1 0x1 PUSH1 0xA0 SHL SUB AND DUP1 PUSH1 0x0 MSTORE PUSH1 0x14 PUSH1 0x20 MSTORE PUSH1 0xFF PUSH1 0x40 PUSH1 0x0 KECCAK256 SLOAD AND PUSH2 0x1C35 JUMPI DUP1 PUSH1 0x0 MSTORE PUSH1 0x12 PUSH1 0x20 MSTORE PUSH1 0xFF PUSH1 0x40 PUSH1 0x0 KECCAK256 SLOAD AND SWAP1 DUP2 PUSH2 0x1C1F JUMPI POP SWAP1 JUMP JUMPDEST SWAP1 POP PUSH1 0x0 MSTORE PUSH1 0x13 PUSH1 0x20 MSTORE PUSH1 0xFF PUSH1 0x40 PUSH1 0x0 KECCAK256 SLOAD AND SWAP1 JUMP JUMPDEST POP PUSH1 0x1 SWAP1 JUMP JUMPDEST SWAP1 PUSH1 0x0 SWAP2 DUP2 ISZERO PUSH2 0x1CBD JUMPI PUSH32 0x6923E5879E7217B6481AFA33E604AD52AFCD215FB632497C2765F7368FA1A09D SWAP2 PUSH1 0x1 PUSH1 0x1 PUSH1 0xA0 SHL SUB PUSH1 0x60 SWAP3 AND SWAP4 DUP5 DUP2 MSTORE PUSH1 0xB PUSH1 0x20 MSTORE PUSH1 0x40 DUP2 KECCAK256 PUSH2 0x1C8B DUP4 DUP3 SLOAD PUSH2 0x1A7A JUMP JUMPDEST SWAP1 SSTORE DUP5 DUP2 MSTORE PUSH1 0xC PUSH1 0x20 MSTORE PUSH1 0x40 DUP2 KECCAK256 PUSH2 0x1CA4 DUP4 DUP3 SLOAD PUSH2 0x1A7A JUMP JUMPDEST SWAP1 SSTORE POP PUSH1 0x40 MLOAD SWAP1 DUP2 MSTORE PUSH1 0x0 PUSH1 0x20 DUP3 ADD MSTORE TIMESTAMP PUSH1 0x40 DUP3 ADD MSTORE LOG2 JUMP JUMPDEST POP POP POP JUMP JUMPDEST SWAP1 PUSH1 0x0 SWAP2 DUP2 ISZERO PUSH2 0x1CBD JUMPI PUSH32 0x6923E5879E7217B6481AFA33E604AD52AFCD215FB632497C2765F7368FA1A09D SWAP2 PUSH1 0x1 PUSH1 0x1 PUSH1 0xA0 SHL SUB PUSH1 0x60 SWAP3 AND SWAP4 DUP5 DUP2 MSTORE PUSH1 0xB PUSH1 0x20 MSTORE PUSH1 0x40 DUP2 KECCAK256 PUSH2 0x1D12 DUP4 DUP3 SLOAD PUSH2 0x1A7A JUMP JUMPDEST SWAP1 SSTORE DUP5 DUP2 MSTORE PUSH1 0xC PUSH1 0x20 MSTORE PUSH1 0x40 DUP2 KECCAK256 PUSH2 0x1D2B DUP4 DUP3 SLOAD PUSH2 0x1A7A JUMP JUMPDEST SWAP1 SSTORE POP PUSH1 0x40 MLOAD SWAP1 DUP2 MSTORE PUSH1 0x2 PUSH1 0x20 DUP3 ADD MSTORE TIMESTAMP PUSH1 0x40 DUP3 ADD MSTORE LOG2 JUMP JUMPDEST SWAP1 PUSH1 0x0 SWAP2 DUP2 ISZERO PUSH2 0x1CBD JUMPI PUSH32 0x6923E5879E7217B6481AFA33E604AD52AFCD215FB632497C2765F7368FA1A09D SWAP2 PUSH1 0x1 PUSH1 0x1 PUSH1 0xA0 SHL SUB PUSH1 0x60 SWAP3 AND SWAP4 DUP5 DUP2 MSTORE PUSH1 0xB PUSH1 0x20 MSTORE PUSH1 0x40 DUP2 KECCAK256 PUSH2 0x1D94 DUP4 DUP3 SLOAD PUSH2 0x1A7A JUMP JUMPDEST SWAP1 SSTORE DUP5 DUP2 MSTORE PUSH1 0xC PUSH1 0x20 MSTORE PUSH1 0x40 DUP2 KECCAK256 PUSH2 0x1DAD DUP4 DUP3 SLOAD PUSH2 0x1A7A JUMP JUMPDEST SWAP1 SSTORE POP PUSH1 0x40 MLOAD SWAP1 DUP2 MSTORE PUSH1 0x1 PUSH1 0x20 DUP3 ADD MSTORE TIMESTAMP PUSH1 0x40 DUP3 ADD MSTORE LOG2 JUMP JUMPDEST SWAP1 PUSH1 0x0 SWAP2 DUP2 ISZERO PUSH2 0x1CBD JUMPI PUSH32 0x6923E5879E7217B6481AFA33E604AD52AFCD215FB632497C2765F7368FA1A09D SWAP2 PUSH1 0x1 PUSH1 0x1 PUSH1 0xA0 SHL SUB PUSH1 0x60 SWAP3 AND SWAP4 DUP5 DUP2 MSTORE PUSH1 0xB PUSH1 0x20 MSTORE PUSH1 0x40 DUP2 KECCAK256 PUSH2 0x1E16 DUP4 DUP3 SLOAD PUSH2 0x1A7A JUMP JUMPDEST SWAP1 SSTORE DUP5 DUP2 MSTORE PUSH1 0xC PUSH1 0x20 MSTORE PUSH1 0x40 DUP2 KECCAK256 PUSH2 0x1E2F DUP4 DUP3 SLOAD PUSH2 0x1A7A JUMP JUMPDEST SWAP1 SSTORE POP PUSH1 0x40 MLOAD SWAP1 DUP2 MSTORE PUSH1 0x3 PUSH1 0x20 DUP3 ADD MSTORE TIMESTAMP PUSH1 0x40 DUP3 ADD MSTORE LOG2 JUMP JUMPDEST SWAP1 PUSH1 0x0 SWAP2 DUP2 ISZERO PUSH2 0x1CBD JUMPI PUSH32 0x6923E5879E7217B6481AFA33E604AD52AFCD215FB632497C2765F7368FA1A09D SWAP2 PUSH1 0x1 PUSH1 0x1 PUSH1 0xA0 SHL SUB PUSH1 0x60 SWAP3 AND SWAP4 DUP5 DUP2 MSTORE PUSH1 0xB PUSH1 0x20 MSTORE PUSH1 0x40 DUP2 KECCAK256 PUSH2 0x1E98 DUP4 DUP3 SLOAD PUSH2 0x1A7A JUMP JUMPDEST SWAP1 SSTORE DUP5 DUP2 MSTORE PUSH1 0xC PUSH1 0x20 MSTORE PUSH1 0x40 DUP2 KECCAK256 PUSH2 0x1EB1 DUP4 DUP3 SLOAD PUSH2 0x1A7A JUMP JUMPDEST SWAP1 SSTORE POP PUSH1 0x40 MLOAD SWAP1 DUP2 MSTORE PUSH1 0x5 PUSH1 0x20 DUP3 ADD MSTORE TIMESTAMP PUSH1 0x40 DUP3 ADD MSTORE LOG2 JUMP JUMPDEST SWAP1 PUSH1 0x0 SWAP2 DUP2 ISZERO PUSH2 0x1CBD JUMPI PUSH32 0x6923E5879E7217B6481AFA33E604AD52AFCD215FB632497C2765F7368FA1A09D SWAP2 PUSH1 0x1 PUSH1 0x1 PUSH1 0xA0 SHL SUB PUSH1 0x60 SWAP3 AND SWAP4 DUP5 DUP2 MSTORE PUSH1 0xB PUSH1 0x20 MSTORE PUSH1 0x40 DUP2 KECCAK256 PUSH2 0x1F1A DUP4 DUP3 SLOAD PUSH2 0x1A7A JUMP JUMPDEST SWAP1 SSTORE DUP5 DUP2 MSTORE PUSH1 0xC PUSH1 0x20 MSTORE PUSH1 0x40 DUP2 KECCAK256 PUSH2 0x1F33 DUP4 DUP3 SLOAD PUSH2 0x1A7A JUMP JUMPDEST SWAP1 SSTORE POP PUSH1 0x40 MLOAD SWAP1 DUP2 MSTORE PUSH1 0x6 PUSH1 0x20 DUP3 ADD MSTORE TIMESTAMP PUSH1 0x40 DUP3 ADD MSTORE LOG2 JUMP JUMPDEST SWAP1 PUSH1 0x0 SWAP2 DUP2 ISZERO PUSH2 0x1CBD JUMPI PUSH32 0x6923E5879E7217B6481AFA33E604AD52AFCD215FB632497C2765F7368FA1A09D SWAP2 PUSH1 0x1 PUSH1 0x1 PUSH1 0xA0 SHL SUB PUSH1 0x60 SWAP3 AND SWAP4 DUP5 DUP2 MSTORE PUSH1 0xB PUSH1 0x20 MSTORE PUSH1 0x40 DUP2 KECCAK256 PUSH2 0x1F9C DUP4 DUP3 SLOAD PUSH2 0x1A7A JUMP JUMPDEST SWAP1 SSTORE DUP5 DUP2 MSTORE PUSH1 0xC PUSH1 0x20 MSTORE PUSH1 0x40 DUP2 KECCAK256 PUSH2 0x1FB5 DUP4 DUP3 SLOAD PUSH2 0x1A7A JUMP JUMPDEST SWAP1 SSTORE POP PUSH1 0x40 MLOAD SWAP1 DUP2 MSTORE PUSH1 0x4 PUSH1 0x20 DUP3 ADD MSTORE TIMESTAMP PUSH1 0x40 DUP3 ADD MSTORE LOG2 JUMP JUMPDEST PUSH32 0x4BE847F8AAABDDDE8E8FE98EB5ABE743236D75160AC686D09206AC662A346DAF PUSH1 0x40 PUSH1 0x1 PUSH1 0x1 PUSH1 0xA0 SHL SUB PUSH2 0x2002 DUP5 PUSH2 0x1BE4 JUMP JUMPDEST SWAP4 AND SWAP3 DUP4 PUSH1 0x0 MSTORE PUSH1 0x15 PUSH1 0x20 MSTORE PUSH2 0x2028 DUP2 DUP4 PUSH1 0x0 KECCAK256 SWAP1 PUSH1 0xFF PUSH1 0xFF NOT DUP4 SLOAD AND SWAP2 ISZERO ISZERO AND OR SWAP1 SSTORE JUMP JUMPDEST DUP4 PUSH1 0x0 MSTORE PUSH1 0x14 PUSH1 0x20 MSTORE PUSH1 0xFF DUP3 PUSH1 0x0 KECCAK256 SLOAD AND DUP3 MLOAD SWAP2 ISZERO ISZERO DUP3 MSTORE ISZERO ISZERO PUSH1 0x20 DUP3 ADD MSTORE LOG2 JUMP JUMPDEST PUSH1 0x1 PUSH1 0x1 PUSH1 0xA0 SHL SUB PUSH1 0x0 SLOAD AND CALLER SUB PUSH2 0x205E JUMPI JUMP JUMPDEST PUSH32 0x118CDAA700000000000000000000000000000000000000000000000000000000 PUSH1 0x0 MSTORE CALLER PUSH1 0x4 MSTORE PUSH1 0x24 PUSH1 0x0 REVERT JUMPDEST PUSH9 0x3635C9ADC5DEA00000 LT PUSH2 0x209D JUMPI JUMP JUMPDEST PUSH1 0x64 PUSH1 0x40 MLOAD PUSH3 0x461BCD PUSH1 0xE5 SHL DUP2 MSTORE PUSH1 0x20 PUSH1 0x4 DUP3 ADD MSTORE PUSH1 0x1D PUSH1 0x24 DUP3 ADD MSTORE PUSH32 0x5245574152445F5F457863657373697665526577617264416D6F756E74000000 PUSH1 0x44 DUP3 ADD MSTORE REVERT INVALID LOG2 PUSH5 0x6970667358 0x22 SLT KECCAK256 0xE6 0xD0 PUSH24 0xE6023F2CB66A9ECC00C567642BEBA34DBF522AA6C0BC5E7A 0xCD SDIV PUSH23 0x5DA464736F6C634300081C003300000000000000000000 "},"methodIdentifiers":{"claimHypercertReward(uint256)":"89e0e554","claimRewards(uint256)":"0962ef79","claimRewardsAmount(address)":"3aec4473","dcuToken()":"14cde16e","distributeRewards(address,uint256)":"a8031a1d","getBalance(address)":"f8b2cb4f","getReferrer(address)":"4a9fefc7","getRewardsBreakdown(address)":"5b651c48","getTotalEarnedDCU(address)":"c107e3b4","getUserRewardStats(address)":"9b13027d","getVerificationStatus(address)":"6103681a","hypercertBonus()":"794882d1","hypercertRewardsClaimed(bytes32)":"823888d1","impactProductClaimReward()":"5001d45f","impactProductClaimed(address,uint256)":"aa58152d","impactReportReward()":"22c1f447","impactReportRewardsAmount(address)":"22b31619","lastPoiTimestamp(address)":"4f3f2832","nftCollection()":"6588103b","nftMinted(address)":"2f6f92b3","owner()":"8da5cb5b","poiVerified(address)":"dac773c0","referralReward()":"4d683674","referralRewarded(address)":"62d2eea2","referralRewardsAmount(address)":"69e23ced","referrers(address)":"4a3b68cc","registerReferral(address,address)":"5603b9f9","renounceOwnership()":"715018a6","rewardEligibility(address)":"fcec6769","rewardHypercertMint(address)":"d5b3081b","rewardImpactProductClaim(address,uint256)":"21c838ef","rewardImpactReports(address,uint256)":"76e17483","rewardVerifier(address)":"e9ecfef3","setPoiVerificationStatus(address,bool)":"47c24fcf","setRewardEligibilityForTesting(address,bool)":"9afdf64d","setSubmissionContract(address)":"fb272a92","streakReward()":"3efe458a","streakRewardsAmount(address)":"64f9386a","submissionContract()":"842ce381","totalClaimed(address)":"ef5d9ae8","totalEarned(address)":"649aca4a","transferOwnership(address)":"f2fde38b","treasury()":"61d027b3","updateNftCollection(address)":"4c5a3f1b","updateNftMintStatus(address,bool)":"a1905a07","updateReferralReward(uint256)":"e554e1ad","updateRewardAmounts(uint256,uint256,uint256)":"5fd6ac81","updateTreasury(address)":"7f51bb1f","userBalances(address)":"26224c64","verifierReward()":"b49e80f4"}}}}}