{"contracts/contracts/Submission.sol":{"Submission":{"abi":[{"inputs":[{"internalType":"address","name":"_dcuToken","type":"address"},{"internalType":"address","name":"_rewardManager","type":"address"},{"internalType":"uint256","name":"_defaultRewardAmount","type":"uint256"}],"stateMutability":"nonpayable","type":"constructor"},{"inputs":[],"name":"AccessControlBadConfirmation","type":"error"},{"inputs":[{"internalType":"address","name":"account","type":"address"},{"internalType":"bytes32","name":"neededRole","type":"bytes32"}],"name":"AccessControlUnauthorizedAccount","type":"error"},{"inputs":[{"internalType":"address","name":"owner","type":"address"}],"name":"OwnableInvalidOwner","type":"error"},{"inputs":[{"internalType":"address","name":"account","type":"address"}],"name":"OwnableUnauthorizedAccount","type":"error"},{"inputs":[],"name":"ReentrancyGuardReentrantCall","type":"error"},{"inputs":[{"internalType":"uint256","name":"submissionId","type":"uint256"}],"name":"SUBMISSION__AlreadyApproved","type":"error"},{"inputs":[{"internalType":"uint256","name":"submissionId","type":"uint256"}],"name":"SUBMISSION__AlreadyRejected","type":"error"},{"inputs":[{"internalType":"uint256","name":"submissionId","type":"uint256"}],"name":"SUBMISSION__CannotRefundApprovedSubmission","type":"error"},{"inputs":[{"internalType":"uint256","name":"sent","type":"uint256"},{"internalType":"uint256","name":"required","type":"uint256"}],"name":"SUBMISSION__InsufficientSubmissionFee","type":"error"},{"inputs":[],"name":"SUBMISSION__InvalidAddress","type":"error"},{"inputs":[],"name":"SUBMISSION__InvalidSubmissionData","type":"error"},{"inputs":[],"name":"SUBMISSION__NoRewardsAvailable","type":"error"},{"inputs":[],"name":"SUBMISSION__RefundFailed","type":"error"},{"inputs":[{"internalType":"uint256","name":"submissionId","type":"uint256"}],"name":"SUBMISSION__SubmissionNotFound","type":"error"},{"inputs":[{"internalType":"address","name":"user","type":"address"}],"name":"SUBMISSION__Unauthorized","type":"error"},{"anonymous":false,"inputs":[{"indexed":false,"internalType":"uint256","name":"oldAmount","type":"uint256"},{"indexed":false,"internalType":"uint256","name":"newAmount","type":"uint256"}],"name":"DefaultRewardUpdated","type":"event"},{"anonymous":false,"inputs":[{"indexed":true,"internalType":"address","name":"user","type":"address"},{"indexed":false,"internalType":"uint256","name":"cleanupCount","type":"uint256"},{"indexed":false,"internalType":"uint256","name":"hypercertNumber","type":"uint256"}],"name":"HypercertEligible","type":"event"},{"anonymous":false,"inputs":[{"indexed":true,"internalType":"address","name":"user","type":"address"},{"indexed":false,"internalType":"uint256","name":"submissionId","type":"uint256"},{"indexed":false,"internalType":"uint256","name":"totalForms","type":"uint256"}],"name":"ImpactFormSubmitted","type":"event"},{"anonymous":false,"inputs":[{"indexed":true,"internalType":"address","name":"previousOwner","type":"address"},{"indexed":true,"internalType":"address","name":"newOwner","type":"address"}],"name":"OwnershipTransferred","type":"event"},{"anonymous":false,"inputs":[{"indexed":true,"internalType":"address","name":"oldContract","type":"address"},{"indexed":true,"internalType":"address","name":"newContract","type":"address"}],"name":"RecyclablesRewardContractUpdated","type":"event"},{"anonymous":false,"inputs":[{"indexed":true,"internalType":"address","name":"user","type":"address"},{"indexed":true,"internalType":"uint256","name":"submissionId","type":"uint256"},{"indexed":false,"internalType":"string","name":"recyclablesPhotoHash","type":"string"},{"indexed":false,"internalType":"string","name":"recyclablesReceiptHash","type":"string"}],"name":"RecyclablesSubmitted","type":"event"},{"anonymous":false,"inputs":[{"indexed":true,"internalType":"address","name":"referrer","type":"address"},{"indexed":true,"internalType":"address","name":"invitee","type":"address"}],"name":"ReferralRegistered","type":"event"},{"anonymous":false,"inputs":[{"indexed":true,"internalType":"address","name":"user","type":"address"},{"indexed":false,"internalType":"uint256","name":"amount","type":"uint256"},{"indexed":false,"internalType":"uint256","name":"submissionId","type":"uint256"},{"indexed":false,"internalType":"uint256","name":"timestamp","type":"uint256"}],"name":"RewardAvailable","type":"event"},{"anonymous":false,"inputs":[{"indexed":true,"internalType":"bytes32","name":"role","type":"bytes32"},{"indexed":true,"internalType":"bytes32","name":"previousAdminRole","type":"bytes32"},{"indexed":true,"internalType":"bytes32","name":"newAdminRole","type":"bytes32"}],"name":"RoleAdminChanged","type":"event"},{"anonymous":false,"inputs":[{"indexed":true,"internalType":"bytes32","name":"role","type":"bytes32"},{"indexed":true,"internalType":"address","name":"account","type":"address"},{"indexed":true,"internalType":"address","name":"sender","type":"address"}],"name":"RoleGranted","type":"event"},{"anonymous":false,"inputs":[{"indexed":true,"internalType":"bytes32","name":"role","type":"bytes32"},{"indexed":true,"internalType":"address","name":"account","type":"address"},{"indexed":true,"internalType":"address","name":"sender","type":"address"}],"name":"RoleRevoked","type":"event"},{"anonymous":false,"inputs":[{"indexed":true,"internalType":"uint256","name":"submissionId","type":"uint256"},{"indexed":true,"internalType":"address","name":"approver","type":"address"},{"indexed":false,"internalType":"uint256","name":"timestamp","type":"uint256"}],"name":"SubmissionApproved","type":"event"},{"anonymous":false,"inputs":[{"indexed":true,"internalType":"uint256","name":"submissionId","type":"uint256"},{"indexed":true,"internalType":"address","name":"submitter","type":"address"},{"indexed":false,"internalType":"string","name":"dataURI","type":"string"},{"indexed":false,"internalType":"uint256","name":"timestamp","type":"uint256"}],"name":"SubmissionCreated","type":"event"},{"anonymous":false,"inputs":[{"indexed":false,"internalType":"uint256","name":"newFee","type":"uint256"},{"indexed":false,"internalType":"bool","name":"enabled","type":"bool"}],"name":"SubmissionFeeUpdated","type":"event"},{"anonymous":false,"inputs":[{"indexed":true,"internalType":"uint256","name":"submissionId","type":"uint256"},{"indexed":true,"internalType":"address","name":"approver","type":"address"},{"indexed":false,"internalType":"uint256","name":"timestamp","type":"uint256"}],"name":"SubmissionRejected","type":"event"},{"anonymous":false,"inputs":[{"indexed":true,"internalType":"address","name":"oldTreasury","type":"address"},{"indexed":true,"internalType":"address","name":"newTreasury","type":"address"}],"name":"TreasuryUpdated","type":"event"},{"inputs":[],"name":"ADMIN_ROLE","outputs":[{"internalType":"bytes32","name":"","type":"bytes32"}],"stateMutability":"view","type":"function"},{"inputs":[],"name":"DEFAULT_ADMIN_ROLE","outputs":[{"internalType":"bytes32","name":"","type":"bytes32"}],"stateMutability":"view","type":"function"},{"inputs":[],"name":"VERIFIER_ROLE","outputs":[{"internalType":"bytes32","name":"","type":"bytes32"}],"stateMutability":"view","type":"function"},{"inputs":[{"internalType":"uint256","name":"submissionId","type":"uint256"}],"name":"approveSubmission","outputs":[],"stateMutability":"nonpayable","type":"function"},{"inputs":[{"internalType":"uint256","name":"submissionId","type":"uint256"},{"internalType":"string","name":"recyclablesPhotoHash","type":"string"},{"internalType":"string","name":"recyclablesReceiptHash","type":"string"}],"name":"attachRecyclables","outputs":[],"stateMutability":"nonpayable","type":"function"},{"inputs":[{"internalType":"string","name":"dataURI","type":"string"},{"internalType":"string","name":"beforePhotoHash","type":"string"},{"internalType":"string","name":"afterPhotoHash","type":"string"},{"internalType":"string","name":"impactFormDataHash","type":"string"},{"internalType":"int256","name":"lat","type":"int256"},{"internalType":"int256","name":"lng","type":"int256"},{"internalType":"address","name":"referrer","type":"address"}],"name":"createSubmission","outputs":[{"internalType":"uint256","name":"","type":"uint256"}],"stateMutability":"payable","type":"function"},{"inputs":[],"name":"dcuToken","outputs":[{"internalType":"contract IDCUToken","name":"","type":"address"}],"stateMutability":"view","type":"function"},{"inputs":[],"name":"defaultRewardAmount","outputs":[{"internalType":"uint256","name":"","type":"uint256"}],"stateMutability":"view","type":"function"},{"inputs":[],"name":"feeEnabled","outputs":[{"internalType":"bool","name":"","type":"bool"}],"stateMutability":"view","type":"function"},{"inputs":[{"internalType":"address","name":"user","type":"address"}],"name":"getHypercertEligibility","outputs":[{"internalType":"uint256","name":"cleanupCount","type":"uint256"},{"internalType":"uint256","name":"hypercertCount","type":"uint256"},{"internalType":"bool","name":"isEligible","type":"bool"}],"stateMutability":"view","type":"function"},{"inputs":[{"internalType":"bytes32","name":"role","type":"bytes32"}],"name":"getRoleAdmin","outputs":[{"internalType":"bytes32","name":"","type":"bytes32"}],"stateMutability":"view","type":"function"},{"inputs":[{"internalType":"uint256","name":"startIndex","type":"uint256"},{"internalType":"uint256","name":"batchSize","type":"uint256"}],"name":"getSubmissionBatch","outputs":[{"components":[{"internalType":"uint256","name":"id","type":"uint256"},{"internalType":"address","name":"submitter","type":"address"},{"internalType":"string","name":"dataURI","type":"string"},{"internalType":"string","name":"beforePhotoHash","type":"string"},{"internalType":"string","name":"afterPhotoHash","type":"string"},{"internalType":"string","name":"impactFormDataHash","type":"string"},{"internalType":"int256","name":"latitude","type":"int256"},{"internalType":"int256","name":"longitude","type":"int256"},{"internalType":"uint256","name":"timestamp","type":"uint256"},{"internalType":"enum Submission.SubmissionStatus","name":"status","type":"uint8"},{"internalType":"address","name":"approver","type":"address"},{"internalType":"uint256","name":"processedTimestamp","type":"uint256"},{"internalType":"bool","name":"rewarded","type":"bool"},{"internalType":"uint256","name":"feePaid","type":"uint256"},{"internalType":"bool","name":"feeRefunded","type":"bool"},{"internalType":"bool","name":"hasImpactForm","type":"bool"},{"internalType":"bool","name":"hasRecyclables","type":"bool"},{"internalType":"string","name":"recyclablesPhotoHash","type":"string"},{"internalType":"string","name":"recyclablesReceiptHash","type":"string"}],"internalType":"struct Submission.CleanupSubmission[]","name":"","type":"tuple[]"}],"stateMutability":"view","type":"function"},{"inputs":[{"internalType":"uint256","name":"submissionId","type":"uint256"}],"name":"getSubmissionDetails","outputs":[{"components":[{"internalType":"uint256","name":"id","type":"uint256"},{"internalType":"address","name":"submitter","type":"address"},{"internalType":"string","name":"dataURI","type":"string"},{"internalType":"string","name":"beforePhotoHash","type":"string"},{"internalType":"string","name":"afterPhotoHash","type":"string"},{"internalType":"string","name":"impactFormDataHash","type":"string"},{"internalType":"int256","name":"latitude","type":"int256"},{"internalType":"int256","name":"longitude","type":"int256"},{"internalType":"uint256","name":"timestamp","type":"uint256"},{"internalType":"enum Submission.SubmissionStatus","name":"status","type":"uint8"},{"internalType":"address","name":"approver","type":"address"},{"internalType":"uint256","name":"processedTimestamp","type":"uint256"},{"internalType":"bool","name":"rewarded","type":"bool"},{"internalType":"uint256","name":"feePaid","type":"uint256"},{"internalType":"bool","name":"feeRefunded","type":"bool"},{"internalType":"bool","name":"hasImpactForm","type":"bool"},{"internalType":"bool","name":"hasRecyclables","type":"bool"},{"internalType":"string","name":"recyclablesPhotoHash","type":"string"},{"internalType":"string","name":"recyclablesReceiptHash","type":"string"}],"internalType":"struct Submission.CleanupSubmission","name":"","type":"tuple"}],"stateMutability":"view","type":"function"},{"inputs":[{"internalType":"address","name":"user","type":"address"}],"name":"getSubmissionsByUser","outputs":[{"internalType":"uint256[]","name":"","type":"uint256[]"}],"stateMutability":"view","type":"function"},{"inputs":[{"internalType":"bytes32","name":"role","type":"bytes32"},{"internalType":"address","name":"account","type":"address"}],"name":"grantRole","outputs":[],"stateMutability":"nonpayable","type":"function"},{"inputs":[{"internalType":"bytes32","name":"role","type":"bytes32"},{"internalType":"address","name":"account","type":"address"}],"name":"hasRole","outputs":[{"internalType":"bool","name":"","type":"bool"}],"stateMutability":"view","type":"function"},{"inputs":[],"name":"impactProductNFT","outputs":[{"internalType":"contract IImpactProductNFT","name":"","type":"address"}],"stateMutability":"view","type":"function"},{"inputs":[],"name":"owner","outputs":[{"internalType":"address","name":"","type":"address"}],"stateMutability":"view","type":"function"},{"inputs":[],"name":"recyclablesRewardContract","outputs":[{"internalType":"address","name":"","type":"address"}],"stateMutability":"view","type":"function"},{"inputs":[{"internalType":"address","name":"","type":"address"}],"name":"referrers","outputs":[{"internalType":"address","name":"","type":"address"}],"stateMutability":"view","type":"function"},{"inputs":[{"internalType":"uint256","name":"submissionId","type":"uint256"}],"name":"rejectSubmission","outputs":[],"stateMutability":"nonpayable","type":"function"},{"inputs":[],"name":"renounceOwnership","outputs":[],"stateMutability":"nonpayable","type":"function"},{"inputs":[{"internalType":"bytes32","name":"role","type":"bytes32"},{"internalType":"address","name":"callerConfirmation","type":"address"}],"name":"renounceRole","outputs":[],"stateMutability":"nonpayable","type":"function"},{"inputs":[{"internalType":"bytes32","name":"role","type":"bytes32"},{"internalType":"address","name":"account","type":"address"}],"name":"revokeRole","outputs":[],"stateMutability":"nonpayable","type":"function"},{"inputs":[],"name":"rewardManager","outputs":[{"internalType":"contract DCURewardManager","name":"","type":"address"}],"stateMutability":"view","type":"function"},{"inputs":[{"internalType":"address","name":"_impactProductNFT","type":"address"}],"name":"setImpactProductNFT","outputs":[],"stateMutability":"nonpayable","type":"function"},{"inputs":[],"name":"submissionCount","outputs":[{"internalType":"uint256","name":"","type":"uint256"}],"stateMutability":"view","type":"function"},{"inputs":[],"name":"submissionFee","outputs":[{"internalType":"uint256","name":"","type":"uint256"}],"stateMutability":"view","type":"function"},{"inputs":[{"internalType":"uint256","name":"","type":"uint256"}],"name":"submissions","outputs":[{"internalType":"uint256","name":"id","type":"uint256"},{"internalType":"address","name":"submitter","type":"address"},{"internalType":"string","name":"dataURI","type":"string"},{"internalType":"string","name":"beforePhotoHash","type":"string"},{"internalType":"string","name":"afterPhotoHash","type":"string"},{"internalType":"string","name":"impactFormDataHash","type":"string"},{"internalType":"int256","name":"latitude","type":"int256"},{"internalType":"int256","name":"longitude","type":"int256"},{"internalType":"uint256","name":"timestamp","type":"uint256"},{"internalType":"enum Submission.SubmissionStatus","name":"status","type":"uint8"},{"internalType":"address","name":"approver","type":"address"},{"internalType":"uint256","name":"processedTimestamp","type":"uint256"},{"internalType":"bool","name":"rewarded","type":"bool"},{"internalType":"uint256","name":"feePaid","type":"uint256"},{"internalType":"bool","name":"feeRefunded","type":"bool"},{"internalType":"bool","name":"hasImpactForm","type":"bool"},{"internalType":"bool","name":"hasRecyclables","type":"bool"},{"internalType":"string","name":"recyclablesPhotoHash","type":"string"},{"internalType":"string","name":"recyclablesReceiptHash","type":"string"}],"stateMutability":"view","type":"function"},{"inputs":[{"internalType":"bytes4","name":"interfaceId","type":"bytes4"}],"name":"supportsInterface","outputs":[{"internalType":"bool","name":"","type":"bool"}],"stateMutability":"view","type":"function"},{"inputs":[],"name":"totalFeesCollected","outputs":[{"internalType":"uint256","name":"","type":"uint256"}],"stateMutability":"view","type":"function"},{"inputs":[],"name":"totalFeesRefunded","outputs":[{"internalType":"uint256","name":"","type":"uint256"}],"stateMutability":"view","type":"function"},{"inputs":[{"internalType":"address","name":"newOwner","type":"address"}],"name":"transferOwnership","outputs":[],"stateMutability":"nonpayable","type":"function"},{"inputs":[],"name":"treasury","outputs":[{"internalType":"address payable","name":"","type":"address"}],"stateMutability":"view","type":"function"},{"inputs":[{"internalType":"uint256","name":"newRewardAmount","type":"uint256"}],"name":"updateDefaultReward","outputs":[],"stateMutability":"nonpayable","type":"function"},{"inputs":[{"internalType":"address","name":"_newRecyclablesRewardContract","type":"address"}],"name":"updateRecyclablesRewardContract","outputs":[],"stateMutability":"nonpayable","type":"function"},{"inputs":[{"internalType":"uint256","name":"newFee","type":"uint256"},{"internalType":"bool","name":"enabled","type":"bool"}],"name":"updateSubmissionFee","outputs":[],"stateMutability":"nonpayable","type":"function"},{"inputs":[{"internalType":"address payable","name":"newTreasury","type":"address"}],"name":"updateTreasury","outputs":[],"stateMutability":"nonpayable","type":"function"},{"inputs":[{"internalType":"address","name":"","type":"address"}],"name":"userCleanupCount","outputs":[{"internalType":"uint256","name":"","type":"uint256"}],"stateMutability":"view","type":"function"},{"inputs":[{"internalType":"address","name":"","type":"address"}],"name":"userHypercertCount","outputs":[{"internalType":"uint256","name":"","type":"uint256"}],"stateMutability":"view","type":"function"},{"inputs":[{"internalType":"address","name":"","type":"address"}],"name":"userImpactFormCount","outputs":[{"internalType":"uint256","name":"","type":"uint256"}],"stateMutability":"view","type":"function"},{"inputs":[{"internalType":"address","name":"","type":"address"},{"internalType":"uint256","name":"","type":"uint256"}],"name":"userSubmissions","outputs":[{"internalType":"uint256","name":"","type":"uint256"}],"stateMutability":"view","type":"function"}],"evm":{"bytecode":{"linkReferences":{},"object":"60803461016057601f61327038819003918201601f19168301916001600160401b0383118484101761016557808492606094604052833981010312610160576100478161017b565b9060406100566020830161017b565b91015191331561014a5760008054336001600160a01b0319821681178355916001600160a01b03909116907f8be0079c531659141344cd1fd0a4f28419497f9722a3daafe3b4186f6b6457e09080a3600180556000600b55600c80546001600160a81b03191690556001600160a01b0316908115610139576001600160a01b03169081156101395760018060a01b0319600354161760035560018060a01b03196004541617600455600a5561010a3361018f565b506101143361020b565b506000600b55600c80546001600160a81b0319169055604051612f6c90816102a48239f35b637d575cb560e01b60005260046000fd5b631e4fbdf760e01b600052600060045260246000fd5b600080fd5b634e487b7160e01b600052604160045260246000fd5b51906001600160a01b038216820361016057565b6001600160a01b0381166000908152600080516020613230833981519152602052604090205460ff16610205576001600160a01b0316600081815260008051602061323083398151915260205260408120805460ff191660011790553391906000805160206132108339815191528180a4600190565b50600090565b6001600160a01b0381166000908152600080516020613250833981519152602052604090205460ff16610205576001600160a01b0316600081815260008051602061325083398151915260205260408120805460ff191660011790553391907fa49807205ce4d355092ef5a8a18f56e8913cf4a201fbe287825b095693c21775906000805160206132108339815191529080a460019056fe60a080604052600436101561001357600080fd5b600090813560e01c90816301ffc9a71461268e5750806303387c2114611c255780630c4f14be14611baf5780630f4ef8a614611b8857806314cde16e14611b615780632405bc0514611ac4578063248a9ca314611a8e5780632976100f14611a675780632ab2474614611a115780632d83b7ca146119125780632f2ff15d146118d1578063308636f21461189957806336568abe1461183b57806343084e06146117cb5780634a3b68cc146117915780635fb971fe1461175957806360c6d8ae1461173b57806361d027b31461171157806368250d69146116975780636ec02be914611679578063715018a61461161357806375b238fc146115d85780637f51bb1f1461150257806380fd0fb314610ef05780638d35539514610c715780638da5cb5b14610c4b57806391d1485414610bfe57806397dfe71a14610bd75780639b7e018014610b80578063a217fddf14610b64578063a771ebc714610b41578063ab2fea2b1461079f578063ad73349e146105c1578063aec47e1f14610589578063b9011523146104d4578063c14f7ea81461037b578063d547741f14610331578063e7705db6146102f6578063e8888942146102d8578063ee2f00c2146102ba578063f07bee551461029c5763f2fde38b146101ef57600080fd5b34610299576020600319360112610299576001600160a01b03610210612761565b610218612ca0565b16801561026d576001600160a01b0382548273ffffffffffffffffffffffffffffffffffffffff198216178455167f8be0079c531659141344cd1fd0a4f28419497f9722a3daafe3b4186f6b6457e08380a380f35b6024827f1e4fbdf700000000000000000000000000000000000000000000000000000000815280600452fd5b80fd5b50346102995780600319360112610299576020600e54604051908152f35b50346102995780600319360112610299576020600a54604051908152f35b50346102995780600319360112610299576020600b54604051908152f35b503461029957806003193601126102995760206040517f0ce23c3e399818cfee81a7ab0880f714e53d7672b08df0fa62f2843416e1ea098152f35b503461029957604060031936011261029957610377600435610351612777565b9061037261036d82600052600260205260016040600020015490565b612dc6565b612ea7565b5080f35b503461029957602060031936011261029957600435610398612c65565b6103a0612d54565b6009548110156104c2578082526007602052604082206009810160ff81541660038110156104ae5760028114610482576001146104565780547fffffffffffffffffffffff000000000000000000000000000000000000000000163360081b74ffffffffffffffffffffffffffffffffffffffff0016176002179055600a42910155604051904282527f6c80f4bc335d4e2ff9e4918a1ef598d85408309aa4afd04b01708afced9d77ac60203393a36001805580f35b602484847f58fb3f90000000000000000000000000000000000000000000000000000000008252600452fd5b602485857f65d95826000000000000000000000000000000000000000000000000000000008252600452fd5b602485634e487b7160e01b81526021600452fd5b63a503ddf560e01b8252600452602490fd5b5034610299576020600319360112610299576001600160a01b036104f6612761565b168152600860205260408120604051908160208254918281520190819285526020852090855b81811061057357505050826105329103836129c9565b604051928392602084019060208552518091526040840192915b81811061055a575050500390f35b825184528594506020938401939092019160010161054c565b825484526020909301926001928301920161051c565b50346102995760206003193601126102995760406020916001600160a01b036105b0612761565b168152601183522054604051908152f35b503461029957602060031936011261029957600435815260076020526040902080549060018101546001600160a01b03168160028101610600906129ec565b9161060d600383016129ec565b9261061a600484016129ec565b93610627600585016129ec565b946006850154956007860154600887015491600988015493600a89015495600b8a015460ff1697600c8b015499600d8c01549b600e01610666906129ec565b9d600f01610673906129ec565b9e60405160805260805152608051602001526080516040016102609052608051610260016106a09161278d565b6080518103608051606001526106b59161278d565b6080518103608051608001526106ca9161278d565b608051810360805160a001526106df9161278d565b9760805160c0015260805160e0015260805161010001526080516101200160ff82169061070b916127ce565b60081c6001600160a01b031660805161014001526080516101600152151560805161018001526080516101a0015260ff811615156080516101c001528060081c60ff1615156080516101e0015260101c60ff16151560805161020001526080518103608051610220015261077e9161278d565b9060805182036080516102400152608051916107999161278d565b03608051f35b50346102995760606003193601126102995760043560243567ffffffffffffffff8111610b3d576107d490369060040161272e565b9060443567ffffffffffffffff8111610b39576107f590369060040161272e565b610800939193612c65565b600954851015610b26578486526007602052604086206001600160a01b036001820154163303610afa5760ff6009820154166003811015610ae657610ad3578215610aab57600d8101620100007fffffffffffffffffffffffffffffffffffffffffffffffffffffffffff00ffff825416179055600e81019067ffffffffffffffff8411610a975761089c84610896845461295c565b84612b06565b879184601f8111600114610a2e57806108cc91600f958c91610a23575b506000198260011b9260031b1c19161790565b90555b0167ffffffffffffffff8211610a0f576108f3826108ed835461295c565b83612b06565b86601f831160011461098557916109709161094682807fc7043680eafc77ed218a061a2d658bbdef182aca2eee182674275223f57f544f9897968c9161097a57506000198260011b9260031b1c19161790565b90555b610960604051948594604086526040860191612b67565b9083820360208501523396612b67565b0390a36001805580f35b9050890135386108b9565b8188526020882090601f198416895b8181106109f75750916109709391857fc7043680eafc77ed218a061a2d658bbdef182aca2eee182674275223f57f544f98979694106109dd575b5050600182811b019055610949565b60001960f88560031b161c199089013516905538806109ce565b9192602060018192868c013581550194019201610994565b602487634e487b7160e01b81526041600452fd5b9050880135386108b9565b601f191692818a5260208a2090868b955b808710610a7957600f965010610a5f575b5050600185811b0190556108cf565b60001960f88860031b161c19908801351690553880610a50565b89830135845560209687019660019094019390920191889150610a3f565b602488634e487b7160e01b81526041600452fd5b6004877f6395ca9d000000000000000000000000000000000000000000000000000000008152fd5b6024878763a503ddf560e01b8252600452fd5b602488634e487b7160e01b81526021600452fd5b6024877fd328842a00000000000000000000000000000000000000000000000000000000815233600452fd5b6024868663a503ddf560e01b8252600452fd5b8480fd5b8280fd5b5034610299578060031936011261029957602060ff600c54166040519015158152f35b5034610299578060031936011261029957602090604051908152f35b503461029957604060031936011261029957610b9a612761565b6001600160a01b0316815260086020526040812080546024359290831015610299576020610bc8848461292e565b90549060031b1c604051908152f35b503461029957806003193601126102995760206001600160a01b0360065416604051908152f35b5034610299576040600319360112610299576001600160a01b036040610c22612777565b9260043581526002602052209116600052602052602060ff604060002054166040519015158152f35b50346102995780600319360112610299576001600160a01b036020915416604051908152f35b503461029957604060031936011261029957600435610c9260243582612a90565b600954808211610ee8575b50818103908111610ed457610cb181612c39565b91610cbf60405193846129c9565b818352601f19610cce83612c39565b01845b818110610ebd575050835b828110610d665783856040519182916020830160208452825180915260408401602060408360051b870101940192905b828210610d1b57505050500390f35b91936020610d56827fffffffffffffffffffffffffffffffffffffffffffffffffffffffffffffffc0600195979984950301865288516127f1565b9601920192018594939192610d0c565b80610d7360019284612a90565b8652600760205260408620610e9b600f60405192610d9084612996565b805484526001600160a01b0386820154166020850152610db2600282016129ec565b6040850152610dc3600382016129ec565b6060850152610dd4600482016129ec565b6080850152610de5600582016129ec565b60a0850152600681015460c0850152600781015460e085015260088101546101008501526001600160a01b036009820154610e2760ff82166101208801612afa565b60081c16610140850152600a81015461016085015260ff600b820154161515610180850152600c8101546101a085015260ff600d82015481811615156101c0870152818160081c1615156101e087015260101c161515610200850152610e8f600e82016129ec565b610220850152016129ec565b610240820152610eab8287612c51565b52610eb68186612c51565b5001610cdc565b602090610ec8612b88565b82828801015201610cd1565b602483634e487b7160e01b81526011600452fd5b905038610c9d565b503461029957602060031936011261029957600435610f0d612c65565b610f15612d54565b6009548110156104c257808252600760205260408220906009820160ff81541660038110156104ae57600181146114d6576002146114aa5780547fffffffffffffffffffffff000000000000000000000000000000000000000000163360081b74ffffffffffffffffffffffffffffffffffffffff001617600117905542600a83015560018201916001600160a01b038354168452601160205260408420610fbd8154612b58565b9055600b810160ff8154161561137f575b50836001600160a01b0360045416803b1561137b578180916024604051809481937fe9ecfef30000000000000000000000000000000000000000000000000000000083523360048401525af1611366575b5050600d0160ff815460081c1680611347575b6112c4575b5460101c60ff16806112b0575b611224575b826001600160a01b0360055416806111c1575b5050604051904282527f7b002445698eb657f0fbae44aa606b44c52031b120c29714c5047dbaad754e7e60203393a36001600160a01b036005541690816110a6575b826001805580f35b602460606001600160a01b0383541693604051928380927f4ca4b2d30000000000000000000000000000000000000000000000000000000082528760048301525afa84918161118d575b506110fc575b5061109e565b8015159081611181575b50611112575b806110f6565b6001600160a01b039183526012602052604083206111308154612b58565b9055541680825260116020527f24ba76eb50c413d72b5a9eca944e9d229b146a9f0267e9bfa960a3bd29cf7efd60408084205483855260126020528185205482519182526020820152a2388061110c565b600a9150061538611106565b6111b091925060603d6060116111ba575b6111a881836129c9565b810190612c1e565b91505090386110f0565b503d61119e565b6001600160a01b03845416813b15610b3d5782916024839260405194859384927ef5f42100000000000000000000000000000000000000000000000000000000845260048401525af11561105c5781611219916129c9565b610b3d57823861105c565b826001600160a01b03600654166001600160a01b0384541690803b15610b3d576040517f3c9cbcfb0000000000000000000000000000000000000000000000000000000081526001600160a01b039290921660048301526024820184905282908290604490829084905af161129b575b5050611049565b816112a5916129c9565b610b3d578238611294565b506001600160a01b03600654161515611044565b836001600160a01b03600454166001600160a01b03855416813b15610b3d5782916044839260405194859384927f76e174830000000000000000000000000000000000000000000000000000000084526004840152600160248401525af161132e575b5050611037565b81611338916129c9565b611343578338611327565b8380fd5b506001600160a01b038354168452601060205260408420541515611032565b81611370916129c9565b61134357833861101f565b5080fd5b6001600160a01b0360045416856001600160a01b0386541691600a5490803b15610b3d576040517fa8031a1d0000000000000000000000000000000000000000000000000000000081526001600160a01b0394909416600485015260248401919091528290604490829084905af19081611496575b5061144257506001600160a01b038354167ff40faa7df7ca2f9cf7f989dd9777817f80396577be8b64cda11d602cce8100636060604051878152856020820152426040820152a25b38610fce565b600160ff198254161790556001600160a01b038354167ff40faa7df7ca2f9cf7f989dd9777817f80396577be8b64cda11d602cce8100636060600a54604051908152856020820152426040820152a261143c565b866114a3919792976129c9565b94386113f4565b602484837f65d95826000000000000000000000000000000000000000000000000000000008252600452fd5b602485847f58fb3f90000000000000000000000000000000000000000000000000000000008252600452fd5b5034610299576020600319360112610299576004356001600160a01b03811690818103610b3d57611531612ca0565b81156115b0576001600160a01b039074ffffffffffffffffffffffffffffffffffffffff00600c549160081b167fffffffffffffffffffffff0000000000000000000000000000000000000000ff821617600c5560081c167f4ab5be82436d353e61ca18726e984e561f5c1cc7c6d38b29d2553c790434705a8380a380f35b6004837f7d575cb5000000000000000000000000000000000000000000000000000000008152fd5b503461029957806003193601126102995760206040517fa49807205ce4d355092ef5a8a18f56e8913cf4a201fbe287825b095693c217758152f35b503461029957806003193601126102995761162c612ca0565b806001600160a01b03815473ffffffffffffffffffffffffffffffffffffffff1981168355167f8be0079c531659141344cd1fd0a4f28419497f9722a3daafe3b4186f6b6457e08280a380f35b50346102995780600319360112610299576020600954604051908152f35b5034610299576020600319360112610299576001600160a01b036116b9612761565b6116c1612ca0565b1680156116e95773ffffffffffffffffffffffffffffffffffffffff19600554161760055580f35b6004827f7d575cb5000000000000000000000000000000000000000000000000000000008152fd5b503461029957806003193601126102995760206001600160a01b03600c5460081c16604051908152f35b50346102995780600319360112610299576020600d54604051908152f35b50346102995760206003193601126102995760406020916001600160a01b03611780612761565b168152601283522054604051908152f35b5034610299576020600319360112610299576001600160a01b036040602092826117b9612761565b168152600f8452205416604051908152f35b503461029957604060031936011261029957600435602435801515809103610b3d577fdb61f5e56fdf79532bafa01b931004c38b120f7e0725a0687f3ebdc25906f0ed9160409161181a612ce2565b81600b5560ff19600c541660ff821617600c5582519182526020820152a180f35b503461029957604060031936011261029957611855612777565b336001600160a01b038216036118715761037790600435612ea7565b6004827f6697b232000000000000000000000000000000000000000000000000000000008152fd5b50346102995760206003193601126102995760406020916001600160a01b036118c0612761565b168152601083522054604051908152f35b5034610299576040600319360112610299576103776004356118f1612777565b9061190d61036d82600052600260205260016040600020015490565b612e0d565b5034610299576020600319360112610299576001600160a01b03611934612761565b16808252601160205260408220549080835260126020526040832054906001600160a01b0360055416908115600014611982575050606092905b604051928352602083015215156040820152f35b6060906024604051809481937f4ca4b2d300000000000000000000000000000000000000000000000000000000835260048301525afa908115611a0657606094916119e6575b5080151590816119da575b509061196e565b600a91500615386119d3565b6119fd9150843d86116111ba576111a881836129c9565b915050386119c8565b6040513d86823e3d90fd5b5034610299576020600319360112610299577f0b7bb4837902f88944384dbc0de70767a2428717aa96b1a96daecc9104f3e2266040600435611a51612ce2565b600a549080600a5582519182526020820152a180f35b503461029957806003193601126102995760206001600160a01b0360055416604051908152f35b5034610299576020600319360112610299576020611abc600435600052600260205260016040600020015490565b604051908152f35b50346102995760206003193601126102995760043590611ae2612b88565b50600954821015611b4f5780611b4b9260409252600760205220611b31600f60405192611b0e84612996565b805484526001600160a01b036001820154166020850152610db2600282016129ec565b6102408201526040519182916020835260208301906127f1565b0390f35b60249163a503ddf560e01b8252600452fd5b503461029957806003193601126102995760206001600160a01b0360035416604051908152f35b503461029957806003193601126102995760206001600160a01b0360045416604051908152f35b503461029957602060031936011261029957611bc9612761565b611bd1612ca0565b6001600160a01b03806006549216918273ffffffffffffffffffffffffffffffffffffffff19821617600655167fe94e25a88d0bfa0f703904da6d10bc693ea8c76df40c874233847126c789856e8380a380f35b5060e06003193601126102995760043567ffffffffffffffff811161137b57611c5290369060040161272e565b60249291923567ffffffffffffffff8111610b3d57611c7590369060040161272e565b93909260443567ffffffffffffffff811161137b57611c9890369060040161272e565b60643567ffffffffffffffff811161134357611cb890369060040161272e565b9260c435926001600160a01b03841680940361268a57611cd6612c65565b871561266257891561266257801561266257859360ff600c5416612610575b338752600860205260408720541580612607575b806125fd575b61258e575b50600954986040519a611d268c612996565b8a8c523360208d0152611d3a368b8b612ab3565b60408d01523690611d4a92612ab3565b60608b01523690611d5a92612ab3565b6080890152823690611d6b92612ab3565b60a088015260843560c088015260a43560e088015242610100880152826101208801528261014088015282610160880152826101808801526101a0870152816101c08701528015156101e087015281610200870152602095604051611dd088826129c9565b838152610220820152604051611de688826129c9565b83815261024082015285835260078752604083208151815560208201516001600160a01b031660018201906001600160a01b0316815473ffffffffffffffffffffffffffffffffffffffff1916179055604082015180519067ffffffffffffffff821161243057611e6782611e5e600286015461295c565b60028601612b06565b8990601f831160011461252057611e9592918791836122c5575b50506000198260011b9260031b1c19161790565b60028201555b606082015180519067ffffffffffffffff821161243057611ecc82611ec3600386015461295c565b60038601612b06565b8990601f83116001146124b257611ef992918791836122c55750506000198260011b9260031b1c19161790565b60038201555b608082015180519067ffffffffffffffff821161243057611f3082611f27600486015461295c565b60048601612b06565b8990601f831160011461244457611f5d92918791836122c55750506000198260011b9260031b1c19161790565b60048201555b60a082015180519067ffffffffffffffff821161243057611f9482611f8b600586015461295c565b60058601612b06565b8990601f83116001146123c757611fc192918791836122c55750506000198260011b9260031b1c19161790565b60058201555b60c0820151600682015560e0820151600782015561010082015160088201556009810161012083015160038110156123b357815461014085015174ffffffffffffffffffffffffffffffffffffffff0060089190911b1660ff929092167fffffffffffffffffffffff00000000000000000000000000000000000000000090911617179055610160820151600a8201556120786101808301511515600b83019060ff60ff1983541691151516179055565b6101a0820151600c820155600d81016120a56101c08401511515829060ff60ff1983541691151516179055565b6101e083015181546102008501517fffffffffffffffffffffffffffffffffffffffffffffffffffffffffff0000ff90911691151560081b61ff00169190911790151560101b62ff0000161790556102208201518051600e83019167ffffffffffffffff8211610a0f576121238261211d855461295c565b85612b06565b8a90601f831160011461234757826102409593600f9593612158938b926122c55750506000198260011b9260031b1c19161790565b90555b0191015180519067ffffffffffffffff82116123335761217f8261211d855461295c565b8890601f83116001146122d0576121ac92918691836122c55750506000198260011b9260031b1c19161790565b90555b3382526008865260408220805490680100000000000000008210156122b1579261224092612206837ff66fd76672f8fef666c4603364fc2e0e7cc9bd03a572c0d16567de8fb55562f39660018b999601815561292e565b81549060031b9060001989831b921b1916179055612225600954612b58565b600955612258575b5060405194604086526040860191612b67565b9242868201528033940390a360018055604051908152f35b6040903381526010895281812061226f8154612b58565b905533815260108952205460405190858252888201527f26828d31a8b8cd76aecca73c081c5726b58fcf32a4cb2a3ff9e86576adf25b2360403392a23861222d565b602484634e487b7160e01b81526041600452fd5b015190503880611e81565b8386528986209190601f198416875b8c82821061231d575050908460019594939210612304575b505050811b0190556121af565b015160001960f88460031b161c191690553880806122f7565b60018596829396860151815501950193016122df565b602485634e487b7160e01b81526041600452fd5b8388528b88209190601f198416898e5b82821061239b5750509260019285926102409896600f989610612382575b505050811b01905561215b565b015160001960f88460031b161c19169055388080612375565b80600186978294978701518155019601940190612357565b602486634e487b7160e01b81526021600452fd5b6005840187528a87209190601f198416885b8d82821061241a575050908460019594939210612401575b505050811b016005820155611fc7565b015160001960f88460031b161c191690553880806123f1565b60018596829396860151815501950193016123d9565b602486634e487b7160e01b81526041600452fd5b91906004840187528a87209087935b8c601f198516861061249957506001945083601f19811610612480575b505050811b016004820155611f63565b015160001960f88460031b161c19169055388080612470565b8282015184559485019460019093019290910190612453565b91906003840187528a87209087935b8c601f198516861061250757506001945083601f198116106124ee575b505050811b016003820155611eff565b015160001960f88460031b161c191690553880806124de565b82820151845594850194600190930192909101906124c1565b91906002840187528a87209087935b8c601f198516861061257557506001945083601f1981161061255c575b505050811b016002820155611e9b565b015160001960f88460031b161c1916905538808061254c565b828201518455948501946001909301929091019061252f565b338752600f6020526001600160a01b03604088205416611d1457338752600f602052604087208173ffffffffffffffffffffffffffffffffffffffff1982541617905533907f5f1ca2fcc108b751843a763e60d2201f593516109d7dbb1b700468f2d4190bb78880a338611d14565b5033811415611d0f565b50801515611d09565b9350600b548034106126335750349361262b34600d54612a90565b600d55611cf5565b7fd233f6cb00000000000000000000000000000000000000000000000000000000875234600452602452604486fd5b6004867f6395ca9d000000000000000000000000000000000000000000000000000000008152fd5b8580fd5b90503461137b57602060031936011261137b576004357fffffffff000000000000000000000000000000000000000000000000000000008116809103610b3d57602092507f7965db0b000000000000000000000000000000000000000000000000000000008114908115612704575b5015158152f35b7f01ffc9a700000000000000000000000000000000000000000000000000000000915014386126fd565b9181601f8401121561275c5782359167ffffffffffffffff831161275c576020838186019501011161275c57565b600080fd5b600435906001600160a01b038216820361275c57565b602435906001600160a01b038216820361275c57565b919082519283825260005b8481106127b9575050601f19601f8460006020809697860101520116010190565b80602080928401015182828601015201612798565b9060038210156127db5752565b634e487b7160e01b600052602160045260246000fd5b61292b91815181526001600160a01b03602083015116602082015261024061291961286c61285a6128486128366040880151610260604089015261026088019061278d565b6060880151878203606089015261278d565b6080870151868203608088015261278d565b60a086015185820360a087015261278d565b60c085015160c085015260e085015160e08501526101008501516101008501526128a06101208601516101208601906127ce565b6001600160a01b036101408601511661014085015261016085015161016085015261018085015115156101808501526101a08501516101a08501526101c085015115156101c08501526101e085015115156101e0850152610200850151151561020085015261022085015184820361022086015261278d565b9201519061024081840391015261278d565b90565b80548210156129465760005260206000200190600090565b634e487b7160e01b600052603260045260246000fd5b90600182811c9216801561298c575b602083101461297657565b634e487b7160e01b600052602260045260246000fd5b91607f169161296b565b610260810190811067ffffffffffffffff8211176129b357604052565b634e487b7160e01b600052604160045260246000fd5b90601f601f19910116810190811067ffffffffffffffff8211176129b357604052565b9060405191826000825492612a008461295c565b8084529360018116908115612a6e5750600114612a27575b50612a25925003836129c9565b565b90506000929192526020600020906000915b818310612a52575050906020612a259282010138612a18565b6020919350806001915483858901015201910190918492612a39565b60209350612a2595925060ff1991501682840152151560051b82010138612a18565b91908201809211612a9d57565b634e487b7160e01b600052601160045260246000fd5b92919267ffffffffffffffff82116129b35760405191612add601f8201601f1916602001846129c9565b82948184528183011161275c578281602093846000960137010152565b60038210156127db5752565b601f8211612b1357505050565b6000526020600020906020601f840160051c83019310612b4e575b601f0160051c01905b818110612b42575050565b60008155600101612b37565b9091508190612b2e565b6000198114612a9d5760010190565b601f8260209493601f19938186528686013760008582860101520116010190565b60405190612b9582612996565b606061024083600081526000602082015282604082015282808201528260808201528260a0820152600060c0820152600060e08201526000610100820152600061012082015260006101408201526000610160820152600061018082015260006101a082015260006101c082015260006101e08201526000610200820152826102208201520152565b9081606091031261275c578051916040602083015192015190565b67ffffffffffffffff81116129b35760051b60200190565b80518210156129465760209160051b010190565b600260015414612c76576002600155565b7f3ee5aeb50000000000000000000000000000000000000000000000000000000060005260046000fd5b6001600160a01b03600054163303612cb457565b7f118cdaa7000000000000000000000000000000000000000000000000000000006000523360045260246000fd5b3360009081527fe5ebfa64fca8d502a8e50c1edffd2c31ef4dad5b396e65d9f397fb028f74abc5602052604090205460ff1615612d1b57565b63e2517d3f60e01b600052336004527fa49807205ce4d355092ef5a8a18f56e8913cf4a201fbe287825b095693c2177560245260446000fd5b3360009081527fdc6246a27a928d53414cf0bbe2bfde021e1ac737a6e0bcf9b182cda5a9b2dcf7602052604090205460ff1615612d8d57565b63e2517d3f60e01b600052336004527f0ce23c3e399818cfee81a7ab0880f714e53d7672b08df0fa62f2843416e1ea0960245260446000fd5b80600052600260205260406000206001600160a01b03331660005260205260ff6040600020541615612df55750565b63e2517d3f60e01b6000523360045260245260446000fd5b80600052600260205260406000206001600160a01b03831660005260205260ff6040600020541615600014612ea05780600052600260205260406000206001600160a01b0383166000526020526040600020600160ff198254161790556001600160a01b03339216907f2f8788117e7eff1d82e926ec794901d17c78024a50270940304540a733656f0d600080a4600190565b5050600090565b80600052600260205260406000206001600160a01b03831660005260205260ff60406000205416600014612ea05780600052600260205260406000206001600160a01b038316600052602052604060002060ff1981541690556001600160a01b03339216907ff6391f5c32d9c69d2a47ea670b442974b53935d1edc7fd64eb21e047a839171b600080a460019056fea2646970667358221220d366384118a0e2a2d8bf9cb98c6ce75c8751fcdd7640367b91dec7f6a9b163a164736f6c634300081c00332f8788117e7eff1d82e926ec794901d17c78024a50270940304540a733656f0dac33ff75c19e70fe83507db0d683fd3465c996598dc972688b7ace676c89077be5ebfa64fca8d502a8e50c1edffd2c31ef4dad5b396e65d9f397fb028f74abc5","opcodes":"PUSH1 0x80 CALLVALUE PUSH2 0x160 JUMPI PUSH1 0x1F PUSH2 0x3270 CODESIZE DUP2 SWAP1 SUB SWAP2 DUP3 ADD PUSH1 0x1F NOT AND DUP4 ADD SWAP2 PUSH1 0x1 PUSH1 0x1 PUSH1 0x40 SHL SUB DUP4 GT DUP5 DUP5 LT OR PUSH2 0x165 JUMPI DUP1 DUP5 SWAP3 PUSH1 0x60 SWAP5 PUSH1 0x40 MSTORE DUP4 CODECOPY DUP2 ADD SUB SLT PUSH2 0x160 JUMPI PUSH2 0x47 DUP2 PUSH2 0x17B JUMP JUMPDEST SWAP1 PUSH1 0x40 PUSH2 0x56 PUSH1 0x20 DUP4 ADD PUSH2 0x17B JUMP JUMPDEST SWAP2 ADD MLOAD SWAP2 CALLER ISZERO PUSH2 0x14A JUMPI PUSH1 0x0 DUP1 SLOAD CALLER PUSH1 0x1 PUSH1 0x1 PUSH1 0xA0 SHL SUB NOT DUP3 AND DUP2 OR DUP4 SSTORE SWAP2 PUSH1 0x1 PUSH1 0x1 PUSH1 0xA0 SHL SUB SWAP1 SWAP2 AND SWAP1 PUSH32 0x8BE0079C531659141344CD1FD0A4F28419497F9722A3DAAFE3B4186F6B6457E0 SWAP1 DUP1 LOG3 PUSH1 0x1 DUP1 SSTORE PUSH1 0x0 PUSH1 0xB SSTORE PUSH1 0xC DUP1 SLOAD PUSH1 0x1 PUSH1 0x1 PUSH1 0xA8 SHL SUB NOT AND SWAP1 SSTORE PUSH1 0x1 PUSH1 0x1 PUSH1 0xA0 SHL SUB AND SWAP1 DUP2 ISZERO PUSH2 0x139 JUMPI PUSH1 0x1 PUSH1 0x1 PUSH1 0xA0 SHL SUB AND SWAP1 DUP2 ISZERO PUSH2 0x139 JUMPI PUSH1 0x1 DUP1 PUSH1 0xA0 SHL SUB NOT PUSH1 0x3 SLOAD AND OR PUSH1 0x3 SSTORE PUSH1 0x1 DUP1 PUSH1 0xA0 SHL SUB NOT PUSH1 0x4 SLOAD AND OR PUSH1 0x4 SSTORE PUSH1 0xA SSTORE PUSH2 0x10A CALLER PUSH2 0x18F JUMP JUMPDEST POP PUSH2 0x114 CALLER PUSH2 0x20B JUMP JUMPDEST POP PUSH1 0x0 PUSH1 0xB SSTORE PUSH1 0xC DUP1 SLOAD PUSH1 0x1 PUSH1 0x1 PUSH1 0xA8 SHL SUB NOT AND SWAP1 SSTORE PUSH1 0x40 MLOAD PUSH2 0x2F6C SWAP1 DUP2 PUSH2 0x2A4 DUP3 CODECOPY RETURN JUMPDEST PUSH4 0x7D575CB5 PUSH1 0xE0 SHL PUSH1 0x0 MSTORE PUSH1 0x4 PUSH1 0x0 REVERT JUMPDEST PUSH4 0x1E4FBDF7 PUSH1 0xE0 SHL PUSH1 0x0 MSTORE PUSH1 0x0 PUSH1 0x4 MSTORE PUSH1 0x24 PUSH1 0x0 REVERT JUMPDEST PUSH1 0x0 DUP1 REVERT JUMPDEST PUSH4 0x4E487B71 PUSH1 0xE0 SHL PUSH1 0x0 MSTORE PUSH1 0x41 PUSH1 0x4 MSTORE PUSH1 0x24 PUSH1 0x0 REVERT JUMPDEST MLOAD SWAP1 PUSH1 0x1 PUSH1 0x1 PUSH1 0xA0 SHL SUB DUP3 AND DUP3 SUB PUSH2 0x160 JUMPI JUMP JUMPDEST PUSH1 0x1 PUSH1 0x1 PUSH1 0xA0 SHL SUB DUP2 AND PUSH1 0x0 SWAP1 DUP2 MSTORE PUSH1 0x0 DUP1 MLOAD PUSH1 0x20 PUSH2 0x3230 DUP4 CODECOPY DUP2 MLOAD SWAP2 MSTORE PUSH1 0x20 MSTORE PUSH1 0x40 SWAP1 KECCAK256 SLOAD PUSH1 0xFF AND PUSH2 0x205 JUMPI PUSH1 0x1 PUSH1 0x1 PUSH1 0xA0 SHL SUB AND PUSH1 0x0 DUP2 DUP2 MSTORE PUSH1 0x0 DUP1 MLOAD PUSH1 0x20 PUSH2 0x3230 DUP4 CODECOPY DUP2 MLOAD SWAP2 MSTORE PUSH1 0x20 MSTORE PUSH1 0x40 DUP2 KECCAK256 DUP1 SLOAD PUSH1 0xFF NOT AND PUSH1 0x1 OR SWAP1 SSTORE CALLER SWAP2 SWAP1 PUSH1 0x0 DUP1 MLOAD PUSH1 0x20 PUSH2 0x3210 DUP4 CODECOPY DUP2 MLOAD SWAP2 MSTORE DUP2 DUP1 LOG4 PUSH1 0x1 SWAP1 JUMP JUMPDEST POP PUSH1 0x0 SWAP1 JUMP JUMPDEST PUSH1 0x1 PUSH1 0x1 PUSH1 0xA0 SHL SUB DUP2 AND PUSH1 0x0 SWAP1 DUP2 MSTORE PUSH1 0x0 DUP1 MLOAD PUSH1 0x20 PUSH2 0x3250 DUP4 CODECOPY DUP2 MLOAD SWAP2 MSTORE PUSH1 0x20 MSTORE PUSH1 0x40 SWAP1 KECCAK256 SLOAD PUSH1 0xFF AND PUSH2 0x205 JUMPI PUSH1 0x1 PUSH1 0x1 PUSH1 0xA0 SHL SUB AND PUSH1 0x0 DUP2 DUP2 MSTORE PUSH1 0x0 DUP1 MLOAD PUSH1 0x20 PUSH2 0x3250 DUP4 CODECOPY DUP2 MLOAD SWAP2 MSTORE PUSH1 0x20 MSTORE PUSH1 0x40 DUP2 KECCAK256 DUP1 SLOAD PUSH1 0xFF NOT AND PUSH1 0x1 OR SWAP1 SSTORE CALLER SWAP2 SWAP1 PUSH32 0xA49807205CE4D355092EF5A8A18F56E8913CF4A201FBE287825B095693C21775 SWAP1 PUSH1 0x0 DUP1 MLOAD PUSH1 0x20 PUSH2 0x3210 DUP4 CODECOPY DUP2 MLOAD SWAP2 MSTORE SWAP1 DUP1 LOG4 PUSH1 0x1 SWAP1 JUMP INVALID PUSH1 0xA0 DUP1 PUSH1 0x40 MSTORE PUSH1 0x4 CALLDATASIZE LT ISZERO PUSH2 0x13 JUMPI PUSH1 0x0 DUP1 REVERT JUMPDEST PUSH1 0x0 SWAP1 DUP2 CALLDATALOAD PUSH1 0xE0 SHR SWAP1 DUP2 PUSH4 0x1FFC9A7 EQ PUSH2 0x268E JUMPI POP DUP1 PUSH4 0x3387C21 EQ PUSH2 0x1C25 JUMPI DUP1 PUSH4 0xC4F14BE EQ PUSH2 0x1BAF JUMPI DUP1 PUSH4 0xF4EF8A6 EQ PUSH2 0x1B88 JUMPI DUP1 PUSH4 0x14CDE16E EQ PUSH2 0x1B61 JUMPI DUP1 PUSH4 0x2405BC05 EQ PUSH2 0x1AC4 JUMPI DUP1 PUSH4 0x248A9CA3 EQ PUSH2 0x1A8E JUMPI DUP1 PUSH4 0x2976100F EQ PUSH2 0x1A67 JUMPI DUP1 PUSH4 0x2AB24746 EQ PUSH2 0x1A11 JUMPI DUP1 PUSH4 0x2D83B7CA EQ PUSH2 0x1912 JUMPI DUP1 PUSH4 0x2F2FF15D EQ PUSH2 0x18D1 JUMPI DUP1 PUSH4 0x308636F2 EQ PUSH2 0x1899 JUMPI DUP1 PUSH4 0x36568ABE EQ PUSH2 0x183B JUMPI DUP1 PUSH4 0x43084E06 EQ PUSH2 0x17CB JUMPI DUP1 PUSH4 0x4A3B68CC EQ PUSH2 0x1791 JUMPI DUP1 PUSH4 0x5FB971FE EQ PUSH2 0x1759 JUMPI DUP1 PUSH4 0x60C6D8AE EQ PUSH2 0x173B JUMPI DUP1 PUSH4 0x61D027B3 EQ PUSH2 0x1711 JUMPI DUP1 PUSH4 0x68250D69 EQ PUSH2 0x1697 JUMPI DUP1 PUSH4 0x6EC02BE9 EQ PUSH2 0x1679 JUMPI DUP1 PUSH4 0x715018A6 EQ PUSH2 0x1613 JUMPI DUP1 PUSH4 0x75B238FC EQ PUSH2 0x15D8 JUMPI DUP1 PUSH4 0x7F51BB1F EQ PUSH2 0x1502 JUMPI DUP1 PUSH4 0x80FD0FB3 EQ PUSH2 0xEF0 JUMPI DUP1 PUSH4 0x8D355395 EQ PUSH2 0xC71 JUMPI DUP1 PUSH4 0x8DA5CB5B EQ PUSH2 0xC4B JUMPI DUP1 PUSH4 0x91D14854 EQ PUSH2 0xBFE JUMPI DUP1 PUSH4 0x97DFE71A EQ PUSH2 0xBD7 JUMPI DUP1 PUSH4 0x9B7E0180 EQ PUSH2 0xB80 JUMPI DUP1 PUSH4 0xA217FDDF EQ PUSH2 0xB64 JUMPI DUP1 PUSH4 0xA771EBC7 EQ PUSH2 0xB41 JUMPI DUP1 PUSH4 0xAB2FEA2B EQ PUSH2 0x79F JUMPI DUP1 PUSH4 0xAD73349E EQ PUSH2 0x5C1 JUMPI DUP1 PUSH4 0xAEC47E1F EQ PUSH2 0x589 JUMPI DUP1 PUSH4 0xB9011523 EQ PUSH2 0x4D4 JUMPI DUP1 PUSH4 0xC14F7EA8 EQ PUSH2 0x37B JUMPI DUP1 PUSH4 0xD547741F EQ PUSH2 0x331 JUMPI DUP1 PUSH4 0xE7705DB6 EQ PUSH2 0x2F6 JUMPI DUP1 PUSH4 0xE8888942 EQ PUSH2 0x2D8 JUMPI DUP1 PUSH4 0xEE2F00C2 EQ PUSH2 0x2BA JUMPI DUP1 PUSH4 0xF07BEE55 EQ PUSH2 0x29C JUMPI PUSH4 0xF2FDE38B EQ PUSH2 0x1EF JUMPI PUSH1 0x0 DUP1 REVERT JUMPDEST CALLVALUE PUSH2 0x299 JUMPI PUSH1 0x20 PUSH1 0x3 NOT CALLDATASIZE ADD SLT PUSH2 0x299 JUMPI PUSH1 0x1 PUSH1 0x1 PUSH1 0xA0 SHL SUB PUSH2 0x210 PUSH2 0x2761 JUMP JUMPDEST PUSH2 0x218 PUSH2 0x2CA0 JUMP JUMPDEST AND DUP1 ISZERO PUSH2 0x26D JUMPI PUSH1 0x1 PUSH1 0x1 PUSH1 0xA0 SHL SUB DUP3 SLOAD DUP3 PUSH20 0xFFFFFFFFFFFFFFFFFFFFFFFFFFFFFFFFFFFFFFFF NOT DUP3 AND OR DUP5 SSTORE AND PUSH32 0x8BE0079C531659141344CD1FD0A4F28419497F9722A3DAAFE3B4186F6B6457E0 DUP4 DUP1 LOG3 DUP1 RETURN JUMPDEST PUSH1 0x24 DUP3 PUSH32 0x1E4FBDF700000000000000000000000000000000000000000000000000000000 DUP2 MSTORE DUP1 PUSH1 0x4 MSTORE REVERT JUMPDEST DUP1 REVERT JUMPDEST POP CALLVALUE PUSH2 0x299 JUMPI DUP1 PUSH1 0x3 NOT CALLDATASIZE ADD SLT PUSH2 0x299 JUMPI PUSH1 0x20 PUSH1 0xE SLOAD PUSH1 0x40 MLOAD SWAP1 DUP2 MSTORE RETURN JUMPDEST POP CALLVALUE PUSH2 0x299 JUMPI DUP1 PUSH1 0x3 NOT CALLDATASIZE ADD SLT PUSH2 0x299 JUMPI PUSH1 0x20 PUSH1 0xA SLOAD PUSH1 0x40 MLOAD SWAP1 DUP2 MSTORE RETURN JUMPDEST POP CALLVALUE PUSH2 0x299 JUMPI DUP1 PUSH1 0x3 NOT CALLDATASIZE ADD SLT PUSH2 0x299 JUMPI PUSH1 0x20 PUSH1 0xB SLOAD PUSH1 0x40 MLOAD SWAP1 DUP2 MSTORE RETURN JUMPDEST POP CALLVALUE PUSH2 0x299 JUMPI DUP1 PUSH1 0x3 NOT CALLDATASIZE ADD SLT PUSH2 0x299 JUMPI PUSH1 0x20 PUSH1 0x40 MLOAD PUSH32 0xCE23C3E399818CFEE81A7AB0880F714E53D7672B08DF0FA62F2843416E1EA09 DUP2 MSTORE RETURN JUMPDEST POP CALLVALUE PUSH2 0x299 JUMPI PUSH1 0x40 PUSH1 0x3 NOT CALLDATASIZE ADD SLT PUSH2 0x299 JUMPI PUSH2 0x377 PUSH1 0x4 CALLDATALOAD PUSH2 0x351 PUSH2 0x2777 JUMP JUMPDEST SWAP1 PUSH2 0x372 PUSH2 0x36D DUP3 PUSH1 0x0 MSTORE PUSH1 0x2 PUSH1 0x20 MSTORE PUSH1 0x1 PUSH1 0x40 PUSH1 0x0 KECCAK256 ADD SLOAD SWAP1 JUMP JUMPDEST PUSH2 0x2DC6 JUMP JUMPDEST PUSH2 0x2EA7 JUMP JUMPDEST POP DUP1 RETURN JUMPDEST POP CALLVALUE PUSH2 0x299 JUMPI PUSH1 0x20 PUSH1 0x3 NOT CALLDATASIZE ADD SLT PUSH2 0x299 JUMPI PUSH1 0x4 CALLDATALOAD PUSH2 0x398 PUSH2 0x2C65 JUMP JUMPDEST PUSH2 0x3A0 PUSH2 0x2D54 JUMP JUMPDEST PUSH1 0x9 SLOAD DUP2 LT ISZERO PUSH2 0x4C2 JUMPI DUP1 DUP3 MSTORE PUSH1 0x7 PUSH1 0x20 MSTORE PUSH1 0x40 DUP3 KECCAK256 PUSH1 0x9 DUP2 ADD PUSH1 0xFF DUP2 SLOAD AND PUSH1 0x3 DUP2 LT ISZERO PUSH2 0x4AE JUMPI PUSH1 0x2 DUP2 EQ PUSH2 0x482 JUMPI PUSH1 0x1 EQ PUSH2 0x456 JUMPI DUP1 SLOAD PUSH32 0xFFFFFFFFFFFFFFFFFFFFFF000000000000000000000000000000000000000000 AND CALLER PUSH1 0x8 SHL PUSH21 0xFFFFFFFFFFFFFFFFFFFFFFFFFFFFFFFFFFFFFFFF00 AND OR PUSH1 0x2 OR SWAP1 SSTORE PUSH1 0xA TIMESTAMP SWAP2 ADD SSTORE PUSH1 0x40 MLOAD SWAP1 TIMESTAMP DUP3 MSTORE PUSH32 0x6C80F4BC335D4E2FF9E4918A1EF598D85408309AA4AFD04B01708AFCED9D77AC PUSH1 0x20 CALLER SWAP4 LOG3 PUSH1 0x1 DUP1 SSTORE DUP1 RETURN JUMPDEST PUSH1 0x24 DUP5 DUP5 PUSH32 0x58FB3F9000000000000000000000000000000000000000000000000000000000 DUP3 MSTORE PUSH1 0x4 MSTORE REVERT JUMPDEST PUSH1 0x24 DUP6 DUP6 PUSH32 0x65D9582600000000000000000000000000000000000000000000000000000000 DUP3 MSTORE PUSH1 0x4 MSTORE REVERT JUMPDEST PUSH1 0x24 DUP6 PUSH4 0x4E487B71 PUSH1 0xE0 SHL DUP2 MSTORE PUSH1 0x21 PUSH1 0x4 MSTORE REVERT JUMPDEST PUSH4 0xA503DDF5 PUSH1 0xE0 SHL DUP3 MSTORE PUSH1 0x4 MSTORE PUSH1 0x24 SWAP1 REVERT JUMPDEST POP CALLVALUE PUSH2 0x299 JUMPI PUSH1 0x20 PUSH1 0x3 NOT CALLDATASIZE ADD SLT PUSH2 0x299 JUMPI PUSH1 0x1 PUSH1 0x1 PUSH1 0xA0 SHL SUB PUSH2 0x4F6 PUSH2 0x2761 JUMP JUMPDEST AND DUP2 MSTORE PUSH1 0x8 PUSH1 0x20 MSTORE PUSH1 0x40 DUP2 KECCAK256 PUSH1 0x40 MLOAD SWAP1 DUP2 PUSH1 0x20 DUP3 SLOAD SWAP2 DUP3 DUP2 MSTORE ADD SWAP1 DUP2 SWAP3 DUP6 MSTORE PUSH1 0x20 DUP6 KECCAK256 SWAP1 DUP6 JUMPDEST DUP2 DUP2 LT PUSH2 0x573 JUMPI POP POP POP DUP3 PUSH2 0x532 SWAP2 SUB DUP4 PUSH2 0x29C9 JUMP JUMPDEST PUSH1 0x40 MLOAD SWAP3 DUP4 SWAP3 PUSH1 0x20 DUP5 ADD SWAP1 PUSH1 0x20 DUP6 MSTORE MLOAD DUP1 SWAP2 MSTORE PUSH1 0x40 DUP5 ADD SWAP3 SWAP2 JUMPDEST DUP2 DUP2 LT PUSH2 0x55A JUMPI POP POP POP SUB SWAP1 RETURN JUMPDEST DUP3 MLOAD DUP5 MSTORE DUP6 SWAP5 POP PUSH1 0x20 SWAP4 DUP5 ADD SWAP4 SWAP1 SWAP3 ADD SWAP2 PUSH1 0x1 ADD PUSH2 0x54C JUMP JUMPDEST DUP3 SLOAD DUP5 MSTORE PUSH1 0x20 SWAP1 SWAP4 ADD SWAP3 PUSH1 0x1 SWAP3 DUP4 ADD SWAP3 ADD PUSH2 0x51C JUMP JUMPDEST POP CALLVALUE PUSH2 0x299 JUMPI PUSH1 0x20 PUSH1 0x3 NOT CALLDATASIZE ADD SLT PUSH2 0x299 JUMPI PUSH1 0x40 PUSH1 0x20 SWAP2 PUSH1 0x1 PUSH1 0x1 PUSH1 0xA0 SHL SUB PUSH2 0x5B0 PUSH2 0x2761 JUMP JUMPDEST AND DUP2 MSTORE PUSH1 0x11 DUP4 MSTORE KECCAK256 SLOAD PUSH1 0x40 MLOAD SWAP1 DUP2 MSTORE RETURN JUMPDEST POP CALLVALUE PUSH2 0x299 JUMPI PUSH1 0x20 PUSH1 0x3 NOT CALLDATASIZE ADD SLT PUSH2 0x299 JUMPI PUSH1 0x4 CALLDATALOAD DUP2 MSTORE PUSH1 0x7 PUSH1 0x20 MSTORE PUSH1 0x40 SWAP1 KECCAK256 DUP1 SLOAD SWAP1 PUSH1 0x1 DUP2 ADD SLOAD PUSH1 0x1 PUSH1 0x1 PUSH1 0xA0 SHL SUB AND DUP2 PUSH1 0x2 DUP2 ADD PUSH2 0x600 SWAP1 PUSH2 0x29EC JUMP JUMPDEST SWAP2 PUSH2 0x60D PUSH1 0x3 DUP4 ADD PUSH2 0x29EC JUMP JUMPDEST SWAP3 PUSH2 0x61A PUSH1 0x4 DUP5 ADD PUSH2 0x29EC JUMP JUMPDEST SWAP4 PUSH2 0x627 PUSH1 0x5 DUP6 ADD PUSH2 0x29EC JUMP JUMPDEST SWAP5 PUSH1 0x6 DUP6 ADD SLOAD SWAP6 PUSH1 0x7 DUP7 ADD SLOAD PUSH1 0x8 DUP8 ADD SLOAD SWAP2 PUSH1 0x9 DUP9 ADD SLOAD SWAP4 PUSH1 0xA DUP10 ADD SLOAD SWAP6 PUSH1 0xB DUP11 ADD SLOAD PUSH1 0xFF AND SWAP8 PUSH1 0xC DUP12 ADD SLOAD SWAP10 PUSH1 0xD DUP13 ADD SLOAD SWAP12 PUSH1 0xE ADD PUSH2 0x666 SWAP1 PUSH2 0x29EC JUMP JUMPDEST SWAP14 PUSH1 0xF ADD PUSH2 0x673 SWAP1 PUSH2 0x29EC JUMP JUMPDEST SWAP15 PUSH1 0x40 MLOAD PUSH1 0x80 MSTORE PUSH1 0x80 MLOAD MSTORE PUSH1 0x80 MLOAD PUSH1 0x20 ADD MSTORE PUSH1 0x80 MLOAD PUSH1 0x40 ADD PUSH2 0x260 SWAP1 MSTORE PUSH1 0x80 MLOAD PUSH2 0x260 ADD PUSH2 0x6A0 SWAP2 PUSH2 0x278D JUMP JUMPDEST PUSH1 0x80 MLOAD DUP2 SUB PUSH1 0x80 MLOAD PUSH1 0x60 ADD MSTORE PUSH2 0x6B5 SWAP2 PUSH2 0x278D JUMP JUMPDEST PUSH1 0x80 MLOAD DUP2 SUB PUSH1 0x80 MLOAD PUSH1 0x80 ADD MSTORE PUSH2 0x6CA SWAP2 PUSH2 0x278D JUMP JUMPDEST PUSH1 0x80 MLOAD DUP2 SUB PUSH1 0x80 MLOAD PUSH1 0xA0 ADD MSTORE PUSH2 0x6DF SWAP2 PUSH2 0x278D JUMP JUMPDEST SWAP8 PUSH1 0x80 MLOAD PUSH1 0xC0 ADD MSTORE PUSH1 0x80 MLOAD PUSH1 0xE0 ADD MSTORE PUSH1 0x80 MLOAD PUSH2 0x100 ADD MSTORE PUSH1 0x80 MLOAD PUSH2 0x120 ADD PUSH1 0xFF DUP3 AND SWAP1 PUSH2 0x70B SWAP2 PUSH2 0x27CE JUMP JUMPDEST PUSH1 0x8 SHR PUSH1 0x1 PUSH1 0x1 PUSH1 0xA0 SHL SUB AND PUSH1 0x80 MLOAD PUSH2 0x140 ADD MSTORE PUSH1 0x80 MLOAD PUSH2 0x160 ADD MSTORE ISZERO ISZERO PUSH1 0x80 MLOAD PUSH2 0x180 ADD MSTORE PUSH1 0x80 MLOAD PUSH2 0x1A0 ADD MSTORE PUSH1 0xFF DUP2 AND ISZERO ISZERO PUSH1 0x80 MLOAD PUSH2 0x1C0 ADD MSTORE DUP1 PUSH1 0x8 SHR PUSH1 0xFF AND ISZERO ISZERO PUSH1 0x80 MLOAD PUSH2 0x1E0 ADD MSTORE PUSH1 0x10 SHR PUSH1 0xFF AND ISZERO ISZERO PUSH1 0x80 MLOAD PUSH2 0x200 ADD MSTORE PUSH1 0x80 MLOAD DUP2 SUB PUSH1 0x80 MLOAD PUSH2 0x220 ADD MSTORE PUSH2 0x77E SWAP2 PUSH2 0x278D JUMP JUMPDEST SWAP1 PUSH1 0x80 MLOAD DUP3 SUB PUSH1 0x80 MLOAD PUSH2 0x240 ADD MSTORE PUSH1 0x80 MLOAD SWAP2 PUSH2 0x799 SWAP2 PUSH2 0x278D JUMP JUMPDEST SUB PUSH1 0x80 MLOAD RETURN JUMPDEST POP CALLVALUE PUSH2 0x299 JUMPI PUSH1 0x60 PUSH1 0x3 NOT CALLDATASIZE ADD SLT PUSH2 0x299 JUMPI PUSH1 0x4 CALLDATALOAD PUSH1 0x24 CALLDATALOAD PUSH8 0xFFFFFFFFFFFFFFFF DUP2 GT PUSH2 0xB3D JUMPI PUSH2 0x7D4 SWAP1 CALLDATASIZE SWAP1 PUSH1 0x4 ADD PUSH2 0x272E JUMP JUMPDEST SWAP1 PUSH1 0x44 CALLDATALOAD PUSH8 0xFFFFFFFFFFFFFFFF DUP2 GT PUSH2 0xB39 JUMPI PUSH2 0x7F5 SWAP1 CALLDATASIZE SWAP1 PUSH1 0x4 ADD PUSH2 0x272E JUMP JUMPDEST PUSH2 0x800 SWAP4 SWAP2 SWAP4 PUSH2 0x2C65 JUMP JUMPDEST PUSH1 0x9 SLOAD DUP6 LT ISZERO PUSH2 0xB26 JUMPI DUP5 DUP7 MSTORE PUSH1 0x7 PUSH1 0x20 MSTORE PUSH1 0x40 DUP7 KECCAK256 PUSH1 0x1 PUSH1 0x1 PUSH1 0xA0 SHL SUB PUSH1 0x1 DUP3 ADD SLOAD AND CALLER SUB PUSH2 0xAFA JUMPI PUSH1 0xFF PUSH1 0x9 DUP3 ADD SLOAD AND PUSH1 0x3 DUP2 LT ISZERO PUSH2 0xAE6 JUMPI PUSH2 0xAD3 JUMPI DUP3 ISZERO PUSH2 0xAAB JUMPI PUSH1 0xD DUP2 ADD PUSH3 0x10000 PUSH32 0xFFFFFFFFFFFFFFFFFFFFFFFFFFFFFFFFFFFFFFFFFFFFFFFFFFFFFFFFFF00FFFF DUP3 SLOAD AND OR SWAP1 SSTORE PUSH1 0xE DUP2 ADD SWAP1 PUSH8 0xFFFFFFFFFFFFFFFF DUP5 GT PUSH2 0xA97 JUMPI PUSH2 0x89C DUP5 PUSH2 0x896 DUP5 SLOAD PUSH2 0x295C JUMP JUMPDEST DUP5 PUSH2 0x2B06 JUMP JUMPDEST DUP8 SWAP2 DUP5 PUSH1 0x1F DUP2 GT PUSH1 0x1 EQ PUSH2 0xA2E JUMPI DUP1 PUSH2 0x8CC SWAP2 PUSH1 0xF SWAP6 DUP13 SWAP2 PUSH2 0xA23 JUMPI JUMPDEST POP PUSH1 0x0 NOT DUP3 PUSH1 0x1 SHL SWAP3 PUSH1 0x3 SHL SHR NOT AND OR SWAP1 JUMP JUMPDEST SWAP1 SSTORE JUMPDEST ADD PUSH8 0xFFFFFFFFFFFFFFFF DUP3 GT PUSH2 0xA0F JUMPI PUSH2 0x8F3 DUP3 PUSH2 0x8ED DUP4 SLOAD PUSH2 0x295C JUMP JUMPDEST DUP4 PUSH2 0x2B06 JUMP JUMPDEST DUP7 PUSH1 0x1F DUP4 GT PUSH1 0x1 EQ PUSH2 0x985 JUMPI SWAP2 PUSH2 0x970 SWAP2 PUSH2 0x946 DUP3 DUP1 PUSH32 0xC7043680EAFC77ED218A061A2D658BBDEF182ACA2EEE182674275223F57F544F SWAP9 SWAP8 SWAP7 DUP13 SWAP2 PUSH2 0x97A JUMPI POP PUSH1 0x0 NOT DUP3 PUSH1 0x1 SHL SWAP3 PUSH1 0x3 SHL SHR NOT AND OR SWAP1 JUMP JUMPDEST SWAP1 SSTORE JUMPDEST PUSH2 0x960 PUSH1 0x40 MLOAD SWAP5 DUP6 SWAP5 PUSH1 0x40 DUP7 MSTORE PUSH1 0x40 DUP7 ADD SWAP2 PUSH2 0x2B67 JUMP JUMPDEST SWAP1 DUP4 DUP3 SUB PUSH1 0x20 DUP6 ADD MSTORE CALLER SWAP7 PUSH2 0x2B67 JUMP JUMPDEST SUB SWAP1 LOG3 PUSH1 0x1 DUP1 SSTORE DUP1 RETURN JUMPDEST SWAP1 POP DUP10 ADD CALLDATALOAD CODESIZE PUSH2 0x8B9 JUMP JUMPDEST DUP2 DUP9 MSTORE PUSH1 0x20 DUP9 KECCAK256 SWAP1 PUSH1 0x1F NOT DUP5 AND DUP10 JUMPDEST DUP2 DUP2 LT PUSH2 0x9F7 JUMPI POP SWAP2 PUSH2 0x970 SWAP4 SWAP2 DUP6 PUSH32 0xC7043680EAFC77ED218A061A2D658BBDEF182ACA2EEE182674275223F57F544F SWAP9 SWAP8 SWAP7 SWAP5 LT PUSH2 0x9DD JUMPI JUMPDEST POP POP PUSH1 0x1 DUP3 DUP2 SHL ADD SWAP1 SSTORE PUSH2 0x949 JUMP JUMPDEST PUSH1 0x0 NOT PUSH1 0xF8 DUP6 PUSH1 0x3 SHL AND SHR NOT SWAP1 DUP10 ADD CALLDATALOAD AND SWAP1 SSTORE CODESIZE DUP1 PUSH2 0x9CE JUMP JUMPDEST SWAP2 SWAP3 PUSH1 0x20 PUSH1 0x1 DUP2 SWAP3 DUP7 DUP13 ADD CALLDATALOAD DUP2 SSTORE ADD SWAP5 ADD SWAP3 ADD PUSH2 0x994 JUMP JUMPDEST PUSH1 0x24 DUP8 PUSH4 0x4E487B71 PUSH1 0xE0 SHL DUP2 MSTORE PUSH1 0x41 PUSH1 0x4 MSTORE REVERT JUMPDEST SWAP1 POP DUP9 ADD CALLDATALOAD CODESIZE PUSH2 0x8B9 JUMP JUMPDEST PUSH1 0x1F NOT AND SWAP3 DUP2 DUP11 MSTORE PUSH1 0x20 DUP11 KECCAK256 SWAP1 DUP7 DUP12 SWAP6 JUMPDEST DUP1 DUP8 LT PUSH2 0xA79 JUMPI PUSH1 0xF SWAP7 POP LT PUSH2 0xA5F JUMPI JUMPDEST POP POP PUSH1 0x1 DUP6 DUP2 SHL ADD SWAP1 SSTORE PUSH2 0x8CF JUMP JUMPDEST PUSH1 0x0 NOT PUSH1 0xF8 DUP9 PUSH1 0x3 SHL AND SHR NOT SWAP1 DUP9 ADD CALLDATALOAD AND SWAP1 SSTORE CODESIZE DUP1 PUSH2 0xA50 JUMP JUMPDEST DUP10 DUP4 ADD CALLDATALOAD DUP5 SSTORE PUSH1 0x20 SWAP7 DUP8 ADD SWAP7 PUSH1 0x1 SWAP1 SWAP5 ADD SWAP4 SWAP1 SWAP3 ADD SWAP2 DUP9 SWAP2 POP PUSH2 0xA3F JUMP JUMPDEST PUSH1 0x24 DUP9 PUSH4 0x4E487B71 PUSH1 0xE0 SHL DUP2 MSTORE PUSH1 0x41 PUSH1 0x4 MSTORE REVERT JUMPDEST PUSH1 0x4 DUP8 PUSH32 0x6395CA9D00000000000000000000000000000000000000000000000000000000 DUP2 MSTORE REVERT JUMPDEST PUSH1 0x24 DUP8 DUP8 PUSH4 0xA503DDF5 PUSH1 0xE0 SHL DUP3 MSTORE PUSH1 0x4 MSTORE REVERT JUMPDEST PUSH1 0x24 DUP9 PUSH4 0x4E487B71 PUSH1 0xE0 SHL DUP2 MSTORE PUSH1 0x21 PUSH1 0x4 MSTORE REVERT JUMPDEST PUSH1 0x24 DUP8 PUSH32 0xD328842A00000000000000000000000000000000000000000000000000000000 DUP2 MSTORE CALLER PUSH1 0x4 MSTORE REVERT JUMPDEST PUSH1 0x24 DUP7 DUP7 PUSH4 0xA503DDF5 PUSH1 0xE0 SHL DUP3 MSTORE PUSH1 0x4 MSTORE REVERT JUMPDEST DUP5 DUP1 REVERT JUMPDEST DUP3 DUP1 REVERT JUMPDEST POP CALLVALUE PUSH2 0x299 JUMPI DUP1 PUSH1 0x3 NOT CALLDATASIZE ADD SLT PUSH2 0x299 JUMPI PUSH1 0x20 PUSH1 0xFF PUSH1 0xC SLOAD AND PUSH1 0x40 MLOAD SWAP1 ISZERO ISZERO DUP2 MSTORE RETURN JUMPDEST POP CALLVALUE PUSH2 0x299 JUMPI DUP1 PUSH1 0x3 NOT CALLDATASIZE ADD SLT PUSH2 0x299 JUMPI PUSH1 0x20 SWAP1 PUSH1 0x40 MLOAD SWAP1 DUP2 MSTORE RETURN JUMPDEST POP CALLVALUE PUSH2 0x299 JUMPI PUSH1 0x40 PUSH1 0x3 NOT CALLDATASIZE ADD SLT PUSH2 0x299 JUMPI PUSH2 0xB9A PUSH2 0x2761 JUMP JUMPDEST PUSH1 0x1 PUSH1 0x1 PUSH1 0xA0 SHL SUB AND DUP2 MSTORE PUSH1 0x8 PUSH1 0x20 MSTORE PUSH1 0x40 DUP2 KECCAK256 DUP1 SLOAD PUSH1 0x24 CALLDATALOAD SWAP3 SWAP1 DUP4 LT ISZERO PUSH2 0x299 JUMPI PUSH1 0x20 PUSH2 0xBC8 DUP5 DUP5 PUSH2 0x292E JUMP JUMPDEST SWAP1 SLOAD SWAP1 PUSH1 0x3 SHL SHR PUSH1 0x40 MLOAD SWAP1 DUP2 MSTORE RETURN JUMPDEST POP CALLVALUE PUSH2 0x299 JUMPI DUP1 PUSH1 0x3 NOT CALLDATASIZE ADD SLT PUSH2 0x299 JUMPI PUSH1 0x20 PUSH1 0x1 PUSH1 0x1 PUSH1 0xA0 SHL SUB PUSH1 0x6 SLOAD AND PUSH1 0x40 MLOAD SWAP1 DUP2 MSTORE RETURN JUMPDEST POP CALLVALUE PUSH2 0x299 JUMPI PUSH1 0x40 PUSH1 0x3 NOT CALLDATASIZE ADD SLT PUSH2 0x299 JUMPI PUSH1 0x1 PUSH1 0x1 PUSH1 0xA0 SHL SUB PUSH1 0x40 PUSH2 0xC22 PUSH2 0x2777 JUMP JUMPDEST SWAP3 PUSH1 0x4 CALLDATALOAD DUP2 MSTORE PUSH1 0x2 PUSH1 0x20 MSTORE KECCAK256 SWAP2 AND PUSH1 0x0 MSTORE PUSH1 0x20 MSTORE PUSH1 0x20 PUSH1 0xFF PUSH1 0x40 PUSH1 0x0 KECCAK256 SLOAD AND PUSH1 0x40 MLOAD SWAP1 ISZERO ISZERO DUP2 MSTORE RETURN JUMPDEST POP CALLVALUE PUSH2 0x299 JUMPI DUP1 PUSH1 0x3 NOT CALLDATASIZE ADD SLT PUSH2 0x299 JUMPI PUSH1 0x1 PUSH1 0x1 PUSH1 0xA0 SHL SUB PUSH1 0x20 SWAP2 SLOAD AND PUSH1 0x40 MLOAD SWAP1 DUP2 MSTORE RETURN JUMPDEST POP CALLVALUE PUSH2 0x299 JUMPI PUSH1 0x40 PUSH1 0x3 NOT CALLDATASIZE ADD SLT PUSH2 0x299 JUMPI PUSH1 0x4 CALLDATALOAD PUSH2 0xC92 PUSH1 0x24 CALLDATALOAD DUP3 PUSH2 0x2A90 JUMP JUMPDEST PUSH1 0x9 SLOAD DUP1 DUP3 GT PUSH2 0xEE8 JUMPI JUMPDEST POP DUP2 DUP2 SUB SWAP1 DUP2 GT PUSH2 0xED4 JUMPI PUSH2 0xCB1 DUP2 PUSH2 0x2C39 JUMP JUMPDEST SWAP2 PUSH2 0xCBF PUSH1 0x40 MLOAD SWAP4 DUP5 PUSH2 0x29C9 JUMP JUMPDEST DUP2 DUP4 MSTORE PUSH1 0x1F NOT PUSH2 0xCCE DUP4 PUSH2 0x2C39 JUMP JUMPDEST ADD DUP5 JUMPDEST DUP2 DUP2 LT PUSH2 0xEBD JUMPI POP POP DUP4 JUMPDEST DUP3 DUP2 LT PUSH2 0xD66 JUMPI DUP4 DUP6 PUSH1 0x40 MLOAD SWAP2 DUP3 SWAP2 PUSH1 0x20 DUP4 ADD PUSH1 0x20 DUP5 MSTORE DUP3 MLOAD DUP1 SWAP2 MSTORE PUSH1 0x40 DUP5 ADD PUSH1 0x20 PUSH1 0x40 DUP4 PUSH1 0x5 SHL DUP8 ADD ADD SWAP5 ADD SWAP3 SWAP1 JUMPDEST DUP3 DUP3 LT PUSH2 0xD1B JUMPI POP POP POP POP SUB SWAP1 RETURN JUMPDEST SWAP2 SWAP4 PUSH1 0x20 PUSH2 0xD56 DUP3 PUSH32 0xFFFFFFFFFFFFFFFFFFFFFFFFFFFFFFFFFFFFFFFFFFFFFFFFFFFFFFFFFFFFFFC0 PUSH1 0x1 SWAP6 SWAP8 SWAP10 DUP5 SWAP6 SUB ADD DUP7 MSTORE DUP9 MLOAD PUSH2 0x27F1 JUMP JUMPDEST SWAP7 ADD SWAP3 ADD SWAP3 ADD DUP6 SWAP5 SWAP4 SWAP2 SWAP3 PUSH2 0xD0C JUMP JUMPDEST DUP1 PUSH2 0xD73 PUSH1 0x1 SWAP3 DUP5 PUSH2 0x2A90 JUMP JUMPDEST DUP7 MSTORE PUSH1 0x7 PUSH1 0x20 MSTORE PUSH1 0x40 DUP7 KECCAK256 PUSH2 0xE9B PUSH1 0xF PUSH1 0x40 MLOAD SWAP3 PUSH2 0xD90 DUP5 PUSH2 0x2996 JUMP JUMPDEST DUP1 SLOAD DUP5 MSTORE PUSH1 0x1 PUSH1 0x1 PUSH1 0xA0 SHL SUB DUP7 DUP3 ADD SLOAD AND PUSH1 0x20 DUP6 ADD MSTORE PUSH2 0xDB2 PUSH1 0x2 DUP3 ADD PUSH2 0x29EC JUMP JUMPDEST PUSH1 0x40 DUP6 ADD MSTORE PUSH2 0xDC3 PUSH1 0x3 DUP3 ADD PUSH2 0x29EC JUMP JUMPDEST PUSH1 0x60 DUP6 ADD MSTORE PUSH2 0xDD4 PUSH1 0x4 DUP3 ADD PUSH2 0x29EC JUMP JUMPDEST PUSH1 0x80 DUP6 ADD MSTORE PUSH2 0xDE5 PUSH1 0x5 DUP3 ADD PUSH2 0x29EC JUMP JUMPDEST PUSH1 0xA0 DUP6 ADD MSTORE PUSH1 0x6 DUP2 ADD SLOAD PUSH1 0xC0 DUP6 ADD MSTORE PUSH1 0x7 DUP2 ADD SLOAD PUSH1 0xE0 DUP6 ADD MSTORE PUSH1 0x8 DUP2 ADD SLOAD PUSH2 0x100 DUP6 ADD MSTORE PUSH1 0x1 PUSH1 0x1 PUSH1 0xA0 SHL SUB PUSH1 0x9 DUP3 ADD SLOAD PUSH2 0xE27 PUSH1 0xFF DUP3 AND PUSH2 0x120 DUP9 ADD PUSH2 0x2AFA JUMP JUMPDEST PUSH1 0x8 SHR AND PUSH2 0x140 DUP6 ADD MSTORE PUSH1 0xA DUP2 ADD SLOAD PUSH2 0x160 DUP6 ADD MSTORE PUSH1 0xFF PUSH1 0xB DUP3 ADD SLOAD AND ISZERO ISZERO PUSH2 0x180 DUP6 ADD MSTORE PUSH1 0xC DUP2 ADD SLOAD PUSH2 0x1A0 DUP6 ADD MSTORE PUSH1 0xFF PUSH1 0xD DUP3 ADD SLOAD DUP2 DUP2 AND ISZERO ISZERO PUSH2 0x1C0 DUP8 ADD MSTORE DUP2 DUP2 PUSH1 0x8 SHR AND ISZERO ISZERO PUSH2 0x1E0 DUP8 ADD MSTORE PUSH1 0x10 SHR AND ISZERO ISZERO PUSH2 0x200 DUP6 ADD MSTORE PUSH2 0xE8F PUSH1 0xE DUP3 ADD PUSH2 0x29EC JUMP JUMPDEST PUSH2 0x220 DUP6 ADD MSTORE ADD PUSH2 0x29EC JUMP JUMPDEST PUSH2 0x240 DUP3 ADD MSTORE PUSH2 0xEAB DUP3 DUP8 PUSH2 0x2C51 JUMP JUMPDEST MSTORE PUSH2 0xEB6 DUP2 DUP7 PUSH2 0x2C51 JUMP JUMPDEST POP ADD PUSH2 0xCDC JUMP JUMPDEST PUSH1 0x20 SWAP1 PUSH2 0xEC8 PUSH2 0x2B88 JUMP JUMPDEST DUP3 DUP3 DUP9 ADD ADD MSTORE ADD PUSH2 0xCD1 JUMP JUMPDEST PUSH1 0x24 DUP4 PUSH4 0x4E487B71 PUSH1 0xE0 SHL DUP2 MSTORE PUSH1 0x11 PUSH1 0x4 MSTORE REVERT JUMPDEST SWAP1 POP CODESIZE PUSH2 0xC9D JUMP JUMPDEST POP CALLVALUE PUSH2 0x299 JUMPI PUSH1 0x20 PUSH1 0x3 NOT CALLDATASIZE ADD SLT PUSH2 0x299 JUMPI PUSH1 0x4 CALLDATALOAD PUSH2 0xF0D PUSH2 0x2C65 JUMP JUMPDEST PUSH2 0xF15 PUSH2 0x2D54 JUMP JUMPDEST PUSH1 0x9 SLOAD DUP2 LT ISZERO PUSH2 0x4C2 JUMPI DUP1 DUP3 MSTORE PUSH1 0x7 PUSH1 0x20 MSTORE PUSH1 0x40 DUP3 KECCAK256 SWAP1 PUSH1 0x9 DUP3 ADD PUSH1 0xFF DUP2 SLOAD AND PUSH1 0x3 DUP2 LT ISZERO PUSH2 0x4AE JUMPI PUSH1 0x1 DUP2 EQ PUSH2 0x14D6 JUMPI PUSH1 0x2 EQ PUSH2 0x14AA JUMPI DUP1 SLOAD PUSH32 0xFFFFFFFFFFFFFFFFFFFFFF000000000000000000000000000000000000000000 AND CALLER PUSH1 0x8 SHL PUSH21 0xFFFFFFFFFFFFFFFFFFFFFFFFFFFFFFFFFFFFFFFF00 AND OR PUSH1 0x1 OR SWAP1 SSTORE TIMESTAMP PUSH1 0xA DUP4 ADD SSTORE PUSH1 0x1 DUP3 ADD SWAP2 PUSH1 0x1 PUSH1 0x1 PUSH1 0xA0 SHL SUB DUP4 SLOAD AND DUP5 MSTORE PUSH1 0x11 PUSH1 0x20 MSTORE PUSH1 0x40 DUP5 KECCAK256 PUSH2 0xFBD DUP2 SLOAD PUSH2 0x2B58 JUMP JUMPDEST SWAP1 SSTORE PUSH1 0xB DUP2 ADD PUSH1 0xFF DUP2 SLOAD AND ISZERO PUSH2 0x137F JUMPI JUMPDEST POP DUP4 PUSH1 0x1 PUSH1 0x1 PUSH1 0xA0 SHL SUB PUSH1 0x4 SLOAD AND DUP1 EXTCODESIZE ISZERO PUSH2 0x137B JUMPI DUP2 DUP1 SWAP2 PUSH1 0x24 PUSH1 0x40 MLOAD DUP1 SWAP5 DUP2 SWAP4 PUSH32 0xE9ECFEF300000000000000000000000000000000000000000000000000000000 DUP4 MSTORE CALLER PUSH1 0x4 DUP5 ADD MSTORE GAS CALL PUSH2 0x1366 JUMPI JUMPDEST POP POP PUSH1 0xD ADD PUSH1 0xFF DUP2 SLOAD PUSH1 0x8 SHR AND DUP1 PUSH2 0x1347 JUMPI JUMPDEST PUSH2 0x12C4 JUMPI JUMPDEST SLOAD PUSH1 0x10 SHR PUSH1 0xFF AND DUP1 PUSH2 0x12B0 JUMPI JUMPDEST PUSH2 0x1224 JUMPI JUMPDEST DUP3 PUSH1 0x1 PUSH1 0x1 PUSH1 0xA0 SHL SUB PUSH1 0x5 SLOAD AND DUP1 PUSH2 0x11C1 JUMPI JUMPDEST POP POP PUSH1 0x40 MLOAD SWAP1 TIMESTAMP DUP3 MSTORE PUSH32 0x7B002445698EB657F0FBAE44AA606B44C52031B120C29714C5047DBAAD754E7E PUSH1 0x20 CALLER SWAP4 LOG3 PUSH1 0x1 PUSH1 0x1 PUSH1 0xA0 SHL SUB PUSH1 0x5 SLOAD AND SWAP1 DUP2 PUSH2 0x10A6 JUMPI JUMPDEST DUP3 PUSH1 0x1 DUP1 SSTORE DUP1 RETURN JUMPDEST PUSH1 0x24 PUSH1 0x60 PUSH1 0x1 PUSH1 0x1 PUSH1 0xA0 SHL SUB DUP4 SLOAD AND SWAP4 PUSH1 0x40 MLOAD SWAP3 DUP4 DUP1 SWAP3 PUSH32 0x4CA4B2D300000000000000000000000000000000000000000000000000000000 DUP3 MSTORE DUP8 PUSH1 0x4 DUP4 ADD MSTORE GAS STATICCALL DUP5 SWAP2 DUP2 PUSH2 0x118D JUMPI JUMPDEST POP PUSH2 0x10FC JUMPI JUMPDEST POP PUSH2 0x109E JUMP JUMPDEST DUP1 ISZERO ISZERO SWAP1 DUP2 PUSH2 0x1181 JUMPI JUMPDEST POP PUSH2 0x1112 JUMPI JUMPDEST DUP1 PUSH2 0x10F6 JUMP JUMPDEST PUSH1 0x1 PUSH1 0x1 PUSH1 0xA0 SHL SUB SWAP2 DUP4 MSTORE PUSH1 0x12 PUSH1 0x20 MSTORE PUSH1 0x40 DUP4 KECCAK256 PUSH2 0x1130 DUP2 SLOAD PUSH2 0x2B58 JUMP JUMPDEST SWAP1 SSTORE SLOAD AND DUP1 DUP3 MSTORE PUSH1 0x11 PUSH1 0x20 MSTORE PUSH32 0x24BA76EB50C413D72B5A9ECA944E9D229B146A9F0267E9BFA960A3BD29CF7EFD PUSH1 0x40 DUP1 DUP5 KECCAK256 SLOAD DUP4 DUP6 MSTORE PUSH1 0x12 PUSH1 0x20 MSTORE DUP2 DUP6 KECCAK256 SLOAD DUP3 MLOAD SWAP2 DUP3 MSTORE PUSH1 0x20 DUP3 ADD MSTORE LOG2 CODESIZE DUP1 PUSH2 0x110C JUMP JUMPDEST PUSH1 0xA SWAP2 POP MOD ISZERO CODESIZE PUSH2 0x1106 JUMP JUMPDEST PUSH2 0x11B0 SWAP2 SWAP3 POP PUSH1 0x60 RETURNDATASIZE PUSH1 0x60 GT PUSH2 0x11BA JUMPI JUMPDEST PUSH2 0x11A8 DUP2 DUP4 PUSH2 0x29C9 JUMP JUMPDEST DUP2 ADD SWAP1 PUSH2 0x2C1E JUMP JUMPDEST SWAP2 POP POP SWAP1 CODESIZE PUSH2 0x10F0 JUMP JUMPDEST POP RETURNDATASIZE PUSH2 0x119E JUMP JUMPDEST PUSH1 0x1 PUSH1 0x1 PUSH1 0xA0 SHL SUB DUP5 SLOAD AND DUP2 EXTCODESIZE ISZERO PUSH2 0xB3D JUMPI DUP3 SWAP2 PUSH1 0x24 DUP4 SWAP3 PUSH1 0x40 MLOAD SWAP5 DUP6 SWAP4 DUP5 SWAP3 PUSH31 0xF5F42100000000000000000000000000000000000000000000000000000000 DUP5 MSTORE PUSH1 0x4 DUP5 ADD MSTORE GAS CALL ISZERO PUSH2 0x105C JUMPI DUP2 PUSH2 0x1219 SWAP2 PUSH2 0x29C9 JUMP JUMPDEST PUSH2 0xB3D JUMPI DUP3 CODESIZE PUSH2 0x105C JUMP JUMPDEST DUP3 PUSH1 0x1 PUSH1 0x1 PUSH1 0xA0 SHL SUB PUSH1 0x6 SLOAD AND PUSH1 0x1 PUSH1 0x1 PUSH1 0xA0 SHL SUB DUP5 SLOAD AND SWAP1 DUP1 EXTCODESIZE ISZERO PUSH2 0xB3D JUMPI PUSH1 0x40 MLOAD PUSH32 0x3C9CBCFB00000000000000000000000000000000000000000000000000000000 DUP2 MSTORE PUSH1 0x1 PUSH1 0x1 PUSH1 0xA0 SHL SUB SWAP3 SWAP1 SWAP3 AND PUSH1 0x4 DUP4 ADD MSTORE PUSH1 0x24 DUP3 ADD DUP5 SWAP1 MSTORE DUP3 SWAP1 DUP3 SWAP1 PUSH1 0x44 SWAP1 DUP3 SWAP1 DUP5 SWAP1 GAS CALL PUSH2 0x129B JUMPI JUMPDEST POP POP PUSH2 0x1049 JUMP JUMPDEST DUP2 PUSH2 0x12A5 SWAP2 PUSH2 0x29C9 JUMP JUMPDEST PUSH2 0xB3D JUMPI DUP3 CODESIZE PUSH2 0x1294 JUMP JUMPDEST POP PUSH1 0x1 PUSH1 0x1 PUSH1 0xA0 SHL SUB PUSH1 0x6 SLOAD AND ISZERO ISZERO PUSH2 0x1044 JUMP JUMPDEST DUP4 PUSH1 0x1 PUSH1 0x1 PUSH1 0xA0 SHL SUB PUSH1 0x4 SLOAD AND PUSH1 0x1 PUSH1 0x1 PUSH1 0xA0 SHL SUB DUP6 SLOAD AND DUP2 EXTCODESIZE ISZERO PUSH2 0xB3D JUMPI DUP3 SWAP2 PUSH1 0x44 DUP4 SWAP3 PUSH1 0x40 MLOAD SWAP5 DUP6 SWAP4 DUP5 SWAP3 PUSH32 0x76E1748300000000000000000000000000000000000000000000000000000000 DUP5 MSTORE PUSH1 0x4 DUP5 ADD MSTORE PUSH1 0x1 PUSH1 0x24 DUP5 ADD MSTORE GAS CALL PUSH2 0x132E JUMPI JUMPDEST POP POP PUSH2 0x1037 JUMP JUMPDEST DUP2 PUSH2 0x1338 SWAP2 PUSH2 0x29C9 JUMP JUMPDEST PUSH2 0x1343 JUMPI DUP4 CODESIZE PUSH2 0x1327 JUMP JUMPDEST DUP4 DUP1 REVERT JUMPDEST POP PUSH1 0x1 PUSH1 0x1 PUSH1 0xA0 SHL SUB DUP4 SLOAD AND DUP5 MSTORE PUSH1 0x10 PUSH1 0x20 MSTORE PUSH1 0x40 DUP5 KECCAK256 SLOAD ISZERO ISZERO PUSH2 0x1032 JUMP JUMPDEST DUP2 PUSH2 0x1370 SWAP2 PUSH2 0x29C9 JUMP JUMPDEST PUSH2 0x1343 JUMPI DUP4 CODESIZE PUSH2 0x101F JUMP JUMPDEST POP DUP1 REVERT JUMPDEST PUSH1 0x1 PUSH1 0x1 PUSH1 0xA0 SHL SUB PUSH1 0x4 SLOAD AND DUP6 PUSH1 0x1 PUSH1 0x1 PUSH1 0xA0 SHL SUB DUP7 SLOAD AND SWAP2 PUSH1 0xA SLOAD SWAP1 DUP1 EXTCODESIZE ISZERO PUSH2 0xB3D JUMPI PUSH1 0x40 MLOAD PUSH32 0xA8031A1D00000000000000000000000000000000000000000000000000000000 DUP2 MSTORE PUSH1 0x1 PUSH1 0x1 PUSH1 0xA0 SHL SUB SWAP5 SWAP1 SWAP5 AND PUSH1 0x4 DUP6 ADD MSTORE PUSH1 0x24 DUP5 ADD SWAP2 SWAP1 SWAP2 MSTORE DUP3 SWAP1 PUSH1 0x44 SWAP1 DUP3 SWAP1 DUP5 SWAP1 GAS CALL SWAP1 DUP2 PUSH2 0x1496 JUMPI JUMPDEST POP PUSH2 0x1442 JUMPI POP PUSH1 0x1 PUSH1 0x1 PUSH1 0xA0 SHL SUB DUP4 SLOAD AND PUSH32 0xF40FAA7DF7CA2F9CF7F989DD9777817F80396577BE8B64CDA11D602CCE810063 PUSH1 0x60 PUSH1 0x40 MLOAD DUP8 DUP2 MSTORE DUP6 PUSH1 0x20 DUP3 ADD MSTORE TIMESTAMP PUSH1 0x40 DUP3 ADD MSTORE LOG2 JUMPDEST CODESIZE PUSH2 0xFCE JUMP JUMPDEST PUSH1 0x1 PUSH1 0xFF NOT DUP3 SLOAD AND OR SWAP1 SSTORE PUSH1 0x1 PUSH1 0x1 PUSH1 0xA0 SHL SUB DUP4 SLOAD AND PUSH32 0xF40FAA7DF7CA2F9CF7F989DD9777817F80396577BE8B64CDA11D602CCE810063 PUSH1 0x60 PUSH1 0xA SLOAD PUSH1 0x40 MLOAD SWAP1 DUP2 MSTORE DUP6 PUSH1 0x20 DUP3 ADD MSTORE TIMESTAMP PUSH1 0x40 DUP3 ADD MSTORE LOG2 PUSH2 0x143C JUMP JUMPDEST DUP7 PUSH2 0x14A3 SWAP2 SWAP8 SWAP3 SWAP8 PUSH2 0x29C9 JUMP JUMPDEST SWAP5 CODESIZE PUSH2 0x13F4 JUMP JUMPDEST PUSH1 0x24 DUP5 DUP4 PUSH32 0x65D9582600000000000000000000000000000000000000000000000000000000 DUP3 MSTORE PUSH1 0x4 MSTORE REVERT JUMPDEST PUSH1 0x24 DUP6 DUP5 PUSH32 0x58FB3F9000000000000000000000000000000000000000000000000000000000 DUP3 MSTORE PUSH1 0x4 MSTORE REVERT JUMPDEST POP CALLVALUE PUSH2 0x299 JUMPI PUSH1 0x20 PUSH1 0x3 NOT CALLDATASIZE ADD SLT PUSH2 0x299 JUMPI PUSH1 0x4 CALLDATALOAD PUSH1 0x1 PUSH1 0x1 PUSH1 0xA0 SHL SUB DUP2 AND SWAP1 DUP2 DUP2 SUB PUSH2 0xB3D JUMPI PUSH2 0x1531 PUSH2 0x2CA0 JUMP JUMPDEST DUP2 ISZERO PUSH2 0x15B0 JUMPI PUSH1 0x1 PUSH1 0x1 PUSH1 0xA0 SHL SUB SWAP1 PUSH21 0xFFFFFFFFFFFFFFFFFFFFFFFFFFFFFFFFFFFFFFFF00 PUSH1 0xC SLOAD SWAP2 PUSH1 0x8 SHL AND PUSH32 0xFFFFFFFFFFFFFFFFFFFFFF0000000000000000000000000000000000000000FF DUP3 AND OR PUSH1 0xC SSTORE PUSH1 0x8 SHR AND PUSH32 0x4AB5BE82436D353E61CA18726E984E561F5C1CC7C6D38B29D2553C790434705A DUP4 DUP1 LOG3 DUP1 RETURN JUMPDEST PUSH1 0x4 DUP4 PUSH32 0x7D575CB500000000000000000000000000000000000000000000000000000000 DUP2 MSTORE REVERT JUMPDEST POP CALLVALUE PUSH2 0x299 JUMPI DUP1 PUSH1 0x3 NOT CALLDATASIZE ADD SLT PUSH2 0x299 JUMPI PUSH1 0x20 PUSH1 0x40 MLOAD PUSH32 0xA49807205CE4D355092EF5A8A18F56E8913CF4A201FBE287825B095693C21775 DUP2 MSTORE RETURN JUMPDEST POP CALLVALUE PUSH2 0x299 JUMPI DUP1 PUSH1 0x3 NOT CALLDATASIZE ADD SLT PUSH2 0x299 JUMPI PUSH2 0x162C PUSH2 0x2CA0 JUMP JUMPDEST DUP1 PUSH1 0x1 PUSH1 0x1 PUSH1 0xA0 SHL SUB DUP2 SLOAD PUSH20 0xFFFFFFFFFFFFFFFFFFFFFFFFFFFFFFFFFFFFFFFF NOT DUP2 AND DUP4 SSTORE AND PUSH32 0x8BE0079C531659141344CD1FD0A4F28419497F9722A3DAAFE3B4186F6B6457E0 DUP3 DUP1 LOG3 DUP1 RETURN JUMPDEST POP CALLVALUE PUSH2 0x299 JUMPI DUP1 PUSH1 0x3 NOT CALLDATASIZE ADD SLT PUSH2 0x299 JUMPI PUSH1 0x20 PUSH1 0x9 SLOAD PUSH1 0x40 MLOAD SWAP1 DUP2 MSTORE RETURN JUMPDEST POP CALLVALUE PUSH2 0x299 JUMPI PUSH1 0x20 PUSH1 0x3 NOT CALLDATASIZE ADD SLT PUSH2 0x299 JUMPI PUSH1 0x1 PUSH1 0x1 PUSH1 0xA0 SHL SUB PUSH2 0x16B9 PUSH2 0x2761 JUMP JUMPDEST PUSH2 0x16C1 PUSH2 0x2CA0 JUMP JUMPDEST AND DUP1 ISZERO PUSH2 0x16E9 JUMPI PUSH20 0xFFFFFFFFFFFFFFFFFFFFFFFFFFFFFFFFFFFFFFFF NOT PUSH1 0x5 SLOAD AND OR PUSH1 0x5 SSTORE DUP1 RETURN JUMPDEST PUSH1 0x4 DUP3 PUSH32 0x7D575CB500000000000000000000000000000000000000000000000000000000 DUP2 MSTORE REVERT JUMPDEST POP CALLVALUE PUSH2 0x299 JUMPI DUP1 PUSH1 0x3 NOT CALLDATASIZE ADD SLT PUSH2 0x299 JUMPI PUSH1 0x20 PUSH1 0x1 PUSH1 0x1 PUSH1 0xA0 SHL SUB PUSH1 0xC SLOAD PUSH1 0x8 SHR AND PUSH1 0x40 MLOAD SWAP1 DUP2 MSTORE RETURN JUMPDEST POP CALLVALUE PUSH2 0x299 JUMPI DUP1 PUSH1 0x3 NOT CALLDATASIZE ADD SLT PUSH2 0x299 JUMPI PUSH1 0x20 PUSH1 0xD SLOAD PUSH1 0x40 MLOAD SWAP1 DUP2 MSTORE RETURN JUMPDEST POP CALLVALUE PUSH2 0x299 JUMPI PUSH1 0x20 PUSH1 0x3 NOT CALLDATASIZE ADD SLT PUSH2 0x299 JUMPI PUSH1 0x40 PUSH1 0x20 SWAP2 PUSH1 0x1 PUSH1 0x1 PUSH1 0xA0 SHL SUB PUSH2 0x1780 PUSH2 0x2761 JUMP JUMPDEST AND DUP2 MSTORE PUSH1 0x12 DUP4 MSTORE KECCAK256 SLOAD PUSH1 0x40 MLOAD SWAP1 DUP2 MSTORE RETURN JUMPDEST POP CALLVALUE PUSH2 0x299 JUMPI PUSH1 0x20 PUSH1 0x3 NOT CALLDATASIZE ADD SLT PUSH2 0x299 JUMPI PUSH1 0x1 PUSH1 0x1 PUSH1 0xA0 SHL SUB PUSH1 0x40 PUSH1 0x20 SWAP3 DUP3 PUSH2 0x17B9 PUSH2 0x2761 JUMP JUMPDEST AND DUP2 MSTORE PUSH1 0xF DUP5 MSTORE KECCAK256 SLOAD AND PUSH1 0x40 MLOAD SWAP1 DUP2 MSTORE RETURN JUMPDEST POP CALLVALUE PUSH2 0x299 JUMPI PUSH1 0x40 PUSH1 0x3 NOT CALLDATASIZE ADD SLT PUSH2 0x299 JUMPI PUSH1 0x4 CALLDATALOAD PUSH1 0x24 CALLDATALOAD DUP1 ISZERO ISZERO DUP1 SWAP2 SUB PUSH2 0xB3D JUMPI PUSH32 0xDB61F5E56FDF79532BAFA01B931004C38B120F7E0725A0687F3EBDC25906F0ED SWAP2 PUSH1 0x40 SWAP2 PUSH2 0x181A PUSH2 0x2CE2 JUMP JUMPDEST DUP2 PUSH1 0xB SSTORE PUSH1 0xFF NOT PUSH1 0xC SLOAD AND PUSH1 0xFF DUP3 AND OR PUSH1 0xC SSTORE DUP3 MLOAD SWAP2 DUP3 MSTORE PUSH1 0x20 DUP3 ADD MSTORE LOG1 DUP1 RETURN JUMPDEST POP CALLVALUE PUSH2 0x299 JUMPI PUSH1 0x40 PUSH1 0x3 NOT CALLDATASIZE ADD SLT PUSH2 0x299 JUMPI PUSH2 0x1855 PUSH2 0x2777 JUMP JUMPDEST CALLER PUSH1 0x1 PUSH1 0x1 PUSH1 0xA0 SHL SUB DUP3 AND SUB PUSH2 0x1871 JUMPI PUSH2 0x377 SWAP1 PUSH1 0x4 CALLDATALOAD PUSH2 0x2EA7 JUMP JUMPDEST PUSH1 0x4 DUP3 PUSH32 0x6697B23200000000000000000000000000000000000000000000000000000000 DUP2 MSTORE REVERT JUMPDEST POP CALLVALUE PUSH2 0x299 JUMPI PUSH1 0x20 PUSH1 0x3 NOT CALLDATASIZE ADD SLT PUSH2 0x299 JUMPI PUSH1 0x40 PUSH1 0x20 SWAP2 PUSH1 0x1 PUSH1 0x1 PUSH1 0xA0 SHL SUB PUSH2 0x18C0 PUSH2 0x2761 JUMP JUMPDEST AND DUP2 MSTORE PUSH1 0x10 DUP4 MSTORE KECCAK256 SLOAD PUSH1 0x40 MLOAD SWAP1 DUP2 MSTORE RETURN JUMPDEST POP CALLVALUE PUSH2 0x299 JUMPI PUSH1 0x40 PUSH1 0x3 NOT CALLDATASIZE ADD SLT PUSH2 0x299 JUMPI PUSH2 0x377 PUSH1 0x4 CALLDATALOAD PUSH2 0x18F1 PUSH2 0x2777 JUMP JUMPDEST SWAP1 PUSH2 0x190D PUSH2 0x36D DUP3 PUSH1 0x0 MSTORE PUSH1 0x2 PUSH1 0x20 MSTORE PUSH1 0x1 PUSH1 0x40 PUSH1 0x0 KECCAK256 ADD SLOAD SWAP1 JUMP JUMPDEST PUSH2 0x2E0D JUMP JUMPDEST POP CALLVALUE PUSH2 0x299 JUMPI PUSH1 0x20 PUSH1 0x3 NOT CALLDATASIZE ADD SLT PUSH2 0x299 JUMPI PUSH1 0x1 PUSH1 0x1 PUSH1 0xA0 SHL SUB PUSH2 0x1934 PUSH2 0x2761 JUMP JUMPDEST AND DUP1 DUP3 MSTORE PUSH1 0x11 PUSH1 0x20 MSTORE PUSH1 0x40 DUP3 KECCAK256 SLOAD SWAP1 DUP1 DUP4 MSTORE PUSH1 0x12 PUSH1 0x20 MSTORE PUSH1 0x40 DUP4 KECCAK256 SLOAD SWAP1 PUSH1 0x1 PUSH1 0x1 PUSH1 0xA0 SHL SUB PUSH1 0x5 SLOAD AND SWAP1 DUP2 ISZERO PUSH1 0x0 EQ PUSH2 0x1982 JUMPI POP POP PUSH1 0x60 SWAP3 SWAP1 JUMPDEST PUSH1 0x40 MLOAD SWAP3 DUP4 MSTORE PUSH1 0x20 DUP4 ADD MSTORE ISZERO ISZERO PUSH1 0x40 DUP3 ADD MSTORE RETURN JUMPDEST PUSH1 0x60 SWAP1 PUSH1 0x24 PUSH1 0x40 MLOAD DUP1 SWAP5 DUP2 SWAP4 PUSH32 0x4CA4B2D300000000000000000000000000000000000000000000000000000000 DUP4 MSTORE PUSH1 0x4 DUP4 ADD MSTORE GAS STATICCALL SWAP1 DUP2 ISZERO PUSH2 0x1A06 JUMPI PUSH1 0x60 SWAP5 SWAP2 PUSH2 0x19E6 JUMPI JUMPDEST POP DUP1 ISZERO ISZERO SWAP1 DUP2 PUSH2 0x19DA JUMPI JUMPDEST POP SWAP1 PUSH2 0x196E JUMP JUMPDEST PUSH1 0xA SWAP2 POP MOD ISZERO CODESIZE PUSH2 0x19D3 JUMP JUMPDEST PUSH2 0x19FD SWAP2 POP DUP5 RETURNDATASIZE DUP7 GT PUSH2 0x11BA JUMPI PUSH2 0x11A8 DUP2 DUP4 PUSH2 0x29C9 JUMP JUMPDEST SWAP2 POP POP CODESIZE PUSH2 0x19C8 JUMP JUMPDEST PUSH1 0x40 MLOAD RETURNDATASIZE DUP7 DUP3 RETURNDATACOPY RETURNDATASIZE SWAP1 REVERT JUMPDEST POP CALLVALUE PUSH2 0x299 JUMPI PUSH1 0x20 PUSH1 0x3 NOT CALLDATASIZE ADD SLT PUSH2 0x299 JUMPI PUSH32 0xB7BB4837902F88944384DBC0DE70767A2428717AA96B1A96DAECC9104F3E226 PUSH1 0x40 PUSH1 0x4 CALLDATALOAD PUSH2 0x1A51 PUSH2 0x2CE2 JUMP JUMPDEST PUSH1 0xA SLOAD SWAP1 DUP1 PUSH1 0xA SSTORE DUP3 MLOAD SWAP2 DUP3 MSTORE PUSH1 0x20 DUP3 ADD MSTORE LOG1 DUP1 RETURN JUMPDEST POP CALLVALUE PUSH2 0x299 JUMPI DUP1 PUSH1 0x3 NOT CALLDATASIZE ADD SLT PUSH2 0x299 JUMPI PUSH1 0x20 PUSH1 0x1 PUSH1 0x1 PUSH1 0xA0 SHL SUB PUSH1 0x5 SLOAD AND PUSH1 0x40 MLOAD SWAP1 DUP2 MSTORE RETURN JUMPDEST POP CALLVALUE PUSH2 0x299 JUMPI PUSH1 0x20 PUSH1 0x3 NOT CALLDATASIZE ADD SLT PUSH2 0x299 JUMPI PUSH1 0x20 PUSH2 0x1ABC PUSH1 0x4 CALLDATALOAD PUSH1 0x0 MSTORE PUSH1 0x2 PUSH1 0x20 MSTORE PUSH1 0x1 PUSH1 0x40 PUSH1 0x0 KECCAK256 ADD SLOAD SWAP1 JUMP JUMPDEST PUSH1 0x40 MLOAD SWAP1 DUP2 MSTORE RETURN JUMPDEST POP CALLVALUE PUSH2 0x299 JUMPI PUSH1 0x20 PUSH1 0x3 NOT CALLDATASIZE ADD SLT PUSH2 0x299 JUMPI PUSH1 0x4 CALLDATALOAD SWAP1 PUSH2 0x1AE2 PUSH2 0x2B88 JUMP JUMPDEST POP PUSH1 0x9 SLOAD DUP3 LT ISZERO PUSH2 0x1B4F JUMPI DUP1 PUSH2 0x1B4B SWAP3 PUSH1 0x40 SWAP3 MSTORE PUSH1 0x7 PUSH1 0x20 MSTORE KECCAK256 PUSH2 0x1B31 PUSH1 0xF PUSH1 0x40 MLOAD SWAP3 PUSH2 0x1B0E DUP5 PUSH2 0x2996 JUMP JUMPDEST DUP1 SLOAD DUP5 MSTORE PUSH1 0x1 PUSH1 0x1 PUSH1 0xA0 SHL SUB PUSH1 0x1 DUP3 ADD SLOAD AND PUSH1 0x20 DUP6 ADD MSTORE PUSH2 0xDB2 PUSH1 0x2 DUP3 ADD PUSH2 0x29EC JUMP JUMPDEST PUSH2 0x240 DUP3 ADD MSTORE PUSH1 0x40 MLOAD SWAP2 DUP3 SWAP2 PUSH1 0x20 DUP4 MSTORE PUSH1 0x20 DUP4 ADD SWAP1 PUSH2 0x27F1 JUMP JUMPDEST SUB SWAP1 RETURN JUMPDEST PUSH1 0x24 SWAP2 PUSH4 0xA503DDF5 PUSH1 0xE0 SHL DUP3 MSTORE PUSH1 0x4 MSTORE REVERT JUMPDEST POP CALLVALUE PUSH2 0x299 JUMPI DUP1 PUSH1 0x3 NOT CALLDATASIZE ADD SLT PUSH2 0x299 JUMPI PUSH1 0x20 PUSH1 0x1 PUSH1 0x1 PUSH1 0xA0 SHL SUB PUSH1 0x3 SLOAD AND PUSH1 0x40 MLOAD SWAP1 DUP2 MSTORE RETURN JUMPDEST POP CALLVALUE PUSH2 0x299 JUMPI DUP1 PUSH1 0x3 NOT CALLDATASIZE ADD SLT PUSH2 0x299 JUMPI PUSH1 0x20 PUSH1 0x1 PUSH1 0x1 PUSH1 0xA0 SHL SUB PUSH1 0x4 SLOAD AND PUSH1 0x40 MLOAD SWAP1 DUP2 MSTORE RETURN JUMPDEST POP CALLVALUE PUSH2 0x299 JUMPI PUSH1 0x20 PUSH1 0x3 NOT CALLDATASIZE ADD SLT PUSH2 0x299 JUMPI PUSH2 0x1BC9 PUSH2 0x2761 JUMP JUMPDEST PUSH2 0x1BD1 PUSH2 0x2CA0 JUMP JUMPDEST PUSH1 0x1 PUSH1 0x1 PUSH1 0xA0 SHL SUB DUP1 PUSH1 0x6 SLOAD SWAP3 AND SWAP2 DUP3 PUSH20 0xFFFFFFFFFFFFFFFFFFFFFFFFFFFFFFFFFFFFFFFF NOT DUP3 AND OR PUSH1 0x6 SSTORE AND PUSH32 0xE94E25A88D0BFA0F703904DA6D10BC693EA8C76DF40C874233847126C789856E DUP4 DUP1 LOG3 DUP1 RETURN JUMPDEST POP PUSH1 0xE0 PUSH1 0x3 NOT CALLDATASIZE ADD SLT PUSH2 0x299 JUMPI PUSH1 0x4 CALLDATALOAD PUSH8 0xFFFFFFFFFFFFFFFF DUP2 GT PUSH2 0x137B JUMPI PUSH2 0x1C52 SWAP1 CALLDATASIZE SWAP1 PUSH1 0x4 ADD PUSH2 0x272E JUMP JUMPDEST PUSH1 0x24 SWAP3 SWAP2 SWAP3 CALLDATALOAD PUSH8 0xFFFFFFFFFFFFFFFF DUP2 GT PUSH2 0xB3D JUMPI PUSH2 0x1C75 SWAP1 CALLDATASIZE SWAP1 PUSH1 0x4 ADD PUSH2 0x272E JUMP JUMPDEST SWAP4 SWAP1 SWAP3 PUSH1 0x44 CALLDATALOAD PUSH8 0xFFFFFFFFFFFFFFFF DUP2 GT PUSH2 0x137B JUMPI PUSH2 0x1C98 SWAP1 CALLDATASIZE SWAP1 PUSH1 0x4 ADD PUSH2 0x272E JUMP JUMPDEST PUSH1 0x64 CALLDATALOAD PUSH8 0xFFFFFFFFFFFFFFFF DUP2 GT PUSH2 0x1343 JUMPI PUSH2 0x1CB8 SWAP1 CALLDATASIZE SWAP1 PUSH1 0x4 ADD PUSH2 0x272E JUMP JUMPDEST SWAP3 PUSH1 0xC4 CALLDATALOAD SWAP3 PUSH1 0x1 PUSH1 0x1 PUSH1 0xA0 SHL SUB DUP5 AND DUP1 SWAP5 SUB PUSH2 0x268A JUMPI PUSH2 0x1CD6 PUSH2 0x2C65 JUMP JUMPDEST DUP8 ISZERO PUSH2 0x2662 JUMPI DUP10 ISZERO PUSH2 0x2662 JUMPI DUP1 ISZERO PUSH2 0x2662 JUMPI DUP6 SWAP4 PUSH1 0xFF PUSH1 0xC SLOAD AND PUSH2 0x2610 JUMPI JUMPDEST CALLER DUP8 MSTORE PUSH1 0x8 PUSH1 0x20 MSTORE PUSH1 0x40 DUP8 KECCAK256 SLOAD ISZERO DUP1 PUSH2 0x2607 JUMPI JUMPDEST DUP1 PUSH2 0x25FD JUMPI JUMPDEST PUSH2 0x258E JUMPI JUMPDEST POP PUSH1 0x9 SLOAD SWAP9 PUSH1 0x40 MLOAD SWAP11 PUSH2 0x1D26 DUP13 PUSH2 0x2996 JUMP JUMPDEST DUP11 DUP13 MSTORE CALLER PUSH1 0x20 DUP14 ADD MSTORE PUSH2 0x1D3A CALLDATASIZE DUP12 DUP12 PUSH2 0x2AB3 JUMP JUMPDEST PUSH1 0x40 DUP14 ADD MSTORE CALLDATASIZE SWAP1 PUSH2 0x1D4A SWAP3 PUSH2 0x2AB3 JUMP JUMPDEST PUSH1 0x60 DUP12 ADD MSTORE CALLDATASIZE SWAP1 PUSH2 0x1D5A SWAP3 PUSH2 0x2AB3 JUMP JUMPDEST PUSH1 0x80 DUP10 ADD MSTORE DUP3 CALLDATASIZE SWAP1 PUSH2 0x1D6B SWAP3 PUSH2 0x2AB3 JUMP JUMPDEST PUSH1 0xA0 DUP9 ADD MSTORE PUSH1 0x84 CALLDATALOAD PUSH1 0xC0 DUP9 ADD MSTORE PUSH1 0xA4 CALLDATALOAD PUSH1 0xE0 DUP9 ADD MSTORE TIMESTAMP PUSH2 0x100 DUP9 ADD MSTORE DUP3 PUSH2 0x120 DUP9 ADD MSTORE DUP3 PUSH2 0x140 DUP9 ADD MSTORE DUP3 PUSH2 0x160 DUP9 ADD MSTORE DUP3 PUSH2 0x180 DUP9 ADD MSTORE PUSH2 0x1A0 DUP8 ADD MSTORE DUP2 PUSH2 0x1C0 DUP8 ADD MSTORE DUP1 ISZERO ISZERO PUSH2 0x1E0 DUP8 ADD MSTORE DUP2 PUSH2 0x200 DUP8 ADD MSTORE PUSH1 0x20 SWAP6 PUSH1 0x40 MLOAD PUSH2 0x1DD0 DUP9 DUP3 PUSH2 0x29C9 JUMP JUMPDEST DUP4 DUP2 MSTORE PUSH2 0x220 DUP3 ADD MSTORE PUSH1 0x40 MLOAD PUSH2 0x1DE6 DUP9 DUP3 PUSH2 0x29C9 JUMP JUMPDEST DUP4 DUP2 MSTORE PUSH2 0x240 DUP3 ADD MSTORE DUP6 DUP4 MSTORE PUSH1 0x7 DUP8 MSTORE PUSH1 0x40 DUP4 KECCAK256 DUP2 MLOAD DUP2 SSTORE PUSH1 0x20 DUP3 ADD MLOAD PUSH1 0x1 PUSH1 0x1 PUSH1 0xA0 SHL SUB AND PUSH1 0x1 DUP3 ADD SWAP1 PUSH1 0x1 PUSH1 0x1 PUSH1 0xA0 SHL SUB AND DUP2 SLOAD PUSH20 0xFFFFFFFFFFFFFFFFFFFFFFFFFFFFFFFFFFFFFFFF NOT AND OR SWAP1 SSTORE PUSH1 0x40 DUP3 ADD MLOAD DUP1 MLOAD SWAP1 PUSH8 0xFFFFFFFFFFFFFFFF DUP3 GT PUSH2 0x2430 JUMPI PUSH2 0x1E67 DUP3 PUSH2 0x1E5E PUSH1 0x2 DUP7 ADD SLOAD PUSH2 0x295C JUMP JUMPDEST PUSH1 0x2 DUP7 ADD PUSH2 0x2B06 JUMP JUMPDEST DUP10 SWAP1 PUSH1 0x1F DUP4 GT PUSH1 0x1 EQ PUSH2 0x2520 JUMPI PUSH2 0x1E95 SWAP3 SWAP2 DUP8 SWAP2 DUP4 PUSH2 0x22C5 JUMPI JUMPDEST POP POP PUSH1 0x0 NOT DUP3 PUSH1 0x1 SHL SWAP3 PUSH1 0x3 SHL SHR NOT AND OR SWAP1 JUMP JUMPDEST PUSH1 0x2 DUP3 ADD SSTORE JUMPDEST PUSH1 0x60 DUP3 ADD MLOAD DUP1 MLOAD SWAP1 PUSH8 0xFFFFFFFFFFFFFFFF DUP3 GT PUSH2 0x2430 JUMPI PUSH2 0x1ECC DUP3 PUSH2 0x1EC3 PUSH1 0x3 DUP7 ADD SLOAD PUSH2 0x295C JUMP JUMPDEST PUSH1 0x3 DUP7 ADD PUSH2 0x2B06 JUMP JUMPDEST DUP10 SWAP1 PUSH1 0x1F DUP4 GT PUSH1 0x1 EQ PUSH2 0x24B2 JUMPI PUSH2 0x1EF9 SWAP3 SWAP2 DUP8 SWAP2 DUP4 PUSH2 0x22C5 JUMPI POP POP PUSH1 0x0 NOT DUP3 PUSH1 0x1 SHL SWAP3 PUSH1 0x3 SHL SHR NOT AND OR SWAP1 JUMP JUMPDEST PUSH1 0x3 DUP3 ADD SSTORE JUMPDEST PUSH1 0x80 DUP3 ADD MLOAD DUP1 MLOAD SWAP1 PUSH8 0xFFFFFFFFFFFFFFFF DUP3 GT PUSH2 0x2430 JUMPI PUSH2 0x1F30 DUP3 PUSH2 0x1F27 PUSH1 0x4 DUP7 ADD SLOAD PUSH2 0x295C JUMP JUMPDEST PUSH1 0x4 DUP7 ADD PUSH2 0x2B06 JUMP JUMPDEST DUP10 SWAP1 PUSH1 0x1F DUP4 GT PUSH1 0x1 EQ PUSH2 0x2444 JUMPI PUSH2 0x1F5D SWAP3 SWAP2 DUP8 SWAP2 DUP4 PUSH2 0x22C5 JUMPI POP POP PUSH1 0x0 NOT DUP3 PUSH1 0x1 SHL SWAP3 PUSH1 0x3 SHL SHR NOT AND OR SWAP1 JUMP JUMPDEST PUSH1 0x4 DUP3 ADD SSTORE JUMPDEST PUSH1 0xA0 DUP3 ADD MLOAD DUP1 MLOAD SWAP1 PUSH8 0xFFFFFFFFFFFFFFFF DUP3 GT PUSH2 0x2430 JUMPI PUSH2 0x1F94 DUP3 PUSH2 0x1F8B PUSH1 0x5 DUP7 ADD SLOAD PUSH2 0x295C JUMP JUMPDEST PUSH1 0x5 DUP7 ADD PUSH2 0x2B06 JUMP JUMPDEST DUP10 SWAP1 PUSH1 0x1F DUP4 GT PUSH1 0x1 EQ PUSH2 0x23C7 JUMPI PUSH2 0x1FC1 SWAP3 SWAP2 DUP8 SWAP2 DUP4 PUSH2 0x22C5 JUMPI POP POP PUSH1 0x0 NOT DUP3 PUSH1 0x1 SHL SWAP3 PUSH1 0x3 SHL SHR NOT AND OR SWAP1 JUMP JUMPDEST PUSH1 0x5 DUP3 ADD SSTORE JUMPDEST PUSH1 0xC0 DUP3 ADD MLOAD PUSH1 0x6 DUP3 ADD SSTORE PUSH1 0xE0 DUP3 ADD MLOAD PUSH1 0x7 DUP3 ADD SSTORE PUSH2 0x100 DUP3 ADD MLOAD PUSH1 0x8 DUP3 ADD SSTORE PUSH1 0x9 DUP2 ADD PUSH2 0x120 DUP4 ADD MLOAD PUSH1 0x3 DUP2 LT ISZERO PUSH2 0x23B3 JUMPI DUP2 SLOAD PUSH2 0x140 DUP6 ADD MLOAD PUSH21 0xFFFFFFFFFFFFFFFFFFFFFFFFFFFFFFFFFFFFFFFF00 PUSH1 0x8 SWAP2 SWAP1 SWAP2 SHL AND PUSH1 0xFF SWAP3 SWAP1 SWAP3 AND PUSH32 0xFFFFFFFFFFFFFFFFFFFFFF000000000000000000000000000000000000000000 SWAP1 SWAP2 AND OR OR SWAP1 SSTORE PUSH2 0x160 DUP3 ADD MLOAD PUSH1 0xA DUP3 ADD SSTORE PUSH2 0x2078 PUSH2 0x180 DUP4 ADD MLOAD ISZERO ISZERO PUSH1 0xB DUP4 ADD SWAP1 PUSH1 0xFF PUSH1 0xFF NOT DUP4 SLOAD AND SWAP2 ISZERO ISZERO AND OR SWAP1 SSTORE JUMP JUMPDEST PUSH2 0x1A0 DUP3 ADD MLOAD PUSH1 0xC DUP3 ADD SSTORE PUSH1 0xD DUP2 ADD PUSH2 0x20A5 PUSH2 0x1C0 DUP5 ADD MLOAD ISZERO ISZERO DUP3 SWAP1 PUSH1 0xFF PUSH1 0xFF NOT DUP4 SLOAD AND SWAP2 ISZERO ISZERO AND OR SWAP1 SSTORE JUMP JUMPDEST PUSH2 0x1E0 DUP4 ADD MLOAD DUP2 SLOAD PUSH2 0x200 DUP6 ADD MLOAD PUSH32 0xFFFFFFFFFFFFFFFFFFFFFFFFFFFFFFFFFFFFFFFFFFFFFFFFFFFFFFFFFF0000FF SWAP1 SWAP2 AND SWAP2 ISZERO ISZERO PUSH1 0x8 SHL PUSH2 0xFF00 AND SWAP2 SWAP1 SWAP2 OR SWAP1 ISZERO ISZERO PUSH1 0x10 SHL PUSH3 0xFF0000 AND OR SWAP1 SSTORE PUSH2 0x220 DUP3 ADD MLOAD DUP1 MLOAD PUSH1 0xE DUP4 ADD SWAP2 PUSH8 0xFFFFFFFFFFFFFFFF DUP3 GT PUSH2 0xA0F JUMPI PUSH2 0x2123 DUP3 PUSH2 0x211D DUP6 SLOAD PUSH2 0x295C JUMP JUMPDEST DUP6 PUSH2 0x2B06 JUMP JUMPDEST DUP11 SWAP1 PUSH1 0x1F DUP4 GT PUSH1 0x1 EQ PUSH2 0x2347 JUMPI DUP3 PUSH2 0x240 SWAP6 SWAP4 PUSH1 0xF SWAP6 SWAP4 PUSH2 0x2158 SWAP4 DUP12 SWAP3 PUSH2 0x22C5 JUMPI POP POP PUSH1 0x0 NOT DUP3 PUSH1 0x1 SHL SWAP3 PUSH1 0x3 SHL SHR NOT AND OR SWAP1 JUMP JUMPDEST SWAP1 SSTORE JUMPDEST ADD SWAP2 ADD MLOAD DUP1 MLOAD SWAP1 PUSH8 0xFFFFFFFFFFFFFFFF DUP3 GT PUSH2 0x2333 JUMPI PUSH2 0x217F DUP3 PUSH2 0x211D DUP6 SLOAD PUSH2 0x295C JUMP JUMPDEST DUP9 SWAP1 PUSH1 0x1F DUP4 GT PUSH1 0x1 EQ PUSH2 0x22D0 JUMPI PUSH2 0x21AC SWAP3 SWAP2 DUP7 SWAP2 DUP4 PUSH2 0x22C5 JUMPI POP POP PUSH1 0x0 NOT DUP3 PUSH1 0x1 SHL SWAP3 PUSH1 0x3 SHL SHR NOT AND OR SWAP1 JUMP JUMPDEST SWAP1 SSTORE JUMPDEST CALLER DUP3 MSTORE PUSH1 0x8 DUP7 MSTORE PUSH1 0x40 DUP3 KECCAK256 DUP1 SLOAD SWAP1 PUSH9 0x10000000000000000 DUP3 LT ISZERO PUSH2 0x22B1 JUMPI SWAP3 PUSH2 0x2240 SWAP3 PUSH2 0x2206 DUP4 PUSH32 0xF66FD76672F8FEF666C4603364FC2E0E7CC9BD03A572C0D16567DE8FB55562F3 SWAP7 PUSH1 0x1 DUP12 SWAP10 SWAP7 ADD DUP2 SSTORE PUSH2 0x292E JUMP JUMPDEST DUP2 SLOAD SWAP1 PUSH1 0x3 SHL SWAP1 PUSH1 0x0 NOT DUP10 DUP4 SHL SWAP3 SHL NOT AND OR SWAP1 SSTORE PUSH2 0x2225 PUSH1 0x9 SLOAD PUSH2 0x2B58 JUMP JUMPDEST PUSH1 0x9 SSTORE PUSH2 0x2258 JUMPI JUMPDEST POP PUSH1 0x40 MLOAD SWAP5 PUSH1 0x40 DUP7 MSTORE PUSH1 0x40 DUP7 ADD SWAP2 PUSH2 0x2B67 JUMP JUMPDEST SWAP3 TIMESTAMP DUP7 DUP3 ADD MSTORE DUP1 CALLER SWAP5 SUB SWAP1 LOG3 PUSH1 0x1 DUP1 SSTORE PUSH1 0x40 MLOAD SWAP1 DUP2 MSTORE RETURN JUMPDEST PUSH1 0x40 SWAP1 CALLER DUP2 MSTORE PUSH1 0x10 DUP10 MSTORE DUP2 DUP2 KECCAK256 PUSH2 0x226F DUP2 SLOAD PUSH2 0x2B58 JUMP JUMPDEST SWAP1 SSTORE CALLER DUP2 MSTORE PUSH1 0x10 DUP10 MSTORE KECCAK256 SLOAD PUSH1 0x40 MLOAD SWAP1 DUP6 DUP3 MSTORE DUP9 DUP3 ADD MSTORE PUSH32 0x26828D31A8B8CD76AECCA73C081C5726B58FCF32A4CB2A3FF9E86576ADF25B23 PUSH1 0x40 CALLER SWAP3 LOG2 CODESIZE PUSH2 0x222D JUMP JUMPDEST PUSH1 0x24 DUP5 PUSH4 0x4E487B71 PUSH1 0xE0 SHL DUP2 MSTORE PUSH1 0x41 PUSH1 0x4 MSTORE REVERT JUMPDEST ADD MLOAD SWAP1 POP CODESIZE DUP1 PUSH2 0x1E81 JUMP JUMPDEST DUP4 DUP7 MSTORE DUP10 DUP7 KECCAK256 SWAP2 SWAP1 PUSH1 0x1F NOT DUP5 AND DUP8 JUMPDEST DUP13 DUP3 DUP3 LT PUSH2 0x231D JUMPI POP POP SWAP1 DUP5 PUSH1 0x1 SWAP6 SWAP5 SWAP4 SWAP3 LT PUSH2 0x2304 JUMPI JUMPDEST POP POP POP DUP2 SHL ADD SWAP1 SSTORE PUSH2 0x21AF JUMP JUMPDEST ADD MLOAD PUSH1 0x0 NOT PUSH1 0xF8 DUP5 PUSH1 0x3 SHL AND SHR NOT AND SWAP1 SSTORE CODESIZE DUP1 DUP1 PUSH2 0x22F7 JUMP JUMPDEST PUSH1 0x1 DUP6 SWAP7 DUP3 SWAP4 SWAP7 DUP7 ADD MLOAD DUP2 SSTORE ADD SWAP6 ADD SWAP4 ADD PUSH2 0x22DF JUMP JUMPDEST PUSH1 0x24 DUP6 PUSH4 0x4E487B71 PUSH1 0xE0 SHL DUP2 MSTORE PUSH1 0x41 PUSH1 0x4 MSTORE REVERT JUMPDEST DUP4 DUP9 MSTORE DUP12 DUP9 KECCAK256 SWAP2 SWAP1 PUSH1 0x1F NOT DUP5 AND DUP10 DUP15 JUMPDEST DUP3 DUP3 LT PUSH2 0x239B JUMPI POP POP SWAP3 PUSH1 0x1 SWAP3 DUP6 SWAP3 PUSH2 0x240 SWAP9 SWAP7 PUSH1 0xF SWAP9 SWAP7 LT PUSH2 0x2382 JUMPI JUMPDEST POP POP POP DUP2 SHL ADD SWAP1 SSTORE PUSH2 0x215B JUMP JUMPDEST ADD MLOAD PUSH1 0x0 NOT PUSH1 0xF8 DUP5 PUSH1 0x3 SHL AND SHR NOT AND SWAP1 SSTORE CODESIZE DUP1 DUP1 PUSH2 0x2375 JUMP JUMPDEST DUP1 PUSH1 0x1 DUP7 SWAP8 DUP3 SWAP5 SWAP8 DUP8 ADD MLOAD DUP2 SSTORE ADD SWAP7 ADD SWAP5 ADD SWAP1 PUSH2 0x2357 JUMP JUMPDEST PUSH1 0x24 DUP7 PUSH4 0x4E487B71 PUSH1 0xE0 SHL DUP2 MSTORE PUSH1 0x21 PUSH1 0x4 MSTORE REVERT JUMPDEST PUSH1 0x5 DUP5 ADD DUP8 MSTORE DUP11 DUP8 KECCAK256 SWAP2 SWAP1 PUSH1 0x1F NOT DUP5 AND DUP9 JUMPDEST DUP14 DUP3 DUP3 LT PUSH2 0x241A JUMPI POP POP SWAP1 DUP5 PUSH1 0x1 SWAP6 SWAP5 SWAP4 SWAP3 LT PUSH2 0x2401 JUMPI JUMPDEST POP POP POP DUP2 SHL ADD PUSH1 0x5 DUP3 ADD SSTORE PUSH2 0x1FC7 JUMP JUMPDEST ADD MLOAD PUSH1 0x0 NOT PUSH1 0xF8 DUP5 PUSH1 0x3 SHL AND SHR NOT AND SWAP1 SSTORE CODESIZE DUP1 DUP1 PUSH2 0x23F1 JUMP JUMPDEST PUSH1 0x1 DUP6 SWAP7 DUP3 SWAP4 SWAP7 DUP7 ADD MLOAD DUP2 SSTORE ADD SWAP6 ADD SWAP4 ADD PUSH2 0x23D9 JUMP JUMPDEST PUSH1 0x24 DUP7 PUSH4 0x4E487B71 PUSH1 0xE0 SHL DUP2 MSTORE PUSH1 0x41 PUSH1 0x4 MSTORE REVERT JUMPDEST SWAP2 SWAP1 PUSH1 0x4 DUP5 ADD DUP8 MSTORE DUP11 DUP8 KECCAK256 SWAP1 DUP8 SWAP4 JUMPDEST DUP13 PUSH1 0x1F NOT DUP6 AND DUP7 LT PUSH2 0x2499 JUMPI POP PUSH1 0x1 SWAP5 POP DUP4 PUSH1 0x1F NOT DUP2 AND LT PUSH2 0x2480 JUMPI JUMPDEST POP POP POP DUP2 SHL ADD PUSH1 0x4 DUP3 ADD SSTORE PUSH2 0x1F63 JUMP JUMPDEST ADD MLOAD PUSH1 0x0 NOT PUSH1 0xF8 DUP5 PUSH1 0x3 SHL AND SHR NOT AND SWAP1 SSTORE CODESIZE DUP1 DUP1 PUSH2 0x2470 JUMP JUMPDEST DUP3 DUP3 ADD MLOAD DUP5 SSTORE SWAP5 DUP6 ADD SWAP5 PUSH1 0x1 SWAP1 SWAP4 ADD SWAP3 SWAP1 SWAP2 ADD SWAP1 PUSH2 0x2453 JUMP JUMPDEST SWAP2 SWAP1 PUSH1 0x3 DUP5 ADD DUP8 MSTORE DUP11 DUP8 KECCAK256 SWAP1 DUP8 SWAP4 JUMPDEST DUP13 PUSH1 0x1F NOT DUP6 AND DUP7 LT PUSH2 0x2507 JUMPI POP PUSH1 0x1 SWAP5 POP DUP4 PUSH1 0x1F NOT DUP2 AND LT PUSH2 0x24EE JUMPI JUMPDEST POP POP POP DUP2 SHL ADD PUSH1 0x3 DUP3 ADD SSTORE PUSH2 0x1EFF JUMP JUMPDEST ADD MLOAD PUSH1 0x0 NOT PUSH1 0xF8 DUP5 PUSH1 0x3 SHL AND SHR NOT AND SWAP1 SSTORE CODESIZE DUP1 DUP1 PUSH2 0x24DE JUMP JUMPDEST DUP3 DUP3 ADD MLOAD DUP5 SSTORE SWAP5 DUP6 ADD SWAP5 PUSH1 0x1 SWAP1 SWAP4 ADD SWAP3 SWAP1 SWAP2 ADD SWAP1 PUSH2 0x24C1 JUMP JUMPDEST SWAP2 SWAP1 PUSH1 0x2 DUP5 ADD DUP8 MSTORE DUP11 DUP8 KECCAK256 SWAP1 DUP8 SWAP4 JUMPDEST DUP13 PUSH1 0x1F NOT DUP6 AND DUP7 LT PUSH2 0x2575 JUMPI POP PUSH1 0x1 SWAP5 POP DUP4 PUSH1 0x1F NOT DUP2 AND LT PUSH2 0x255C JUMPI JUMPDEST POP POP POP DUP2 SHL ADD PUSH1 0x2 DUP3 ADD SSTORE PUSH2 0x1E9B JUMP JUMPDEST ADD MLOAD PUSH1 0x0 NOT PUSH1 0xF8 DUP5 PUSH1 0x3 SHL AND SHR NOT AND SWAP1 SSTORE CODESIZE DUP1 DUP1 PUSH2 0x254C JUMP JUMPDEST DUP3 DUP3 ADD MLOAD DUP5 SSTORE SWAP5 DUP6 ADD SWAP5 PUSH1 0x1 SWAP1 SWAP4 ADD SWAP3 SWAP1 SWAP2 ADD SWAP1 PUSH2 0x252F JUMP JUMPDEST CALLER DUP8 MSTORE PUSH1 0xF PUSH1 0x20 MSTORE PUSH1 0x1 PUSH1 0x1 PUSH1 0xA0 SHL SUB PUSH1 0x40 DUP9 KECCAK256 SLOAD AND PUSH2 0x1D14 JUMPI CALLER DUP8 MSTORE PUSH1 0xF PUSH1 0x20 MSTORE PUSH1 0x40 DUP8 KECCAK256 DUP2 PUSH20 0xFFFFFFFFFFFFFFFFFFFFFFFFFFFFFFFFFFFFFFFF NOT DUP3 SLOAD AND OR SWAP1 SSTORE CALLER SWAP1 PUSH32 0x5F1CA2FCC108B751843A763E60D2201F593516109D7DBB1B700468F2D4190BB7 DUP9 DUP1 LOG3 CODESIZE PUSH2 0x1D14 JUMP JUMPDEST POP CALLER DUP2 EQ ISZERO PUSH2 0x1D0F JUMP JUMPDEST POP DUP1 ISZERO ISZERO PUSH2 0x1D09 JUMP JUMPDEST SWAP4 POP PUSH1 0xB SLOAD DUP1 CALLVALUE LT PUSH2 0x2633 JUMPI POP CALLVALUE SWAP4 PUSH2 0x262B CALLVALUE PUSH1 0xD SLOAD PUSH2 0x2A90 JUMP JUMPDEST PUSH1 0xD SSTORE PUSH2 0x1CF5 JUMP JUMPDEST PUSH32 0xD233F6CB00000000000000000000000000000000000000000000000000000000 DUP8 MSTORE CALLVALUE PUSH1 0x4 MSTORE PUSH1 0x24 MSTORE PUSH1 0x44 DUP7 REVERT JUMPDEST PUSH1 0x4 DUP7 PUSH32 0x6395CA9D00000000000000000000000000000000000000000000000000000000 DUP2 MSTORE REVERT JUMPDEST DUP6 DUP1 REVERT JUMPDEST SWAP1 POP CALLVALUE PUSH2 0x137B JUMPI PUSH1 0x20 PUSH1 0x3 NOT CALLDATASIZE ADD SLT PUSH2 0x137B JUMPI PUSH1 0x4 CALLDATALOAD PUSH32 0xFFFFFFFF00000000000000000000000000000000000000000000000000000000 DUP2 AND DUP1 SWAP2 SUB PUSH2 0xB3D JUMPI PUSH1 0x20 SWAP3 POP PUSH32 0x7965DB0B00000000000000000000000000000000000000000000000000000000 DUP2 EQ SWAP1 DUP2 ISZERO PUSH2 0x2704 JUMPI JUMPDEST POP ISZERO ISZERO DUP2 MSTORE RETURN JUMPDEST PUSH32 0x1FFC9A700000000000000000000000000000000000000000000000000000000 SWAP2 POP EQ CODESIZE PUSH2 0x26FD JUMP JUMPDEST SWAP2 DUP2 PUSH1 0x1F DUP5 ADD SLT ISZERO PUSH2 0x275C JUMPI DUP3 CALLDATALOAD SWAP2 PUSH8 0xFFFFFFFFFFFFFFFF DUP4 GT PUSH2 0x275C JUMPI PUSH1 0x20 DUP4 DUP2 DUP7 ADD SWAP6 ADD ADD GT PUSH2 0x275C JUMPI JUMP JUMPDEST PUSH1 0x0 DUP1 REVERT JUMPDEST PUSH1 0x4 CALLDATALOAD SWAP1 PUSH1 0x1 PUSH1 0x1 PUSH1 0xA0 SHL SUB DUP3 AND DUP3 SUB PUSH2 0x275C JUMPI JUMP JUMPDEST PUSH1 0x24 CALLDATALOAD SWAP1 PUSH1 0x1 PUSH1 0x1 PUSH1 0xA0 SHL SUB DUP3 AND DUP3 SUB PUSH2 0x275C JUMPI JUMP JUMPDEST SWAP2 SWAP1 DUP3 MLOAD SWAP3 DUP4 DUP3 MSTORE PUSH1 0x0 JUMPDEST DUP5 DUP2 LT PUSH2 0x27B9 JUMPI POP POP PUSH1 0x1F NOT PUSH1 0x1F DUP5 PUSH1 0x0 PUSH1 0x20 DUP1 SWAP7 SWAP8 DUP7 ADD ADD MSTORE ADD AND ADD ADD SWAP1 JUMP JUMPDEST DUP1 PUSH1 0x20 DUP1 SWAP3 DUP5 ADD ADD MLOAD DUP3 DUP3 DUP7 ADD ADD MSTORE ADD PUSH2 0x2798 JUMP JUMPDEST SWAP1 PUSH1 0x3 DUP3 LT ISZERO PUSH2 0x27DB JUMPI MSTORE JUMP JUMPDEST PUSH4 0x4E487B71 PUSH1 0xE0 SHL PUSH1 0x0 MSTORE PUSH1 0x21 PUSH1 0x4 MSTORE PUSH1 0x24 PUSH1 0x0 REVERT JUMPDEST PUSH2 0x292B SWAP2 DUP2 MLOAD DUP2 MSTORE PUSH1 0x1 PUSH1 0x1 PUSH1 0xA0 SHL SUB PUSH1 0x20 DUP4 ADD MLOAD AND PUSH1 0x20 DUP3 ADD MSTORE PUSH2 0x240 PUSH2 0x2919 PUSH2 0x286C PUSH2 0x285A PUSH2 0x2848 PUSH2 0x2836 PUSH1 0x40 DUP9 ADD MLOAD PUSH2 0x260 PUSH1 0x40 DUP10 ADD MSTORE PUSH2 0x260 DUP9 ADD SWAP1 PUSH2 0x278D JUMP JUMPDEST PUSH1 0x60 DUP9 ADD MLOAD DUP8 DUP3 SUB PUSH1 0x60 DUP10 ADD MSTORE PUSH2 0x278D JUMP JUMPDEST PUSH1 0x80 DUP8 ADD MLOAD DUP7 DUP3 SUB PUSH1 0x80 DUP9 ADD MSTORE PUSH2 0x278D JUMP JUMPDEST PUSH1 0xA0 DUP7 ADD MLOAD DUP6 DUP3 SUB PUSH1 0xA0 DUP8 ADD MSTORE PUSH2 0x278D JUMP JUMPDEST PUSH1 0xC0 DUP6 ADD MLOAD PUSH1 0xC0 DUP6 ADD MSTORE PUSH1 0xE0 DUP6 ADD MLOAD PUSH1 0xE0 DUP6 ADD MSTORE PUSH2 0x100 DUP6 ADD MLOAD PUSH2 0x100 DUP6 ADD MSTORE PUSH2 0x28A0 PUSH2 0x120 DUP7 ADD MLOAD PUSH2 0x120 DUP7 ADD SWAP1 PUSH2 0x27CE JUMP JUMPDEST PUSH1 0x1 PUSH1 0x1 PUSH1 0xA0 SHL SUB PUSH2 0x140 DUP7 ADD MLOAD AND PUSH2 0x140 DUP6 ADD MSTORE PUSH2 0x160 DUP6 ADD MLOAD PUSH2 0x160 DUP6 ADD MSTORE PUSH2 0x180 DUP6 ADD MLOAD ISZERO ISZERO PUSH2 0x180 DUP6 ADD MSTORE PUSH2 0x1A0 DUP6 ADD MLOAD PUSH2 0x1A0 DUP6 ADD MSTORE PUSH2 0x1C0 DUP6 ADD MLOAD ISZERO ISZERO PUSH2 0x1C0 DUP6 ADD MSTORE PUSH2 0x1E0 DUP6 ADD MLOAD ISZERO ISZERO PUSH2 0x1E0 DUP6 ADD MSTORE PUSH2 0x200 DUP6 ADD MLOAD ISZERO ISZERO PUSH2 0x200 DUP6 ADD MSTORE PUSH2 0x220 DUP6 ADD MLOAD DUP5 DUP3 SUB PUSH2 0x220 DUP7 ADD MSTORE PUSH2 0x278D JUMP JUMPDEST SWAP3 ADD MLOAD SWAP1 PUSH2 0x240 DUP2 DUP5 SUB SWAP2 ADD MSTORE PUSH2 0x278D JUMP JUMPDEST SWAP1 JUMP JUMPDEST DUP1 SLOAD DUP3 LT ISZERO PUSH2 0x2946 JUMPI PUSH1 0x0 MSTORE PUSH1 0x20 PUSH1 0x0 KECCAK256 ADD SWAP1 PUSH1 0x0 SWAP1 JUMP JUMPDEST PUSH4 0x4E487B71 PUSH1 0xE0 SHL PUSH1 0x0 MSTORE PUSH1 0x32 PUSH1 0x4 MSTORE PUSH1 0x24 PUSH1 0x0 REVERT JUMPDEST SWAP1 PUSH1 0x1 DUP3 DUP2 SHR SWAP3 AND DUP1 ISZERO PUSH2 0x298C JUMPI JUMPDEST PUSH1 0x20 DUP4 LT EQ PUSH2 0x2976 JUMPI JUMP JUMPDEST PUSH4 0x4E487B71 PUSH1 0xE0 SHL PUSH1 0x0 MSTORE PUSH1 0x22 PUSH1 0x4 MSTORE PUSH1 0x24 PUSH1 0x0 REVERT JUMPDEST SWAP2 PUSH1 0x7F AND SWAP2 PUSH2 0x296B JUMP JUMPDEST PUSH2 0x260 DUP2 ADD SWAP1 DUP2 LT PUSH8 0xFFFFFFFFFFFFFFFF DUP3 GT OR PUSH2 0x29B3 JUMPI PUSH1 0x40 MSTORE JUMP JUMPDEST PUSH4 0x4E487B71 PUSH1 0xE0 SHL PUSH1 0x0 MSTORE PUSH1 0x41 PUSH1 0x4 MSTORE PUSH1 0x24 PUSH1 0x0 REVERT JUMPDEST SWAP1 PUSH1 0x1F PUSH1 0x1F NOT SWAP2 ADD AND DUP2 ADD SWAP1 DUP2 LT PUSH8 0xFFFFFFFFFFFFFFFF DUP3 GT OR PUSH2 0x29B3 JUMPI PUSH1 0x40 MSTORE JUMP JUMPDEST SWAP1 PUSH1 0x40 MLOAD SWAP2 DUP3 PUSH1 0x0 DUP3 SLOAD SWAP3 PUSH2 0x2A00 DUP5 PUSH2 0x295C JUMP JUMPDEST DUP1 DUP5 MSTORE SWAP4 PUSH1 0x1 DUP2 AND SWAP1 DUP2 ISZERO PUSH2 0x2A6E JUMPI POP PUSH1 0x1 EQ PUSH2 0x2A27 JUMPI JUMPDEST POP PUSH2 0x2A25 SWAP3 POP SUB DUP4 PUSH2 0x29C9 JUMP JUMPDEST JUMP JUMPDEST SWAP1 POP PUSH1 0x0 SWAP3 SWAP2 SWAP3 MSTORE PUSH1 0x20 PUSH1 0x0 KECCAK256 SWAP1 PUSH1 0x0 SWAP2 JUMPDEST DUP2 DUP4 LT PUSH2 0x2A52 JUMPI POP POP SWAP1 PUSH1 0x20 PUSH2 0x2A25 SWAP3 DUP3 ADD ADD CODESIZE PUSH2 0x2A18 JUMP JUMPDEST PUSH1 0x20 SWAP2 SWAP4 POP DUP1 PUSH1 0x1 SWAP2 SLOAD DUP4 DUP6 DUP10 ADD ADD MSTORE ADD SWAP2 ADD SWAP1 SWAP2 DUP5 SWAP3 PUSH2 0x2A39 JUMP JUMPDEST PUSH1 0x20 SWAP4 POP PUSH2 0x2A25 SWAP6 SWAP3 POP PUSH1 0xFF NOT SWAP2 POP AND DUP3 DUP5 ADD MSTORE ISZERO ISZERO PUSH1 0x5 SHL DUP3 ADD ADD CODESIZE PUSH2 0x2A18 JUMP JUMPDEST SWAP2 SWAP1 DUP3 ADD DUP1 SWAP3 GT PUSH2 0x2A9D JUMPI JUMP JUMPDEST PUSH4 0x4E487B71 PUSH1 0xE0 SHL PUSH1 0x0 MSTORE PUSH1 0x11 PUSH1 0x4 MSTORE PUSH1 0x24 PUSH1 0x0 REVERT JUMPDEST SWAP3 SWAP2 SWAP3 PUSH8 0xFFFFFFFFFFFFFFFF DUP3 GT PUSH2 0x29B3 JUMPI PUSH1 0x40 MLOAD SWAP2 PUSH2 0x2ADD PUSH1 0x1F DUP3 ADD PUSH1 0x1F NOT AND PUSH1 0x20 ADD DUP5 PUSH2 0x29C9 JUMP JUMPDEST DUP3 SWAP5 DUP2 DUP5 MSTORE DUP2 DUP4 ADD GT PUSH2 0x275C JUMPI DUP3 DUP2 PUSH1 0x20 SWAP4 DUP5 PUSH1 0x0 SWAP7 ADD CALLDATACOPY ADD ADD MSTORE JUMP JUMPDEST PUSH1 0x3 DUP3 LT ISZERO PUSH2 0x27DB JUMPI MSTORE JUMP JUMPDEST PUSH1 0x1F DUP3 GT PUSH2 0x2B13 JUMPI POP POP POP JUMP JUMPDEST PUSH1 0x0 MSTORE PUSH1 0x20 PUSH1 0x0 KECCAK256 SWAP1 PUSH1 0x20 PUSH1 0x1F DUP5 ADD PUSH1 0x5 SHR DUP4 ADD SWAP4 LT PUSH2 0x2B4E JUMPI JUMPDEST PUSH1 0x1F ADD PUSH1 0x5 SHR ADD SWAP1 JUMPDEST DUP2 DUP2 LT PUSH2 0x2B42 JUMPI POP POP JUMP JUMPDEST PUSH1 0x0 DUP2 SSTORE PUSH1 0x1 ADD PUSH2 0x2B37 JUMP JUMPDEST SWAP1 SWAP2 POP DUP2 SWAP1 PUSH2 0x2B2E JUMP JUMPDEST PUSH1 0x0 NOT DUP2 EQ PUSH2 0x2A9D JUMPI PUSH1 0x1 ADD SWAP1 JUMP JUMPDEST PUSH1 0x1F DUP3 PUSH1 0x20 SWAP5 SWAP4 PUSH1 0x1F NOT SWAP4 DUP2 DUP7 MSTORE DUP7 DUP7 ADD CALLDATACOPY PUSH1 0x0 DUP6 DUP3 DUP7 ADD ADD MSTORE ADD AND ADD ADD SWAP1 JUMP JUMPDEST PUSH1 0x40 MLOAD SWAP1 PUSH2 0x2B95 DUP3 PUSH2 0x2996 JUMP JUMPDEST PUSH1 0x60 PUSH2 0x240 DUP4 PUSH1 0x0 DUP2 MSTORE PUSH1 0x0 PUSH1 0x20 DUP3 ADD MSTORE DUP3 PUSH1 0x40 DUP3 ADD MSTORE DUP3 DUP1 DUP3 ADD MSTORE DUP3 PUSH1 0x80 DUP3 ADD MSTORE DUP3 PUSH1 0xA0 DUP3 ADD MSTORE PUSH1 0x0 PUSH1 0xC0 DUP3 ADD MSTORE PUSH1 0x0 PUSH1 0xE0 DUP3 ADD MSTORE PUSH1 0x0 PUSH2 0x100 DUP3 ADD MSTORE PUSH1 0x0 PUSH2 0x120 DUP3 ADD MSTORE PUSH1 0x0 PUSH2 0x140 DUP3 ADD MSTORE PUSH1 0x0 PUSH2 0x160 DUP3 ADD MSTORE PUSH1 0x0 PUSH2 0x180 DUP3 ADD MSTORE PUSH1 0x0 PUSH2 0x1A0 DUP3 ADD MSTORE PUSH1 0x0 PUSH2 0x1C0 DUP3 ADD MSTORE PUSH1 0x0 PUSH2 0x1E0 DUP3 ADD MSTORE PUSH1 0x0 PUSH2 0x200 DUP3 ADD MSTORE DUP3 PUSH2 0x220 DUP3 ADD MSTORE ADD MSTORE JUMP JUMPDEST SWAP1 DUP2 PUSH1 0x60 SWAP2 SUB SLT PUSH2 0x275C JUMPI DUP1 MLOAD SWAP2 PUSH1 0x40 PUSH1 0x20 DUP4 ADD MLOAD SWAP3 ADD MLOAD SWAP1 JUMP JUMPDEST PUSH8 0xFFFFFFFFFFFFFFFF DUP2 GT PUSH2 0x29B3 JUMPI PUSH1 0x5 SHL PUSH1 0x20 ADD SWAP1 JUMP JUMPDEST DUP1 MLOAD DUP3 LT ISZERO PUSH2 0x2946 JUMPI PUSH1 0x20 SWAP2 PUSH1 0x5 SHL ADD ADD SWAP1 JUMP JUMPDEST PUSH1 0x2 PUSH1 0x1 SLOAD EQ PUSH2 0x2C76 JUMPI PUSH1 0x2 PUSH1 0x1 SSTORE JUMP JUMPDEST PUSH32 0x3EE5AEB500000000000000000000000000000000000000000000000000000000 PUSH1 0x0 MSTORE PUSH1 0x4 PUSH1 0x0 REVERT JUMPDEST PUSH1 0x1 PUSH1 0x1 PUSH1 0xA0 SHL SUB PUSH1 0x0 SLOAD AND CALLER SUB PUSH2 0x2CB4 JUMPI JUMP JUMPDEST PUSH32 0x118CDAA700000000000000000000000000000000000000000000000000000000 PUSH1 0x0 MSTORE CALLER PUSH1 0x4 MSTORE PUSH1 0x24 PUSH1 0x0 REVERT JUMPDEST CALLER PUSH1 0x0 SWAP1 DUP2 MSTORE PUSH32 0xE5EBFA64FCA8D502A8E50C1EDFFD2C31EF4DAD5B396E65D9F397FB028F74ABC5 PUSH1 0x20 MSTORE PUSH1 0x40 SWAP1 KECCAK256 SLOAD PUSH1 0xFF AND ISZERO PUSH2 0x2D1B JUMPI JUMP JUMPDEST PUSH4 0xE2517D3F PUSH1 0xE0 SHL PUSH1 0x0 MSTORE CALLER PUSH1 0x4 MSTORE PUSH32 0xA49807205CE4D355092EF5A8A18F56E8913CF4A201FBE287825B095693C21775 PUSH1 0x24 MSTORE PUSH1 0x44 PUSH1 0x0 REVERT JUMPDEST CALLER PUSH1 0x0 SWAP1 DUP2 MSTORE PUSH32 0xDC6246A27A928D53414CF0BBE2BFDE021E1AC737A6E0BCF9B182CDA5A9B2DCF7 PUSH1 0x20 MSTORE PUSH1 0x40 SWAP1 KECCAK256 SLOAD PUSH1 0xFF AND ISZERO PUSH2 0x2D8D JUMPI JUMP JUMPDEST PUSH4 0xE2517D3F PUSH1 0xE0 SHL PUSH1 0x0 MSTORE CALLER PUSH1 0x4 MSTORE PUSH32 0xCE23C3E399818CFEE81A7AB0880F714E53D7672B08DF0FA62F2843416E1EA09 PUSH1 0x24 MSTORE PUSH1 0x44 PUSH1 0x0 REVERT JUMPDEST DUP1 PUSH1 0x0 MSTORE PUSH1 0x2 PUSH1 0x20 MSTORE PUSH1 0x40 PUSH1 0x0 KECCAK256 PUSH1 0x1 PUSH1 0x1 PUSH1 0xA0 SHL SUB CALLER AND PUSH1 0x0 MSTORE PUSH1 0x20 MSTORE PUSH1 0xFF PUSH1 0x40 PUSH1 0x0 KECCAK256 SLOAD AND ISZERO PUSH2 0x2DF5 JUMPI POP JUMP JUMPDEST PUSH4 0xE2517D3F PUSH1 0xE0 SHL PUSH1 0x0 MSTORE CALLER PUSH1 0x4 MSTORE PUSH1 0x24 MSTORE PUSH1 0x44 PUSH1 0x0 REVERT JUMPDEST DUP1 PUSH1 0x0 MSTORE PUSH1 0x2 PUSH1 0x20 MSTORE PUSH1 0x40 PUSH1 0x0 KECCAK256 PUSH1 0x1 PUSH1 0x1 PUSH1 0xA0 SHL SUB DUP4 AND PUSH1 0x0 MSTORE PUSH1 0x20 MSTORE PUSH1 0xFF PUSH1 0x40 PUSH1 0x0 KECCAK256 SLOAD AND ISZERO PUSH1 0x0 EQ PUSH2 0x2EA0 JUMPI DUP1 PUSH1 0x0 MSTORE PUSH1 0x2 PUSH1 0x20 MSTORE PUSH1 0x40 PUSH1 0x0 KECCAK256 PUSH1 0x1 PUSH1 0x1 PUSH1 0xA0 SHL SUB DUP4 AND PUSH1 0x0 MSTORE PUSH1 0x20 MSTORE PUSH1 0x40 PUSH1 0x0 KECCAK256 PUSH1 0x1 PUSH1 0xFF NOT DUP3 SLOAD AND OR SWAP1 SSTORE PUSH1 0x1 PUSH1 0x1 PUSH1 0xA0 SHL SUB CALLER SWAP3 AND SWAP1 PUSH32 0x2F8788117E7EFF1D82E926EC794901D17C78024A50270940304540A733656F0D PUSH1 0x0 DUP1 LOG4 PUSH1 0x1 SWAP1 JUMP JUMPDEST POP POP PUSH1 0x0 SWAP1 JUMP JUMPDEST DUP1 PUSH1 0x0 MSTORE PUSH1 0x2 PUSH1 0x20 MSTORE PUSH1 0x40 PUSH1 0x0 KECCAK256 PUSH1 0x1 PUSH1 0x1 PUSH1 0xA0 SHL SUB DUP4 AND PUSH1 0x0 MSTORE PUSH1 0x20 MSTORE PUSH1 0xFF PUSH1 0x40 PUSH1 0x0 KECCAK256 SLOAD AND PUSH1 0x0 EQ PUSH2 0x2EA0 JUMPI DUP1 PUSH1 0x0 MSTORE PUSH1 0x2 PUSH1 0x20 MSTORE PUSH1 0x40 PUSH1 0x0 KECCAK256 PUSH1 0x1 PUSH1 0x1 PUSH1 0xA0 SHL SUB DUP4 AND PUSH1 0x0 MSTORE PUSH1 0x20 MSTORE PUSH1 0x40 PUSH1 0x0 KECCAK256 PUSH1 0xFF NOT DUP2 SLOAD AND SWAP1 SSTORE PUSH1 0x1 PUSH1 0x1 PUSH1 0xA0 SHL SUB CALLER SWAP3 AND SWAP1 PUSH32 0xF6391F5C32D9C69D2A47EA670B442974B53935D1EDC7FD64EB21E047A839171B PUSH1 0x0 DUP1 LOG4 PUSH1 0x1 SWAP1 JUMP INVALID LOG2 PUSH5 0x6970667358 0x22 SLT KECCAK256 0xD3 PUSH7 0x384118A0E2A2D8 0xBF SWAP13 0xB9 DUP13 PUSH13 0xE75C8751FCDD7640367B91DEC7 0xF6 0xA9 0xB1 PUSH4 0xA164736F PUSH13 0x634300081C00332F8788117E7E SELFDESTRUCT SAR DUP3 0xE9 0x26 0xEC PUSH26 0x4901D17C78024A50270940304540A733656F0DAC33FF75C19E70 INVALID DUP4 POP PUSH30 0xB0D683FD3465C996598DC972688B7ACE676C89077BE5EBFA64FCA8D502A8 0xE5 0xC 0x1E 0xDF REVERT 0x2C BALANCE 0xEF 0x4D 0xAD JUMPDEST CODECOPY PUSH15 0x65D9F397FB028F74ABC50000000000 "},"methodIdentifiers":{"ADMIN_ROLE()":"75b238fc","DEFAULT_ADMIN_ROLE()":"a217fddf","VERIFIER_ROLE()":"e7705db6","approveSubmission(uint256)":"80fd0fb3","attachRecyclables(uint256,string,string)":"ab2fea2b","createSubmission(string,string,string,string,int256,int256,address)":"03387c21","dcuToken()":"14cde16e","defaultRewardAmount()":"ee2f00c2","feeEnabled()":"a771ebc7","getHypercertEligibility(address)":"2d83b7ca","getRoleAdmin(bytes32)":"248a9ca3","getSubmissionBatch(uint256,uint256)":"8d355395","getSubmissionDetails(uint256)":"2405bc05","getSubmissionsByUser(address)":"b9011523","grantRole(bytes32,address)":"2f2ff15d","hasRole(bytes32,address)":"91d14854","impactProductNFT()":"2976100f","owner()":"8da5cb5b","recyclablesRewardContract()":"97dfe71a","referrers(address)":"4a3b68cc","rejectSubmission(uint256)":"c14f7ea8","renounceOwnership()":"715018a6","renounceRole(bytes32,address)":"36568abe","revokeRole(bytes32,address)":"d547741f","rewardManager()":"0f4ef8a6","setImpactProductNFT(address)":"68250d69","submissionCount()":"6ec02be9","submissionFee()":"e8888942","submissions(uint256)":"ad73349e","supportsInterface(bytes4)":"01ffc9a7","totalFeesCollected()":"60c6d8ae","totalFeesRefunded()":"f07bee55","transferOwnership(address)":"f2fde38b","treasury()":"61d027b3","updateDefaultReward(uint256)":"2ab24746","updateRecyclablesRewardContract(address)":"0c4f14be","updateSubmissionFee(uint256,bool)":"43084e06","updateTreasury(address)":"7f51bb1f","userCleanupCount(address)":"aec47e1f","userHypercertCount(address)":"5fb971fe","userImpactFormCount(address)":"308636f2","userSubmissions(address,uint256)":"9b7e0180"}}}}}