{
  "_format": "hh-sol-artifact-1",
  "contractName": "ImpactProductNFT",
  "sourceName": "contracts/contracts/tokens/ImpactProductNFT.sol",
  "abi": [
    {
      "inputs": [
        {
          "internalType": "address",
          "name": "_rewardsContract",
          "type": "address"
        }
      ],
      "stateMutability": "nonpayable",
      "type": "constructor"
    },
    {
      "inputs": [
        {
          "internalType": "address",
          "name": "sender",
          "type": "address"
        },
        {
          "internalType": "uint256",
          "name": "tokenId",
          "type": "uint256"
        },
        {
          "internalType": "address",
          "name": "owner",
          "type": "address"
        }
      ],
      "name": "ERC721IncorrectOwner",
      "type": "error"
    },
    {
      "inputs": [
        {
          "internalType": "address",
          "name": "operator",
          "type": "address"
        },
        {
          "internalType": "uint256",
          "name": "tokenId",
          "type": "uint256"
        }
      ],
      "name": "ERC721InsufficientApproval",
      "type": "error"
    },
    {
      "inputs": [
        {
          "internalType": "address",
          "name": "approver",
          "type": "address"
        }
      ],
      "name": "ERC721InvalidApprover",
      "type": "error"
    },
    {
      "inputs": [
        {
          "internalType": "address",
          "name": "operator",
          "type": "address"
        }
      ],
      "name": "ERC721InvalidOperator",
      "type": "error"
    },
    {
      "inputs": [
        {
          "internalType": "address",
          "name": "owner",
          "type": "address"
        }
      ],
      "name": "ERC721InvalidOwner",
      "type": "error"
    },
    {
      "inputs": [
        {
          "internalType": "address",
          "name": "receiver",
          "type": "address"
        }
      ],
      "name": "ERC721InvalidReceiver",
      "type": "error"
    },
    {
      "inputs": [
        {
          "internalType": "address",
          "name": "sender",
          "type": "address"
        }
      ],
      "name": "ERC721InvalidSender",
      "type": "error"
    },
    {
      "inputs": [
        {
          "internalType": "uint256",
          "name": "tokenId",
          "type": "uint256"
        }
      ],
      "name": "ERC721NonexistentToken",
      "type": "error"
    },
    {
      "inputs": [
        {
          "internalType": "address",
          "name": "owner",
          "type": "address"
        }
      ],
      "name": "OwnableInvalidOwner",
      "type": "error"
    },
    {
      "inputs": [
        {
          "internalType": "address",
          "name": "account",
          "type": "address"
        }
      ],
      "name": "OwnableUnauthorizedAccount",
      "type": "error"
    },
    {
      "anonymous": false,
      "inputs": [
        {
          "indexed": true,
          "internalType": "address",
          "name": "owner",
          "type": "address"
        },
        {
          "indexed": true,
          "internalType": "address",
          "name": "approved",
          "type": "address"
        },
        {
          "indexed": true,
          "internalType": "uint256",
          "name": "tokenId",
          "type": "uint256"
        }
      ],
      "name": "Approval",
      "type": "event"
    },
    {
      "anonymous": false,
      "inputs": [
        {
          "indexed": true,
          "internalType": "address",
          "name": "owner",
          "type": "address"
        },
        {
          "indexed": true,
          "internalType": "address",
          "name": "operator",
          "type": "address"
        },
        {
          "indexed": false,
          "internalType": "bool",
          "name": "approved",
          "type": "bool"
        }
      ],
      "name": "ApprovalForAll",
      "type": "event"
    },
    {
      "anonymous": false,
      "inputs": [
        {
          "indexed": true,
          "internalType": "uint256",
          "name": "tokenId",
          "type": "uint256"
        },
        {
          "indexed": false,
          "internalType": "uint256",
          "name": "newImpactLevel",
          "type": "uint256"
        }
      ],
      "name": "ImpactLevelUpdated",
      "type": "event"
    },
    {
      "anonymous": false,
      "inputs": [
        {
          "indexed": true,
          "internalType": "address",
          "name": "user",
          "type": "address"
        },
        {
          "indexed": true,
          "internalType": "uint256",
          "name": "tokenId",
          "type": "uint256"
        }
      ],
      "name": "Minted",
      "type": "event"
    },
    {
      "anonymous": false,
      "inputs": [
        {
          "indexed": true,
          "internalType": "uint256",
          "name": "tokenId",
          "type": "uint256"
        },
        {
          "indexed": false,
          "internalType": "uint256",
          "name": "newLevel",
          "type": "uint256"
        }
      ],
      "name": "NFTUpgraded",
      "type": "event"
    },
    {
      "anonymous": false,
      "inputs": [
        {
          "indexed": true,
          "internalType": "address",
          "name": "previousOwner",
          "type": "address"
        },
        {
          "indexed": true,
          "internalType": "address",
          "name": "newOwner",
          "type": "address"
        }
      ],
      "name": "OwnershipTransferred",
      "type": "event"
    },
    {
      "anonymous": false,
      "inputs": [
        {
          "indexed": true,
          "internalType": "address",
          "name": "user",
          "type": "address"
        }
      ],
      "name": "POIVerified",
      "type": "event"
    },
    {
      "anonymous": false,
      "inputs": [
        {
          "indexed": true,
          "internalType": "address",
          "name": "user",
          "type": "address"
        },
        {
          "indexed": true,
          "internalType": "uint256",
          "name": "level",
          "type": "uint256"
        }
      ],
      "name": "RewardDistributed",
      "type": "event"
    },
    {
      "anonymous": false,
      "inputs": [
        {
          "indexed": true,
          "internalType": "address",
          "name": "newRewardsContract",
          "type": "address"
        }
      ],
      "name": "RewardsContractUpdated",
      "type": "event"
    },
    {
      "anonymous": false,
      "inputs": [
        {
          "indexed": true,
          "internalType": "address",
          "name": "from",
          "type": "address"
        },
        {
          "indexed": true,
          "internalType": "address",
          "name": "to",
          "type": "address"
        },
        {
          "indexed": true,
          "internalType": "uint256",
          "name": "tokenId",
          "type": "uint256"
        }
      ],
      "name": "Transfer",
      "type": "event"
    },
    {
      "anonymous": false,
      "inputs": [
        {
          "indexed": true,
          "internalType": "uint256",
          "name": "tokenId",
          "type": "uint256"
        }
      ],
      "name": "TransferAuthorizationRevoked",
      "type": "event"
    },
    {
      "anonymous": false,
      "inputs": [
        {
          "indexed": true,
          "internalType": "uint256",
          "name": "tokenId",
          "type": "uint256"
        },
        {
          "indexed": true,
          "internalType": "address",
          "name": "recipient",
          "type": "address"
        }
      ],
      "name": "TransferAuthorized",
      "type": "event"
    },
    {
      "inputs": [],
      "name": "MAX_LEVEL",
      "outputs": [
        {
          "internalType": "uint256",
          "name": "",
          "type": "uint256"
        }
      ],
      "stateMutability": "view",
      "type": "function"
    },
    {
      "inputs": [
        {
          "internalType": "address",
          "name": "",
          "type": "address"
        }
      ],
      "name": "_userHasMinted",
      "outputs": [
        {
          "internalType": "bool",
          "name": "",
          "type": "bool"
        }
      ],
      "stateMutability": "view",
      "type": "function"
    },
    {
      "inputs": [
        {
          "internalType": "uint256",
          "name": "tokenId",
          "type": "uint256"
        },
        {
          "internalType": "address",
          "name": "recipient",
          "type": "address"
        }
      ],
      "name": "adminTransfer",
      "outputs": [],
      "stateMutability": "nonpayable",
      "type": "function"
    },
    {
      "inputs": [
        {
          "internalType": "address",
          "name": "to",
          "type": "address"
        },
        {
          "internalType": "uint256",
          "name": "tokenId",
          "type": "uint256"
        }
      ],
      "name": "approve",
      "outputs": [],
      "stateMutability": "nonpayable",
      "type": "function"
    },
    {
      "inputs": [
        {
          "internalType": "uint256",
          "name": "tokenId",
          "type": "uint256"
        },
        {
          "internalType": "address",
          "name": "recipient",
          "type": "address"
        }
      ],
      "name": "authorizeTransfer",
      "outputs": [],
      "stateMutability": "nonpayable",
      "type": "function"
    },
    {
      "inputs": [
        {
          "internalType": "address",
          "name": "owner",
          "type": "address"
        }
      ],
      "name": "balanceOf",
      "outputs": [
        {
          "internalType": "uint256",
          "name": "",
          "type": "uint256"
        }
      ],
      "stateMutability": "view",
      "type": "function"
    },
    {
      "inputs": [
        {
          "internalType": "address",
          "name": "user",
          "type": "address"
        },
        {
          "internalType": "uint256",
          "name": "level",
          "type": "uint256"
        }
      ],
      "name": "distributeReward",
      "outputs": [],
      "stateMutability": "nonpayable",
      "type": "function"
    },
    {
      "inputs": [
        {
          "internalType": "uint256",
          "name": "tokenId",
          "type": "uint256"
        }
      ],
      "name": "getApproved",
      "outputs": [
        {
          "internalType": "address",
          "name": "",
          "type": "address"
        }
      ],
      "stateMutability": "view",
      "type": "function"
    },
    {
      "inputs": [
        {
          "internalType": "address",
          "name": "user",
          "type": "address"
        }
      ],
      "name": "getUserNFTData",
      "outputs": [
        {
          "internalType": "uint256",
          "name": "tokenId",
          "type": "uint256"
        },
        {
          "internalType": "uint256",
          "name": "impact",
          "type": "uint256"
        },
        {
          "internalType": "uint256",
          "name": "level",
          "type": "uint256"
        }
      ],
      "stateMutability": "view",
      "type": "function"
    },
    {
      "inputs": [
        {
          "internalType": "uint256",
          "name": "",
          "type": "uint256"
        }
      ],
      "name": "impactLevel",
      "outputs": [
        {
          "internalType": "uint256",
          "name": "",
          "type": "uint256"
        }
      ],
      "stateMutability": "view",
      "type": "function"
    },
    {
      "inputs": [
        {
          "internalType": "address",
          "name": "owner",
          "type": "address"
        },
        {
          "internalType": "address",
          "name": "operator",
          "type": "address"
        }
      ],
      "name": "isApprovedForAll",
      "outputs": [
        {
          "internalType": "bool",
          "name": "",
          "type": "bool"
        }
      ],
      "stateMutability": "view",
      "type": "function"
    },
    {
      "inputs": [
        {
          "internalType": "uint256",
          "name": "tokenId",
          "type": "uint256"
        }
      ],
      "name": "isTransferAuthorized",
      "outputs": [
        {
          "internalType": "bool",
          "name": "authorized",
          "type": "bool"
        },
        {
          "internalType": "address",
          "name": "recipient",
          "type": "address"
        }
      ],
      "stateMutability": "view",
      "type": "function"
    },
    {
      "inputs": [
        {
          "internalType": "address",
          "name": "user",
          "type": "address"
        }
      ],
      "name": "mint",
      "outputs": [],
      "stateMutability": "nonpayable",
      "type": "function"
    },
    {
      "inputs": [],
      "name": "name",
      "outputs": [
        {
          "internalType": "string",
          "name": "",
          "type": "string"
        }
      ],
      "stateMutability": "view",
      "type": "function"
    },
    {
      "inputs": [
        {
          "internalType": "uint256",
          "name": "",
          "type": "uint256"
        }
      ],
      "name": "nftLevel",
      "outputs": [
        {
          "internalType": "uint256",
          "name": "",
          "type": "uint256"
        }
      ],
      "stateMutability": "view",
      "type": "function"
    },
    {
      "inputs": [],
      "name": "owner",
      "outputs": [
        {
          "internalType": "address",
          "name": "",
          "type": "address"
        }
      ],
      "stateMutability": "view",
      "type": "function"
    },
    {
      "inputs": [
        {
          "internalType": "uint256",
          "name": "tokenId",
          "type": "uint256"
        }
      ],
      "name": "ownerOf",
      "outputs": [
        {
          "internalType": "address",
          "name": "",
          "type": "address"
        }
      ],
      "stateMutability": "view",
      "type": "function"
    },
    {
      "inputs": [],
      "name": "renounceOwnership",
      "outputs": [],
      "stateMutability": "nonpayable",
      "type": "function"
    },
    {
      "inputs": [
        {
          "internalType": "uint256",
          "name": "tokenId",
          "type": "uint256"
        }
      ],
      "name": "revokeTransferAuthorization",
      "outputs": [],
      "stateMutability": "nonpayable",
      "type": "function"
    },
    {
      "inputs": [],
      "name": "rewardsContract",
      "outputs": [
        {
          "internalType": "address",
          "name": "",
          "type": "address"
        }
      ],
      "stateMutability": "view",
      "type": "function"
    },
    {
      "inputs": [],
      "name": "safeMint",
      "outputs": [],
      "stateMutability": "nonpayable",
      "type": "function"
    },
    {
      "inputs": [
        {
          "internalType": "address",
          "name": "from",
          "type": "address"
        },
        {
          "internalType": "address",
          "name": "to",
          "type": "address"
        },
        {
          "internalType": "uint256",
          "name": "tokenId",
          "type": "uint256"
        }
      ],
      "name": "safeTransferFrom",
      "outputs": [],
      "stateMutability": "nonpayable",
      "type": "function"
    },
    {
      "inputs": [
        {
          "internalType": "address",
          "name": "from",
          "type": "address"
        },
        {
          "internalType": "address",
          "name": "to",
          "type": "address"
        },
        {
          "internalType": "uint256",
          "name": "tokenId",
          "type": "uint256"
        },
        {
          "internalType": "bytes",
          "name": "data",
          "type": "bytes"
        }
      ],
      "name": "safeTransferFrom",
      "outputs": [],
      "stateMutability": "nonpayable",
      "type": "function"
    },
    {
      "inputs": [
        {
          "internalType": "address",
          "name": "operator",
          "type": "address"
        },
        {
          "internalType": "bool",
          "name": "approved",
          "type": "bool"
        }
      ],
      "name": "setApprovalForAll",
      "outputs": [],
      "stateMutability": "nonpayable",
      "type": "function"
    },
    {
      "inputs": [
        {
          "internalType": "address",
          "name": "newRewardsContract",
          "type": "address"
        }
      ],
      "name": "setRewardsContract",
      "outputs": [],
      "stateMutability": "nonpayable",
      "type": "function"
    },
    {
      "inputs": [
        {
          "internalType": "bytes4",
          "name": "interfaceId",
          "type": "bytes4"
        }
      ],
      "name": "supportsInterface",
      "outputs": [
        {
          "internalType": "bool",
          "name": "",
          "type": "bool"
        }
      ],
      "stateMutability": "view",
      "type": "function"
    },
    {
      "inputs": [],
      "name": "symbol",
      "outputs": [
        {
          "internalType": "string",
          "name": "",
          "type": "string"
        }
      ],
      "stateMutability": "view",
      "type": "function"
    },
    {
      "inputs": [
        {
          "internalType": "uint256",
          "name": "tokenId",
          "type": "uint256"
        }
      ],
      "name": "tokenURI",
      "outputs": [
        {
          "internalType": "string",
          "name": "",
          "type": "string"
        }
      ],
      "stateMutability": "view",
      "type": "function"
    },
    {
      "inputs": [
        {
          "internalType": "address",
          "name": "from",
          "type": "address"
        },
        {
          "internalType": "address",
          "name": "to",
          "type": "address"
        },
        {
          "internalType": "uint256",
          "name": "tokenId",
          "type": "uint256"
        }
      ],
      "name": "transferFrom",
      "outputs": [],
      "stateMutability": "nonpayable",
      "type": "function"
    },
    {
      "inputs": [
        {
          "internalType": "address",
          "name": "newOwner",
          "type": "address"
        }
      ],
      "name": "transferOwnership",
      "outputs": [],
      "stateMutability": "nonpayable",
      "type": "function"
    },
    {
      "inputs": [
        {
          "internalType": "uint256",
          "name": "tokenId",
          "type": "uint256"
        },
        {
          "internalType": "uint256",
          "name": "newImpactLevel",
          "type": "uint256"
        }
      ],
      "name": "updateImpactLevel",
      "outputs": [],
      "stateMutability": "nonpayable",
      "type": "function"
    },
    {
      "inputs": [
        {
          "internalType": "uint256",
          "name": "tokenId",
          "type": "uint256"
        }
      ],
      "name": "upgradeNFT",
      "outputs": [],
      "stateMutability": "nonpayable",
      "type": "function"
    },
    {
      "inputs": [
        {
          "internalType": "address",
          "name": "",
          "type": "address"
        }
      ],
      "name": "userLevel",
      "outputs": [
        {
          "internalType": "uint256",
          "name": "",
          "type": "uint256"
        }
      ],
      "stateMutability": "view",
      "type": "function"
    },
    {
      "inputs": [
        {
          "internalType": "address",
          "name": "",
          "type": "address"
        }
      ],
      "name": "verifiedPOI",
      "outputs": [
        {
          "internalType": "bool",
          "name": "",
          "type": "bool"
        }
      ],
      "stateMutability": "view",
      "type": "function"
    },
    {
      "inputs": [
        {
          "internalType": "address",
          "name": "user",
          "type": "address"
        }
      ],
      "name": "verifyPOI",
      "outputs": [],
      "stateMutability": "nonpayable",
      "type": "function"
    }
  ],
  "bytecode": "0x60806040523461040757612c686020813803918261001c8161040c565b93849283398101031261040757516001600160a01b0381169081900361040757610046604061040c565b906012825271125b5c1858dd08141c9bd91d58dd0813919560721b6020830152610070604061040c565b60068152651253541050d560d21b602082015282519091906001600160401b03811161031257600054600181811c911680156103fd575b60208210146102f257601f8111610399575b506020601f82116001146103335781929394600092610328575b50508160011b916000199060031b1c1916176000555b81516001600160401b03811161031257600154600181811c91168015610308575b60208210146102f257601f811161028d575b50602092601f8211600114610228579281929360009261021d575b50508160011b916000199060031b1c1916176001555b33156102075760068054336001600160a01b03198216811790925560405191906001600160a01b03167f8be0079c531659141344cd1fd0a4f28419497f9722a3daafe3b4186f6b6457e0600080a381156101c55750600780546001600160a01b03191691909117905560405161283690816104328239f35b62461bcd60e51b815260206004820181905260248201527f496e76616c6964207265776172647320636f6e747261637420616464726573736044820152606490fd5b631e4fbdf760e01b600052600060045260246000fd5b015190503880610137565b601f198216936001600052806000209160005b868110610275575083600195961061025c575b505050811b0160015561014d565b015160001960f88460031b161c1916905538808061024e565b9192602060018192868501518155019401920161023b565b60016000527fb10e2d527612073b26eecdfd717e6a320cf44b4afac2b0732d9fcbe2b7fa0cf6601f830160051c810191602084106102e8575b601f0160051c01905b8181106102dc575061011c565b600081556001016102cf565b90915081906102c6565b634e487b7160e01b600052602260045260246000fd5b90607f169061010a565b634e487b7160e01b600052604160045260246000fd5b0151905038806100d3565b601f1982169060008052806000209160005b81811061038157509583600195969710610368575b505050811b016000556100e9565b015160001960f88460031b161c1916905538808061035a565b9192602060018192868b015181550194019201610345565b600080527f290decd9548b62a8d60345a988386fc84ba6bc95484008f6362f93160ef3e563601f830160051c810191602084106103f3575b601f0160051c01905b8181106103e757506100b9565b600081556001016103da565b90915081906103d1565b90607f16906100a7565b600080fd5b6040519190601f01601f191682016001600160401b038111838210176103125760405256fe6080604052600436101561001257600080fd5b60003560e01c8062f5f4211461156357806301ffc9a7146114915780630483fc5e1461136f57806306fdde03146112b4578063081812fc14611275578063095ea7b3146111665780631ec8bb8c1461100d578063220cce9714610fe657806323b872dd14610fcf578063280e31cc14610f955780632b50496c14610f695780632e459c1e14610ec957806336816ebc14610e8a57806342842e0e14610e5a5780634ca4b2d314610dc25780635bae9d4714610d765780636352211e14610d475780636871ee4014610d245780636a62784214610cf25780636ada251f14610cb357806370a0823114610c44578063715018a614610be95780638809aa1d14610b285780638da5cb5b14610b0157806390690c9a1461099057806395d89b4114610884578063a22cb465146107ca578063a49062d4146107ae578063b88d4fde14610717578063bec98691146106eb578063c87b56dd146103a2578063d2a4b0c31461034d578063dfa0dfa5146102a0578063e985e9c5146102435763f2fde38b1461019c57600080fd5b3461023e57602060031936011261023e576001600160a01b036101bd611617565b6101c5611aac565b16801561020f576001600160a01b03600654826001600160a01b0319821617600655167f8be0079c531659141344cd1fd0a4f28419497f9722a3daafe3b4186f6b6457e0600080a3005b7f1e4fbdf700000000000000000000000000000000000000000000000000000000600052600060045260246000fd5b600080fd5b3461023e57604060031936011261023e5761025c611617565b6001600160a01b0361026c61162d565b911660005260056020526001600160a01b0360406000209116600052602052602060ff604060002054166040519015158152f35b3461023e57602060031936011261023e576001600160a01b036102c1611617565b6102c9611aac565b16801561030957806001600160a01b031960075416176007557fa9089f50b49c9b1b26ee1744c931f5d26f9f822f883aa12a567295b838731666600080a2005b606460405162461bcd60e51b815260206004820152602060248201527f496e76616c6964207265776172647320636f6e747261637420616464726573736044820152fd5b3461023e57602060031936011261023e57600435610369611aac565b61037281611aee565b61037b81611b50565b7fb5502e88c22257623a9988317e190b78fce96c36ee7ca3f945189e19e9207c2f600080a2005b3461023e57602060031936011261023e576106e76004356103c281611aee565b80600052600d60205261068160406000205482600052600e6020526106206002600160406000205493816104076104016103fb846122cd565b99612406565b92612406565b97603d6104d261049661045b61045560409d8e610426815191826116c5565b600581527f4c6576656c000000000000000000000000000000000000000000000000000000602082015261256a565b9a612406565b8c516104678e826116c5565b600681527f496d706163740000000000000000000000000000000000000000000000000000602082015261256a565b928b516104a38d826116c5565b600881527f43617465676f7279000000000000000000000000000000000000000000000000602082015261256a565b9160398b51998a967f7b226e616d65223a22496d706163742050726f647563742023000000000000006020890152610513815180926020868c019101611643565b87017f222c226465736372697074696f6e223a224465436c65616e757020496d706163838201527f742050726f64756374204e4654222c2261747472696275746573223a5b0000006059820152610574825180936020607685019101611643565b01017f2c00000000000000000000000000000000000000000000000000000000000000838201526105af825180936020603e85019101611643565b01017f2c00000000000000000000000000000000000000000000000000000000000000838201526105e98251809360208985019101611643565b01017f5d7d000000000000000000000000000000000000000000000000000000000000838201520301601d198101845201826116c5565b82519061062e6060836116c5565b8382527f4142434445464748494a4b4c4d4e4f505152535455565758595a61626364656660208301527f6768696a6b6c6d6e6f707172737475767778797a303132333435363738392b2f848301526126ce565b906106d5603d825180947f646174613a6170706c69636174696f6e2f6a736f6e3b6261736536342c00000060208301526106c48151809260208686019101611643565b81010301601f1981018452836116c5565b51918291602083526020830190611666565b0390f35b3461023e57602060031936011261023e57600435600052600d6020526020604060002054604051908152f35b3461023e57608060031936011261023e57610730611617565b61073861162d565b906044356064359267ffffffffffffffff841161023e573660238501121561023e57836004013592610769846116fe565b9361077760405195866116c5565b808552366024828801011161023e5760208160009260246107ac990183890137860101526107a6838383611765565b33612160565b005b3461023e57600060031936011261023e576020604051600a8152f35b3461023e57604060031936011261023e576107e3611617565b6024359081151580920361023e576001600160a01b031690811561085657336000526005602052604060002082600052602052604060002060ff1981541660ff83161790556040519081527f17307eab39ab6107e8899845ad3d59bd9653f200f220920489ca2b5937696c3160203392a3005b507f5b08ba180000000000000000000000000000000000000000000000000000000060005260045260246000fd5b3461023e57600060031936011261023e5760405160006001548060011c90600181168015610986575b6020831081146109725782855290811561094e57506001146108ee575b6106e7836108da818503826116c5565b604051918291602083526020830190611666565b91905060016000527fb10e2d527612073b26eecdfd717e6a320cf44b4afac2b0732d9fcbe2b7fa0cf6916000905b808210610934575090915081016020016108da6108ca565b91926001816020925483858801015201910190929161091c565b60ff191660208086019190915291151560051b840190910191506108da90506108ca565b602484634e487b7160e01b81526022600452fd5b91607f16916108ad565b3461023e57602060031936011261023e576004356109ad81611aee565b6109b681611b9c565b6001600160a01b0333911603610abd576109cf33611e3c565b80600052600d602052604060002054600a811015610a535760018101809111610a3d5760207f0c0869fcc4841cc6e2ce714c6457a98e2ed521ad954fa9ca4a8bec086dac48399183600052600d82528060406000205533600052600b825280604060002055604051908152a2005b634e487b7160e01b600052601160045260246000fd5b608460405162461bcd60e51b815260206004820152602260248201527f596f752068617665207265616368656420746865206d6178696d756d206c657660448201527f656c0000000000000000000000000000000000000000000000000000000000006064820152fd5b606460405162461bcd60e51b815260206004820152601860248201527f596f7520646f6e2774206f776e207468697320746f6b656e00000000000000006044820152fd5b3461023e57600060031936011261023e5760206001600160a01b0360065416604051908152f35b3461023e57604060031936011261023e57600435602435610b47611aac565b610b5082611aee565b80151580610bde575b15610b9a5760207f765d03c6d43b57e69c7749c9b65749bba0029e3225751b3fe130339366d942d69183600052600e825280604060002055604051908152a2005b606460405162461bcd60e51b815260206004820152601a60248201527f496e76616c696420696d70616374206c6576656c2072616e67650000000000006044820152fd5b50600a811115610b59565b3461023e57600060031936011261023e57610c02611aac565b60006001600160a01b036006546001600160a01b03198116600655167f8be0079c531659141344cd1fd0a4f28419497f9722a3daafe3b4186f6b6457e08280a3005b3461023e57602060031936011261023e576001600160a01b03610c65611617565b168015610c845760005260036020526020604060002054604051908152f35b7f89c62b6400000000000000000000000000000000000000000000000000000000600052600060045260246000fd5b3461023e57602060031936011261023e576001600160a01b03610cd4611617565b166000526009602052602060ff604060002054166040519015158152f35b3461023e57602060031936011261023e576107ac610d0e611617565b610d16611aac565b610d1f81611e3c565b611ea1565b3461023e57600060031936011261023e57610d3e33611e3c565b6107ac33611ea1565b3461023e57602060031936011261023e576020610d65600435611b9c565b6001600160a01b0360405191168152f35b3461023e57602060031936011261023e57604060043580600052600f60205260ff8260002054169060005260106020526001600160a01b03826000205416825191151582526020820152f35b3461023e57602060031936011261023e576001600160a01b03610de3611617565b1680600052600c602052604060002054610dfe811515611a61565b6000198101908111610a3d5781610e296060936001600160a01b03610e2285611b9c565b1614611a61565b81600052600e60205260406000205490600052600b6020526040600020549060405192835260208301526040820152f35b3461023e576107ac610e6b3661168b565b9060405192610e7b6020856116c5565b600084526107a6838383611765565b3461023e57602060031936011261023e576001600160a01b03610eab611617565b16600052600a602052602060ff604060002054166040519015158152f35b3461023e57604060031936011261023e576004356001600160a01b03610eed61162d565b610ef5611aac565b610efe83611aee565b1690610f0b82151561171a565b80600052600f6020526040600020600160ff198254161790558060005260106020526040600020826001600160a01b03198254161790557f176a9858cb229635f8b420a37c2ec0e70bca8d1bc534e8e1c065d07cd339f13b600080a3005b3461023e57602060031936011261023e57600435600052600e6020526020604060002054604051908152f35b3461023e57602060031936011261023e576001600160a01b03610fb6611617565b16600052600b6020526020604060002054604051908152f35b3461023e576107ac610fe03661168b565b91611765565b3461023e57600060031936011261023e5760206001600160a01b0360075416604051908152f35b3461023e57604060031936011261023e57611026611617565b6001600160a01b036024359161103a611aac565b1680156111225780600052600960205260ff60406000205416156110de576001821015806110d3575b1561108f577fe34918ff1c7084970068b53fd71ad6d8b04e9f15d3886cbf006443e6cdc52ea6600080a3005b606460405162461bcd60e51b815260206004820152601360248201527f496e76616c6964206c6576656c2072616e6765000000000000000000000000006044820152fd5b50600a821115611063565b606460405162461bcd60e51b815260206004820152601a60248201527f55736572206973206e6f74206120766572696669656420504f490000000000006044820152fd5b606460405162461bcd60e51b815260206004820152601460248201527f496e76616c6964207573657220616464726573730000000000000000000000006044820152fd5b3461023e57604060031936011261023e5761117f611617565b60243561118b81611b9c565b33151580611262575b8061122b575b6111fd5781906001600160a01b0380851691167f8c5be1e5ebec7d5bd14f71427d1e84f3dd0314c0f7b2291e5b200ac8c7c3b925600080a460005260046020526001600160a01b03604060002091166001600160a01b0319825416179055600080f35b7fa9fbf51f000000000000000000000000000000000000000000000000000000006000523360045260246000fd5b506001600160a01b038116600052600560205260406000206001600160a01b03331660005260205260ff604060002054161561119a565b50336001600160a01b0382161415611194565b3461023e57602060031936011261023e5760043561129281611b9c565b50600052600460205260206001600160a01b0360406000205416604051908152f35b3461023e57600060031936011261023e57604051600080548060011c90600181168015611365575b6020831081146109725782855290811561094e5750600114611308576106e7836108da818503826116c5565b60008080527f290decd9548b62a8d60345a988386fc84ba6bc95484008f6362f93160ef3e563939250905b80821061134b575090915081016020016108da6108ca565b919260018160209254838588010152019101909291611333565b91607f16916112dc565b3461023e57604060031936011261023e5760043561138b61162d565b90611394611aac565b61139d81611aee565b6001600160a01b03821615916113b3831561171a565b6113bc82611b9c565b9282600052600f6020526040600020600160ff1982541617905582600052601060205260406000206001600160a01b0383166001600160a01b031982541617905561147b57611413826001600160a01b0392611bd3565b16918261142f5750637e27328960e01b60005260045260246000fd5b6001600160a01b0316808303611448576107ac82611b50565b7f64283d7b0000000000000000000000000000000000000000000000000000000060005260045260245260445260646000fd5b633250574960e11b600052600060045260246000fd5b3461023e57602060031936011261023e576004357fffffffff00000000000000000000000000000000000000000000000000000000811680910361023e57807f80ac58cd0000000000000000000000000000000000000000000000000000000060209214908115611539575b811561150f575b506040519015158152f35b7f01ffc9a70000000000000000000000000000000000000000000000000000000091501482611504565b7f5b5e139f00000000000000000000000000000000000000000000000000000000811491506114fd565b3461023e57602060031936011261023e576001600160a01b03611584611617565b61158c611aac565b1680156115d3578060005260096020526040600020600160ff198254161790557f920bd3b5a215c93296af07ef6415b61f63fe3f6732d03e6ee2063be1c22f22b5600080a2005b606460405162461bcd60e51b815260206004820152600f60248201527f496e76616c6964206164647265737300000000000000000000000000000000006044820152fd5b600435906001600160a01b038216820361023e57565b602435906001600160a01b038216820361023e57565b60005b8381106116565750506000910152565b8181015183820152602001611646565b90601f19601f60209361168481518092818752878088019101611643565b0116010190565b600319606091011261023e576004356001600160a01b038116810361023e57906024356001600160a01b038116810361023e579060443590565b90601f601f19910116810190811067ffffffffffffffff8211176116e857604052565b634e487b7160e01b600052604160045260246000fd5b67ffffffffffffffff81116116e857601f01601f191660200190565b1561172157565b606460405162461bcd60e51b815260206004820152601160248201527f496e76616c696420726563697069656e740000000000000000000000000000006044820152fd5b9092916001600160a01b03841691821561147b576000828152600260205260408120546001600160a01b03161515958680611a59575b6119b3575b83825260026020526001600160a01b036040832054169433151580611903575b508596976001600160a01b039596151590816118c9575b82855260036020526040852060018154019055878552600260205260408520836001600160a01b031982541617905587838a7fddf252ad1be2c89b69c2b068fc378daa952ba7f163c4a11628f55a4df523b3ef8880a4806118c1575b6118b3575b818803611851575b505050501680830361144857505050565b611898936040916118a1575b6118678885612628565b828152600a602052818120600160ff19825416179055878152600d60205281812054928152600b602052205561264c565b38808080611840565b888152600c602052808281205561185d565b6118bc87611b50565b611838565b506001611833565b6118ea88600052600460205260406000206001600160a01b03198154169055565b88855260036020526040852060001981540190556117d7565b8061195c575b1561191457386117c0565b84838761192d57602491637e27328960e01b8252600452fd5b6044917f177e802f00000000000000000000000000000000000000000000000000000000825233600452602452fd5b50338614801561198a575b8061190957508483526004602052336001600160a01b0360408520541614611909565b508583526005602052604083206001600160a01b033316845260205260ff604084205416611967565b838252600f60205260ff604083205416158015611a3a575b156117a057608460405162461bcd60e51b815260206004820152603a60248201527f496d7061637450726f647563744e46543a207472616e7366657273206172652060448201527f726573747269637465642028736f756c626f756e64204e4654290000000000006064820152fd5b508382526010602052846001600160a01b0360408420541614156119cb565b50600161179b565b15611a6857565b606460405162461bcd60e51b815260206004820152600f60248201527f5573657220686173206e6f204e465400000000000000000000000000000000006044820152fd5b6001600160a01b03600654163303611ac057565b7f118cdaa7000000000000000000000000000000000000000000000000000000006000523360045260246000fd5b60005260026020526001600160a01b036040600020541615611b0c57565b606460405162461bcd60e51b815260206004820152601460248201527f546f6b656e20646f6573206e6f742065786973740000000000000000000000006044820152fd5b80600052600f60205260ff60406000205416611b695750565b80600052600f602052604060002060ff198154169055600052601060205260406000206001600160a01b03198154169055565b8060005260026020526001600160a01b0360406000205416908115611bbf575090565b637e27328960e01b60005260045260246000fd5b908060005260026020526001600160a01b0360406000205416151591828093611e2a575b611d77575b8160005260026020526001600160a01b0360406000205416928315159081611d3b575b6001600160a01b038316918215159182611d21575b8560005260026020526040600020846001600160a01b03198254161790558584887fddf252ad1be2c89b69c2b068fc378daa952ba7f163c4a11628f55a4df523b3ef600080a480611d1a575b611d0c575b828603611c95575b505050505090565b611cf7575b611ca6575b8080611c8d565b82611cb4611cef9484612628565b81600052600a6020526040600020600160ff19825416179055600052600d60205260406000205490600052600b60205260406000205561264c565b388080611c9f565b84600052600c60205260006040812055611c9a565b611d1585611b50565b611c85565b5081611c80565b836000526003602052604060002060018154019055611c34565b611d5c84600052600460205260406000206001600160a01b03198154169055565b84600052600360205260406000206000198154019055611c1f565b81600052600f60205260ff60406000205416158015611e00575b15611bfc57608460405162461bcd60e51b815260206004820152603a60248201527f496d7061637450726f647563744e46543a207472616e7366657273206172652060448201527f726573747269637465642028736f756c626f756e64204e4654290000000000006064820152fd5b508160005260106020526001600160a01b03604060002054166001600160a01b0382161415611d91565b506001600160a01b0381161515611bf7565b6001600160a01b0316600052600960205260ff6040600020541615611e5d57565b606460405162461bcd60e51b815260206004820152601a60248201527f596f7520617265206e6f74206120766572696669656420504f490000000000006044820152fd5b6001600160a01b03811680600052600a60205260ff6040600020541661211c576008549160018301808411610a3d5760085582600052600d602052600160406000205582600052600e602052600160406000205581600052600b602052600160406000205581600052600a6020526040600020600160ff198254161790556020604051611f2e82826116c5565b60008152831561147b576001600160a01b03611f4a8685611bd3565b166120ed57823b611f92575b505080611f6684611f6b93612628565b61264c565b7f30385c845b448a36257a6a1716e6ad2e1bc2cbe333cde1e69fe849ad6511adfe600080a3565b81611fd3916040979597969493965180938192630a85bd0160e11b835233600484015260006024840152876044840152608060648401526084830190611666565b038160008a5af18091600091612090575b509061203b5785853d15612034573d611ffc816116fe565b9061200a60405192836116c5565b81523d60008383013e5b805191826120315783633250574960e11b60005260045260246000fd5b01fd5b6060612014565b630a85bd0160e11b919294507fffffffff0000000000000000000000000000000000000000000000000000000090959395160361207b57611f6b38611f56565b50633250574960e11b60005260045260246000fd5b8681813d83116120e6575b6120a581836116c5565b810103126120e25751907fffffffff00000000000000000000000000000000000000000000000000000000821682036120df575038611fe4565b80fd5b5080fd5b503d61209b565b7f73c6ac6e00000000000000000000000000000000000000000000000000000000600052600060045260246000fd5b606460405162461bcd60e51b815260206004820152601f60248201527f596f75206861766520616c7265616479206d696e746564206120746f6b656e006044820152fd5b93909293823b612172575b5050505050565b6121b96001600160a01b0392836020951696846040519788968796630a85bd0160e11b88521660048701521660248501526044840152608060648401526084830190611666565b03816000865af18091600091612272575b509061222357503d1561221c573d6121e1816116fe565b906121ef60405192836116c5565b81523d6000602083013e5b805190816122175782633250574960e11b60005260045260246000fd5b602001fd5b60606121fa565b7fffffffff00000000000000000000000000000000000000000000000000000000630a85bd0160e11b91160361225e5750388080808061216b565b633250574960e11b60005260045260246000fd5b6020813d6020116122c5575b8161228b602093836116c5565b810103126120e25751907fffffffff00000000000000000000000000000000000000000000000000000000821682036120df5750386121ca565b3d915061227e565b600381111561239957600681111561235d5760091015612322576040516122f56040826116c5565b600881527f477561726469616e000000000000000000000000000000000000000000000000602082015290565b6040516123306040826116c5565b600481527f4865726f00000000000000000000000000000000000000000000000000000000602082015290565b5060405161236c6040826116c5565b600381527f50726f0000000000000000000000000000000000000000000000000000000000602082015290565b506040516123a86040826116c5565b600681527f4e65776269650000000000000000000000000000000000000000000000000000602082015290565b906123df826116fe565b6123ec60405191826116c5565b828152601f196123fc82946116fe565b0190602036910137565b806000917a184f03e93ff9f4daa797ed6e38ed64bf6a1f010000000000000000821015612542575b806d04ee2d6d415b85acef8100000000600a921015612527575b662386f26fc10000811015612513575b6305f5e100811015612502575b6127108110156124f3575b60648110156124e5575b10156124da575b600a6000196021612494600186016123d5565b948501015b01917f30313233343536373839616263646566000000000000000000000000000000008282061a83530480156124d557600019600a9192612499565b505090565b600190910190612481565b60646002910493019261247a565b61271060049104930192612470565b6305f5e10060089104930192612465565b662386f26fc1000060109104930192612458565b6d04ee2d6d415b85acef810000000060209104930192612448565b50604091507a184f03e93ff9f4daa797ed6e38ed64bf6a1f010000000000000000810461242e565b6002600b61262592602f6040519586927f7b2274726169745f74797065223a22000000000000000000000000000000000060208501526125b38151809260208688019101611643565b83017f222c2276616c7565223a22000000000000000000000000000000000000000000838201526125ee825180936020603a85019101611643565b01017f227d000000000000000000000000000000000000000000000000000000000000838201520301601d198101845201826116c5565b90565b60018201809211610a3d576001600160a01b0316600052600c602052604060002055565b600754906001600160a01b0360009216908161266757505050565b813b156126ca576001600160a01b03604484928360405195869485937fa1905a07000000000000000000000000000000000000000000000000000000008552166004840152600160248401525af16126bd575050565b816126c7916116c5565b50565b8280fd5b9190918051156127e857805160028101809111610a3d57600390048060021b907f3fffffffffffffffffffffffffffffffffffffffffffffffffffffffffffffff811603610a3d5761271f906123d5565b9060208201908081518201956020870190815192600083525b88811061279a57505060039394959650525106806001146127695760021461275e575090565b600019603d91015390565b507ffffffffffffffffffffffffffffffffffffffffffffffffffffffffffffffffe81603d60001981940153015390565b600360049199969901986001603f8b5182828260121c16870101518453828282600c1c16870101518385015382828260061c1687010151600285015316840101516003820153019497612738565b5090506040516127f96020826116c5565b600081529056fea264697066735822122091ee17b48c22596b452963d460dd0a109ddb9d020ea7e14972365108cab8c7e364736f6c634300081c0033",
  "linkReferences": {},
  "deployedLinkReferences": {}
}