{
  "_format": "hh-sol-artifact-1",
  "contractName": "DCUToken",
  "sourceName": "contracts/contracts/tokens/DCUToken.sol",
  "abi": [
    {
      "inputs": [],
      "stateMutability": "nonpayable",
      "type": "constructor"
    },
    {
      "inputs": [],
      "name": "AccessControlBadConfirmation",
      "type": "error"
    },
    {
      "inputs": [
        {
          "internalType": "address",
          "name": "account",
          "type": "address"
        },
        {
          "internalType": "bytes32",
          "name": "neededRole",
          "type": "bytes32"
        }
      ],
      "name": "AccessControlUnauthorizedAccount",
      "type": "error"
    },
    {
      "inputs": [],
      "name": "ECDSAInvalidSignature",
      "type": "error"
    },
    {
      "inputs": [
        {
          "internalType": "uint256",
          "name": "length",
          "type": "uint256"
        }
      ],
      "name": "ECDSAInvalidSignatureLength",
      "type": "error"
    },
    {
      "inputs": [
        {
          "internalType": "bytes32",
          "name": "s",
          "type": "bytes32"
        }
      ],
      "name": "ECDSAInvalidSignatureS",
      "type": "error"
    },
    {
      "inputs": [
        {
          "internalType": "address",
          "name": "spender",
          "type": "address"
        },
        {
          "internalType": "uint256",
          "name": "allowance",
          "type": "uint256"
        },
        {
          "internalType": "uint256",
          "name": "needed",
          "type": "uint256"
        }
      ],
      "name": "ERC20InsufficientAllowance",
      "type": "error"
    },
    {
      "inputs": [
        {
          "internalType": "address",
          "name": "sender",
          "type": "address"
        },
        {
          "internalType": "uint256",
          "name": "balance",
          "type": "uint256"
        },
        {
          "internalType": "uint256",
          "name": "needed",
          "type": "uint256"
        }
      ],
      "name": "ERC20InsufficientBalance",
      "type": "error"
    },
    {
      "inputs": [
        {
          "internalType": "address",
          "name": "approver",
          "type": "address"
        }
      ],
      "name": "ERC20InvalidApprover",
      "type": "error"
    },
    {
      "inputs": [
        {
          "internalType": "address",
          "name": "receiver",
          "type": "address"
        }
      ],
      "name": "ERC20InvalidReceiver",
      "type": "error"
    },
    {
      "inputs": [
        {
          "internalType": "address",
          "name": "sender",
          "type": "address"
        }
      ],
      "name": "ERC20InvalidSender",
      "type": "error"
    },
    {
      "inputs": [
        {
          "internalType": "address",
          "name": "spender",
          "type": "address"
        }
      ],
      "name": "ERC20InvalidSpender",
      "type": "error"
    },
    {
      "inputs": [
        {
          "internalType": "uint256",
          "name": "deadline",
          "type": "uint256"
        }
      ],
      "name": "ERC2612ExpiredSignature",
      "type": "error"
    },
    {
      "inputs": [
        {
          "internalType": "address",
          "name": "signer",
          "type": "address"
        },
        {
          "internalType": "address",
          "name": "owner",
          "type": "address"
        }
      ],
      "name": "ERC2612InvalidSigner",
      "type": "error"
    },
    {
      "inputs": [
        {
          "internalType": "address",
          "name": "account",
          "type": "address"
        },
        {
          "internalType": "uint256",
          "name": "currentNonce",
          "type": "uint256"
        }
      ],
      "name": "InvalidAccountNonce",
      "type": "error"
    },
    {
      "inputs": [],
      "name": "InvalidShortString",
      "type": "error"
    },
    {
      "inputs": [
        {
          "internalType": "string",
          "name": "str",
          "type": "string"
        }
      ],
      "name": "StringTooLong",
      "type": "error"
    },
    {
      "inputs": [
        {
          "internalType": "uint256",
          "name": "requestedCap",
          "type": "uint256"
        },
        {
          "internalType": "uint256",
          "name": "currentSupply",
          "type": "uint256"
        }
      ],
      "name": "TOKEN__CapTooLow",
      "type": "error"
    },
    {
      "inputs": [
        {
          "internalType": "uint256",
          "name": "attemptedSupply",
          "type": "uint256"
        },
        {
          "internalType": "uint256",
          "name": "supplyCap",
          "type": "uint256"
        }
      ],
      "name": "TOKEN__SupplyCapExceeded",
      "type": "error"
    },
    {
      "inputs": [
        {
          "internalType": "address",
          "name": "sender",
          "type": "address"
        }
      ],
      "name": "TOKEN__Unauthorized",
      "type": "error"
    },
    {
      "anonymous": false,
      "inputs": [
        {
          "indexed": true,
          "internalType": "address",
          "name": "owner",
          "type": "address"
        },
        {
          "indexed": true,
          "internalType": "address",
          "name": "spender",
          "type": "address"
        },
        {
          "indexed": false,
          "internalType": "uint256",
          "name": "value",
          "type": "uint256"
        }
      ],
      "name": "Approval",
      "type": "event"
    },
    {
      "anonymous": false,
      "inputs": [
        {
          "indexed": true,
          "internalType": "address",
          "name": "from",
          "type": "address"
        },
        {
          "indexed": false,
          "internalType": "uint256",
          "name": "amount",
          "type": "uint256"
        },
        {
          "indexed": false,
          "internalType": "uint256",
          "name": "newBalance",
          "type": "uint256"
        },
        {
          "indexed": false,
          "internalType": "uint256",
          "name": "timestamp",
          "type": "uint256"
        }
      ],
      "name": "DCUBurned",
      "type": "event"
    },
    {
      "anonymous": false,
      "inputs": [
        {
          "indexed": true,
          "internalType": "address",
          "name": "to",
          "type": "address"
        },
        {
          "indexed": false,
          "internalType": "uint256",
          "name": "amount",
          "type": "uint256"
        },
        {
          "indexed": false,
          "internalType": "uint256",
          "name": "newBalance",
          "type": "uint256"
        },
        {
          "indexed": false,
          "internalType": "uint256",
          "name": "timestamp",
          "type": "uint256"
        }
      ],
      "name": "DCUMinted",
      "type": "event"
    },
    {
      "anonymous": false,
      "inputs": [],
      "name": "EIP712DomainChanged",
      "type": "event"
    },
    {
      "anonymous": false,
      "inputs": [
        {
          "indexed": true,
          "internalType": "bytes32",
          "name": "role",
          "type": "bytes32"
        },
        {
          "indexed": true,
          "internalType": "bytes32",
          "name": "previousAdminRole",
          "type": "bytes32"
        },
        {
          "indexed": true,
          "internalType": "bytes32",
          "name": "newAdminRole",
          "type": "bytes32"
        }
      ],
      "name": "RoleAdminChanged",
      "type": "event"
    },
    {
      "anonymous": false,
      "inputs": [
        {
          "indexed": true,
          "internalType": "bytes32",
          "name": "role",
          "type": "bytes32"
        },
        {
          "indexed": true,
          "internalType": "address",
          "name": "account",
          "type": "address"
        },
        {
          "indexed": true,
          "internalType": "address",
          "name": "sender",
          "type": "address"
        }
      ],
      "name": "RoleGranted",
      "type": "event"
    },
    {
      "anonymous": false,
      "inputs": [
        {
          "indexed": true,
          "internalType": "bytes32",
          "name": "role",
          "type": "bytes32"
        },
        {
          "indexed": true,
          "internalType": "address",
          "name": "account",
          "type": "address"
        },
        {
          "indexed": true,
          "internalType": "address",
          "name": "sender",
          "type": "address"
        }
      ],
      "name": "RoleRevoked",
      "type": "event"
    },
    {
      "anonymous": false,
      "inputs": [
        {
          "indexed": false,
          "internalType": "uint256",
          "name": "capAmount",
          "type": "uint256"
        },
        {
          "indexed": false,
          "internalType": "uint256",
          "name": "timestamp",
          "type": "uint256"
        },
        {
          "indexed": true,
          "internalType": "address",
          "name": "by",
          "type": "address"
        }
      ],
      "name": "SupplyCapAdded",
      "type": "event"
    },
    {
      "anonymous": false,
      "inputs": [
        {
          "indexed": false,
          "internalType": "uint256",
          "name": "timestamp",
          "type": "uint256"
        },
        {
          "indexed": true,
          "internalType": "address",
          "name": "by",
          "type": "address"
        }
      ],
      "name": "SupplyCapRemoved",
      "type": "event"
    },
    {
      "anonymous": false,
      "inputs": [
        {
          "indexed": true,
          "internalType": "address",
          "name": "from",
          "type": "address"
        },
        {
          "indexed": true,
          "internalType": "address",
          "name": "to",
          "type": "address"
        },
        {
          "indexed": false,
          "internalType": "uint256",
          "name": "value",
          "type": "uint256"
        }
      ],
      "name": "Transfer",
      "type": "event"
    },
    {
      "inputs": [],
      "name": "DEFAULT_ADMIN_ROLE",
      "outputs": [
        {
          "internalType": "bytes32",
          "name": "",
          "type": "bytes32"
        }
      ],
      "stateMutability": "view",
      "type": "function"
    },
    {
      "inputs": [],
      "name": "DOMAIN_SEPARATOR",
      "outputs": [
        {
          "internalType": "bytes32",
          "name": "",
          "type": "bytes32"
        }
      ],
      "stateMutability": "view",
      "type": "function"
    },
    {
      "inputs": [],
      "name": "MINTER_ROLE",
      "outputs": [
        {
          "internalType": "bytes32",
          "name": "",
          "type": "bytes32"
        }
      ],
      "stateMutability": "view",
      "type": "function"
    },
    {
      "inputs": [
        {
          "internalType": "address",
          "name": "owner",
          "type": "address"
        },
        {
          "internalType": "address",
          "name": "spender",
          "type": "address"
        }
      ],
      "name": "allowance",
      "outputs": [
        {
          "internalType": "uint256",
          "name": "",
          "type": "uint256"
        }
      ],
      "stateMutability": "view",
      "type": "function"
    },
    {
      "inputs": [
        {
          "internalType": "address",
          "name": "spender",
          "type": "address"
        },
        {
          "internalType": "uint256",
          "name": "value",
          "type": "uint256"
        }
      ],
      "name": "approve",
      "outputs": [
        {
          "internalType": "bool",
          "name": "",
          "type": "bool"
        }
      ],
      "stateMutability": "nonpayable",
      "type": "function"
    },
    {
      "inputs": [
        {
          "internalType": "address",
          "name": "account",
          "type": "address"
        }
      ],
      "name": "balanceOf",
      "outputs": [
        {
          "internalType": "uint256",
          "name": "",
          "type": "uint256"
        }
      ],
      "stateMutability": "view",
      "type": "function"
    },
    {
      "inputs": [
        {
          "internalType": "uint256",
          "name": "value",
          "type": "uint256"
        }
      ],
      "name": "burn",
      "outputs": [],
      "stateMutability": "nonpayable",
      "type": "function"
    },
    {
      "inputs": [
        {
          "internalType": "address",
          "name": "from",
          "type": "address"
        },
        {
          "internalType": "uint256",
          "name": "amount",
          "type": "uint256"
        }
      ],
      "name": "burn",
      "outputs": [],
      "stateMutability": "nonpayable",
      "type": "function"
    },
    {
      "inputs": [
        {
          "internalType": "address",
          "name": "account",
          "type": "address"
        },
        {
          "internalType": "uint256",
          "name": "value",
          "type": "uint256"
        }
      ],
      "name": "burnFrom",
      "outputs": [],
      "stateMutability": "nonpayable",
      "type": "function"
    },
    {
      "inputs": [],
      "name": "decimals",
      "outputs": [
        {
          "internalType": "uint8",
          "name": "",
          "type": "uint8"
        }
      ],
      "stateMutability": "pure",
      "type": "function"
    },
    {
      "inputs": [],
      "name": "eip712Domain",
      "outputs": [
        {
          "internalType": "bytes1",
          "name": "fields",
          "type": "bytes1"
        },
        {
          "internalType": "string",
          "name": "name",
          "type": "string"
        },
        {
          "internalType": "string",
          "name": "version",
          "type": "string"
        },
        {
          "internalType": "uint256",
          "name": "chainId",
          "type": "uint256"
        },
        {
          "internalType": "address",
          "name": "verifyingContract",
          "type": "address"
        },
        {
          "internalType": "bytes32",
          "name": "salt",
          "type": "bytes32"
        },
        {
          "internalType": "uint256[]",
          "name": "extensions",
          "type": "uint256[]"
        }
      ],
      "stateMutability": "view",
      "type": "function"
    },
    {
      "inputs": [],
      "name": "getCirculationStatus",
      "outputs": [
        {
          "internalType": "uint256",
          "name": "current",
          "type": "uint256"
        },
        {
          "internalType": "uint256",
          "name": "minted",
          "type": "uint256"
        },
        {
          "internalType": "bool",
          "name": "capActive",
          "type": "bool"
        },
        {
          "internalType": "uint256",
          "name": "cap",
          "type": "uint256"
        }
      ],
      "stateMutability": "view",
      "type": "function"
    },
    {
      "inputs": [
        {
          "internalType": "bytes32",
          "name": "role",
          "type": "bytes32"
        }
      ],
      "name": "getRoleAdmin",
      "outputs": [
        {
          "internalType": "bytes32",
          "name": "",
          "type": "bytes32"
        }
      ],
      "stateMutability": "view",
      "type": "function"
    },
    {
      "inputs": [],
      "name": "getTotalMinted",
      "outputs": [
        {
          "internalType": "uint256",
          "name": "",
          "type": "uint256"
        }
      ],
      "stateMutability": "view",
      "type": "function"
    },
    {
      "inputs": [
        {
          "internalType": "bytes32",
          "name": "role",
          "type": "bytes32"
        },
        {
          "internalType": "address",
          "name": "account",
          "type": "address"
        }
      ],
      "name": "grantRole",
      "outputs": [],
      "stateMutability": "nonpayable",
      "type": "function"
    },
    {
      "inputs": [
        {
          "internalType": "bytes32",
          "name": "role",
          "type": "bytes32"
        },
        {
          "internalType": "address",
          "name": "account",
          "type": "address"
        }
      ],
      "name": "hasRole",
      "outputs": [
        {
          "internalType": "bool",
          "name": "",
          "type": "bool"
        }
      ],
      "stateMutability": "view",
      "type": "function"
    },
    {
      "inputs": [
        {
          "internalType": "address",
          "name": "to",
          "type": "address"
        },
        {
          "internalType": "uint256",
          "name": "amount",
          "type": "uint256"
        }
      ],
      "name": "mint",
      "outputs": [
        {
          "internalType": "bool",
          "name": "",
          "type": "bool"
        }
      ],
      "stateMutability": "nonpayable",
      "type": "function"
    },
    {
      "inputs": [],
      "name": "name",
      "outputs": [
        {
          "internalType": "string",
          "name": "",
          "type": "string"
        }
      ],
      "stateMutability": "view",
      "type": "function"
    },
    {
      "inputs": [
        {
          "internalType": "address",
          "name": "owner",
          "type": "address"
        }
      ],
      "name": "nonces",
      "outputs": [
        {
          "internalType": "uint256",
          "name": "",
          "type": "uint256"
        }
      ],
      "stateMutability": "view",
      "type": "function"
    },
    {
      "inputs": [
        {
          "internalType": "address",
          "name": "owner",
          "type": "address"
        },
        {
          "internalType": "address",
          "name": "spender",
          "type": "address"
        },
        {
          "internalType": "uint256",
          "name": "value",
          "type": "uint256"
        },
        {
          "internalType": "uint256",
          "name": "deadline",
          "type": "uint256"
        },
        {
          "internalType": "uint8",
          "name": "v",
          "type": "uint8"
        },
        {
          "internalType": "bytes32",
          "name": "r",
          "type": "bytes32"
        },
        {
          "internalType": "bytes32",
          "name": "s",
          "type": "bytes32"
        }
      ],
      "name": "permit",
      "outputs": [],
      "stateMutability": "nonpayable",
      "type": "function"
    },
    {
      "inputs": [],
      "name": "removeSupplyCap",
      "outputs": [],
      "stateMutability": "nonpayable",
      "type": "function"
    },
    {
      "inputs": [
        {
          "internalType": "bytes32",
          "name": "role",
          "type": "bytes32"
        },
        {
          "internalType": "address",
          "name": "callerConfirmation",
          "type": "address"
        }
      ],
      "name": "renounceRole",
      "outputs": [],
      "stateMutability": "nonpayable",
      "type": "function"
    },
    {
      "inputs": [
        {
          "internalType": "bytes32",
          "name": "role",
          "type": "bytes32"
        },
        {
          "internalType": "address",
          "name": "account",
          "type": "address"
        }
      ],
      "name": "revokeRole",
      "outputs": [],
      "stateMutability": "nonpayable",
      "type": "function"
    },
    {
      "inputs": [
        {
          "internalType": "uint256",
          "name": "_supplyCap",
          "type": "uint256"
        }
      ],
      "name": "setSupplyCap",
      "outputs": [],
      "stateMutability": "nonpayable",
      "type": "function"
    },
    {
      "inputs": [],
      "name": "supplyCap",
      "outputs": [
        {
          "internalType": "uint256",
          "name": "",
          "type": "uint256"
        }
      ],
      "stateMutability": "view",
      "type": "function"
    },
    {
      "inputs": [],
      "name": "supplyCapActive",
      "outputs": [
        {
          "internalType": "bool",
          "name": "",
          "type": "bool"
        }
      ],
      "stateMutability": "view",
      "type": "function"
    },
    {
      "inputs": [
        {
          "internalType": "bytes4",
          "name": "interfaceId",
          "type": "bytes4"
        }
      ],
      "name": "supportsInterface",
      "outputs": [
        {
          "internalType": "bool",
          "name": "",
          "type": "bool"
        }
      ],
      "stateMutability": "view",
      "type": "function"
    },
    {
      "inputs": [],
      "name": "symbol",
      "outputs": [
        {
          "internalType": "string",
          "name": "",
          "type": "string"
        }
      ],
      "stateMutability": "view",
      "type": "function"
    },
    {
      "inputs": [],
      "name": "totalMinted",
      "outputs": [
        {
          "internalType": "uint256",
          "name": "",
          "type": "uint256"
        }
      ],
      "stateMutability": "view",
      "type": "function"
    },
    {
      "inputs": [],
      "name": "totalSupply",
      "outputs": [
        {
          "internalType": "uint256",
          "name": "",
          "type": "uint256"
        }
      ],
      "stateMutability": "view",
      "type": "function"
    },
    {
      "inputs": [
        {
          "internalType": "address",
          "name": "to",
          "type": "address"
        },
        {
          "internalType": "uint256",
          "name": "value",
          "type": "uint256"
        }
      ],
      "name": "transfer",
      "outputs": [
        {
          "internalType": "bool",
          "name": "",
          "type": "bool"
        }
      ],
      "stateMutability": "nonpayable",
      "type": "function"
    },
    {
      "inputs": [
        {
          "internalType": "address",
          "name": "from",
          "type": "address"
        },
        {
          "internalType": "address",
          "name": "to",
          "type": "address"
        },
        {
          "internalType": "uint256",
          "name": "value",
          "type": "uint256"
        }
      ],
      "name": "transferFrom",
      "outputs": [
        {
          "internalType": "bool",
          "name": "",
          "type": "bool"
        }
      ],
      "stateMutability": "nonpayable",
      "type": "function"
    }
  ],
  "bytecode": "0x6101606040523461048157604051610018604082610486565b60178152602081017f4465436c65616e7570205574696c69747920546f6b656e000000000000000000815260405190610052604083610486565b601782527f4465436c65616e7570205574696c69747920546f6b656e00000000000000000060208301526040519261008b604085610486565b600384526244435560e81b6020850152604051936100aa604086610486565b60018552603160f81b60208601908152845190946001600160401b03821161037e5760035490600182811c92168015610477575b602083101461035e5781601f849311610407575b50602090601f831160011461039f57600092610394575b50508160011b916000199060031b1c1916176003555b8051906001600160401b03821161037e5760045490600182811c92168015610374575b602083101461035e5781601f8493116102ee575b50602090601f83116001146102865760009261027b575b50508160011b916000199060031b1c1916176004555b61018c816105bd565b610120526101998461076b565b61014052519020918260e05251902080610100524660a0526040519060208201927f8b73c3c69bb8fe3d512ecc4cf759cc79239f7b179b0ffacaa9a75d522b39400f8452604083015260608201524660808201523060a082015260a0815261020260c082610486565b5190206080523060c052610215336104a9565b5061021f33610525565b5060ff19600b5416600b556040516117e0908161090a823960805181611317015260a051816113d4015260c051816112e8015260e051816113660152610100518161138c015261012051816106da015261014051816107030152f35b01519050388061016d565b600460009081528281209350601f198516905b8181106102d657509084600195949392106102bd575b505050811b01600455610183565b015160001960f88460031b161c191690553880806102af565b92936020600181928786015181550195019301610299565b60046000529091507f8a35acfbc15ff81a39ae7d344fd709f28e8600b4aa8c65c6b64bfe7fe36bd19b601f840160051c81019160208510610354575b90601f859493920160051c01905b8181106103455750610156565b60008155849350600101610338565b909150819061032a565b634e487b7160e01b600052602260045260246000fd5b91607f1691610142565b634e487b7160e01b600052604160045260246000fd5b015190503880610109565b600360009081528281209350601f198516905b8181106103ef57509084600195949392106103d6575b505050811b0160035561011f565b015160001960f88460031b161c191690553880806103c8565b929360206001819287860151815501950193016103b2565b60036000529091507fc2575a0e9e593c00f959f8c92f12db2869c3395a3b0502d05e2516446f71f85b601f840160051c8101916020851061046d575b90601f859493920160051c01905b81811061045e57506100f2565b60008155849350600101610451565b9091508190610443565b91607f16916100de565b600080fd5b601f909101601f19168101906001600160401b0382119082101761037e57604052565b6001600160a01b038116600090815260008051602061212a833981519152602052604090205460ff1661051f576001600160a01b0316600081815260008051602061212a83398151915260205260408120805460ff191660011790553391906000805160206120ea8339815191528180a4600190565b50600090565b6001600160a01b038116600090815260008051602061210a833981519152602052604090205460ff1661051f576001600160a01b0316600081815260008051602061210a83398151915260205260408120805460ff191660011790553391907f9f2df0fed2c77648de5860a4cc508cd0818c85b8b8a1ab4ceeef8d981c8956a6906000805160206120ea8339815191529080a4600190565b90815160208110600014610655575090601f8151116105f95760208151910151602082106105e9571790565b6000198260200360031b1b161790565b6040519063305a27a960e01b8252602060048301528181519182602483015260005b83811061063d5750508160006044809484010152601f80199101168101030190fd5b6020828201810151604487840101528593500161061b565b6001600160401b03811161037e57600554600181811c91168015610761575b602082101461035e57601f811161072b575b50602092601f82116001146106c657928192936000926106bb575b50508160011b916000199060031b1c19161760055560ff90565b0151905038806106a1565b601f198216936005600052806000209160005b86811061071357508360019596106106fa575b505050811b0160055560ff90565b015160001960f88460031b161c191690553880806106ec565b919260206001819286850151815501940192016106d9565b6005600052601f6020600020910160051c810190601f830160051c015b8181106107555750610686565b60008155600101610748565b90607f1690610674565b908151602081106000146107f3575090601f8151116107975760208151910151602082106105e9571790565b6040519063305a27a960e01b8252602060048301528181519182602483015260005b8381106107db5750508160006044809484010152601f80199101168101030190fd5b602082820181015160448784010152859350016107b9565b6001600160401b03811161037e57600654600181811c911680156108ff575b602082101461035e57601f81116108c9575b50602092601f82116001146108645792819293600092610859575b50508160011b916000199060031b1c19161760065560ff90565b01519050388061083f565b601f198216936006600052806000209160005b8681106108b15750836001959610610898575b505050811b0160065560ff90565b015160001960f88460031b161c1916905538808061088a565b91926020600181928685015181550194019201610877565b6006600052601f6020600020910160051c810190601f830160051c015b8181106108f35750610824565b600081556001016108e6565b90607f169061081256fe608080604052600436101561001357600080fd5b60003560e01c90816301ffc9a714610d5b5750806306fdde0314610cb3578063095ea7b314610c8d5780630c12d64714610c515780630ca1c5c9146104b757806318160ddd14610c3357806323b872dd14610bfb578063248a9ca314610bce5780632f2ff15d14610b8e578063313ce56714610b725780633644e51514610b4f57806336568abe14610af057806340c10f191461090f57806342966c68146108f257806362dd8985146108cf578063646a65c41461087e57806370a082311461084457806379cc6790146108145780637ecebe00146107da57806384b0196e146106c15780638f770ad0146106a357806391d148541461065557806395d89b41146105705780639dc29fac146104f1578063a217fddf146104d5578063a2309ff8146104b7578063a9059cbb14610486578063b6a3f59a146103e8578063d505accf1461025e578063d539139314610223578063d547741f146101dc5763dd62ed3e1461017f57600080fd5b346101d75760406003193601126101d757610198610e3a565b6001600160a01b036101a8610e50565b911660005260016020526001600160a01b03604060002091166000526020526020604060002054604051908152f35b600080fd5b346101d75760406003193601126101d7576102216004356101fb610e50565b9061021c61021782600052600860205260016040600020015490565b6111fd565b6113fa565b005b346101d75760006003193601126101d75760206040517f9f2df0fed2c77648de5860a4cc508cd0818c85b8b8a1ab4ceeef8d981c8956a68152f35b346101d75760e06003193601126101d757610277610e3a565b61027f610e50565b604435906064359260843560ff811681036101d7578442116103ba5761037561036c6001600160a01b0392838516978860005260076020526040600020908154916001830190556040519060208201927f6e71edae12b1b97f4d1f60370fef10105fa2faae0126114a169c64845d6126c984528b6040840152878a1660608401528a608084015260a083015260c082015260c0815261031f60e082610f24565b51902061032a6112de565b90604051917f190100000000000000000000000000000000000000000000000000000000000083526002830152602282015260c43591604260a4359220611642565b909291926116d7565b1684810361038857506102219350611523565b84907f4b800e460000000000000000000000000000000000000000000000000000000060005260045260245260446000fd5b847f627913020000000000000000000000000000000000000000000000000000000060005260045260246000fd5b346101d75760206003193601126101d7576004356104046111aa565b60025480821115610455575080600a55600160ff19600b541617600b556040519081524260208201527f53f44dc14babd602e66a4bdb00459a5780b6b46958ae953c942848f9bdb89d7b60403392a2005b907faa745a290000000000000000000000000000000000000000000000000000000060005260045260245260446000fd5b346101d75760406003193601126101d7576104ac6104a2610e3a565b60243590336110c9565b602060405160018152f35b346101d75760006003193601126101d7576020600954604051908152f35b346101d75760006003193601126101d757602060405160008152f35b346101d75760406003193601126101d75761050a610e3a565b7f4a041cfb06d832ce63fd47b59cf3f48572eb44e499238f1aef06dc8d2ffa09d16001600160a01b036024359261053f6111aa565b6105498482611489565b166000818152602081815260409182902054825195865290850152429084015291606090a2005b346101d75760006003193601126101d757604051600060045461059281610e66565b808452906001811690811561063157506001146105d2575b6105ce836105ba81850382610f24565b604051918291602083526020830190610df9565b0390f35b600460009081527f8a35acfbc15ff81a39ae7d344fd709f28e8600b4aa8c65c6b64bfe7fe36bd19b939250905b808210610617575090915081016020016105ba6105aa565b9192600181602092548385880101520191019092916105ff565b60ff191660208086019190915291151560051b840190910191506105ba90506105aa565b346101d75760406003193601126101d75761066e610e50565b60043560005260086020526001600160a01b0360406000209116600052602052602060ff604060002054166040519015158152f35b346101d75760006003193601126101d7576020600a54604051908152f35b346101d75760006003193601126101d75761077c6106fe7f000000000000000000000000000000000000000000000000000000000000000061158a565b6107277f000000000000000000000000000000000000000000000000000000000000000061160b565b602061078a6040519261073a8385610f24565b6000845260003681376040519586957f0f00000000000000000000000000000000000000000000000000000000000000875260e08588015260e0870190610df9565b908582036040870152610df9565b466060850152306080850152600060a085015283810360c085015281808451928381520193019160005b8281106107c357505050500390f35b8351855286955093810193928101926001016107b4565b346101d75760206003193601126101d7576001600160a01b036107fb610e3a565b1660005260076020526020604060002054604051908152f35b346101d75760406003193601126101d757610221610830610e3a565b6024359061083f823383610f80565b611489565b346101d75760206003193601126101d7576001600160a01b03610865610e3a565b1660005260006020526020604060002054604051908152f35b346101d75760006003193601126101d7576108976111aa565b60ff19600b5416600b556040514281527f74c8f6a72d4296a869a1dc978e7bb409f25df7b372ce1591d64010a0e118445f60203392a2005b346101d75760006003193601126101d757602060ff600b54166040519015158152f35b346101d75760206003193601126101d75761022160043533611489565b346101d75760406003193601126101d757610928610e3a565b3360009081527f51a495916474fe1a0c0fcfb65a8a97682b84a054118858cdd1f5dfd7fc0919eb6020526040902054602435919060ff1615610ab75760ff600b5416610a59575b6001600160a01b039061098483600954610f5d565b60095516908115610a2a57806109bd7fee0c54a7e67439632a80c123a93e8e1b9d77540013b92b7acb5bf2e8150d00c992600254610f5d565b600255604060008481528060205281812083815401905584817fddf252ad1be2c89b69c2b068fc378daa952ba7f163c4a11628f55a4df523b3ef60208551878152a384815260208181529190205460408051938452918301524290820152606090a2602060405160018152f35b7fec442f0500000000000000000000000000000000000000000000000000000000600052600060045260246000fd5b9060025491610a688284610f5d565b92600a54809411610a7c575090915061096f565b610a87929150610f5d565b7fccce97630000000000000000000000000000000000000000000000000000000060005260045260245260446000fd5b63e2517d3f60e01b600052336004527f9f2df0fed2c77648de5860a4cc508cd0818c85b8b8a1ab4ceeef8d981c8956a660245260446000fd5b346101d75760406003193601126101d757610b09610e50565b336001600160a01b03821603610b2557610221906004356113fa565b7f6697b2320000000000000000000000000000000000000000000000000000000060005260046000fd5b346101d75760006003193601126101d7576020610b6a6112de565b604051908152f35b346101d75760006003193601126101d757602060405160128152f35b346101d75760406003193601126101d757610221600435610bad610e50565b90610bc961021782600052600860205260016040600020015490565b611244565b346101d75760206003193601126101d7576020610b6a600435600052600860205260016040600020015490565b346101d75760606003193601126101d7576104ac610c17610e3a565b610c1f610e50565b60443591610c2e833383610f80565b6110c9565b346101d75760006003193601126101d7576020600254604051908152f35b346101d75760006003193601126101d757608060025460095460ff600b5416600a54916040519384526020840152151560408301526060820152f35b346101d75760406003193601126101d7576104ac610ca9610e3a565b6024359033611523565b346101d75760006003193601126101d7576040516000600354610cd581610e66565b80845290600181169081156106315750600114610cfc576105ce836105ba81850382610f24565b600360009081527fc2575a0e9e593c00f959f8c92f12db2869c3395a3b0502d05e2516446f71f85b939250905b808210610d41575090915081016020016105ba6105aa565b919260018160209254838588010152019101909291610d29565b346101d75760206003193601126101d757600435907fffffffff0000000000000000000000000000000000000000000000000000000082168092036101d757817f7965db0b0000000000000000000000000000000000000000000000000000000060209314908115610dcf575b5015158152f35b7f01ffc9a70000000000000000000000000000000000000000000000000000000091501483610dc8565b919082519283825260005b848110610e25575050601f19601f8460006020809697860101520116010190565b80602080928401015182828601015201610e04565b600435906001600160a01b03821682036101d757565b602435906001600160a01b03821682036101d757565b90600182811c92168015610e96575b6020831014610e8057565b634e487b7160e01b600052602260045260246000fd5b91607f1691610e75565b60009291815491610eb083610e66565b8083529260018116908115610f065750600114610ecc57505050565b60009081526020812093945091925b838310610eec575060209250010190565b600181602092949394548385870101520191019190610edb565b9050602094955060ff1991509291921683830152151560051b010190565b90601f601f19910116810190811067ffffffffffffffff821117610f4757604052565b634e487b7160e01b600052604160045260246000fd5b91908201809211610f6a57565b634e487b7160e01b600052601160045260246000fd5b6001600160a01b0390929192169182600052600160205260406000206001600160a01b038216600052602052604060002054927fffffffffffffffffffffffffffffffffffffffffffffffffffffffffffffffff8410610fe1575b50505050565b82841061108a57801561105b576001600160a01b0382161561102c5760005260016020526001600160a01b036040600020911660005260205260406000209103905538808080610fdb565b7f94280d6200000000000000000000000000000000000000000000000000000000600052600060045260246000fd5b7fe602df0500000000000000000000000000000000000000000000000000000000600052600060045260246000fd5b506001600160a01b0383917ffb8f41b2000000000000000000000000000000000000000000000000000000006000521660045260245260445260646000fd5b6001600160a01b031690811561117b576001600160a01b0316918215610a2a5760008281528060205260408120548281106111485791604082827fddf252ad1be2c89b69c2b068fc378daa952ba7f163c4a11628f55a4df523b3ef958760209652828652038282205586815280845220818154019055604051908152a3565b6064937fe450d38c0000000000000000000000000000000000000000000000000000000083949352600452602452604452fd5b7f96c6fd1e00000000000000000000000000000000000000000000000000000000600052600060045260246000fd5b3360009081527f5eff886ea0ce6ca488a3d6e336d6c0f75f46d19b42c06ce5ee98e42c96d256c7602052604090205460ff16156111e357565b63e2517d3f60e01b60005233600452600060245260446000fd5b80600052600860205260406000206001600160a01b03331660005260205260ff604060002054161561122c5750565b63e2517d3f60e01b6000523360045260245260446000fd5b80600052600860205260406000206001600160a01b03831660005260205260ff60406000205416156000146112d75780600052600860205260406000206001600160a01b0383166000526020526040600020600160ff198254161790556001600160a01b03339216907f2f8788117e7eff1d82e926ec794901d17c78024a50270940304540a733656f0d600080a4600190565b5050600090565b6001600160a01b037f0000000000000000000000000000000000000000000000000000000000000000163014806113d1575b15611339577f000000000000000000000000000000000000000000000000000000000000000090565b60405160208101907f8b73c3c69bb8fe3d512ecc4cf759cc79239f7b179b0ffacaa9a75d522b39400f82527f000000000000000000000000000000000000000000000000000000000000000060408201527f000000000000000000000000000000000000000000000000000000000000000060608201524660808201523060a082015260a081526113cb60c082610f24565b51902090565b507f00000000000000000000000000000000000000000000000000000000000000004614611310565b80600052600860205260406000206001600160a01b03831660005260205260ff604060002054166000146112d75780600052600860205260406000206001600160a01b038316600052602052604060002060ff1981541690556001600160a01b03339216907ff6391f5c32d9c69d2a47ea670b442974b53935d1edc7fd64eb21e047a839171b600080a4600190565b6001600160a01b0316801561117b576000918183528260205260408320548181106114f157817fddf252ad1be2c89b69c2b068fc378daa952ba7f163c4a11628f55a4df523b3ef926020928587528684520360408620558060025403600255604051908152a3565b83927fe450d38c0000000000000000000000000000000000000000000000000000000060649552600452602452604452fd5b6001600160a01b031690811561105b576001600160a01b031691821561102c5760207f8c5be1e5ebec7d5bd14f71427d1e84f3dd0314c0f7b2291e5b200ac8c7c3b925918360005260018252604060002085600052825280604060002055604051908152a3565b60ff81146115ee5760ff811690601f82116115c45760408051926115ae8285610f24565b60208452601f1960208501920136833783525290565b7fb3512b0c0000000000000000000000000000000000000000000000000000000060005260046000fd5b5060405161160881611601816005610ea0565b0382610f24565b90565b60ff811461162f5760ff811690601f82116115c45760408051926115ae8285610f24565b5060405161160881611601816006610ea0565b91907f7fffffffffffffffffffffffffffffff5d576e7357a4501ddfe92f46681b20a084116116cb579160209360809260ff60009560405194855216868401526040830152606082015282805260015afa156116bf576000516001600160a01b038116156116b35790600090600090565b50600090600190600090565b6040513d6000823e3d90fd5b50505060009160039190565b919091600481101561179457806116ed57509050565b600060018203611721577ff645eedf0000000000000000000000000000000000000000000000000000000060005260046000fd5b506002810361175857827ffce698f70000000000000000000000000000000000000000000000000000000060005260045260246000fd5b9091600360009214611768575050565b602492507fd78bce0c000000000000000000000000000000000000000000000000000000008252600452fd5b634e487b7160e01b600052602160045260246000fdfea2646970667358221220e3a236123edd26c34520a90ae18069ffbabbca4ecb638c3b3c7f16b1f895b21c64736f6c634300081c00332f8788117e7eff1d82e926ec794901d17c78024a50270940304540a733656f0d51a495916474fe1a0c0fcfb65a8a97682b84a054118858cdd1f5dfd7fc0919eb5eff886ea0ce6ca488a3d6e336d6c0f75f46d19b42c06ce5ee98e42c96d256c7",
  "linkReferences": {},
  "deployedLinkReferences": {}
}