{
  "_format": "hh-sol-artifact-1",
  "contractName": "NFTCollection",
  "sourceName": "contracts/contracts/tokens/NFTCollection.sol",
  "abi": [
    {
      "inputs": [],
      "stateMutability": "nonpayable",
      "type": "constructor"
    },
    {
      "inputs": [
        {
          "internalType": "address",
          "name": "sender",
          "type": "address"
        },
        {
          "internalType": "uint256",
          "name": "tokenId",
          "type": "uint256"
        },
        {
          "internalType": "address",
          "name": "owner",
          "type": "address"
        }
      ],
      "name": "ERC721IncorrectOwner",
      "type": "error"
    },
    {
      "inputs": [
        {
          "internalType": "address",
          "name": "operator",
          "type": "address"
        },
        {
          "internalType": "uint256",
          "name": "tokenId",
          "type": "uint256"
        }
      ],
      "name": "ERC721InsufficientApproval",
      "type": "error"
    },
    {
      "inputs": [
        {
          "internalType": "address",
          "name": "approver",
          "type": "address"
        }
      ],
      "name": "ERC721InvalidApprover",
      "type": "error"
    },
    {
      "inputs": [
        {
          "internalType": "address",
          "name": "operator",
          "type": "address"
        }
      ],
      "name": "ERC721InvalidOperator",
      "type": "error"
    },
    {
      "inputs": [
        {
          "internalType": "address",
          "name": "owner",
          "type": "address"
        }
      ],
      "name": "ERC721InvalidOwner",
      "type": "error"
    },
    {
      "inputs": [
        {
          "internalType": "address",
          "name": "receiver",
          "type": "address"
        }
      ],
      "name": "ERC721InvalidReceiver",
      "type": "error"
    },
    {
      "inputs": [
        {
          "internalType": "address",
          "name": "sender",
          "type": "address"
        }
      ],
      "name": "ERC721InvalidSender",
      "type": "error"
    },
    {
      "inputs": [
        {
          "internalType": "uint256",
          "name": "tokenId",
          "type": "uint256"
        }
      ],
      "name": "ERC721NonexistentToken",
      "type": "error"
    },
    {
      "inputs": [
        {
          "internalType": "address",
          "name": "owner",
          "type": "address"
        }
      ],
      "name": "OwnableInvalidOwner",
      "type": "error"
    },
    {
      "inputs": [
        {
          "internalType": "address",
          "name": "account",
          "type": "address"
        }
      ],
      "name": "OwnableUnauthorizedAccount",
      "type": "error"
    },
    {
      "anonymous": false,
      "inputs": [
        {
          "indexed": true,
          "internalType": "address",
          "name": "owner",
          "type": "address"
        },
        {
          "indexed": true,
          "internalType": "address",
          "name": "approved",
          "type": "address"
        },
        {
          "indexed": true,
          "internalType": "uint256",
          "name": "tokenId",
          "type": "uint256"
        }
      ],
      "name": "Approval",
      "type": "event"
    },
    {
      "anonymous": false,
      "inputs": [
        {
          "indexed": true,
          "internalType": "address",
          "name": "owner",
          "type": "address"
        },
        {
          "indexed": true,
          "internalType": "address",
          "name": "operator",
          "type": "address"
        },
        {
          "indexed": false,
          "internalType": "bool",
          "name": "approved",
          "type": "bool"
        }
      ],
      "name": "ApprovalForAll",
      "type": "event"
    },
    {
      "anonymous": false,
      "inputs": [
        {
          "indexed": true,
          "internalType": "address",
          "name": "previousOwner",
          "type": "address"
        },
        {
          "indexed": true,
          "internalType": "address",
          "name": "newOwner",
          "type": "address"
        }
      ],
      "name": "OwnershipTransferred",
      "type": "event"
    },
    {
      "anonymous": false,
      "inputs": [
        {
          "indexed": true,
          "internalType": "address",
          "name": "from",
          "type": "address"
        },
        {
          "indexed": true,
          "internalType": "address",
          "name": "to",
          "type": "address"
        },
        {
          "indexed": true,
          "internalType": "uint256",
          "name": "tokenId",
          "type": "uint256"
        }
      ],
      "name": "Transfer",
      "type": "event"
    },
    {
      "inputs": [
        {
          "internalType": "address",
          "name": "to",
          "type": "address"
        },
        {
          "internalType": "uint256",
          "name": "tokenId",
          "type": "uint256"
        }
      ],
      "name": "approve",
      "outputs": [],
      "stateMutability": "nonpayable",
      "type": "function"
    },
    {
      "inputs": [
        {
          "internalType": "address",
          "name": "owner",
          "type": "address"
        }
      ],
      "name": "balanceOf",
      "outputs": [
        {
          "internalType": "uint256",
          "name": "",
          "type": "uint256"
        }
      ],
      "stateMutability": "view",
      "type": "function"
    },
    {
      "inputs": [
        {
          "internalType": "uint256",
          "name": "tokenId",
          "type": "uint256"
        }
      ],
      "name": "getApproved",
      "outputs": [
        {
          "internalType": "address",
          "name": "",
          "type": "address"
        }
      ],
      "stateMutability": "view",
      "type": "function"
    },
    {
      "inputs": [
        {
          "internalType": "address",
          "name": "owner",
          "type": "address"
        },
        {
          "internalType": "address",
          "name": "operator",
          "type": "address"
        }
      ],
      "name": "isApprovedForAll",
      "outputs": [
        {
          "internalType": "bool",
          "name": "",
          "type": "bool"
        }
      ],
      "stateMutability": "view",
      "type": "function"
    },
    {
      "inputs": [
        {
          "internalType": "address",
          "name": "to",
          "type": "address"
        }
      ],
      "name": "mint",
      "outputs": [
        {
          "internalType": "uint256",
          "name": "",
          "type": "uint256"
        }
      ],
      "stateMutability": "nonpayable",
      "type": "function"
    },
    {
      "inputs": [
        {
          "internalType": "address",
          "name": "owner",
          "type": "address"
        },
        {
          "internalType": "uint256",
          "name": "balance",
          "type": "uint256"
        }
      ],
      "name": "mockBalanceOf",
      "outputs": [],
      "stateMutability": "nonpayable",
      "type": "function"
    },
    {
      "inputs": [],
      "name": "name",
      "outputs": [
        {
          "internalType": "string",
          "name": "",
          "type": "string"
        }
      ],
      "stateMutability": "view",
      "type": "function"
    },
    {
      "inputs": [],
      "name": "owner",
      "outputs": [
        {
          "internalType": "address",
          "name": "",
          "type": "address"
        }
      ],
      "stateMutability": "view",
      "type": "function"
    },
    {
      "inputs": [
        {
          "internalType": "uint256",
          "name": "tokenId",
          "type": "uint256"
        }
      ],
      "name": "ownerOf",
      "outputs": [
        {
          "internalType": "address",
          "name": "",
          "type": "address"
        }
      ],
      "stateMutability": "view",
      "type": "function"
    },
    {
      "inputs": [],
      "name": "renounceOwnership",
      "outputs": [],
      "stateMutability": "nonpayable",
      "type": "function"
    },
    {
      "inputs": [
        {
          "internalType": "address",
          "name": "from",
          "type": "address"
        },
        {
          "internalType": "address",
          "name": "to",
          "type": "address"
        },
        {
          "internalType": "uint256",
          "name": "tokenId",
          "type": "uint256"
        }
      ],
      "name": "safeTransferFrom",
      "outputs": [],
      "stateMutability": "nonpayable",
      "type": "function"
    },
    {
      "inputs": [
        {
          "internalType": "address",
          "name": "from",
          "type": "address"
        },
        {
          "internalType": "address",
          "name": "to",
          "type": "address"
        },
        {
          "internalType": "uint256",
          "name": "tokenId",
          "type": "uint256"
        },
        {
          "internalType": "bytes",
          "name": "data",
          "type": "bytes"
        }
      ],
      "name": "safeTransferFrom",
      "outputs": [],
      "stateMutability": "nonpayable",
      "type": "function"
    },
    {
      "inputs": [
        {
          "internalType": "address",
          "name": "operator",
          "type": "address"
        },
        {
          "internalType": "bool",
          "name": "approved",
          "type": "bool"
        }
      ],
      "name": "setApprovalForAll",
      "outputs": [],
      "stateMutability": "nonpayable",
      "type": "function"
    },
    {
      "inputs": [
        {
          "internalType": "bytes4",
          "name": "interfaceId",
          "type": "bytes4"
        }
      ],
      "name": "supportsInterface",
      "outputs": [
        {
          "internalType": "bool",
          "name": "",
          "type": "bool"
        }
      ],
      "stateMutability": "view",
      "type": "function"
    },
    {
      "inputs": [],
      "name": "symbol",
      "outputs": [
        {
          "internalType": "string",
          "name": "",
          "type": "string"
        }
      ],
      "stateMutability": "view",
      "type": "function"
    },
    {
      "inputs": [
        {
          "internalType": "uint256",
          "name": "tokenId",
          "type": "uint256"
        }
      ],
      "name": "tokenURI",
      "outputs": [
        {
          "internalType": "string",
          "name": "",
          "type": "string"
        }
      ],
      "stateMutability": "view",
      "type": "function"
    },
    {
      "inputs": [
        {
          "internalType": "address",
          "name": "from",
          "type": "address"
        },
        {
          "internalType": "address",
          "name": "to",
          "type": "address"
        },
        {
          "internalType": "uint256",
          "name": "tokenId",
          "type": "uint256"
        }
      ],
      "name": "transferFrom",
      "outputs": [],
      "stateMutability": "nonpayable",
      "type": "function"
    },
    {
      "inputs": [
        {
          "internalType": "address",
          "name": "newOwner",
          "type": "address"
        }
      ],
      "name": "transferOwnership",
      "outputs": [],
      "stateMutability": "nonpayable",
      "type": "function"
    }
  ],
  "bytecode": "0x60806040523461039657604080519081016001600160401b038111828210176102a357604090815260128252712221aa9027232a1021b7b63632b1ba34b7b760711b602083015280519081016001600160401b038111828210176102a35760405260068152651110d553919560d21b602082015281516001600160401b0381116102a357600054600181811c9116801561038c575b602082101461028357601f8111610328575b50602092601f82116001146102c457928192936000926102b9575b50508160011b916000199060031b1c1916176000555b80516001600160401b0381116102a357600154600181811c91168015610299575b602082101461028357601f811161021e575b50602091601f82116001146101ba579181926000926101af575b50508160011b916000199060031b1c1916176001555b33156101995760068054336001600160a01b03198216811790925560405191906001600160a01b03167f8be0079c531659141344cd1fd0a4f28419497f9722a3daafe3b4186f6b6457e0600080a36000600755611190908161039c8239f35b631e4fbdf760e01b600052600060045260246000fd5b015190503880610124565b601f198216926001600052806000209160005b858110610206575083600195106101ed575b505050811b0160015561013a565b015160001960f88460031b161c191690553880806101df565b919260206001819286850151815501940192016101cd565b60016000527fb10e2d527612073b26eecdfd717e6a320cf44b4afac2b0732d9fcbe2b7fa0cf6601f830160051c81019160208410610279575b601f0160051c01905b81811061026d575061010a565b60008155600101610260565b9091508190610257565b634e487b7160e01b600052602260045260246000fd5b90607f16906100f8565b634e487b7160e01b600052604160045260246000fd5b0151905038806100c1565b601f1982169360008052806000209160005b86811061031057508360019596106102f7575b505050811b016000556100d7565b015160001960f88460031b161c191690553880806102e9565b919260206001819286850151815501940192016102d6565b600080527f290decd9548b62a8d60345a988386fc84ba6bc95484008f6362f93160ef3e563601f830160051c81019160208410610382575b601f0160051c01905b81811061037657506100a6565b60008155600101610369565b9091508190610360565b90607f1690610094565b600080fdfe608080604052600436101561001357600080fd5b600090813560e01c90816301ffc9a714610aff5750806306fdde0314610a44578063081812fc14610a07578063095ea7b3146108f557806323b872dd146108dd5780632dbcb32b146108a057806342842e0e146108705780636352211e146108405780636a6278421461056957806370a082311461053d578063715018a6146104d55780638da5cb5b146104ae57806395d89b41146103a1578063a22cb465146102e7578063b88d4fde14610248578063c87b56dd146101ec578063e985e9c5146101975763f2fde38b146100e757600080fd5b34610194576020600319360112610194576001600160a01b03610108610c11565b610110610fab565b168015610168576001600160a01b036006548273ffffffffffffffffffffffffffffffffffffffff19821617600655167f8be0079c531659141344cd1fd0a4f28419497f9722a3daafe3b4186f6b6457e0600080a380f35b6024827f1e4fbdf700000000000000000000000000000000000000000000000000000000815280600452fd5b80fd5b5034610194576040600319360112610194576001600160a01b0360406101bb610c11565b92826101c5610c2c565b941681526005602052209116600052602052602060ff604060002054166040519015158152f35b503461019457602060031936011261019457610209600435610f5b565b5080604051610219602082610c7c565b525061024460405161022c602082610c7c565b60008152604051918291602083526020830190610bd0565b0390f35b503461019457608060031936011261019457610262610c11565b61026a610c2c565b6044356064359167ffffffffffffffff83116102e357366023840112156102e3578260040135938561029b86610cb5565b946102a96040519687610c7c565b86865236602488830101116102df57866102dc9760246020930183890137860101526102d6838383610cd1565b33610fed565b80f35b5080fd5b8480fd5b503461019457604060031936011261019457610301610c11565b6024359081151580920361039d576001600160a01b0316908115610371573383526005602052604083208284526020526040832060ff1981541660ff83161790556040519081527f17307eab39ab6107e8899845ad3d59bd9653f200f220920489ca2b5937696c3160203392a380f35b602483837f5b08ba18000000000000000000000000000000000000000000000000000000008252600452fd5b8280fd5b50346101945780600319360112610194576040519080600154908160011c916001811680156104a4575b60208410811461049057838652908115610469575060011461040c575b610244846103f881860382610c7c565b604051918291602083526020830190610bd0565b600181527fb10e2d527612073b26eecdfd717e6a320cf44b4afac2b0732d9fcbe2b7fa0cf6939250905b80821061044f575090915081016020016103f8826103e8565b919260018160209254838588010152019101909291610436565b60ff191660208087019190915292151560051b850190920192506103f891508390506103e8565b602483634e487b7160e01b81526022600452fd5b92607f16926103cb565b503461019457806003193601126101945760206001600160a01b0360065416604051908152f35b50346101945780600319360112610194576104ee610fab565b806001600160a01b0360065473ffffffffffffffffffffffffffffffffffffffff198116600655167f8be0079c531659141344cd1fd0a4f28419497f9722a3daafe3b4186f6b6457e08280a380f35b503461019457602060031936011261019457602061056161055c610c11565b610ee8565b604051908152f35b503461019457602060031936011261019457610583610c11565b9061058c610fab565b600754906020926040516105a08582610c7c565b8281526001600160a01b03821691821561082d57848452600286526001600160a01b0360408520541680151590816107e7575b84865260038852604086206001815401905586865260028852604086208573ffffffffffffffffffffffffffffffffffffffff198254161790558685827fddf252ad1be2c89b69c2b068fc378daa952ba7f163c4a11628f55a4df523b3ef8980a4506107bb5785903b610674575b5050506007549060001982146106605750600101600755604051908152f35b80634e487b7160e01b602492526011600452fd5b6106ac9160405180938192630a85bd0160e11b8352336004840152876024840152886044840152608060648401526084830190610bd0565b038186865af183918161075f575b50610713578483833d1561070b573d926106d384610cb5565b936106e16040519586610c7c565b84523d838286013e5b835193846107055760248484633250574960e11b8252600452fd5b84925001fd5b6060926106ea565b7fffffffff00000000000000000000000000000000000000000000000000000000630a85bd0160e11b91160361074c5750388084610641565b60249250633250574960e11b8252600452fd5b9091508581813d83116107b4575b6107778183610c7c565b810103126107b057517fffffffff00000000000000000000000000000000000000000000000000000000811681036107b05790386106ba565b8380fd5b503d61076d565b6024847f73c6ac6e00000000000000000000000000000000000000000000000000000000815280600452fd5b610815876000526004602052604060002073ffffffffffffffffffffffffffffffffffffffff198154169055565b808652600388526040862060001981540190556105d3565b602484633250574960e11b815280600452fd5b503461019457602060031936011261019457602061085f600435610f5b565b6001600160a01b0360405191168152f35b5034610194576102dc61088236610c42565b9060405192610892602085610c7c565b8584526102d6838383610cd1565b5034610194576040600319360112610194576001600160a01b036108c2610c11565b6108ca610fab565b1681526008602052602435604082205580f35b5034610194576102dc6108ef36610c42565b91610cd1565b50346101945760406003193601126101945761090f610c11565b60243561091b81610f5b565b331515806109f4575b806109c1575b6109955781906001600160a01b0380851691167f8c5be1e5ebec7d5bd14f71427d1e84f3dd0314c0f7b2291e5b200ac8c7c3b9258680a4825260046020526001600160a01b0360408320911673ffffffffffffffffffffffffffffffffffffffff1982541617905580f35b6024847fa9fbf51f00000000000000000000000000000000000000000000000000000000815233600452fd5b506001600160a01b03811684526005602052604084206001600160a01b033316855260205260ff6040852054161561092a565b50336001600160a01b0382161415610924565b5034610194576020600319360112610194576001600160a01b036040602092600435610a3281610f5b565b50815260048452205416604051908152f35b503461019457806003193601126101945760405190808054908160011c91600181168015610af5575b602084108114610490578386529081156104695750600114610a9957610244846103f881860382610c7c565b8080527f290decd9548b62a8d60345a988386fc84ba6bc95484008f6362f93160ef3e563939250905b808210610adb575090915081016020016103f8826103e8565b919260018160209254838588010152019101909291610ac2565b92607f1692610a6d565b9050346102df5760206003193601126102df576004357fffffffff00000000000000000000000000000000000000000000000000000000811680910361039d57602092507f80ac58cd000000000000000000000000000000000000000000000000000000008114908115610ba6575b8115610b7c575b5015158152f35b7f01ffc9a70000000000000000000000000000000000000000000000000000000091501438610b75565b7f5b5e139f0000000000000000000000000000000000000000000000000000000081149150610b6e565b919082519283825260005b848110610bfc575050601f19601f8460006020809697860101520116010190565b80602080928401015182828601015201610bdb565b600435906001600160a01b0382168203610c2757565b600080fd5b602435906001600160a01b0382168203610c2757565b6003196060910112610c27576004356001600160a01b0381168103610c2757906024356001600160a01b0381168103610c27579060443590565b90601f601f19910116810190811067ffffffffffffffff821117610c9f57604052565b634e487b7160e01b600052604160045260246000fd5b67ffffffffffffffff8111610c9f57601f01601f191660200190565b91906001600160a01b0316918215610ed2576000908282526002602052826001600160a01b03604084205416948533151580610dfe575b507fddf252ad1be2c89b69c2b068fc378daa952ba7f163c4a11628f55a4df523b3ef6001600160a01b039582610db7575b838152600360205260408120600181540190558481526002602052604081208473ffffffffffffffffffffffffffffffffffffffff1982541617905580a416808303610d8457505050565b7f64283d7b0000000000000000000000000000000000000000000000000000000060005260045260245260445260646000fd5b610de5856000526004602052604060002073ffffffffffffffffffffffffffffffffffffffff198154169055565b8281526003602052604081206000198154019055610d39565b91939492505080610e7b575b15610e1a57919083908538610d08565b839085610e4c576024917f7e273289000000000000000000000000000000000000000000000000000000008252600452fd5b6044917f177e802f00000000000000000000000000000000000000000000000000000000825233600452602452fd5b503385148015610ea9575b80610e0a57508381526004602052336001600160a01b0360408320541614610e0a565b508481526005602052604081206001600160a01b033316825260205260ff604082205416610e86565b633250574960e11b600052600060045260246000fd5b6001600160a01b0316806000526008602052604060002054610f4a578015610f1b57600052600360205260406000205490565b7f89c62b6400000000000000000000000000000000000000000000000000000000600052600060045260246000fd5b600052600860205260406000205490565b8060005260026020526001600160a01b0360406000205416908115610f7e575090565b7f7e2732890000000000000000000000000000000000000000000000000000000060005260045260246000fd5b6001600160a01b03600654163303610fbf57565b7f118cdaa7000000000000000000000000000000000000000000000000000000006000523360045260246000fd5b93909293823b610fff575b5050505050565b6110466001600160a01b0392836020951696846040519788968796630a85bd0160e11b88521660048701521660248501526044840152608060648401526084830190610bd0565b03816000865af180916000916110ff575b50906110b057503d156110a9573d61106e81610cb5565b9061107c6040519283610c7c565b81523d6000602083013e5b805190816110a45782633250574960e11b60005260045260246000fd5b602001fd5b6060611087565b7fffffffff00000000000000000000000000000000000000000000000000000000630a85bd0160e11b9116036110eb57503880808080610ff8565b633250574960e11b60005260045260246000fd5b6020813d602011611152575b8161111860209383610c7c565b810103126102df5751907fffffffff0000000000000000000000000000000000000000000000000000000082168203610194575038611057565b3d915061110b56fea2646970667358221220c14c8cc63dc24ed2bdc1bb8929d1b6e3252f42f24a4ada2beddd055a4da6e49f64736f6c634300081c0033",
  "linkReferences": {},
  "deployedLinkReferences": {}
}