{
  "_format": "hh-sol-artifact-1",
  "contractName": "DCURewardManager",
  "sourceName": "contracts/contracts/DCURewardManager.sol",
  "abi": [
    {
      "inputs": [
        {
          "internalType": "address",
          "name": "_dcuToken",
          "type": "address"
        },
        {
          "internalType": "address",
          "name": "_nftCollection",
          "type": "address"
        }
      ],
      "stateMutability": "nonpayable",
      "type": "constructor"
    },
    {
      "inputs": [
        {
          "internalType": "address",
          "name": "owner",
          "type": "address"
        }
      ],
      "name": "OwnableInvalidOwner",
      "type": "error"
    },
    {
      "inputs": [
        {
          "internalType": "address",
          "name": "account",
          "type": "address"
        }
      ],
      "name": "OwnableUnauthorizedAccount",
      "type": "error"
    },
    {
      "inputs": [],
      "name": "ReentrancyGuardReentrantCall",
      "type": "error"
    },
    {
      "anonymous": false,
      "inputs": [
        {
          "indexed": true,
          "internalType": "address",
          "name": "user",
          "type": "address"
        },
        {
          "indexed": true,
          "internalType": "uint256",
          "name": "level",
          "type": "uint256"
        },
        {
          "indexed": false,
          "internalType": "uint256",
          "name": "amount",
          "type": "uint256"
        }
      ],
      "name": "DCURewardImpactProduct",
      "type": "event"
    },
    {
      "anonymous": false,
      "inputs": [
        {
          "indexed": true,
          "internalType": "address",
          "name": "referrer",
          "type": "address"
        },
        {
          "indexed": true,
          "internalType": "address",
          "name": "invitee",
          "type": "address"
        },
        {
          "indexed": false,
          "internalType": "uint256",
          "name": "amount",
          "type": "uint256"
        }
      ],
      "name": "DCURewardReferral",
      "type": "event"
    },
    {
      "anonymous": false,
      "inputs": [
        {
          "indexed": true,
          "internalType": "address",
          "name": "user",
          "type": "address"
        },
        {
          "indexed": false,
          "internalType": "uint256",
          "name": "amount",
          "type": "uint256"
        },
        {
          "indexed": false,
          "internalType": "uint256",
          "name": "streakDays",
          "type": "uint256"
        }
      ],
      "name": "DCURewardStreak",
      "type": "event"
    },
    {
      "anonymous": false,
      "inputs": [
        {
          "indexed": true,
          "internalType": "address",
          "name": "user",
          "type": "address"
        },
        {
          "indexed": false,
          "internalType": "uint256",
          "name": "hypercertNumber",
          "type": "uint256"
        },
        {
          "indexed": false,
          "internalType": "uint256",
          "name": "amount",
          "type": "uint256"
        }
      ],
      "name": "HypercertRewardClaimed",
      "type": "event"
    },
    {
      "anonymous": false,
      "inputs": [
        {
          "indexed": true,
          "internalType": "address",
          "name": "oldCollection",
          "type": "address"
        },
        {
          "indexed": true,
          "internalType": "address",
          "name": "newCollection",
          "type": "address"
        }
      ],
      "name": "NftCollectionUpdated",
      "type": "event"
    },
    {
      "anonymous": false,
      "inputs": [
        {
          "indexed": true,
          "internalType": "address",
          "name": "user",
          "type": "address"
        },
        {
          "indexed": false,
          "internalType": "bool",
          "name": "minted",
          "type": "bool"
        }
      ],
      "name": "NftMintStatusUpdated",
      "type": "event"
    },
    {
      "anonymous": false,
      "inputs": [
        {
          "indexed": true,
          "internalType": "address",
          "name": "previousOwner",
          "type": "address"
        },
        {
          "indexed": true,
          "internalType": "address",
          "name": "newOwner",
          "type": "address"
        }
      ],
      "name": "OwnershipTransferred",
      "type": "event"
    },
    {
      "anonymous": false,
      "inputs": [
        {
          "indexed": true,
          "internalType": "address",
          "name": "user",
          "type": "address"
        },
        {
          "indexed": false,
          "internalType": "bool",
          "name": "verified",
          "type": "bool"
        }
      ],
      "name": "PoiVerificationUpdated",
      "type": "event"
    },
    {
      "anonymous": false,
      "inputs": [
        {
          "indexed": true,
          "internalType": "address",
          "name": "invitee",
          "type": "address"
        },
        {
          "indexed": true,
          "internalType": "address",
          "name": "referrer",
          "type": "address"
        }
      ],
      "name": "ReferralRegistered",
      "type": "event"
    },
    {
      "anonymous": false,
      "inputs": [
        {
          "indexed": true,
          "internalType": "address",
          "name": "referrer",
          "type": "address"
        },
        {
          "indexed": true,
          "internalType": "address",
          "name": "invitee",
          "type": "address"
        },
        {
          "indexed": false,
          "internalType": "uint256",
          "name": "amount",
          "type": "uint256"
        }
      ],
      "name": "ReferralRewarded",
      "type": "event"
    },
    {
      "anonymous": false,
      "inputs": [
        {
          "indexed": true,
          "internalType": "address",
          "name": "user",
          "type": "address"
        },
        {
          "indexed": false,
          "internalType": "uint256",
          "name": "amount",
          "type": "uint256"
        },
        {
          "indexed": false,
          "internalType": "uint8",
          "name": "rewardType",
          "type": "uint8"
        },
        {
          "indexed": false,
          "internalType": "uint256",
          "name": "timestamp",
          "type": "uint256"
        }
      ],
      "name": "RewardAccrued",
      "type": "event"
    },
    {
      "anonymous": false,
      "inputs": [
        {
          "indexed": false,
          "internalType": "uint256",
          "name": "claimReward",
          "type": "uint256"
        },
        {
          "indexed": false,
          "internalType": "uint256",
          "name": "referralReward",
          "type": "uint256"
        },
        {
          "indexed": false,
          "internalType": "uint256",
          "name": "streakReward",
          "type": "uint256"
        }
      ],
      "name": "RewardAmountsUpdated",
      "type": "event"
    },
    {
      "anonymous": false,
      "inputs": [
        {
          "indexed": true,
          "internalType": "address",
          "name": "user",
          "type": "address"
        },
        {
          "indexed": false,
          "internalType": "bool",
          "name": "eligible",
          "type": "bool"
        },
        {
          "indexed": false,
          "internalType": "bool",
          "name": "manualOverride",
          "type": "bool"
        }
      ],
      "name": "RewardEligibilityUpdated",
      "type": "event"
    },
    {
      "anonymous": false,
      "inputs": [
        {
          "indexed": true,
          "internalType": "address",
          "name": "user",
          "type": "address"
        },
        {
          "indexed": false,
          "internalType": "uint256",
          "name": "amount",
          "type": "uint256"
        },
        {
          "indexed": false,
          "internalType": "uint256",
          "name": "timestamp",
          "type": "uint256"
        }
      ],
      "name": "RewardsClaimed",
      "type": "event"
    },
    {
      "anonymous": false,
      "inputs": [
        {
          "indexed": true,
          "internalType": "address",
          "name": "oldSubmission",
          "type": "address"
        },
        {
          "indexed": true,
          "internalType": "address",
          "name": "newSubmission",
          "type": "address"
        }
      ],
      "name": "SubmissionContractUpdated",
      "type": "event"
    },
    {
      "anonymous": false,
      "inputs": [
        {
          "indexed": true,
          "internalType": "address",
          "name": "oldTreasury",
          "type": "address"
        },
        {
          "indexed": true,
          "internalType": "address",
          "name": "newTreasury",
          "type": "address"
        }
      ],
      "name": "TreasuryUpdated",
      "type": "event"
    },
    {
      "inputs": [
        {
          "internalType": "uint256",
          "name": "hypercertNumber",
          "type": "uint256"
        }
      ],
      "name": "claimHypercertReward",
      "outputs": [],
      "stateMutability": "nonpayable",
      "type": "function"
    },
    {
      "inputs": [
        {
          "internalType": "uint256",
          "name": "amount",
          "type": "uint256"
        }
      ],
      "name": "claimRewards",
      "outputs": [],
      "stateMutability": "nonpayable",
      "type": "function"
    },
    {
      "inputs": [
        {
          "internalType": "address",
          "name": "",
          "type": "address"
        }
      ],
      "name": "claimRewardsAmount",
      "outputs": [
        {
          "internalType": "uint256",
          "name": "",
          "type": "uint256"
        }
      ],
      "stateMutability": "view",
      "type": "function"
    },
    {
      "inputs": [],
      "name": "dcuToken",
      "outputs": [
        {
          "internalType": "contract IDCUToken",
          "name": "",
          "type": "address"
        }
      ],
      "stateMutability": "view",
      "type": "function"
    },
    {
      "inputs": [
        {
          "internalType": "address",
          "name": "user",
          "type": "address"
        },
        {
          "internalType": "uint256",
          "name": "amount",
          "type": "uint256"
        }
      ],
      "name": "distributeRewards",
      "outputs": [],
      "stateMutability": "nonpayable",
      "type": "function"
    },
    {
      "inputs": [
        {
          "internalType": "address",
          "name": "user",
          "type": "address"
        }
      ],
      "name": "getBalance",
      "outputs": [
        {
          "internalType": "uint256",
          "name": "",
          "type": "uint256"
        }
      ],
      "stateMutability": "view",
      "type": "function"
    },
    {
      "inputs": [
        {
          "internalType": "address",
          "name": "invitee",
          "type": "address"
        }
      ],
      "name": "getReferrer",
      "outputs": [
        {
          "internalType": "address",
          "name": "",
          "type": "address"
        }
      ],
      "stateMutability": "view",
      "type": "function"
    },
    {
      "inputs": [
        {
          "internalType": "address",
          "name": "user",
          "type": "address"
        }
      ],
      "name": "getRewardsBreakdown",
      "outputs": [
        {
          "internalType": "uint256",
          "name": "claimReward",
          "type": "uint256"
        },
        {
          "internalType": "uint256",
          "name": "streakRewardAmount",
          "type": "uint256"
        },
        {
          "internalType": "uint256",
          "name": "referralRewardAmount",
          "type": "uint256"
        },
        {
          "internalType": "uint256",
          "name": "currentBalance",
          "type": "uint256"
        },
        {
          "internalType": "uint256",
          "name": "claimedRewards",
          "type": "uint256"
        }
      ],
      "stateMutability": "view",
      "type": "function"
    },
    {
      "inputs": [
        {
          "internalType": "address",
          "name": "user",
          "type": "address"
        }
      ],
      "name": "getTotalEarnedDCU",
      "outputs": [
        {
          "internalType": "uint256",
          "name": "",
          "type": "uint256"
        }
      ],
      "stateMutability": "view",
      "type": "function"
    },
    {
      "inputs": [
        {
          "internalType": "address",
          "name": "user",
          "type": "address"
        }
      ],
      "name": "getUserRewardStats",
      "outputs": [
        {
          "components": [
            {
              "internalType": "uint256",
              "name": "currentBalance",
              "type": "uint256"
            },
            {
              "internalType": "uint256",
              "name": "totalEarned",
              "type": "uint256"
            },
            {
              "internalType": "uint256",
              "name": "totalClaimed",
              "type": "uint256"
            },
            {
              "internalType": "uint256",
              "name": "claimRewardsAmount",
              "type": "uint256"
            },
            {
              "internalType": "uint256",
              "name": "streakRewardsAmount",
              "type": "uint256"
            },
            {
              "internalType": "uint256",
              "name": "referralRewardsAmount",
              "type": "uint256"
            },
            {
              "internalType": "uint256",
              "name": "impactReportRewardsAmount",
              "type": "uint256"
            }
          ],
          "internalType": "struct DCURewardManager.UserRewardStats",
          "name": "",
          "type": "tuple"
        }
      ],
      "stateMutability": "view",
      "type": "function"
    },
    {
      "inputs": [
        {
          "internalType": "address",
          "name": "user",
          "type": "address"
        }
      ],
      "name": "getVerificationStatus",
      "outputs": [
        {
          "internalType": "bool",
          "name": "poiStatus",
          "type": "bool"
        },
        {
          "internalType": "bool",
          "name": "nftStatus",
          "type": "bool"
        },
        {
          "internalType": "bool",
          "name": "eligible",
          "type": "bool"
        }
      ],
      "stateMutability": "view",
      "type": "function"
    },
    {
      "inputs": [],
      "name": "hypercertBonus",
      "outputs": [
        {
          "internalType": "uint256",
          "name": "",
          "type": "uint256"
        }
      ],
      "stateMutability": "view",
      "type": "function"
    },
    {
      "inputs": [
        {
          "internalType": "bytes32",
          "name": "",
          "type": "bytes32"
        }
      ],
      "name": "hypercertRewardsClaimed",
      "outputs": [
        {
          "internalType": "bool",
          "name": "",
          "type": "bool"
        }
      ],
      "stateMutability": "view",
      "type": "function"
    },
    {
      "inputs": [],
      "name": "impactProductClaimReward",
      "outputs": [
        {
          "internalType": "uint256",
          "name": "",
          "type": "uint256"
        }
      ],
      "stateMutability": "view",
      "type": "function"
    },
    {
      "inputs": [
        {
          "internalType": "address",
          "name": "",
          "type": "address"
        },
        {
          "internalType": "uint256",
          "name": "",
          "type": "uint256"
        }
      ],
      "name": "impactProductClaimed",
      "outputs": [
        {
          "internalType": "bool",
          "name": "",
          "type": "bool"
        }
      ],
      "stateMutability": "view",
      "type": "function"
    },
    {
      "inputs": [],
      "name": "impactReportReward",
      "outputs": [
        {
          "internalType": "uint256",
          "name": "",
          "type": "uint256"
        }
      ],
      "stateMutability": "view",
      "type": "function"
    },
    {
      "inputs": [
        {
          "internalType": "address",
          "name": "",
          "type": "address"
        }
      ],
      "name": "impactReportRewardsAmount",
      "outputs": [
        {
          "internalType": "uint256",
          "name": "",
          "type": "uint256"
        }
      ],
      "stateMutability": "view",
      "type": "function"
    },
    {
      "inputs": [
        {
          "internalType": "address",
          "name": "",
          "type": "address"
        }
      ],
      "name": "lastPoiTimestamp",
      "outputs": [
        {
          "internalType": "uint256",
          "name": "",
          "type": "uint256"
        }
      ],
      "stateMutability": "view",
      "type": "function"
    },
    {
      "inputs": [],
      "name": "nftCollection",
      "outputs": [
        {
          "internalType": "address",
          "name": "",
          "type": "address"
        }
      ],
      "stateMutability": "view",
      "type": "function"
    },
    {
      "inputs": [
        {
          "internalType": "address",
          "name": "",
          "type": "address"
        }
      ],
      "name": "nftMinted",
      "outputs": [
        {
          "internalType": "bool",
          "name": "",
          "type": "bool"
        }
      ],
      "stateMutability": "view",
      "type": "function"
    },
    {
      "inputs": [],
      "name": "owner",
      "outputs": [
        {
          "internalType": "address",
          "name": "",
          "type": "address"
        }
      ],
      "stateMutability": "view",
      "type": "function"
    },
    {
      "inputs": [
        {
          "internalType": "address",
          "name": "",
          "type": "address"
        }
      ],
      "name": "poiVerified",
      "outputs": [
        {
          "internalType": "bool",
          "name": "",
          "type": "bool"
        }
      ],
      "stateMutability": "view",
      "type": "function"
    },
    {
      "inputs": [],
      "name": "referralReward",
      "outputs": [
        {
          "internalType": "uint256",
          "name": "",
          "type": "uint256"
        }
      ],
      "stateMutability": "view",
      "type": "function"
    },
    {
      "inputs": [
        {
          "internalType": "address",
          "name": "",
          "type": "address"
        }
      ],
      "name": "referralRewarded",
      "outputs": [
        {
          "internalType": "bool",
          "name": "",
          "type": "bool"
        }
      ],
      "stateMutability": "view",
      "type": "function"
    },
    {
      "inputs": [
        {
          "internalType": "address",
          "name": "",
          "type": "address"
        }
      ],
      "name": "referralRewardsAmount",
      "outputs": [
        {
          "internalType": "uint256",
          "name": "",
          "type": "uint256"
        }
      ],
      "stateMutability": "view",
      "type": "function"
    },
    {
      "inputs": [
        {
          "internalType": "address",
          "name": "",
          "type": "address"
        }
      ],
      "name": "referrers",
      "outputs": [
        {
          "internalType": "address",
          "name": "",
          "type": "address"
        }
      ],
      "stateMutability": "view",
      "type": "function"
    },
    {
      "inputs": [
        {
          "internalType": "address",
          "name": "invitee",
          "type": "address"
        },
        {
          "internalType": "address",
          "name": "referrer",
          "type": "address"
        }
      ],
      "name": "registerReferral",
      "outputs": [],
      "stateMutability": "nonpayable",
      "type": "function"
    },
    {
      "inputs": [],
      "name": "renounceOwnership",
      "outputs": [],
      "stateMutability": "nonpayable",
      "type": "function"
    },
    {
      "inputs": [
        {
          "internalType": "address",
          "name": "",
          "type": "address"
        }
      ],
      "name": "rewardEligibility",
      "outputs": [
        {
          "internalType": "bool",
          "name": "",
          "type": "bool"
        }
      ],
      "stateMutability": "view",
      "type": "function"
    },
    {
      "inputs": [
        {
          "internalType": "address",
          "name": "user",
          "type": "address"
        }
      ],
      "name": "rewardHypercertMint",
      "outputs": [],
      "stateMutability": "nonpayable",
      "type": "function"
    },
    {
      "inputs": [
        {
          "internalType": "address",
          "name": "user",
          "type": "address"
        },
        {
          "internalType": "uint256",
          "name": "level",
          "type": "uint256"
        }
      ],
      "name": "rewardImpactProductClaim",
      "outputs": [],
      "stateMutability": "nonpayable",
      "type": "function"
    },
    {
      "inputs": [
        {
          "internalType": "address",
          "name": "user",
          "type": "address"
        },
        {
          "internalType": "uint256",
          "name": "reportCount",
          "type": "uint256"
        }
      ],
      "name": "rewardImpactReports",
      "outputs": [],
      "stateMutability": "nonpayable",
      "type": "function"
    },
    {
      "inputs": [
        {
          "internalType": "address",
          "name": "verifier",
          "type": "address"
        }
      ],
      "name": "rewardVerifier",
      "outputs": [],
      "stateMutability": "nonpayable",
      "type": "function"
    },
    {
      "inputs": [
        {
          "internalType": "address",
          "name": "user",
          "type": "address"
        },
        {
          "internalType": "bool",
          "name": "status",
          "type": "bool"
        }
      ],
      "name": "setPoiVerificationStatus",
      "outputs": [],
      "stateMutability": "nonpayable",
      "type": "function"
    },
    {
      "inputs": [
        {
          "internalType": "address",
          "name": "user",
          "type": "address"
        },
        {
          "internalType": "bool",
          "name": "status",
          "type": "bool"
        }
      ],
      "name": "setRewardEligibilityForTesting",
      "outputs": [],
      "stateMutability": "nonpayable",
      "type": "function"
    },
    {
      "inputs": [
        {
          "internalType": "address",
          "name": "_submission",
          "type": "address"
        }
      ],
      "name": "setSubmissionContract",
      "outputs": [],
      "stateMutability": "nonpayable",
      "type": "function"
    },
    {
      "inputs": [],
      "name": "streakReward",
      "outputs": [
        {
          "internalType": "uint256",
          "name": "",
          "type": "uint256"
        }
      ],
      "stateMutability": "view",
      "type": "function"
    },
    {
      "inputs": [
        {
          "internalType": "address",
          "name": "",
          "type": "address"
        }
      ],
      "name": "streakRewardsAmount",
      "outputs": [
        {
          "internalType": "uint256",
          "name": "",
          "type": "uint256"
        }
      ],
      "stateMutability": "view",
      "type": "function"
    },
    {
      "inputs": [],
      "name": "submissionContract",
      "outputs": [
        {
          "internalType": "address",
          "name": "",
          "type": "address"
        }
      ],
      "stateMutability": "view",
      "type": "function"
    },
    {
      "inputs": [
        {
          "internalType": "address",
          "name": "",
          "type": "address"
        }
      ],
      "name": "totalClaimed",
      "outputs": [
        {
          "internalType": "uint256",
          "name": "",
          "type": "uint256"
        }
      ],
      "stateMutability": "view",
      "type": "function"
    },
    {
      "inputs": [
        {
          "internalType": "address",
          "name": "",
          "type": "address"
        }
      ],
      "name": "totalEarned",
      "outputs": [
        {
          "internalType": "uint256",
          "name": "",
          "type": "uint256"
        }
      ],
      "stateMutability": "view",
      "type": "function"
    },
    {
      "inputs": [
        {
          "internalType": "address",
          "name": "newOwner",
          "type": "address"
        }
      ],
      "name": "transferOwnership",
      "outputs": [],
      "stateMutability": "nonpayable",
      "type": "function"
    },
    {
      "inputs": [],
      "name": "treasury",
      "outputs": [
        {
          "internalType": "address",
          "name": "",
          "type": "address"
        }
      ],
      "stateMutability": "view",
      "type": "function"
    },
    {
      "inputs": [
        {
          "internalType": "address",
          "name": "_nftCollection",
          "type": "address"
        }
      ],
      "name": "updateNftCollection",
      "outputs": [],
      "stateMutability": "nonpayable",
      "type": "function"
    },
    {
      "inputs": [
        {
          "internalType": "address",
          "name": "user",
          "type": "address"
        },
        {
          "internalType": "bool",
          "name": "hasMinted",
          "type": "bool"
        }
      ],
      "name": "updateNftMintStatus",
      "outputs": [],
      "stateMutability": "nonpayable",
      "type": "function"
    },
    {
      "inputs": [
        {
          "internalType": "uint256",
          "name": "newClaimReward",
          "type": "uint256"
        },
        {
          "internalType": "uint256",
          "name": "newReferralReward",
          "type": "uint256"
        },
        {
          "internalType": "uint256",
          "name": "newStreakReward",
          "type": "uint256"
        }
      ],
      "name": "updateRewardAmounts",
      "outputs": [],
      "stateMutability": "nonpayable",
      "type": "function"
    },
    {
      "inputs": [
        {
          "internalType": "address",
          "name": "newTreasury",
          "type": "address"
        }
      ],
      "name": "updateTreasury",
      "outputs": [],
      "stateMutability": "nonpayable",
      "type": "function"
    },
    {
      "inputs": [
        {
          "internalType": "address",
          "name": "",
          "type": "address"
        }
      ],
      "name": "userBalances",
      "outputs": [
        {
          "internalType": "uint256",
          "name": "",
          "type": "uint256"
        }
      ],
      "stateMutability": "view",
      "type": "function"
    },
    {
      "inputs": [],
      "name": "verifierReward",
      "outputs": [
        {
          "internalType": "uint256",
          "name": "",
          "type": "uint256"
        }
      ],
      "stateMutability": "view",
      "type": "function"
    }
  ],
  "bytecode": "0x60a03461019757601f61220d38819003918201601f19168301916001600160401b0383118484101761019c57808492604094855283398101031261019757610052602061004b836101b2565b92016101b2565b9033156101815760008054336001600160a01b0319821681178355604051939290916001600160a01b0316907f8be0079c531659141344cd1fd0a4f28419497f9722a3daafe3b4186f6b6457e09080a360018055678ac7230489e800006005819055670de0b6b3a764000060068190556729a2241af62c0000600755674563918244f40000600855600955600a556001600160a01b031690811561013f5750608052600280546001600160a01b03929092166001600160a01b03199283161790556004805433921691909117905560405161204690816101c782396080518181816116f901526117d30152f35b62461bcd60e51b815260206004820152601660248201527f5245574152445f5f496e76616c696441646472657373000000000000000000006044820152606490fd5b631e4fbdf760e01b600052600060045260246000fd5b600080fd5b634e487b7160e01b600052604160045260246000fd5b51906001600160a01b03821682036101975756fe6080604052600436101561001257600080fd5b60003560e01c80630962ef791461171d57806314cde16e146116d957806321c838ef1461142d57806322b31619146113f357806322c1f447146113d557806326224c64146103005780632f6f92b3146113965780633aec44731461135c5780633efe458a1461133e57806347c24fcf146111d55780634a3b68cc146111925780634a9fefc7146111925780634c5a3f1b1461110d5780634d683674146110ef5780634f3f2832146110b55780635001d45f146110975780635603b9f914610f7e5780635b651c4814610f055780635fd6ac8114610e865780636103681a14610e1a57806361d027b314610df357806362d2eea214610db4578063649aca4a1461051557806364f9386a14610d7a5780636588103b14610d5357806369e23ced14610d19578063715018a614610cb357806376e1748314610bd6578063794882d114610bb85780637f51bb1f14610b33578063823888d114610b02578063842ce38114610adb57806389e0e5541461086f5780638da5cb5b146108485780639afdf64d146107f05780639b13027d146106c8578063a1905a0714610616578063a8031a1d146105ba578063aa58152d1461056d578063b49e80f41461054f578063c107e3b414610515578063d5b3081b146104d4578063dac773c014610495578063e9ecfef314610423578063ef5d9ae8146103e9578063f2fde38b1461033a578063f8b2cb4f14610300578063fb272a921461027b5763fcec67691461023757600080fd5b34610276576020600319360112610276576001600160a01b0361025861190c565b166000526015602052602060ff604060002054166040519015158152f35b600080fd5b34610276576020600319360112610276576001600160a01b0361029c61190c565b6102a4611b13565b166102b0811515611a42565b6001600160a01b036003548273ffffffffffffffffffffffffffffffffffffffff19821617600355167f5618d15b3d3478bef54c48bfa1cbb365001987a237e573422477a43597b496bd600080a3005b34610276576020600319360112610276576001600160a01b0361032161190c565b16600052600b6020526020604060002054604051908152f35b34610276576020600319360112610276576001600160a01b0361035b61190c565b610363611b13565b1680156103ba576001600160a01b036000548273ffffffffffffffffffffffffffffffffffffffff19821617600055167f8be0079c531659141344cd1fd0a4f28419497f9722a3daafe3b4186f6b6457e0600080a3005b7f1e4fbdf700000000000000000000000000000000000000000000000000000000600052600060045260246000fd5b34610276576020600319360112610276576001600160a01b0361040a61190c565b16600052600d6020526020604060002054604051908152f35b346102765760206003193601126102765761047a61043f61190c565b6001600160a01b03600354163314801561047c575b61045d90611a8d565b6104716001600160a01b0382161515611a42565b60095490611ebd565b005b5061045d6001600160a01b036000541633149050610454565b34610276576020600319360112610276576001600160a01b036104b661190c565b166000526012602052602060ff604060002054166040519015158152f35b346102765760206003193601126102765761047a6104f061190c565b6104f8611b13565b61050c6001600160a01b0382161515611a42565b600a5490611db9565b34610276576020600319360112610276576001600160a01b0361053661190c565b16600052600c6020526020604060002054604051908152f35b34610276576000600319360112610276576020600954604051908152f35b34610276576040600319360112610276576001600160a01b0361058e61190c565b1660005260176020526040600020602435600052602052602060ff604060002054166040519015158152f35b346102765760406003193601126102765761047a6105d661190c565b6001600160a01b0360035416331480156105fd575b6105f490611a8d565b60243590611e3b565b506105f46001600160a01b0360005416331490506105eb565b346102765761047a61062736611922565b6001600160a01b0360025416331480156106af575b61064590611a8d565b7fcc3839c65af66c01694bedefc47e2c3871dedd5489b4432fb8b876f92bcd26fe60206001600160a01b0384169261067e841515611a42565b83600052601382526106a18160406000209060ff60ff1983541691151516179055565b6040519015158152a2611f3f565b506106456001600160a01b03600054163314905061063c565b346102765760206003193601126102765760e06001600160a01b036106eb61190c565b600060c06040516106fb816119b6565b8281528260208201528260408201528260608201528260808201528260a082015201521680600052600b6020526040600020549080600052600c6020526040600020549080600052600d60205260406000205481600052600e60205260406000205482600052600f602052604060002054918360005260106020526040600020549360005260116020526040600020549460c060405161079a816119b6565b8881526020810192835260408101938452606081019485526080810195865260a08101968752019586526040519687525160208701525160408601525160608501525160808401525160a08301525160c0820152f35b346102765761047a61084361080436611922565b61080f929192611b13565b6001600160a01b038316610824811515611a42565b600052601460205260406000209060ff60ff1983541691151516179055565b611f3f565b346102765760006003193601126102765760206001600160a01b0360005416604051908152f35b346102765760206003193601126102765760043561088b611ad8565b6001600160a01b03600354168015610a97578115610a53576020602491604051928380927f5fb971fe0000000000000000000000000000000000000000000000000000000082523360048301525afa8015610a47578291600091610a12575b50106109ce5760405160208101903360601b825282603482015260348152610913605482611a01565b51902080600052601a60205260ff6040600020541661098a57600052601a6020526040600020600160ff19825416179055610950600a5433611db9565b600a5460405191825260208201527f951f39974d404f2469a2c5eb978dfc1f14816a992e303940d6691ba1f800b22a60403392a260018055005b606460405162461bcd60e51b815260206004820152601660248201527f52657761726420616c726561647920636c61696d6564000000000000000000006044820152fd5b606460405162461bcd60e51b815260206004820152601460248201527f487970657263657274206e6f74206d696e7465640000000000000000000000006044820152fd5b9150506020813d602011610a3f575b81610a2e60209383611a01565b8101031261027657819051836108ea565b3d9150610a21565b6040513d6000823e3d90fd5b606460405162461bcd60e51b815260206004820152601860248201527f496e76616c696420687970657263657274206e756d62657200000000000000006044820152fd5b606460405162461bcd60e51b815260206004820152601260248201527f5375626d697373696f6e206e6f742073657400000000000000000000000000006044820152fd5b346102765760006003193601126102765760206001600160a01b0360035416604051908152f35b3461027657602060031936011261027657600435600052601a602052602060ff604060002054166040519015158152f35b34610276576020600319360112610276576001600160a01b03610b5461190c565b610b5c611b13565b16610b68811515611a42565b6001600160a01b036004548273ffffffffffffffffffffffffffffffffffffffff19821617600455167f4ab5be82436d353e61ca18726e984e561f5c1cc7c6d38b29d2553c790434705a600080a3005b34610276576000600319360112610276576020600a54604051908152f35b3461027657604060031936011261027657610bef61190c565b602435906001600160a01b036003541633148015610c9a575b610c1190611a8d565b6001600160a01b03811690610c27821515611a42565b610c32831515611951565b600854838102938185041490151715610c6b5782610c4f91611d37565b6000526011602052610c6760406000209182546119a9565b9055005b7f4e487b7100000000000000000000000000000000000000000000000000000000600052601160045260246000fd5b50610c116001600160a01b036000541633149050610c08565b3461027657600060031936011261027657610ccc611b13565b60006001600160a01b03815473ffffffffffffffffffffffffffffffffffffffff1981168355167f8be0079c531659141344cd1fd0a4f28419497f9722a3daafe3b4186f6b6457e08280a3005b34610276576020600319360112610276576001600160a01b03610d3a61190c565b1660005260106020526020604060002054604051908152f35b346102765760006003193601126102765760206001600160a01b0360025416604051908152f35b34610276576020600319360112610276576001600160a01b03610d9b61190c565b16600052600f6020526020604060002054604051908152f35b34610276576020600319360112610276576001600160a01b03610dd561190c565b166000526019602052602060ff604060002054166040519015158152f35b346102765760006003193601126102765760206001600160a01b0360045416604051908152f35b34610276576020600319360112610276576060610e3561190c565b6001600160a01b0381169081600052601260205260ff60406000205416916000526013602052610e6d60ff6040600020541691611b55565b9060405192151583521515602083015215156040820152f35b34610276576060600319360112610276577f246173514089d16e18ec0ac77ebd48a60f2f43cf55e2436266e925590d81cd856060600435604435602435610ecb611b13565b610ed483611fbb565b610edd81611fbb565b610ee682611fbb565b82600555806006558160075560405192835260208301526040820152a1005b346102765760206003193601126102765760a06001600160a01b03610f2861190c565b166000908152600e6020908152604080832054600f8352818420546010845282852054600b855283862054600d865295849020548451938452948301919091529181019190915260608101929092526080820152f35b3461027657604060031936011261027657610f9761190c565b602435906001600160a01b038216809203610276576001600160a01b0390610fbd611b13565b168015158061108e575b610fd090611a42565b610fdc82821415611a42565b8060005260186020526001600160a01b036040600020541661104a5780600052601860205260406000208273ffffffffffffffffffffffffffffffffffffffff198254161790557f5f1ca2fcc108b751843a763e60d2201f593516109d7dbb1b700468f2d4190bb7600080a3005b606460405162461bcd60e51b815260206004820152601b60248201527f526566657272616c20616c7265616479207265676973746572656400000000006044820152fd5b50811515610fc7565b34610276576000600319360112610276576020600554604051908152f35b34610276576020600319360112610276576001600160a01b036110d661190c565b1660005260166020526020604060002054604051908152f35b34610276576000600319360112610276576020600654604051908152f35b34610276576020600319360112610276576001600160a01b0361112e61190c565b611136611b13565b16611142811515611a42565b6001600160a01b036002548273ffffffffffffffffffffffffffffffffffffffff19821617600255167f05f472e59b83f0c85014d6a7cd671172b33cf16294c73442fcb0fdc4bb2f36b8600080a3005b34610276576020600319360112610276576001600160a01b036111b361190c565b16600052601860205260206001600160a01b0360406000205416604051908152f35b346102765761047a6111e636611922565b6111ee611b13565b7fd1148eed154e83a9726ba99e44569959444cdd245759c5dc1dd5f6b662a4bb0760206001600160a01b03841692611227841515611a42565b801561131557836000526016825283604060002054801515806112ff575b61127f575b50600052601682524260406000205583600052601282526040600020600160ff198254161790556040519015158152a2611f3f565b6112b662015180916112936007548a611cb5565b60075484600052600f87526112ae60406000209182546119a9565b90554261199c565b0480156112f7575b60407fbed2e721199f29579fccd5fd78b46ec11f3136f6cfd1e46ce44cfeab9383e9e09160075490825191825286820152a2838761124a565b5060016112be565b5062093a8061130e824261199c565b1115611245565b8360005260128252604060002060ff1981541690558360005260168252600060408120556106a1565b34610276576000600319360112610276576020600754604051908152f35b34610276576020600319360112610276576001600160a01b0361137d61190c565b16600052600e6020526020604060002054604051908152f35b34610276576020600319360112610276576001600160a01b036113b761190c565b166000526013602052602060ff604060002054166040519015158152f35b34610276576000600319360112610276576020600854604051908152f35b34610276576020600319360112610276576001600160a01b0361141461190c565b1660005260116020526020604060002054604051908152f35b346102765760406003193601126102765761144661190c565b602435611451611b13565b6001811015806116ce575b1561168a576001600160a01b03821691611477831515611a42565b61148081611b55565b156116465782600052601760205260406000208260005260205260ff60406000205416611602576114d9908360005260176020526040600020836000526020526040600020600160ff1982541617905560055490611bac565b60055482600052600e6020526114f560406000209182546119a9565b9055817fd88fdc5ed03a23aa2944456eeb92a5d48553863e1afde4d94a559602112771516020600554604051908152a38060005260186020526001600160a01b0360406000205416801515806115e9575b61154c57005b8160005260196020526040600020600160ff1982541617905561157160065482611c33565b60065481600052601060205261158d60406000209182546119a9565b90557f3e555c80c86d940c198c007f11f8ca0cedcbc1f0b2f0b0a7405a67493dffe4dc602060065484847fb2dee5f49e7a09a5d7c95cd4dd5dc6410eea65d4e14519d6d3a6e14c8cf0e0e984604051858152a3604051908152a3005b5081600052601960205260ff6040600020541615611546565b606460405162461bcd60e51b815260206004820152601560248201527f4c6576656c20616c726561647920636c61696d656400000000000000000000006044820152fd5b606460405162461bcd60e51b815260206004820152601d60248201527f55736572206e6f7420656c696769626c6520666f7220726577617264730000006044820152fd5b606460405162461bcd60e51b815260206004820152601460248201527f5245574152445f5f496e76616c69644c6576656c0000000000000000000000006044820152fd5b50600a81111561145c565b346102765760006003193601126102765760206040516001600160a01b037f0000000000000000000000000000000000000000000000000000000000000000168152f35b3461027657602060031936011261027657600435611739611ad8565b611744811515611951565b33600052600b60205280604060002054106118c85733600052600b602052604060002061177282825461199c565b905533600052600d602052604060002061178d8282546119a9565b90556040517f40c10f1900000000000000000000000000000000000000000000000000000000815233600482015281602482015260208160448160006001600160a01b037f0000000000000000000000000000000000000000000000000000000000000000165af1908115610a4757600091611886575b5015611842576040519081524260208201527fdacbdde355ba930696a362ea6738feb9f8bd52dfb3d81947558fd3217e23e32560403392a260018055005b606460405162461bcd60e51b815260206004820152601360248201527f52657761726420636c61696d206661696c6564000000000000000000000000006044820152fd5b6020813d6020116118c0575b8161189f60209383611a01565b810103126118bc57519081151582036118b9575082611804565b80fd5b5080fd5b3d9150611892565b606460405162461bcd60e51b815260206004820152601b60248201527f5245574152445f5f496e73756666696369656e7442616c616e636500000000006044820152fd5b600435906001600160a01b038216820361027657565b6003196040910112610276576004356001600160a01b0381168103610276579060243580151581036102765790565b1561195857565b606460405162461bcd60e51b815260206004820152601260248201527f5245574152445f5f5a65726f416d6f756e7400000000000000000000000000006044820152fd5b91908203918211610c6b57565b91908201809211610c6b57565b60e0810190811067ffffffffffffffff8211176119d257604052565b7f4e487b7100000000000000000000000000000000000000000000000000000000600052604160045260246000fd5b90601f7fffffffffffffffffffffffffffffffffffffffffffffffffffffffffffffffe0910116810190811067ffffffffffffffff8211176119d257604052565b15611a4957565b606460405162461bcd60e51b815260206004820152601660248201527f5245574152445f5f496e76616c696441646472657373000000000000000000006044820152fd5b15611a9457565b606460405162461bcd60e51b815260206004820152601460248201527f5245574152445f5f556e617574686f72697a65640000000000000000000000006044820152fd5b600260015414611ae9576002600155565b7f3ee5aeb50000000000000000000000000000000000000000000000000000000060005260046000fd5b6001600160a01b03600054163303611b2757565b7f118cdaa7000000000000000000000000000000000000000000000000000000006000523360045260246000fd5b6001600160a01b031680600052601460205260ff60406000205416611ba65780600052601260205260ff604060002054169081611b90575090565b9050600052601360205260ff6040600020541690565b50600190565b906000918115611c2e577f6923e5879e7217b6481afa33e604ad52afcd215fb632497c2765f7368fa1a09d916001600160a01b036060921693848152600b60205260408120611bfc8382546119a9565b9055848152600c60205260408120611c158382546119a9565b90555060405190815260006020820152426040820152a2565b505050565b906000918115611c2e577f6923e5879e7217b6481afa33e604ad52afcd215fb632497c2765f7368fa1a09d916001600160a01b036060921693848152600b60205260408120611c838382546119a9565b9055848152600c60205260408120611c9c8382546119a9565b90555060405190815260026020820152426040820152a2565b906000918115611c2e577f6923e5879e7217b6481afa33e604ad52afcd215fb632497c2765f7368fa1a09d916001600160a01b036060921693848152600b60205260408120611d058382546119a9565b9055848152600c60205260408120611d1e8382546119a9565b90555060405190815260016020820152426040820152a2565b906000918115611c2e577f6923e5879e7217b6481afa33e604ad52afcd215fb632497c2765f7368fa1a09d916001600160a01b036060921693848152600b60205260408120611d878382546119a9565b9055848152600c60205260408120611da08382546119a9565b90555060405190815260036020820152426040820152a2565b906000918115611c2e577f6923e5879e7217b6481afa33e604ad52afcd215fb632497c2765f7368fa1a09d916001600160a01b036060921693848152600b60205260408120611e098382546119a9565b9055848152600c60205260408120611e228382546119a9565b90555060405190815260056020820152426040820152a2565b906000918115611c2e577f6923e5879e7217b6481afa33e604ad52afcd215fb632497c2765f7368fa1a09d916001600160a01b036060921693848152600b60205260408120611e8b8382546119a9565b9055848152600c60205260408120611ea48382546119a9565b90555060405190815260066020820152426040820152a2565b906000918115611c2e577f6923e5879e7217b6481afa33e604ad52afcd215fb632497c2765f7368fa1a09d916001600160a01b036060921693848152600b60205260408120611f0d8382546119a9565b9055848152600c60205260408120611f268382546119a9565b90555060405190815260046020820152426040820152a2565b7f4be847f8aaabddde8e8fe98eb5abe743236d75160ac686d09206ac662a346daf60406001600160a01b03611f7384611b55565b931692836000526015602052611f9981836000209060ff60ff1983541691151516179055565b83600052601460205260ff8260002054168251911515825215156020820152a2565b683635c9adc5dea0000010611fcc57565b606460405162461bcd60e51b815260206004820152601d60248201527f5245574152445f5f457863657373697665526577617264416d6f756e740000006044820152fdfea26469706673582212203dbbc9b32feec6f666411596dfa5ca1014e53df8000bd6f9091b337187debdea64736f6c634300081c0033",
  "linkReferences": {},
  "deployedLinkReferences": {}
}